:020000022000DC
:1030000000000120393202009132020093320200A6
:10301000953202009732020099320200000000004F
:103020000000000000000000000000009B320200D1
:103030009D320200000000009F320200A132020017
:10304000A16B0200359C0200A9320200AB320200E3
:10305000AD320200AF3202000D760200817902002B
:10306000F57C0200B7320200B9320200BB32020026
:10307000BD320200BF320200C1320200C332020080
:10308000C5320200F14F0200C9320200CB32020009
:1030900031500200CF32020021E3020005A30200FA
:1030A000D5320200D7320200D9320200DB320200F0
:1030B000DD320200DF320200A3320200A33202003E
:1030C000E1320200E3320200E5320200BD86020076
:0C30D000A57E0200EB320200ED3202008F
:1030DC00354936480A1A02D0072291438D463449A5
:1030EC0034480A1A06D00722914381F30988022238
:1030FC0082F3148830483149314A00F044F83148A1
:10310C003149324A00F03FF831483249324A00F036
:10311C003AF832483249334A00F035F832483349EC
:10312C00334A00F030F833483349344A00F02BF876
:10313C0033483449344A00F026F8344834490022E4
:10314C0000F02CF833483449002200F027F83348BB
:10315C003349091A082902DB002202604160314A16
:10316C0090471F481F49884205D00268043003B4B9
:10317C00904703BCF7E700208646EC460020002170
:10318C00294A9047FEE7884207D0521A05D00378A7
:10319C0001300B700131013AF9D17047884202D0ED
:1031AC0002700130FAE770470000012000F800209F
:1031BC000000012000000120C01003001C2B002087
:1031CC00B82B0020F0320200F032020074F2020040
:1031DC00C01003001C2B00201C2B002020F402002C
:1031EC0020F4020020F4020020F4020020F402007B
:1031FC0020F4020020F4020020F40200C0100300AE
:10320C005C110300B82B0020B82B0020B82B002039
:10321C00743B0020743B0020743B0020743B002066
:10322C00743D00205D320200D59602000F484FF02D
:10323C000701884385460E4880470E48016841F4D3
:10324C0070010160BFF34F8FBFF36F8FFFF740BF6B
:10325C0009480A490A4A884207D0521A05D003780D
:10326C0001300B700131013AF9D170470000012097
:10327C00C1D7020088ED00E06CF30200682A002040
:10328C001C2B0020FEE7FEE7FEE7FEE7FEE7FEE76D
:10329C00FEE7FEE7FEE7FEE7FEE7FEE7FEE7FEE7FA
:1032AC00FEE7FEE7FEE7FEE7FEE7FEE7FEE7FEE7EA
:1032BC00FEE7FEE7FEE7FEE7FEE7FEE7FEE7FEE7DA
:1032CC00FEE7FEE7FEE7FEE7FEE7FEE7FEE7FEE7CA
:1032DC00FEE7FEE7FEE7FEE7FEE7FEE7FEE7FEE7BA
:0432EC00FEE700BF3A
:1032F00008B508F0C7F900BF08BD00B589B0039054
:1033000002910192019B002B22D0002307930A23F4
:103310000693029A079B1344019A1946002008F06D
:103320003DF90590079A059B13440793019A059B65
:10333000D31A0193059B002B05D1069B013B0693F5
:10334000069B002B03D0019B002BE2D100E000BFC5
:1033500000BF09B05DF804FB00B585B00390029191
:10336000054B00934023054A0299039800F012F898
:1033700000BF05B05DF804FBFB320200B82B002053
:1033800082B0019000BF02B0704782B0019000BFD0
:1033900002B0704700B5A1B005900491039202936A
:1033A000049803F042F8039B1593029B16930023A5
:1033B000179300238DF8603000231993229B1A93F2
:1033C00000231F930FA91F9B0822049803F0E8F81D
:1033D00008231F93119B1293109B9BB2ADF84C30A6
:1033E00000238DF850309DF83C3003F00303DBB22E
:1033F000012B32D10F9BC3F395231D939DF83C30D5
:10340000C3F3C203DBB28DF84E309DF83C30C3F3FA
:103410008003DBB2002B14BF01230023DBB28DF845
:103420004F30BDF83C30C3F38313DBB21C931C9BBD
:103430009A0009A91F9B049803F0B2F81C9B9B00FB
:103440001F9A13441F9312AA09A915AB00931346A0
:103450001C9A1D9800F08AFE3BE09DF83C3003F07A
:103460000303DBB2022B34D1BDF83E30C3F3891322
:103470009BB21E939DF83C30C3F3C203DBB28DF8C0
:103480004E309DF83C30C3F38003DBB2002B14BFF9
:1034900001230023DBB28DF84F301E9B082B28BF81
:1034A00008231B9307A91F9B1B9A049803F078F825
:1034B0001F9A1B9B13441F931E9A1B9BD31A1E9388
:1034C00015AB12AA07A81B9900F0F2FE1E9B002B59
:1034D000E3D1049802F0B8FF00BF21B05DF804FB0F
:1034E00082B00190019B01225A7200BF02B0704766
:1034F00000B583B04FF0FF330193FFF7F9FE0421CD
:10350000084800F06DFD0190019B002B03DA06498D
:10351000412005F08FFD0348FFF7E2FF00BF03B035
:103520005DF804FB1C2B00202CF4020000B583B0D6
:1035300001900091019B1B681B68009901989847B6
:1035400000BF03B05DF804FB00B583B00190019BA0
:103550001B685B680198984700BF03B05DF804FBE7
:1035600082B001900B468DF80330019B9DF803203B
:103570001A7200BF02B0704782B00190019B1B7AA3
:10358000184602B0704782B00190019B01225A7226
:1035900000BF02B0704782B00190019B5B7A184671
:1035A00002B0704710B487B001900091019B009A5F
:1035B00053E8004F44EA020043E8000191F0000F95
:1035C000F6D1059404900391049B184607B05DF86A
:1035D000044B704710B487B001900091019B009A92
:1035E00053E8004F04EA020043E8000191F0000FA5
:1035F000F6D1059404900391059B184607B05DF839
:10360000044B704700B583B0019001210198FFF78A
:10361000C9FF0346184603B05DF804FB00B583B04C
:10362000019000210198FFF7D5FF0346184603B02B
:103630005DF804FB00B587B001901F4BFF229A6034
:103640001D4B00221A601C4B00225A601A4B0022AC
:10365000C3F81824184B0022C3F81424164B002278
:1036600083F81C24154802F045FE0490049B002BAF
:1036700001D0049B1CE0124A124BD31ADB080393BF
:10368000002305930FE0059A13465B0013449B004B
:103690001A460D4B13440293059B9AB2029B1A8063
:1036A000059B01330593059A039B9A42EBD30023B4
:1036B000184607B05DF804FBC82C0020BCF40200DB
:1036C00044F30200CCF20200682A0020024A034BB5
:1036D000D31ADB081846704744F30200CCF202000C
:1036E00000B587B001900B468DF803309DF803308C
:1036F000002B23D0FFF7EAFF04900023059317E087
:10370000059A13465B0013449B001A460E4B134464
:103710000393039B5B881A46019B1B689A4204D162
:10372000019B059A1A60002309E0059B013305936C
:10373000059A049B9A42E3D3052300E00023184630
:1037400007B05DF804FB00BF682A002000B585B013
:1037500001900B468DF803309DF8032001AB114614
:103760001846FFF7BDFF0346002B07D1019BDB0086
:10377000054A13440393039B1B6800E0002318468B
:1037800005B05DF804FB00BFCCF2020084B00190EC
:103790000B468DF80330019BDB00174A134402935C
:1037A0009DF80330013B032B1CD801A252F823F0F3
:1037B000C1370200C9370200D1370200DB370200EF
:1037C00002238DF80F3011E004238DF80F300DE047
:1037D000029B1B798DF80F3008E0029B5B798DF816
:1037E0000F3003E000238DF80F3000BF9DF80F303D
:1037F000184604B0704700BFCCF2020000B589B093
:103800004148FFF7FFFE4148FFF7FCFE404B5B6875
:1038100007933F4B9B680493079A049B1340023322
:103820009B003B4A1344043306931BE0079B013380
:103830000793069B5B88C3F389139BB21A46069BCA
:103840001B88C3F389139BB213441A46079B134486
:103850000793079A049B134002339B002C4A13449E
:1038600004330693069B1B7803F00303DBB2002BA3
:10387000DCD00023059311E0079B5A1C0792049AA1
:103880001340059A920069460A44214902339B007D
:103890000B445B681360059B01330593059B012B6B
:1038A000EAD99DF80030C3F30103DBB2012B0CD041
:1038B000022B14D1BDF80230C3F389139BB203333A
:1038C0009B08079A134407930FE0BDF80030C3F339
:1038D0008313DBB21A46079B1344079305E00D4997
:1038E00040F24D1005F0A6FB00BF0848FFF796FE1A
:1038F0000390039B002B02D0054A079B536000BF37
:1039000009B05DF804FB00BFE0300020DC3000208F
:10391000C82C0020E0F4020010B586B0039002919C
:1039200001920093039B1B0CADF81630BDF81640B6
:10393000FFF7CCFE03469C4204D323494FF4B270F8
:1039400005F078FB009B5A1C089B1340BDF816201D
:103950001E4902339B000B445A60009A089B134097
:1039600002339B00194A134404330493039B1B093D
:1039700003F00103D9B2049A137861F38203137040
:10398000039B03F00703D9B2049A137861F3C503CC
:103990001370019B03F00F03D9B2049A138861F3EB
:1039A00089131380029BC3F31501049A136861F312
:1039B0009F231360049A1378012161F301031370AC
:1039C00000BF06B010BD00BFE0F40200C82C00200C
:1039D00000B58BB001900091019B02330893022344
:1039E000079301238DF81B3000238DF80F300DF164
:1039F0000F03184601F04CFC214B1A68009B1A601B
:103A00001F4B9A681E4B59681D4B1B68CB1A1344F9
:103A100001330993089A079B134405930BE0FFF7C2
:103A2000EDFE174B9A68164B5968154B1B68CB1A5D
:103A3000134401330993059A099B9A42EFD8104B1E
:103A40001A680F4B9B68134002339B000C4A1344C7
:103A500004330493049A137843F003031370084B60
:103A60001A68089B1344064A13609DF80F301846E5
:103A700001F024FC9DF81B3018460BB05DF804FBE8
:103A8000C82C002000B58BB00590049103920293DE
:103A90001F4B9B68079306AB19460298FFF798FFE8
:103AA0000346002B24D0069B02330993002308937E
:103AB00011E0089B9B00039A1A44099B591C099129
:103AC00007990B401268124902339B000B445A605D
:103AD000089B01330893089A029B9A42E9D3069AFD
:103AE000079B00931346029A04990598FFF714FF69
:103AF000074B93F81C34002B05D000BF00F07AF878
:103B00000346002BFAD100BF0BB05DF804FB00BFE9
:103B1000C82C002000B583B0019000910023002242
:103B200000990198FFF7AEFF00BF03B05DF804FBFA
:103B300000B587B0039002910192019B059305AAFD
:103B4000012302990398FFF79DFF00BF07B05DF8BE
:103B500004FB00B587B00390029101920093019B92
:103B60000493009B059304AA022302990398FFF78C
:103B700089FF00BF07B05DF804FB00B589B0039072
:103B8000029101920093019B0593009B06930A9B6F
:103B9000079305AA032302990398FFF773FF00BF59
:103BA00009B05DF804FB00B589B003900291019261
:103BB0000093019B0493009B05930A9B06930B9B28
:103BC000079304AA042302990398FFF75BFF00BF41
:103BD00009B05DF804FB0000054B5A68044B1B68F4
:103BE0009A420CBF01230023DBB21846704700BF86
:103BF000C82C002000B599B0FFF7EEFF0346002B5C
:103C000001D00023B2E1AB4B0022C3F81824BFF36C
:103C10004F8FA84B5B681793A64B9B681093179A1E
:103C2000109B134002339B00A24A134404331693A3
:103C3000002315930023149300230F931BE0179B7D
:103C400001331793169B5B88C3F389139BB21A4603
:103C5000169B1B88C3F389139BB213441A46179B08
:103C600013441793179A109B134002339B00914AF9
:103C7000134404331693169B1B7803F00303DBB243
:103C8000002BDCD00023139311E0179B5A1C1792D2
:103C9000109A1340139A920002A90A4485490233EC
:103CA0009B000B445B681360139B01331393139BBE
:103CB000012BEAD99DF8083003F00303DBB2022B95
:103CC00040F09C80BDF80A30C3F389139BB20E9379
:103CD000BDF80A30C3F389139BB2502B28BF502381
:103CE0009BB20D930D9BC3F309039AB2BDF80A3042
:103CF00062F38F13ADF80A300D9B08330C939DF8D7
:103D00000830C3F3C203DBB20F930C996A4802F088
:103D1000FCFA1590159B002B00F0E080159802F03E
:103D200084FB02A9149B0822159802F027FC149B1F
:103D300008331493179BDA43109B134001339B0005
:103D40000B930D9A0B9B9A4242D90B9B002B08D0E8
:103D5000179A109B134002339B00564A13440433B6
:103D600000E0564B0A930B9B002B02D00B9BDBB25F
:103D700001E00D9BDBB28DF827300B9B002B01D0AF
:103D80004E4B00E0002308930B9B002B06D00D9BAD
:103D9000DAB20B9BDBB2D31ADBB200E000238DF862
:103DA0001F309DF82720149B0A99159802F0E6FB16
:103DB0009DF82730149A13441493089B002B16D0B7
:103DC0009DF81F20149B0899159802F0D7FB0EE070
:103DD000179A109B134002339B00364A1344043356
:103DE0000693149B0D9A0699159802F0C7FB0E9B3B
:103DF00003339B08179A134417936FE09DF808301C
:103E000003F00303DBB2012B5AD1BDF80830C3F332
:103E10008313DBB2062B28BF0623DAB2BDF80830C5
:103E200062F38913ADF80830BDF80830C3F383138B
:103E3000DBB2023305939DF80830C3F3C203DBB253
:103E40000F93059B9B0019461B4802F05EFA1590E4
:103E5000159B002B42D0159802F0E7FA02A9149B9B
:103E60000822159802F08AFB149B08331493002350
:103E7000139314E0179B5A1C1792109A13400233A5
:103E80009B000C4A1344191D149B0422159802F040
:103E900075FB149B04331493139B01331393BDF8E8
:103EA0000830C3F38313DBB21A46139B9342E1D36A
:103EB00014E000BFC82C0020BCF40200D42C002069
:103EC0009DF8083003F00303DBB2032B06D1294B26
:103ED000D3F81834002B01D1002347E0159B002BA9
:103EE0003ED0244BD3F810341293224BD3F818341D
:103EF000002B1AD0159802F0A7FA31E000238DF8B4
:103F000047301298FFF747FB0346002B02D00123EE
:103F10008DF847309DF84730002B03D01599129843
:103F2000FFF704FB129B5B681293129B002BE5D1F9
:103F3000159802F089FA00238DF807300DF1070378
:103F4000184601F0A5F90B4BD3F81834002B02D119
:103F5000084A179B53609DF80730184601F0AEF9E8
:103F6000FFF73AFE034683F00103DBB2184619B0AF
:103F70005DF804FBC82C002000B585B00023039336
:103F800022E0164BD3F81034029301238DF807304A
:103F90000EE00298FFF7F0FA03461A46039B93429D
:103FA00003D100238DF8073005E0029B5B68029384
:103FB000029B002BEDD19DF80730002B01D0039B15
:103FC00007E0039B01330393039B092BD9DD4FF0DB
:103FD000FF33184605B05DF804FB00BFC82C002075
:103FE00000B585B001900B468DF80330FFF7C4FF94
:103FF0000390039BB3F1FF3F01D1039B1EE0039BA2
:10400000DBB219460198FFF7ABFA0E4BD3F8103428
:10401000002B07D10B4A019BC2F81034019B0022F0
:104020005A600AE0074BD3F810345A68019B5A6073
:10403000044BD3F81034019A5A60039B184605B01C
:104040005DF804FBC82C002000B583B00C4BD3F8FE
:10405000103401930A4B012283F81C2408E00198D4
:10406000FFF791FA0198FFF76FFA019B5B680193E4
:10407000019B002BF3D100BF03B05DF804FB00BF30
:10408000C82C002010B582B001900091019BDB7913
:1040900083F00103DBB2002B28D0019B1B7A002B9D
:1040A00012D0019B9B881A46019B9B7919461046AA
:1040B000FFF76CFB03461A460E4B53F822301A46A4
:1040C0000D49009801F0C4FA019B9B791A460B4BED
:1040D00053F82240019B9B8800211846FFF736FBCE
:1040E000034622460649009801F0B2FA00BF02B02A
:1040F00010BD00BF3C2B0020D0F50200282B002073
:10410000D4F5020000B585B00390029113468DF8F6
:104110000730039BDB7983F00103DBB2002B0FD068
:10412000039B1B7A002B06D00D4B1B681A460D49CA
:10413000029801F08DFA0C49029801F089FA07E023
:104140009DF80730002B03D00749029801F080FA50
:10415000029801F05BFA00BF05B05DF804FB00BFF8
:104160003C2B0020D0F50200E0F5020030B58BB00A
:1041700007900691059204930E9B1B7B8DF82730C8
:104180000E9B00221A730E990498FFF77BFF059B84
:10419000062B7FD801A252F823F000BFB9410200DC
:1041A000C3410200D3410200E74102000542020080
:1041B0002D4202005D42020007990E9801F048FA74
:1041C00069E0069B1B681A4607990E9801F040FAB1
:1041D00061E0069B1A68069B04331B6807990E98DA
:1041E00001F036FA57E0069B1A68069B04331968FB
:1041F000069B08331B6800930B4607990E9801F045
:1042000027FA48E0069B1968069B04331868069B4A
:1042100008331B68069A0C32126801920093034619
:104220000A4607990E9801F013FA34E0069B1868C5
:10423000069B04331C68069B08331B68069A0C32E5
:104240001268069910310968029101920093234681
:10425000024607990E9801F0FBF91CE0069B1C68CA
:10426000069B04331D68069B08331B68069A0C32B4
:104270001268069910310968069814300068039096
:104280000291019200932B46224607990E9801F065
:10429000DFF900E000BF00220E990498FFF732FF1B
:1042A0000E9B9DF827201A7300BF0BB030BD00BFD6
:1042B00000B587B00390029101920093029B082BF6
:1042C0005CD8009B1B7B8DF81330009B00221A7377
:1042D00000990198FFF7D6FE0023059314E0059A94
:1042E000029B9A4209D2039A059B13441B781A46F3
:1042F0002449009801F0ACF903E02349009801F04B
:10430000A7F9059B01330593059B072BE7D91F49A7
:10431000009801F09DF90023059322E0059A029B85
:104320009A4217D2039A059B13441B788DF81230DA
:104330009DF8123018460AF00FFB0346002B02D0FE
:104340009DF8123000E02E231A461149009801F022
:104350007FF903E00F49009801F07AF9059B0133DA
:104360000593059B072BD9D9012200990198FFF7E6
:10437000C9FE009B9DF813201A7300E000BF07B030
:104380005DF804FBE4F50200ECF50200F0F5020034
:10439000F4F50200F8F5020000B589B0039002912F
:1043A0000192029B9BB2ADF81430019B0693039BD4
:1043B000079305AB1A46002144F2010000F050F8C3
:1043C00000BF09B05DF804FB86B003900291019232
:1043D00001238DF817309DF81730204A039B136096
:1043E0001E4A029B53601D4A019B9360039B44F24B
:1043F0000102934213D0039B44F20202934222D162
:10440000019B164AD360154BDB681B881A46134B79
:104410009A61124BDB685B68104AD36113E0019B21
:104420000E4A13610D4B1B699B680C4A53610B4B81
:104430001B691B881A46094B9A61084B1B695B680C
:10444000064AD36100BF72B600BF9DF81730DBB2D9
:10445000002BFAD162B600BF06B07047E8300020EA
:1044600030B589B0059004910392FFF7EDFD00BFD0
:10447000FFF7C0FB0346002BFAD1059B41F2010276
:1044800093421DD0059B41F20102934203D8059B44
:10449000012B0BD04CE0059B44F20102934229D042
:1044A000059B44F20202934214D041E02D4B1B883D
:1044B0001B0443F001032C491846FFF72BFB42E095
:1044C000284B1B881B0443F0010328491846FFF7BB
:1044D00021FB38E0039B0793224B1B881B0443F00E
:1044E0000100079B5B681A46079B1B882049FFF762
:1044F00030FB28E0039B06931A4B1B881B0443F0F8
:104500000104069B9D68069B9B68184602F0B6F85E
:1045100003461946069B5B681A46069B1B88019357
:1045200000920B462A4613492046FFF73CFB0AE05F
:104530000C4B1B881B0443F00103049A0E491846D8
:10454000FFF7F6FA00BF0D4B1B6803F00103002BC9
:1045500000D0FFDE039A04990598FFF735FF00BFEE
:1045600009B030BD682A0020FCF502001CF60200EC
:1045700040F602005CF6020074F60200F0ED00E086
:1045800082B003468DF807309DF8073003F01F0214
:1045900005499DF907305B09012000FA02F241F854
:1045A000232000BF02B0704700E100E082B0034664
:1045B0008DF807309DF8073003F01F0206499DF97A
:1045C00007305B09012000FA02F2203341F8232072
:1045D00000BF02B0704700BF00E100E082B00346B8
:1045E0008DF807309DF8073003F01F0206499DF94A
:1045F00007305B09012000FA02F2403341F8232022
:1046000000BF02B0704700BF00E100E082B0034687
:104610008DF807309DF8073003F01F0206499DF919
:1046200007305B09012000FA02F2603341F82320D1
:1046300000BF02B0704700BF00E100E082B0034657
:1046400000918DF807309DF90730002B0CDA009BA4
:10465000DAB20C499DF8073003F00F03043B520116
:10466000D2B20B441A7609E0009BDAB206499DF9F2
:1046700007305201D2B20B4483F8002300BF02B0CE
:10468000704700BF00ED00E000E100E084B0019061
:10469000244B0393019B002B40D0234B1A680399B2
:1046A000019B00BF00BF00BF00BF00BF00BF00BF35
:1046B00000BF8A422FD000BF00BF00BF00BF00BFB5
:1046C00000BF00BF00BF00BF00BF00BF00BF00BFF2
:1046D00000BF00BF00BF00BF00BF00BF00BF00BFE2
:1046E00000BF00BF00BF00BF00BF00BF00BF00BFD2
:1046F00000BF00BF00BF00BF00BF00BF00BF00BFC2
:1047000000BF00BF00BF00BF00BF00BF00BF00BFB1
:1047100000BF00BF00BF013BC3D1019300BF04B085
:10472000704700BF0024F400A02B002000B583B028
:104730000190064A019BC2F8083507211120FFF7B6
:104740007DFF00BF03B05DF804FB00BF0010014017
:1047500008B50D4B4FF48032C3F844230A4B4FF495
:104760008032C3F804231120FFF750FF1120FFF718
:1047700007FF054B01221A602F20FFF787FF034B2D
:1047800001221A7000BF08BD00100140263200202F
:1047900008B51120FFF70AFF0E4B4FF48032C3F823
:1047A00048230C4B4FF48032C3F80823094B0122F5
:1047B0005A602F20FFF76AFF064B01229A60064BD2
:1047C00000221A602F20FFF761FF044B00221A70AD
:1047D00000BF08BD00100140183200202632002022
:1047E000024BD3F804351846704700BF0010014053
:1047F00082B001900091019A009BD31A23F07F436D
:10480000184602B07047000082B00190034A019B35
:10481000C2F8403500BF02B0704700BF0010014031
:1048200086B00190284B1B68002B03D1264A019BC0
:10483000136045E0019B1A68234B1B681B689A4272
:1048400010D8214B1B681968019B1A681E4B1B6806
:104850008A1A1A601C4B1A68019BDA611A4A019B7A
:1048600013602DE0019B1B680393174B1B68059396
:10487000154B1B68049309E0049B1B68039AD31A29
:104880000393049B0593049BDB690493049B002B17
:1048900004D0049B1B68039A9A42EDD8049B002B1A
:1048A00005D0049B1A68039BD21A049B1A60019BD3
:1048B000039A1A60019B049ADA61059B019ADA61F6
:1048C00000BF06B0704700BF1432002000B587B0AB
:1048D00001902A4B1B680393284B1B680593059B8B
:1048E000049308E0049A019B9A4208D0049B059324
:1048F000049BDB690493049B002BF3D100E000BF11
:10490000049B002B01D1002333E0059A049B9A42BB
:1049100014D11A4B1B68DB69184A1360174B1B68CC
:10492000002B0BD1164B01229A60164B00221A6005
:10493000154B01221A702F20FFF7A8FE049B1B685D
:104940000293049BDA69059BDA61059BDB6904939A
:10495000049B002B05D0049B1A68029B1A44049BFD
:104960001A60064B1B68039A9A4214BF0123002366
:10497000DBB2184607B05DF804FB00BF143200201C
:1049800000100140183200202732002008B5112005
:10499000FFF724FE00BF08BD08B51420FFF71EFE78
:1049A00000BF08BD00B583B00190019B5B69019A0F
:1049B00092691046984700BF03B05DF804FB000001
:1049C00000B585B02B4B1B68002B4ED00023019304
:1049D000FFF706FF0246284B1B6819461046FFF7F3
:1049E00007FF0290234B1B6803931DE0039B1B688A
:1049F000029A9A421CD3039B1B68029AD31A029311
:104A0000039B1B68019A13440193039B0093039B30
:104A1000DB690393009B1B7C002B05D0009B0022CD
:104A20001A740098FFF7BEFF039B002BDED100E055
:104A300000BF124B1A78124B1B789A420CD1104BC4
:104A40001B780133DAB20E4B1A700D4B1B78022B18
:104A500002D10B4B00221A70094B1B781946094AE8
:104A6000019B42F82130FFF797FF00BF05B05DF8CA
:104A700004FB00BF14320020183200202432002032
:104A8000253200201C32002082B00190184B1A7889
:104A9000184B1B789A4223D0154B1B780133DAB29E
:104AA000134B1A70124B1B78022B02D1104B0022B1
:104AB0001A700F4B1B781A460F4B53F82220019B9C
:104AC0001A60019B1A680D4B1B6813440B4A136054
:104AD0000A4B1B6823F07F43084A1360012303E05D
:104AE000019B00221A600023184602B0704700BFE5
:104AF00024320020253200201C32002018320020F1
:104B000088B00390029101920023079338E0204B74
:104B10001B680693069B1B68039A9A4206D2069B63
:104B20001A68039BD21A069B1A602DE0069B1B682D
:104B3000039AD31A0393069B1B68079A134407939F
:104B4000069B00221A60124B1B680593069BDB69CB
:104B50000F4A1360069BDB68002B11D0029A079B5B
:104B6000134423F07F42069B5A60069BDA68069B3B
:104B70009A60019B1A68069BDA61019B059A1A608C
:104B8000034B1B68002BC2D100BF08B0704700BFA9
:104B90001432002000B589B0019000238DF81F3039
:104BA000664B1B680593AAE0019B002B05D0019B77
:104BB0000693069BDB69019361E0614B1B781A4603
:104BC00013465B001344DB005D4A13440433049333
:104BD0005B4B1B780133DAB2594B1A70584B1A7879
:104BE000574B9B789A4202D1554B00221A70049B76
:104BF0005B680693049B1B78022B04D0032B1BD00D
:104C0000012B1FD01DE0049B5B681846FFF75EFE7A
:104C10000346002B02D001238DF81F30069B002293
:104C20001A746CE0454B1B680393039B00221A74B3
:104C3000039BDB69414A1360404B1B68002BF1D199
:104C40005DE05CE000BF069B1B7C002B00D056E0C3
:104C5000049B9A68069B5A60049BDA68069B9A60DC
:104C6000049B1A69069BDA60049B5A69069B9A6149
:104C7000344B1B78002B02D0069B00225A60069B07
:104C80005A68314B1B68D31A23F07F432F4A934253
:104C90000ED8069B5A682C4B1B6819461046FFF726
:104CA000A7FD0246069B9B681A44069B1A6017E004
:104CB000254B1A68069B5B6819461046FFF798FD5E
:104CC0000290069B9B68029A9A4206D2069B9A68BB
:104CD000029BD21A069B1A6002E0069B00221A6011
:104CE000069B00225A60069B00229A60069B0122C6
:104CF0001A74069B0022DA610698FFF791FD019B6A
:104D0000002B7FF451AF0E4B1A780D4B5B789A4213
:104D10007FF44AAF9DF81F30002B04D1074B1B686E
:104D2000059A9A4201D0012300E0002303F0010319
:104D3000DBB2184609B05DF804FB00BF1432002056
:104D4000083100202732002018320020FEFF7F00AB
:104D500010B588B00190274B1B68002B44D0254B21
:104D60001B681B680793FFF73BFD0690224B1B68EF
:104D7000059305990698FFF73BFD0346033304931B
:104D80001E4B1B7883F00103DBB2002B01D0FFF731
:104D9000DFFC049A079B934238BF1346059A1344DD
:104DA0000593059B23F07F4305930598FFF72CFDA2
:104DB000FFF716FD039006990398FFF719FD0346C8
:104DC000DC1C06990598FFF713FD03469C420DD99C
:104DD000FFF706FD03461846FFF716FD2F20FFF7E5
:104DE00055FCFFF7D3FD01E0FFF7D2FC00BF08B090
:104DF00010BD00BF143200201832002026320020DF
:104E000000B587B00023019300238DF81730194BAC
:104E10001B680493184B1B6803936B461846FFF7F7
:104E200033FE03468DF80B309DF80B30002B08D075
:104E3000009B01AA04991846FFF762FE01238DF832
:104E40001730019B1846FFF7A5FE0346002B02D042
:104E500001238DF817309DF81730002B02D00398EE
:104E6000FFF776FF054B00221A7000BF07B05DF810
:104E700004FB00BF1832002014320020273200202B
:104E800082B003468DF80730034A9DF8073053700F
:104E900000BF02B0704700BF0831002084B001900D
:104EA000144B5B7801338DF80F30124B9B789DF8D3
:104EB0000F209A4202D100238DF80F300D4B1B7842
:104EC0009DF80F209A4201D100230FE0019B9DF82D
:104ED0000F201A70074B5B781A4613465B00134489
:104EE000DB00044A134404330293029B184604B0C7
:104EF000704700BF0831002000B589B003900291CF
:104F0000019200930023079300238DF816300DF1D2
:104F10001603184600F0BCF90DF117031846FFF709
:104F2000BDFF0690069B002B02D10423079318E0D7
:104F3000069B01221A70069B039A5A60FFF750FCE9
:104F40000246069B9A60069B029ADA60069B019ACB
:104F50001A61069B009A5A619DF817301846FFF7B0
:104F60008FFF9DF81630184600F0A8F9079B002B1C
:104F700001D1FFF711FD079B184609B05DF804FB4E
:104F800000B587B001900B468DF8033000230593E0
:104F900000238DF80E300DF10E03184600F078F95D
:104FA0000DF10F031846FFF779FF0490049B002BC7
:104FB00002D1042305930BE0049B9DF803201A7093
:104FC000049B019A5A609DF80F301846FFF758FF6E
:104FD0009DF80E30184600F071F9059B002B01D1A9
:104FE000FFF7DAFC059B184607B05DF804FB0000EC
:104FF00008B50E4B0022C3F840210C4B0022C3F829
:1050000044210A4B0022C3F84821084B0022C3F870
:105010004C21064B0022C3F80021044B0022C3F8A8
:105020000421FFF7CDFC00BF08BD00BF0010014008
:1050300008B5FFF7E5FE00BF08BD000008B5FFF7A3
:10504000A7FB134B00221A70114B00225A70104B11
:105050000B229A700F4B00221A600F4B00221A701D
:105060000E4B00221A701420FFF7D0FA07211420EB
:10507000FFF7E4FA1420FFF783FA0020FFF756FB4E
:10508000FFF7AEFB0246064B1A600023184608BD28
:105090000831002014320020243200202532002064
:1050A0001832002086B003900B4601928DF80B3029
:1050B000134B9B78002B01D108231EE0019B002B92
:1050C00001D1072319E0039B002B01D1072314E032
:1050D000039B1B681B7C002B01D008230DE0039B66
:1050E0001B680593059B00221A74059B9DF80B20F5
:1050F0005A74059B019A5A610023184606B07047FE
:105100000831002000B587B0039002910192039B03
:105110000593144B9B78002B01D108231EE0039BC1
:10512000002B01D1082319E0029B042B01D807238F
:1051300014E0059B5B69002B01D108230EE0059B61
:105140005B7C012B01D1029B00E000230493019BB7
:10515000049A02990598FFF7CFFE0346184607B058
:105160005DF804FB0831002000B585B00190019B7B
:1051700003930D4B9B78002B01D1082310E0019B7A
:10518000002B03D0039B5B69002B01D1082307E0B0
:10519000039B00221A7402210398FFF7F1FE0346D5
:1051A000184605B05DF804FB0831002082B0EFF32B
:1051B00010830093009B019372B6019B184602B0C6
:1051C000704762B600BF704700B585B00190FFF729
:1051D000EDFF0390164B9B68002B1BD1144B012253
:1051E0009A60144BD3F88020134B1340104A13607D
:1051F000104B114AC3F880200E4BD3F884300C4A70
:1052000053600C4B4FF0FF32C3F88420019B002207
:105210001A7002E0019B01221A70039B002B01D13E
:10522000FFF7CFFF0023184605B05DF804FB00BF71
:105230002832002000E100E0FC06FFBD00B585B08B
:1052400003468DF80730104B9B68002B16D09DF855
:105250000730002B12D1FFF7A9FF03900B4A0A4B2E
:105260001B681360094A084B5B685360064B0022B9
:105270009A60039B002B01D1FFF7A3FF0023184680
:1052800005B05DF804FB00BF2832002000E100E01B
:1052900000B583B0019000F02BF80346012B03D03A
:1052A0000549432003F0C6FE0198FFF78DFF00BFBC
:1052B00003B05DF804FB00BF8CF6020000B583B0BC
:1052C00003468DF8073000F013F80346012B03D096
:1052D0000649512003F0AEFE9DF807301846FFF74F
:1052E000ADFF00BF03B05DF804FB00BF8CF6020009
:1052F00084B0EFF305830193019BC3F30803039389
:10530000039B002B0DD1EFF314830093009B0293BA
:10531000029B03F00103002B0CBF01230023DBB22F
:1053200000E00123184604B0704786B00190009158
:10533000019B53E8021F1FFAA1F2D888824202BFE4
:10534000BFF32F8F00230DE0D88902449889824251
:1053500028BF121AC1EA024243E802200028E8D11D
:105360004FF001038DF80F30059002910492029ADC
:10537000009B1A609DF80F30DBB2184606B07047EC
:1053800084B00190019951E8023FC3EA234341E808
:105390000232002AF7D10392029300BF04B0704793
:1053A00000B583B001900091009B19460198FFF76A
:1053B000BCFF0346002B05D0019B1B68009A528856
:1053C000134400E00023184603B05DF804FB00B569
:1053D00083B001900091009B1A88009B5B889A42E1
:1053E00004D10198FFF7CCFF012300E00023184609
:1053F00003B05DF804FB000000B583B001900B46DC
:105400008DF80330019B002B03D10849AF2003F036
:1054100011FE019BDA689DF803300199098A01FBAE
:1054200003F31344184603B05DF804FB0CF70200C5
:1054300000B583B001900091019B002B03D1084976
:10544000BC2003F0F7FD009B019AD2689B1A019AD9
:10545000128AB3FBF2F3DBB2184603B05DF804FB2B
:105460000CF7020000B585B00190019B002B01D123
:105470000E2348E0019B1B68002B03D12449C62062
:1054800003F0D8FD019B5B68002B03D12049C720A6
:1054900003F0D0FD019B9B68002B03D11C49C82061
:1054A00003F0C8FD019BDB68002B03D11849C9201C
:1054B00003F0C0FD019B1B8A002B03D11449CA20B5
:1054C00003F0B8FD019B9A68019B5B68D31A8DF8C5
:1054D0000F30019B1B68019A52681A6007E0019B1C
:1054E0001A681368591C11609DF80F201A709DF8F6
:1054F0000F305A1E8DF80F20002BF0D1019B1B6836
:1055000000221A710023184605B05DF804FB00BFA5
:105510000CF7020000B585B00190019B002B03D170
:105520001F49EC2003F086FD0023039300238DF830
:105530000A300DF10A031846FFF7AAFE019B1B680B
:105540001A68019B5B689A421FD9019B1B681A6805
:10555000013A1A601B681B7819460198FFF74CFF47
:105560000390019B9A68019B1B681B68D31A8DF8F6
:105570000B30019B1B681B799DF80B209A4204D9C4
:10558000019B1B689DF80B201A719DF80A30184684
:10559000FFF794FE039B184605B05DF804FB00BFBF
:1055A0000CF7020010B584B001900091019B002B14
:1055B00004D115494FF4887003F03CFD009B002B8B
:1055C00004D1114940F2111003F034FD009B039304
:1055D00000238DF80B300DF10B031846FFF758FE32
:1055E000019B1B681C68621C1A6003990198FFF7F5
:1055F0001FFF034623709DF80B301846FFF75EFE31
:1056000000BF04B010BD00BF0CF7020000B583B0AE
:105610000190019B002B03D10C49312003F00AFDBE
:10562000019B9B68002B0CD0019B5B69019A106960
:10563000019A1168019A92689847019B00229A602A
:1056400000E000BF03B05DF804FB00BF80F702007C
:105650000EB400B584B00190019B002B03D1184912
:10566000422003F0E7FC019B5B69002B03D1144946
:10567000432003F0DFFC019B1B68002B03D1104982
:10568000442003F0D7FC019B5B68002B03D10C493D
:10569000452003F0CFFC059B002B0AD00023039389
:1056A00006AB039303AB1A460599019800F0B0F9D5
:1056B00000E000BF04B05DF804EB03B0704700BF2A
:1056C00080F7020000B583B001900B468DF80330DF
:1056D000019B1A68019B9B68581C019988601344C0
:1056E0009DF803201A70019B9A68019B5B689A429F
:1056F00002D30198FFF78AFF00BF03B05DF804FBF7
:1057000000B587B0039002910192009300230593A6
:10571000009B03F00103002B24D00BE0029B01331C
:105720000293059B013305939DF8133019460398A6
:10573000FFF7C8FF029B1B788DF813309DF81330DC
:10574000002BEBD106E0019B013B01932021039844
:10575000FFF7B8FF019A059B9A422ED9019B002BB7
:10576000F1D12AE0029B002B0BD0029809F0ABF993
:10577000059006E0019B013B019320210398FFF770
:10578000A1FF019A059B9A420FD9019B002BF1D1F1
:105790000BE0029B01330293059B013305939DF8B7
:1057A000133019460398FFF78DFF029B1B788DF885
:1057B00013309DF81330002BEBD100BF07B05DF81C
:1057C00004FB000000B589B00390029101920093A0
:1057D000029B07930123069307E0079A019BB2FB04
:1057E000F3F30793069B01330693079A019B9A42B2
:1057F000F3D2009A069B9A4201D9009B06930B9B19
:1058000003F00103002B22D10A9B002B1FD00B9B1E
:1058100003F00203002B06D0009B002B03D13023A2
:105820008DF8173002E020238DF8173008E00A9B2E
:10583000013B0A939DF8173019460398FFF742FF82
:105840000A9B002B03D0069A0A9B9A42EFD30123AE
:105850000793009B012B03D9009B013B009309E0B8
:10586000029A079BB2FBF3F30493049A019B9A42BA
:1058700000D205E0079B019A02FB03F30793E8E7D8
:10588000029A079BB2FBF3F30493049B079A02FB73
:1058900003F3029AD31A0293154A049B13441B780C
:1058A00019460398FFF70EFF079A019BB2FBF3F32B
:1058B0000793079B002BE3D10B9B03F00103002B05
:1058C00011D00A9B002B0ED006E00A9B013B0A93E5
:1058D00020210398FFF7F6FE0A9B002B03D0069ABF
:1058E0000A9B9A42F1D300BF09B05DF804FB00BFE8
:1058F00058F8020000B589B0059004910392029314
:10590000049B002BB8BF5B4206930123079307E07B
:10591000039B069A92FBF3F30693079B01330793CD
:10592000039B069A9A42F3DA029A079B9A4201D99C
:10593000029B07930A9B002B0AD0049B002B04DBDD
:105940000B9B03F00403002B02D00A9B013B0A933C
:105950000B9B03F00203002B02D0029B002B16D0FE
:105960000B9B03F00103002B11D10A9B002B0ED0DF
:1059700006E00A9B013B0A9320210598FFF7A2FE4F
:105980000A9B002B03D0079A0A9B9A42F1D3049BEF
:10599000002B07DA049B5B4204932D210598FFF747
:1059A00091FE08E00B9B03F00403002B03D02B2196
:1059B0000598FFF787FE0B9B03F00203002B19D01D
:1059C0000B9B03F00103002B14D1029B002B11D180
:1059D0000A9B002B0ED006E00A9B013B0A93302164
:1059E0000598FFF76FFE0A9B002B03D0079A0A9BCE
:1059F0009A42F1D304990B9B01930A9B0093029B5B
:105A0000039A0598FFF7DEFE00BF09B05DF804FBBE
:105A100000B58FB0059004910392059B002B04D133
:105A2000C8494FF49F7003F005FB059B5B69002B91
:105A300004D1C4494FF4A07003F0FCFA059B1B6825
:105A4000002B04D1BF4940F2411003F0F3FA059B4B
:105A50005B68002B04D1BB494FF4A17003F0EAFA54
:105A6000049B002B00F0ED81049B1B788DF83730F0
:105A7000049B013304939DF83730002B00F0D8814C
:105A80009DF83730252B40F0C78100230A9301236E
:105A90000C93049B1B788DF837309DF837302D2BF5
:105AA00004D0302B0AD02B2B10D017E00A9B43F0E8
:105AB00001030A93049B0133049312E00A9B43F011
:105AC00002030A93049B013304930AE00A9B43F008
:105AD00004030A93049B0133049302E000230C9314
:105AE00000BF0C9B002BD4D1002309939DF83730C5
:105AF0002A2B0CD1039B1B68191D039A11601B688C
:105B0000099A13440993049B013304931AE0049BFC
:105B10001B788DF837309DF837302F2B12D99DF830
:105B20003730392B0ED8049B01330493099A13465E
:105B30009B0013445B001A469DF837301344303BFA
:105B40000993D3E700230B93049B1B788DF8373020
:105B50009DF837302E2B1DD1049B01330493049BF9
:105B60001B788DF837309DF837302F2B12D99DF8E0
:105B70003730392B0ED8049B013304930B9A13460C
:105B80009B0013445B001A469DF837301344303BAA
:105B90000B93E4E7049B1B788DF837309DF8373082
:105BA0006C2B03D09DF83730682B07D1049B013351
:105BB0000493049B1B788DF83730EFE79DF837305E
:105BC000253B532B00F2238101A252F823F000BFA2
:105BD000055E02000F5E02000F5E02000F5E020013
:105BE0000F5E02000F5E02000F5E02000F5E0200F9
:105BF0000F5E02000F5E02000F5E02000F5E0200E9
:105C00000F5E02000F5E02000F5E02000F5E0200D8
:105C10000F5E02000F5E02000F5E02000F5E0200C8
:105C20000F5E02000F5E02000F5E02000F5E0200B8
:105C30000F5E02000F5E02000F5E02000F5E0200A8
:105C40000F5E02000F5E02000F5E02000F5E020098
:105C50000F5E02000F5E02000F5E02000F5E020088
:105C60000F5E02000F5E02000F5E02000F5E020078
:105C70000F5E02000F5E02000F5E02000F5E020068
:105C80000F5E02000F5E02000F5E02000F5E020058
:105C90000F5E02000F5E02000F5E0200915D0200C7
:105CA0000F5E02000F5E02000F5E02000F5E020038
:105CB0000F5E02000F5E02000F5E02000F5E020028
:105CC0000F5E02000F5E0200215D0200495D0200CE
:105CD0000F5E02000F5E02000F5E02000F5E020008
:105CE000495D02000F5E02000F5E02000F5E0200BF
:105CF0000F5E02000F5E02000F5E0200D15D020027
:105D00000F5E02000F5E0200B55D02000F5E020032
:105D10006D5D02000F5E02000F5E0200915D0200E9
:105D2000039B1B68191D039A11601B680C930C9B45
:105D30008DF823309DF8233019460598FFF7C2FCF3
:105D400066E000BFE8F70200039B1B68191D039A79
:105D500011601B680C930A9B0193099B00930B9B9A
:105D60000A220C990598FFF7C5FD51E0039B1B68BB
:105D7000191D039A11601B680C930C990A9B0193DF
:105D8000099B00930B9B0A220598FFF71BFD3FE040
:105D9000039B1B68191D039A11601B680C930C99D7
:105DA0000A9B0193099B00930B9B10220598FFF718
:105DB00009FD2DE0039B1B68191D039A11601B68E8
:105DC00007930A9B099A07990598FFF799FC1FE02A
:105DD000039B1B68191D039A11601B680C933021EB
:105DE0000598FFF76FFC78210598FFF76BFC0C997D
:105DF0000023019308230093082310220598FFF73E
:105E0000E1FC05E025210598FFF75CFC00E000BF00
:105E1000049B0133049305E09DF83730194605983B
:105E2000FFF750FC049B1B78002B7FF41DAE00E0B5
:105E300000BF059B1B7B002B04D00598FFF7E6FBFA
:105E400000E000BF0FB05DF804FB00BF00B585B0F7
:105E50000190019B002B03D0019B1B68002B28D1D4
:105E60000023039319E0039A13469B0013449B00FD
:105E70001A46154B13440193019B1B68002B09D054
:105E8000019B1B68DB69019898470346002B01D0F2
:105E9000012314E0039B013303930C4A0A4BD31AEA
:105EA0000B4AA2FB03231B09039A9A42DBD300236C
:105EB00005E0019B1B68DB6901989847034618467B
:105EC00005B05DF804FB00BF1C2B00201C2B00203C
:105ED000CDCCCCCC29DF704700BF184628DF7047F7
:105EE00000BF184600B589B001900091019B1B6866
:105EF0009B68002B31D003AB00221A605A609A6075
:105F0000DA601A61009B0493019B9B680793019BD5
:105F10001B79002B02D0012B0AD017E001238DF84A
:105F20000C30019B1B690593019B5B6906930DE097
:105F300002238DF80C30019BDB684FF4805202FB8A
:105F400003F30593019B5B69069300BF019B1B68EC
:105F50009B6803AA1046984700E000BF09B05DF8AF
:105F600004FB00B587B00190019B5A69019B9B69B6
:105F7000D31AB3F5805F28BF4FF4805305930422F2
:105F8000059BB3FBF2F3012B38BF01230593019B63
:105F90001A69019B9B6913440493019BDB681A46B1
:105FA000019B9B6913440393059A03990498FFF797
:105FB00091FF0346184607B05DF804FB00B583B0B7
:105FC0000190019BDA68019B1B6913441846FFF797
:105FD00085FF0346184603B05DF804FB08B5034B84
:105FE00003491846FFF7F3F900BF08BD343200201B
:105FF0005C32002008B5084B08491846FFF7D0F975
:106000000246074B1A60064B1B68002B14BF012386
:106010000023DBB2184608BD343200205C32002079
:106020005832002000B583B02A4B1B7A002B0BD1CD
:10603000FFF7E0FF034683F00103DBB2002B03D040
:10604000244B00225A6041E0224B02221A72224B5A
:106050001B681B79002B02D0012B07D00DE01E4BD3
:106060001B681846FFF77DFF019009E01A4B1B687B
:106070001846FFF7A3FF019002E00323019300BF3E
:10608000019B002B03D0019B112B0CD00FE0114B77
:106090001B7C83F00103DBB2002B16D00021022011
:1060A00000F06EF811E00B4B01221A720EE00A4B61
:1060B0001B6803211846FFF715FF064B00221A72D2
:1060C000044B00225A6000BF00E000BF03B05DF83F
:1060D00004FB00BF443200205832002084B00190FD
:1060E0001B4B0022DA60019B1B79002B02D0012B95
:1060F00019D028E0019B5A69019B9B69D31AB3F51B
:10610000805F28BF4FF480530393019B9A69039BE0
:106110001A44019B9A61019B9A69019B5B699A42AF
:106120000ED1012310E0019B1B695A1C019B1A61CF
:10613000019B1A69019B5B699A4203D1012303E029
:1061400000BF00E000BF0023184604B0704700BF46
:106150004432002082B00190084BDB680133074ACB
:10616000D360064BDB68082B04D9044B0022DA60AD
:10617000012300E00023184602B07047443200209B
:1061800000B585B001900091254B1B7A012B33D0CF
:10619000022B41D100238DF80F30019B022B03D03D
:1061A000019B032B09D011E01E4B1B681846FFF71B
:1061B00095FF03468DF80F3008E01A4B1B68184610
:1061C000FFF7C8FF03468DF80F3000BF9DF80F3072
:1061D000002B13D0124B00221A72124B1A68019B2B
:1061E000022B01D1002300E00D2319461046FFF7D2
:1061F00079FEFFF7F3FE01E000BF00E000BF084BAF
:106200005B7C83F00103DBB2002B02D0FFF70AFFB7
:1062100003E008F03DF800E000BF05B05DF804FBC6
:10622000443200205832002082B0034600918DF89D
:106230000730064B01225A74044B1B7A002B0CBF0B
:1062400001230023DBB2184602B07047443200201D
:1062500000B583B0034600918DF807309DF80730F4
:10626000012B03D09DF80730032B0DD1084B0022E2
:106270005A749DF80730012B0CBF01230023DAB2BA
:10628000034B1A74FFF7CEFE00BF03B05DF804FBAA
:106290004432002010B487B001900091019B009A15
:1062A00053E8004F04EB020043E8000191F0000FB7
:1062B000F6D1059404900391049B184607B05DF84D
:1062C000044B704710B487B001900091019B009A75
:1062D00053E8004FA4EB020043E8000191F0000FE7
:1062E000F6D1059404900391049B184607B05DF81D
:1062F000044B704700B583B001900198FFF7B2F8E6
:106300000346184603B05DF804FB00B58BB001905E
:106310000091019B1B8A043B0793009A079B13443F
:10632000DA1C079BB2FBF3F38DF81B300198FFF7E3
:10633000F1F80590059B002B01D1002338E0059B67
:1063400000221A71059B01225A71079B9AB2059B84
:10635000DA80059B09939DF81B30013B0493099B50
:10636000019A1A60002308931DE00198FFF7D2F804
:106370000390039B002B0ED0059B5B790133DAB2AF
:10638000059B5A71099B039A1A60039B019A1A6034
:10639000039B099304E0059800F00EF8002307E042
:1063A000089B01330893089A049B9A42DDD3059B0E
:1063B00018460BB05DF804FB00B58BB00190019B53
:1063C0000793079B5B798DF81B30019B08939DF821
:1063D0001B30013B05930023099305E0089B1B68D4
:1063E0000893099B01330993099A059B9A42F5D3B7
:1063F000089B1B680493019B0893002309930BE0FF
:10640000089B1B68039308990498FFF7CBF8039B3C
:106410000893099B013309939DF81B30099A9A420E
:10642000EED300BF0BB05DF804FB00B585B0019062
:10643000019B0393039B043301211846FFF72AFFB6
:1064400000BF05B05DF804FB00B587B00190019B6B
:106450000593059B043301211846FFF733FF0346DC
:10646000039303AB0493049B1B78002B02D1019888
:10647000FFF7A2FF00BF07B05DF804FB00B58DB0C9
:106480000390029101920093039B0693069BDB8885
:106490000593039B0B93009B1A1D059BB2FBF3F323
:1064A0000A93009B0433059AB3FBF2F2059901FBB2
:1064B00002F29B1A0993009A019B1A44059B13440C
:1064C000DA1C059BB2FBF3F38DF81330069B5B7966
:1064D0009DF813209A420AD92749BA2002F0AAFD52
:1064E00005E00B9B1B680B930A9B013B0A930A9BDD
:1064F000002BF6D100230893059A099BD31A079322
:10650000079A019B934228BF134607932DE09DF8FD
:106510003830002B0BD0029A089BD0180B9A099B9D
:1065200013440433079A194608F04FFA0AE00B9A0D
:10653000099B1344181D029A089B1344079A194695
:1065400008F043FA002309930B9B1B680B93019AF5
:10655000079BD31A0193089A079B13440893059A43
:10656000019B934228BF13460793019B002BCED17A
:1065700000BF0DB05DF804FB68F8020000B587B0FD
:10658000059004910392029300230093029B039AC7
:1065900004990598FFF772FF00BF07B05DF804FB90
:1065A00000B587B0059004910392029301230093F4
:1065B000029B039A04990598FFF760FF00BF07B09C
:1065C0005DF804FB00B583B001900091019B002BA6
:1065D00003D11049502002F02DFD009B002B03D168
:1065E0000C49512002F026FD019B009A1A60019B84
:1065F0001B681A68019B5A60019B5A68019B1B68C3
:106600005B689A4202D1019B00225A6000BF03B02E
:106610005DF804FBF8F9020000B583B00190019B1E
:10662000002B03D11449632002F004FD019B1B6879
:10663000002B03D11049642002F0FCFC019B5B6835
:10664000002B14D0019B5B681A46019B1B689B685A
:1066500013441A46019B5A60019B5A68019B1B68B0
:106660005B689A4204D1019B00225A6000E000BF9F
:1066700003B05DF804FB00BFF8F9020000B585B077
:106680000190019800F00EF80390039B002B01D0BD
:10669000039B00E0024B184605B05DF804FB00BF09
:1066A00084FA020086B00190164B0593164B0493B2
:1066B0001FE0049A059BD31ADB10DA0F13445B101A
:1066C000DB00059A13440393039B1B680293029A11
:1066D000019B9A4202D9039B04930AE0029A019B10
:1066E0009A4203D2039B0833059302E0039B5B6845
:1066F00004E0059A049B9A42DBD30023184606B0B7
:10670000704700BFA0FD020090FE020082B0019021
:106710000B46ADF80230019B1A68BDF8023001212A
:1067200001FA03F31A43019B1A6000BF02B07047DD
:1067300082B001900B46ADF80230019B1A68BDF89B
:106740000230012101FA03F3DB431A40019B1A6076
:1067500000BF02B0704782B001900B46ADF8023026
:10676000BDF80230012202FA03F31A46019B1340DE
:10677000002B14BF01230023DBB2184602B0704780
:1067800000B585B001900023ADF80E3010E0BDF8E3
:106790000E3019460198FFF7DEFF0346002B02D0AA
:1067A000BDF80E300AE0BDF80E300133ADF80E3002
:1067B000BDF80E301F2BEAD94FF6FF73184605B00F
:1067C0005DF804FB00B587B00590049111461A46A8
:1067D0000B46ADF80E3013468DF80D30BDF80E2087
:1067E0009DF80D300093134601220499059800F09E
:1067F00004F800BF07B05DF804FB00B587B0039054
:1068000002910192ADF80230039B002B3BD0029B1A
:10681000002B38D0019B002B35D0002305932FE0AF
:10682000059B5B00039A13441B88BDF802209A4223
:1068300023D1002304931BE09DF82030002B0AD0C5
:10684000049B9B00029A1344059A92B21146184683
:10685000FFF75CFF09E0049B9B00029A1344059A32
:1068600092B211461846FFF763FF049B013304936D
:10687000049A019B9A42DFD305E0059B01330593FF
:10688000059B1F2BCCD907B05DF804FB00B597B072
:1068900003900291019200230493029B002B1ED0CF
:1068A0000023159318E0159B9BB219460198FFF73A
:1068B00052FF0346002B0CD0159B5B00029A1A4432
:1068C000049B591C049112885B0016A90B4423F801
:1068D000442C159B01331593159B1F2BE3D9039B68
:1068E000184604AB4422194608F06FF8039817B015
:1068F0005DF804FB82B003468DF807309DF8073041
:1069000003F01F0206499DF907305B09012000FAD8
:1069100002F2203341F8232000BF02B0704700BFCD
:1069200000E100E082B001904FF08042019BC2F88C
:10693000083300BF02B0704782B003468DF80730BD
:106940009DF8073003F1804301221A6000BF02B0B6
:10695000704784B00346ADF80630BDF8063003F149
:10696000804300221A60BDF8063003F180431B68A3
:106970000393039B00BF04B0704782B00346ADF899
:106980000630BDF8063003F180431B68002B14BFAE
:1069900001230023DBB2184602B0704782B00346E1
:1069A0008DF807309DF807304FF0804203F0030365
:1069B000C2F8183500BF02B070474FF08043D3F8DB
:1069C00018341B0C03F00103002B14BF0123002318
:1069D000DBB218467047000082B003468DF80730DE
:1069E0000A4A9DF907305B0952F823209DF80730C9
:1069F00003F01F03012101FA03F31340002B14BF1E
:106A000001230023DBB2184602B0704700E100E02A
:106A100008B50020FFF7E0FF034683F00103DBB277
:106A2000002B03D00721002000F096F900BF08BD1D
:106A300008B507F049FC034683F00103DBB2002BE5
:106A400003D10949842002F0F5FA0C20FFF774FF06
:106A500000BFFFF7B2FF0346002BFAD1034B002221
:106A60009A7000BF08BD00BF98FE0200603200208F
:106A700000B583B000230193134B1B78002B02D089
:106A8000852301931BE0104B00229A600E4B0022DD
:106A90005A600D4B00221A610B4B0022DA60FFF79F
:106AA000B7FF07F011FC034683F00103DBB2002BB4
:106AB00002D00120FFF772FF034B01221A70019BE5
:106AC000184603B05DF804FB6032002084B00190EA
:106AD000019B1B680393039B002B03D0039B1A6845
:106AE000019B1A60039B184604B0704700B583B041
:106AF000164B1B78002B04D115494FF48E7002F011
:106B000099FA124BDB68002B04D1114940F21D1099
:106B100002F090FA00238DF807300DF107031846B4
:106B2000FEF7B6FB094BDB68013B084AD360074B15
:106B3000DB68002B01D1FFF77BFF9DF8073018467B
:106B4000FEF7BCFB00BF03B05DF804FB6032002021
:106B500098FE020000B585B003468DF807309DF819
:106B60000730002B02D10C4B039301E00B4B039336
:106B70000398FFF7ABFF0290029B002B06D0029B0D
:106B80005B689DF8072010469847F1E700BF00BFFB
:106B900005B05DF804FB00BF6832002070320020B1
:106BA00008B54FF48070FFF7E8FE0346002B0CD0C9
:106BB0004FF48070FFF7CDFE0120FFF7B3FE0E4BC0
:106BC00001225A700020FFF7C5FF4FF48270FFF7D3
:106BD000D4FE0346002B0CD04FF48270FFF7B9FEB1
:106BE0000220FFF79FFE044B01229A700120FFF75D
:106BF000B1FF00BF08BD00BF6032002000B583B008
:106C000001900091019B002B02D10020FFF7A2FF11
:106C100000BF03B05DF804FB00B585B003460091EA
:106C20008DF807309DF80730012B07D0032B24D0B7
:106C3000002B32D10020FFF75DFE2FE000238DF8FE
:106C40000F300DF10F031846FEF722FB154B1B7892
:106C500083F00103DBB2002B01D0FFF709FF114BDA
:106C6000DB6801330F4AD3600E4B01229A709DF806
:106C70000F301846FEF722FB10E00A4B1B78002B62
:106C800004D1094940F25B2002F0D4F90721002029
:106C900000F062F8FFF72AFF00E000BF00BF05B078
:106CA0005DF804FB6032002098FE020082B00346CB
:106CB0008DF807309DF8073003F01F0205499DF954
:106CC00007305B09012000FA02F241F8232000BFDF
:106CD00002B0704700E100E082B003468DF8073053
:106CE0009DF8073003F01F0206499DF907305B0944
:106CF000012000FA02F2603341F8232000BF02B005
:106D0000704700BF00E100E082B0034600918DF8BB
:106D100007309DF90730002B0CDA009BDAB20C49E2
:106D20009DF8073003F00F03043B5201D2B20B442D
:106D30001A7609E0009BDAB206499DF90730520144
:106D4000D2B20B4483F8002300BF02B0704700BFEB
:106D500000ED00E000E100E000B583B003460A4624
:106D60008DF8073013468DF806309DF80630012B5C
:106D700003D99DF80630032B0CD99DF80630042B5F
:106D800003D99DF80630072B04D90D494FF49270B2
:106D900002F050F99DF806209DF90730114618467B
:106DA000FFF7B2FF9DF907301846FFF795FF9DF9F1
:106DB00007301846FFF77AFF00BF03B05DF804FB09
:106DC00010FF020000B583B00346ADF80630BDF8F1
:106DD0000630184600F026F803461B68012B0CBF4E
:106DE00001230023DBB2184603B05DF804FB00B5B5
:106DF00085B00346ADF80630BDF80630184600F001
:106E000011F803461A4600231360BDF806301846F1
:106E100000F008F803461B680393039B00BF05B00E
:106E20005DF804FB82B00346ADF80630BDF80630CD
:106E300003F1804303F5C043184602B070470000D9
:106E400082B00190034A019BC2F8043300BF02B034
:106E5000704700BF0060004082B00190034BD3F840
:106E60000423019B1340184602B0704700600040A5
:106E700082B00190084A019B03F5A27352F82330B7
:106E8000054943F00102019B03F5A27341F8232059
:106E900000BF02B0704700BF0060004084B00390A4
:106EA000029113468DF80730144A039B03F5A27331
:106EB00052F82330114923F4473323F44073039AE3
:106EC00002F5A27241F822300C4A039B03F5A2732B
:106ED00052F82320029B1B0203F4F8519DF807305F
:106EE0001B0403F440330B4304491A43039B03F58B
:106EF000A27341F8232000BF04B070470060004037
:106F000082B00190054A019B03F5A27352F8233029
:106F10001B0A03F01F03184602B0704700600040D0
:106F200082B00190064A019B03F5A27352F8233008
:106F30001B0C03F00303DBB2184602B0704700BF1E
:106F40000060004000B583B00190019B1B681F2BBF
:106F500004D905494FF4E87002F06CF84FF0A043F3
:106F6000184603B05DF804FB88FF020000B585B049
:106F70000190084611461A4603468DF803300B4629
:106F80008DF8023013468DF8013001AB1846FFF73B
:106F9000D9FF03909DF803209DF802305B001A434F
:106FA0009DF801309B001A439DF818301B0242EAFD
:106FB00003019DF81C301B04019A1943039B02F541
:106FC000E07243F8221000BF05B05DF804FB00B585
:106FD00085B003900B468DF80B309DF80B200023F5
:106FE0000193002300931346002200210398FFF72A
:106FF000BDFF00BF05B05DF804FB00B585B0019092
:1070000001AB1846FFF79EFF0390019A039B02F520
:10701000E07253F8223023F002030293019A039B9B
:1070200002F5E072029943F8221000BF05B05DF846
:1070300004FB00B585B001900B468DF8033001AB21
:107040001846FFF77FFF0390019A039B02F5E07259
:1070500053F82230019A23F44031039B02F5E07289
:1070600043F82210019A039B02F5E07253F8223094
:107070009DF8032012041146019A1943039B02F55F
:10708000E07243F8221000BF05B05DF804FB00B5C4
:1070900085B0019001AB1846FFF754FF03900398A9
:1070A00000F020F80246019B22FA03F303F00103EB
:1070B000184605B05DF804FB00B585B0019001AB42
:1070C0001846FFF73FFF0390019A039B02F5E07219
:1070D00053F822301B0C03F00303DBB2184605B053
:1070E0005DF804FB82B00190019BD3F8103518467F
:1070F00002B0704700B587B00390029101924FF043
:10710000A0430493039A029B1344012B04D9124910
:107110004FF43A7001F08EFF039B059311E0059B3D
:107120009B0006AA134453F8083C1846FFF7DAFF01
:107130000246019B1A60019B04330193059B0133B6
:107140000593039A029B1344059A9A42E7D300BF22
:1071500007B05DF804FB00BF88FF020084B0019017
:107160000091009B0393019BDB080293019B03F0BA
:10717000070301930122019B02FA03F30399029A88
:107180000A4412781340184604B0704784B0019046
:107190000091009B0393019BDB080293019B03F08A
:1071A00007030193039A029B13441B785AB20121EF
:1071B000019B01FA03F35BB2134359B2039A029B9A
:1071C0001344CAB21A7000BF04B0704782B0019075
:1071D0000C4A019B1344303393F90030002B09DB38
:1071E000084A019B1344303393F90030072B01DC2C
:1071F000012300E0002303F00103DBB2184602B0D4
:10720000704700BF7432002082B00190064A019B93
:107210001344303393F90030072BCCBF01230023F4
:10722000DBB2184602B070477432002082B0019081
:10723000064A019B1344303393F90030DB43DBB241
:10724000DB09DBB2184602B0704700BF7432002081
:1072500084B00390029101928DF80330029B59B2E1
:107260000E4A039B134430330A461A700B49029BA3
:10727000019A41F823209DF8033083F00103DBB22B
:10728000002B08D0029B083B039A51B2034A1344D7
:107290000A4683F8502000BF04B0704774320020C3
:1072A00082B00190044A019B13443033FF221A70CC
:1072B00000BF02B0704700BF7432002082B001905E
:1072C000044A019B1344303393F90030184602B04E
:1072D000704700BF7432002082B00190034A019BC6
:1072E00052F82330184602B0704700BF74320020B5
:1072F00000B589B00390029113468DF80730FF2343
:107300008DF81F309DF80730002B01D0002300E0DE
:10731000082305939DF80730002B01D0082300E0D7
:107320000C230493059B069314E00F4A069B52F826
:107330002330B3F1FF3F0AD19DF80730029A069936
:107340000398FFF785FF069B8DF81F3006E0069B2C
:1073500001330693069A049B9A42E6D39DF91F30A7
:10736000184609B05DF804FB7432002082B0034671
:107370008DF807309DF80730094A4FF0FF3142F889
:1073800023109DF80730072B07D99DF80730083BDD
:10739000034A1344FF2283F8502000BF02B0704715
:1073A0007432002000B583B0214B93F85430002B89
:1073B00003D008230093009B36E000238DF80730AC
:1073C00009E09DF807301846FFF76AFF9DF807307F
:1073D00001338DF807309DF807301F2BF1D90023BA
:1073E0008DF8073009E09DF807301846FFF7BEFF1B
:1073F0009DF8073001338DF807309DF807300B2BCF
:10740000F1D907210620FFF7A7FC4FF4BE70FFF764
:10741000EEFC4FF00040FFF713FD054B012283F80F
:10742000542000230093009B184603B05DF804FB32
:107430007432002000B587B0039002910192039B43
:107440001F2B04D92B4940F2F71001F0F3FD002364
:1074500005930398FFF7EAFE0346002B02D00823AA
:10746000059341E0029BDB781A4601990398FFF7E8
:107470003FFF03468DF813309DF91330B3F1FF3F02
:1074800030D0029B9B78002B03D00398FFF7B5FD0B
:1074900005E0029B5B7819460398FFF798FD029B75
:1074A000DB78002B08D09DF91300029B1B781A464D
:1074B0000399FFF7F3FC17E09DF91330083B0E4AE0
:1074C000134493F95010029B1B789B015AB29DF90B
:1074D0001330083B0A4351B2074A13440A4683F863
:1074E000502001E004230593059B184607B05DF882
:1074F00004FB00BFC8FF02007432002000B587B053
:1075000001900B468DF80330019B1F2B04D93D4998
:1075100040F2252001F08EFD0198FFF787FE03461B
:10752000002B04D1374940F2262001F083FD019859
:10753000FFF76AFE0346002B2FD00198FFF7BEFE2F
:107540000346083B304A134493F950308DF8163007
:107550009DF816309B098DF815309DF81530032BDA
:107560000BD10198FFF793FD0346002B01D00323B5
:1075700000E002238DF8173008E09DF81530012B4C
:1075800001D1022300E003238DF817309DF8173056
:1075900019460198FFF74DFD30E00198FFF716FE00
:1075A0000346002B2AD00198FFF788FE0346049378
:1075B000049B9BB240339BB29B00ADF80E30049B02
:1075C0001846FFF755FCBDF80E301846FFF70FFCC4
:1075D0009DF80330002B11D00198FFF76FFE034692
:1075E0001846FFF779FE0290029B002B06D001227D
:1075F000049B02FA03F31846FFF722FC00BF07B012
:107600005DF804FBC8FF02007432002000B595B09D
:1076100000231093002303934FF48073ADF84C3094
:107620000123129300230F9321E0BDF84C3018463C
:10763000FFF7C8FB0346002B0ED01298FFF70CFC97
:107640000346002B08D0BDF84C301846FFF7CFFB9F
:10765000109A129B13431093129B5B001293BDF878
:107660004C300433ADF84C300F9B01330F930F9B1C
:10767000072BDAD94FF4BE70FFF7A4FB0346002BAB
:107680000DD04FF4BE70FFF7B2FB109B43F00043E8
:10769000109303AB1A4601210020FFF72BFD109B2E
:1076A000DBB2002B29D00123129300230F9321E09A
:1076B000129A109B1340002B16D00F98FFF720FC56
:1076C0000D900F98FFF72CFC03468DF833300F9880
:1076D000FFF702FE0B900B9B002B05D09DF833208B
:1076E0000B9B11460D989847129B5B0012930F9BC2
:1076F00001330F930F9B072BDAD9109B002B80F2DD
:10770000EE8000238DF84F30002302930023119365
:107710000AE0119B9B0014AA13444FF0FF3243F878
:107720004C2C119B01331193119B002BF1D00023A2
:107730008DF84F3000230F9378E06B4A0F9B134472
:10774000503393F900308DF82B309DF82B3023F017
:10775000C0030993644A0F9B1344503393F90030DC
:10776000B3F1FF3F5FD001AB19460998FFF7F6FC74
:107770000346002B57D09DF82B309B098DF8233002
:107780000998FFF79BFD03461846FFF7A5FD0790F4
:10779000079B002B03D19DF82330032B43D19DF889
:1077A0002330032B04D102AB19460998FFF7EEFCF6
:1077B0000998FFF781FC03468DF81B3003AB19468F
:1077C0000998FFF7CBFC0590059B002B03D09DF893
:1077D0001B30022B06D0059B002B24D19DF81B30BB
:1077E000032B20D19DF82330032B13D19DF81B30A0
:1077F000022B01D1032300E002238DF813309DF802
:10780000133019460998FFF714FC9DF84F300133E7
:107810008DF84F30079B002B05D09DF82320079B48
:107820001146099898470F9B01330F930F9B032B29
:1078300083D99DF84F30002B4CD001238DF83B307D
:107840006B461A4601210020FFF754FC00231193D8
:1078500014E0119B9B0014AA134453F8502C119B65
:107860009B0014A90B4453F8443C9A4203D00023D4
:107870008DF83B3005E0119B01331193119B002BD8
:10788000E7D09DF83B30002B03D000238DF84F301C
:1078900020E0002311931AE0119B9B0014AA1344CB
:1078A00053F8502C119B9B0014A90B4443F8442C13
:1078B000119B9B0014AA134453F8482C119B9B0066
:1078C00014A90B4443F84C2C119B01331193119BC9
:1078D000002BE1D09DF84F30002B7FF428AF00BF84
:1078E00015B05DF804FB00BF7432002082B003467F
:1078F0008DF807309DF8073003F1804303F5E0432E
:1079000001221A6000BF02B0704782B00346ADF892
:107910000630BDF8063003F1804303F5E0431B68F1
:10792000002B14BF01230023DBB2184602B07047BE
:1079300084B00346ADF80630BDF8063003F180434D
:1079400003F5E04300221A60BDF8063003F18043DE
:1079500003F5E0431B680393039B00BF04B070472B
:1079600082B001900091054A019BC2F82C36034A6F
:10797000009BC2F8303600BF02B070470070004074
:1079800000B58DB04FF48270FFF7BFFF0346002BA8
:1079900046D04FF48270FFF7CBFF8C4B93F82E301C
:1079A00083F00103DBB2002B04D1884B93F82F3016
:1079B000002B35D000238DF81830844B5B6807937B
:1079C000824B1B899BB2ADF82030804BDB68002BCB
:1079D00003D17E4B00221A7419E07C4B1A8B7B4B2F
:1079E0005A837A4BDB68794A5360784B1A8B774B12
:1079F0001A81764B0022DA60744B93F82E3083F0B4
:107A00000103DBB2002B02D00020FFF76FFF6F4BAA
:107A10001B6806AA104698476C4B002283F82F205B
:107A20006A4B93F82E30002B62D04FF48070FFF732
:107A30006CFF0346002B5BD04FF48070FFF778FF9C
:107A4000624B5A8B614B93F82D309BB29A421CD9F2
:107A50005E4B5A8B5D4B93F82D309BB2D31A9AB282
:107A60005A4B5A83594B5A68584B1B899BB219463B
:107A7000564B5B8BCB1A5B001A44544B93F82D305A
:107A800019461046FFF76CFF2BE0504B5A8B4F4BBB
:107A900093F82D309BB29A4214D14C4BDB68002BEB
:107AA00010D04A4B012283F82F20484B00225A83E2
:107AB000464BDA68454B93F82D3019461046FFF7D0
:107AC0004FFF0EE0414B5A8B404B93F82D309BB249
:107AD0009A4206D13D4B012283F82F203B4B0022D6
:107AE0005A834FF48270FFF723FF0420FFF7FEFE56
:107AF0004FF48870FFF709FF0346002B0ED04FF4B8
:107B00008870FFF715FF314B00221A7402238DF89D
:107B10000C302E4B1B6803AA104698474FF48A700E
:107B2000FFF7F3FE0346002B07D04FF48A70FFF7F0
:107B3000FFFE264B00221A7444E0244B5B690B9332
:107B40003DE00B9BB3FA83F30A934FF000420A9B8C
:107B500022FA03F3DB430B9A13400B930A9B9BB26D
:107B600046339BB29B00ADF82630BDF82630184650
:107B7000FFF7CBFE0346002B21D0BDF82630184678
:107B8000FFF7D6FE01238DF80030BDF82630A3F5AF
:107B90008C73DB08DBB28DF80430BDF82630A3F51A
:107BA0008C7303F00403002B0CBF01230023DBB212
:107BB0008DF80530054B1B686A46104698470B9BAD
:107BC000002BBED100BF0DB05DF804FBCC3200200D
:107BD00084B001900B46ADF80230BDF80230019A36
:107BE000134400221A60BDF80230019A13441B6846
:107BF0000393039B00BF04B0704782B001900B4613
:107C0000ADF80230BDF80230019A13441B68002B16
:107C100014BF01230023DBB2184602B0704782B0C4
:107C200001900091019BD3F80423009B1340002B8B
:107C300014BF01230023DBB2184602B0704782B0A4
:107C40000190019B9BB250339BB29B009BB21846A4
:107C500002B0704782B001904FF48032019B02FA6B
:107C600003F3184602B0704700B587B00390029145
:107C700013468DF8073000238DF8173030E09DF85B
:107C800017301846FFF7DBFF0346ADF814309DF8B8
:107C900017301846FFF7DEFF0490BDF81430194680
:107CA0000398FFF7AAFF0346002B14D0049903980A
:107CB000FFF7B5FF0346002B0DD0BDF81430194671
:107CC0000398FFF785FF029B1B68029A5168BDF875
:107CD0001420104698479DF8173001338DF817305F
:107CE0009DF817209DF807309A42C8D300BF07B00F
:107CF0005DF804FB08B5042202490348FFF7B4FF0E
:107D000000BF08BDFC3200200080004082B001901E
:107D10000091019B009AC3F8082300BF02B070478E
:107D200082B001900091019BD3F80423009B134083
:107D3000184602B0704782B001900B46ADF8023091
:107D4000BDF80230019A13441B68184602B0704710
:107D500084B001900B46ADF80230BDF80230019AB4
:107D6000134400221A60BDF80230019A13441B68C4
:107D70000393039B00BF04B0704782B00190009151
:107D8000019B009AC3F8482300BF02B0704700006F
:107D900000B589B00390029101924FF480330793AC
:107DA0004FF4A073ADF81A300023059330E0079923
:107DB0000398FFF7B5FF0346002B1ED0BDF81A301D
:107DC00019460398FFF7B7FF0346002B15D0079914
:107DD0000398FFF7D2FF07990398FFF797FFBDF8C5
:107DE0001A3019460398FFF7B3FF2D4A029B52F849
:107DF0002330059AD2B210469847079B5B00079341
:107E0000BDF81A300433ADF81A30059B01330593E1
:107E1000059A019B9A42CAD34FF48073ADF81A3089
:107E200001210398FFF77CFF0346002B14D0BDF817
:107E30001A3019460398FFF77EFF0346002B0BD03C
:107E4000BDF81A3019460398FFF782FF144A029BC7
:107E500052F82330042098474FF48273ADF81A305B
:107E600002210398FFF75CFF0346002B14D0BDF8F6
:107E70001A3019460398FFF75EFF0346002B0BD01C
:107E8000BDF81A3019460398FFF762FF044A029BB7
:107E900052F823300520984700BF09B05DF804FB75
:107EA0000833002008B5042200210248FFF770FFC4
:107EB00000BF08BD0040024082B001900B468DF823
:107EC00003309DF80330019A134401221A6000BF69
:107ED00002B0704784B001900B46ADF80230BDF897
:107EE0000230019A134400221A60BDF80230019A50
:107EF00013441B680393039B00BF04B0704782B018
:107F000001900B46ADF80230BDF80230019A1344DF
:107F10001B68002B14BF01230023DBB2184602B0FC
:107F2000704782B001900091019B009AC3F804232E
:107F300000BF02B0704782B001900091019B009A8F
:107F4000C3F8082300BF02B0704782B00190019BC4
:107F50000722C3F8002500BF02B0704784B0039029
:107F6000029101920093039B029AC3F80825039B98
:107F7000019AC3F80C25039B009AC3F8102500BF93
:107F800004B0704782B001900091009A019BC3F841
:107F9000242500BF02B0704784B0039002911346BD
:107FA0008DF80730029A039BC3F844259DF80720FB
:107FB000039BC3F8482500BF04B0704784B003900A
:107FC000029113468DF80730029A039BC3F83425BB
:107FD0009DF80720039BC3F8382500BF04B0704705
:107FE00084B001900B468DF8033013468DF80230B3
:107FF0009DF80230002B14BF01230023DBB2039352
:108000009DF80330022B08D0032B0BD0012B0ED18F
:10801000039B43F0020303930AE0039B43F0040332
:10802000039305E0039B43F00603039300E000BFC6
:10803000019B039AC3F8542500BF04B0704782B077
:1080400001900B468DF803309DF80320019BC3F887
:10805000C02500BF02B0704782B00190019B012291
:10806000C3F8502500BF02B0704782B00190019B59
:108070000022C3F8502500BF02B0704782B00190C3
:10808000019B0122C3F8402500BF02B0704782B0B7
:108090000190019B0022C3F8402500BF02B0704749
:1080A00082B00190019B03F06043B3F1005F0CBF0D
:1080B00001230023DBB2184602B0704700B583B03D
:1080C0000190019B1B681F2B04D905494FF4E870F0
:1080D00000F0B0FF4FF0A043184603B05DF804FB7A
:1080E0003002030000B585B00190084611461A46DB
:1080F00003468DF803300B468DF8023013468DF899
:10810000013001AB1846FFF7D9FF03909DF803201B
:108110009DF802305B001A439DF801309B001A4322
:108120009DF818301B0242EA03019DF81C301B0425
:10813000019A1943039B02F5E07243F8221000BF35
:1081400005B05DF804FB00B585B0039000230193F2
:10815000002300930023012201210398FFF7C2FFAF
:1081600000BF05B05DF804FB00B585B003900B4679
:108170008DF80B309DF80B20002301930023009312
:108180001346002200210398FFF7ACFF00BF05B0A3
:108190005DF804FB00B585B0019001AB1846FFF710
:1081A0008DFF0390019B012202FA03F31946039805
:1081B00000F018F800BF05B05DF804FB00B585B00D
:1081C000019001AB1846FFF779FF0390019B012254
:1081D00002FA03F31946039800F00EF800BF05B049
:1081E0005DF804FB82B001900091019B009AC3F8F6
:1081F000082500BF02B0704782B001900091019B3A
:10820000009AC3F80C2500BF02B0704700B58DB0CE
:108210000590049103920293049B002B03D15B49C8
:10822000A82000F007FF059B5B791A461346DB0088
:1082300013449B00564A13440B930B9B1B7F002B4C
:1082400003D008230A930A9B9CE00B9B039A1A60B5
:108250000B9B029A5A60049B1B7B012B05D8049B45
:108260001B781846FFF7AAFF04E0049B1B7818460A
:10827000FFF790FF049B1B7818460023019300230F
:108280000093002300220121FFF72CFF049B5B7861
:10829000FF2B09D0049B5B7809930998FFF78EFFA9
:1082A0000998FFF750FF02E04FF0FF330993049B5A
:1082B0009B78FF2B07D0049B9B780893012108989B
:1082C000FFF752FF02E04FF0FF330893049BDB7887
:1082D000FF2B09D0049BDB781846FFF75BFF049B5C
:1082E000DB781846FFF72FFF059B5B791946049B47
:1082F000D878274A0B46DB000B449B0013441E33FF
:1083000002461A70059B1B680793049B1B7819464D
:10831000089B099A0798FFF721FE049B9B68194662
:108320000798FFF72FFE049B197B049B5B7B1A4683
:108330000798FFF755FE049B5B7919460798FFF7EE
:108340007EFE0B9B1B68002B03D040210798FFF794
:10835000E8FD0798FFF7F9FD0B9B1B68002B08D081
:10836000059B93F90420049B1B7919461046FEF7E0
:10837000F3FC0B9B00225A770B9B01221A770023F8
:108380000A930A9B18460DB05DF804FB6C020300CB
:108390000C33002000B589B003900291009313467E
:1083A0008DF80730029B0493009B06939DF80730DD
:1083B0008DF814309DF828308DF81C3004AB002265
:1083C0001946039800F0D8F80346184609B05DF83E
:1083D00004FB00B583B00190019B9B7FFF2B04D071
:1083E000019B9B7F1846FFF7D5FE019B00225A7721
:1083F000019B00221A72019B1B68019A02F108007E
:10840000019A52681146984700BF03B05DF804FB1B
:1084100000B583B001900B468DF803309DF8033012
:1084200083F00103DBB2002B04D040210198FFF759
:1084300082FD03E040210198FFF773FD00BF03B008
:108440005DF804FB00B583B001900091009B03F040
:108450000103002B03D00198FFF7FEFD02E0019815
:10846000FFF703FE009B03F00203002B03D00198EB
:10847000FFF704FE02E00198FFF709FE00BF03B01A
:108480005DF804FB00B587B0039002910192009360
:10849000019B1B68002B0AD0019B1B681846FFF745
:1084A000FFFD034683F00103DBB2002B0ED1019BDD
:1084B0009B68002B11D0019B9B681846FFF7F0FDCD
:1084C000034683F00103DBB2002B06D0029B00229F
:1084D0005A7710230593059B4AE0019B1968019B7D
:1084E0001B791A460398FFF757FD019B9968019B7A
:1084F0001B7B1A460398FFF761FD4FF48C710398BC
:10850000FFF7E8FC00990398FFF79CFF009B03F03E
:108510000803002B03D110210398FFF7CDFC029B29
:108520001B68002B15D100BF4FF48C710398FFF727
:10853000E6FC034683F00103DBB2002BF4D1029B7F
:108540009B7FFF2B11D0029B9B7F1846FFF722FEDB
:108550000BE0009B03F00403002B0CBF012300235E
:10856000DBB219460398FFF753FF00230593059BE1
:10857000184607B05DF804FB10B586B00390029171
:108580000192039B5B791A461346DB0013449B0060
:10859000364A13440593059B1B7F002B04D13449B5
:1085A00040F2572000F046FD029B1B68002B08D1CB
:1085B000029B1B79002B04D02D494FF4167000F05C
:1085C00039FD029B9B68002B08D1029B1B7B002B73
:1085D00004D0274940F2592000F02CFD00230493D9
:1085E000059B5B7FDBB2002B03D011230493049B1C
:1085F00039E0059B1B68002B07D0019B03F0140397
:10860000002B02D1059B01225A77059B029A03F1A8
:108610000C0413460FCB84E80F00059A92F8213022
:108620006FF3000382F82130059A92F821306FF33E
:10863000410382F82130059A92F821306FF38203CA
:1086400082F82130059B9B7FFF2B04D0059B9B7FED
:108650001846FFF7B3FD039B1868019B029A059922
:10866000FFF710FF0346184606B010BD0C3300207C
:108670006C02030000B583B0019000914FF48C713F
:108680000198FFF73CFC0346002B10D04FF48C718F
:108690000198FFF71FFC009B1B68002B04D10649C3
:1086A00040F2BE2000F0C6FC0098FFF792FE00BF2B
:1086B00003B05DF804FB00BF6C02030000B583B09B
:1086C000044B019301990448FFF7D4FF00BF03B0A6
:1086D0005DF804FB0C3300200030024000B583B08D
:1086E0000C4B1B78002B0FD00023019308E0019B5B
:1086F000022B02D0019802F083FC019B013301930D
:10870000019B012BF3D901E002F094FC00BF03B000
:108710005DF804FB383300202DE9F04788B00346AC
:108720008DF817300023079300230693CD4B1B7859
:10873000002B04D0CB4B00221A70FFF7CFFF9DF81F
:108740001730172B00F2208201A252F823F000BF4D
:10875000B1870200BF870200BF8702004F88020076
:10876000DF88020051890200DB890200FB890200D8
:108770000B8A0200298A0200478A0200718A0200DD
:108780008F8A02009D8A02009D8A02009D8A020053
:108790009D8A02009D8A02002B8B0200398B020009
:1087A0004D8B0200618B02007B8B02007B8B0200F1
:1087B000FFF794FFAC4A9DF817301370E5E10020F5
:1087C00002F0D6FB0346002B0DD0002002F018FC6F
:1087D0009DF81730022B02D14FF4E16301E04FF412
:1087E0007A6306930BE0002002F0F0FB9DF817304F
:1087F000022B01D1C82301E04FF4C87306939A4AB3
:108800009DF817301370994D069B19464FF00002E2
:108810004FF000034FF00004D40344EA5144CB036B
:1088200013F5FA72009244F1000301934FF47A7247
:108830004FF00003DDE9000105F098FF03460C4608
:10884000002219462846FCF75DFC07909DE10020B8
:1088500002F08EFB0346002B0DD0002002F0D0FB6F
:108860009DF81730032B02D14FF4487301E04FF409
:108870007A6306930BE0002002F0A8FB9DF8173006
:10888000032B01D1C82301E04FF4C8730693764A45
:108890009DF817301370754D069B19464FF0000276
:1088A0004FF000034FF00004D40344EA5144CB03DB
:1088B00013F5FA72029244F1000303934FF47A72B3
:1088C0004FF00003DDE9020105F050FF03460C46BE
:1088D000002219462846FCF715FC079055E10020B8
:1088E00002F046FB0346002B06D0002002F088FB76
:1088F0004FF47A63069305E0002002F067FB4FF423
:10890000C8730693584A9DF817301370574D069B4D
:1089100019464FF000024FF000034FF00004D4035B
:1089200044EA5144CB0313F5FA7944F1000A4FF4B9
:108930007A724FF000034846514605F017FF034690
:108940000C46002219462846FCF7DCFB07901CE188
:10895000002002F00DFB0346002B0CD0002002F09B
:108960004FFB9DF81730052B01D1C82301E04FF4D0
:108970007A6306930BE0002002F028FB9DF8173085
:10898000052B01D1C82301E04FF4C8730693364A82
:108990009DF817301370354D069B19464FF00002B5
:1089A0004FF000034FF00004D40344EA5144CB03DA
:1089B00013F5FA7744F100084FF47A724FF0000390
:1089C0003846414605F0D2FE03460C4600221946C1
:1089D0002846FCF797FB0790D7E0002002F04EFBFB
:1089E000214A9DF817301370204B002240F6CD41EC
:1089F0001846FCF787FB0790C7E0002002F0E6FA74
:108A0000194A9DF817301370BFE0164B01221A70F7
:108A1000012002F033FB154B002240F6CD411846F1
:108A2000FCF770FB0790B0E00E4B01221A7001209A
:108A300002F024FB0D4B00224FF480411846FCF756
:108A400061FB0790A1E0074B01221A70012002F0A0
:108A500015FB064B002240F6CD411846FCF752FBB1
:108A6000079092E031330020303300203C33002067
:108A7000484B01221A70012002F000FB464B0022F5
:108A80004FF480411846FCF73DFB07907DE002F073
:108A9000E3FA424A9DF81730137076E0404B1846CF
:108AA000FCF762FB07909DF81730C3F111030693A2
:108AB000069B002B32D0079B002B2FD1069B012B4E
:108AC00025D9374F069B9BB21A46C82303FB02F3F6
:108AD00019464FEAE1724FF000034FF00004D4034F
:108AE00044EA5144CB0313F5FA7544F100064FF400
:108AF0007A724FF000032846314605F037FE0346F0
:108B00000C46002219463846FCF7FCFA0790022072
:108B100002F05CFA234B01221A7036E0022002F0C8
:108B20006FFA204B00221A702FE0FFF7D7FD1B4A87
:108B30009DF81730137028E0FFF7D0FD002002F0F9
:108B400045FA164A9DF8173013701EE0FFF7C6FD70
:108B5000012002F03BFA114A9DF81730137014E01F
:108B6000FFF7BCFD002002F031FA012002F02EFADE
:108B70000A4A9DF81730137007E002F06DFA074AB1
:108B80009DF81730137000E000BF079B184608B02F
:108B9000BDE8F087313300203C3300203033002023
:108BA0005C3300203833002000B585B003468DF8D3
:108BB000073000230393084B1B6803F00103002BCD
:108BC00005D09DF807301846FFF7A6FD0390039BDC
:108BD000184605B05DF804FB3433002084B00190E2
:108BE0000B468DF8033013468DF8023000230393B3
:108BF000019B032B3CD89DF80230012B0BD19DF833
:108C00000330012B04D1019BDBB20E33DBB200E059
:108C100000238DF802309DF80330012B04D0022B85
:108C20000CD0002B15D01FE01449019A13465B00AD
:108C300013440B449DF802201A701BE00F49019A5F
:108C400013465B0013440B4401339DF802201A7055
:108C500010E00A49019A13465B0013440B440233A7
:108C60009DF802201A7005E00723039300BF01E07E
:108C700007230393039B184604B070477C330020FE
:108C800000B583B0012200210020FFF7A7FF01906B
:108C9000019B002B04D0019B072B01D0019B1CE002
:108CA000072202210120FFF799FF0190019B002B71
:108CB00004D0019B072B01D0019B0EE0042202216E
:108CC0000020FFF78BFF0190019B002B04D0019B3C
:108CD000072B01D0019B00E00023184603B05DF88C
:108CE00004FB00B583B0012202210020FFF776FFCC
:108CF0000190019B002B04D0019B072B01D0019B0D
:108D00001CE0072202210120FFF768FF0190019B70
:108D1000002B04D0019B072B01D0019B0EE00A22FF
:108D200000210020FFF75AFF0190019B002B04D087
:108D3000019B072B01D0019B00E00023184603B0E4
:108D40005DF804FB00B585B001900091019B1B8884
:108D5000102B02D0112B18D02FE01A4B1B68002BC0
:108D60000DD1FFF78DFF0390039B002B07D0164B0F
:108D70001B68002B03D0144B1B6803989847114BBA
:108D80001B6801330F4A136017E00E4B1B68013B51
:108D90000C4A13600B4B1B68002B0DD1FFF7A1FF92
:108DA0000390039B002B07D0074B1B68002B03D0BD
:108DB000054B1B680398984700BF00BF05B05DF8DE
:108DC00004FB00BF8C3300208833002076DF70471F
:108DD00000BF184678DF704700BF18467ADF70473B
:108DE00000BF18467CDF704700BF18468FDF704712
:108DF00000BF1846A8DF704700BF184666DF7047FF
:108E000000BF184682B003468DF807309DF8073042
:108E100003F1804303F5C043184602B070470000D9
:108E200082B003468DF807309DF80730044A0121CF
:108E300001FA03F3C2F8043500BF02B0704700BF67
:108E400000F0014084B00346029101928DF80F308A
:108E500008499DF80F30A233029A41F83320054AA1
:108E60009DF80F30A233DB001344019A5A6000BF13
:108E700004B0704700F0014082B001900B46ADF89D
:108E80000230BDF80230019A1344184602B0704710
:108E900084B00190244B0393019B002B40D0234BC3
:108EA0001A680399019B00BF00BF00BF00BF00BF4D
:108EB00000BF00BF00BF8A422FD000BF00BF00BF6D
:108EC00000BF00BF00BF00BF00BF00BF00BF00BFAA
:108ED00000BF00BF00BF00BF00BF00BF00BF00BF9A
:108EE00000BF00BF00BF00BF00BF00BF00BF00BF8A
:108EF00000BF00BF00BF00BF00BF00BF00BF00BF7A
:108F000000BF00BF00BF00BF00BF00BF00BF00BF69
:108F100000BF00BF00BF00BF00BF013BC3D1019332
:108F200000BF04B0704700BF0024F400A02B002055
:108F300000B583B00190019B4FF47A7202FB03F3FA
:108F40001846FFF7A5FF00BF03B05DF804FB000063
:108F500082B001900B468DF80330034B01221A704A
:108F600000BF02B0704700BFD033002000B585B00D
:108F7000FEF718FA0390039B0293029B002B05D087
:108F8000104A4FF4B6710298FBF706FA0E4B1B68B5
:108F9000009303238DF801306B460C4A19460B20D1
:108FA000FEF748FA0390039B0193019B002B05D029
:108FB000044A40F273110198FBF7EEF900BF05B0C7
:108FC0005DF804FBEC0203007C030300518F0200F8
:108FD00010B586B0144B01AC0FCB84E80F000F2303
:108FE0008DF807300C238DF806300E238DF80530F0
:108FF0000D238DF8043001238DF810304FF00063FD
:10900000039301A9002300220848FFF7FFF8059009
:10901000059B002B05D0064A4FF4C9710598FBF754
:10902000BBF900BF06B010BD80030300E4020300DB
:10903000EC02030000B583B003460091ADF80630A2
:10904000BDF80630009A19460348FBF7A5F900BFA2
:1090500003B05DF804FB00BFEFBEADDE00B589B024
:109060009DF80430012262F303038DF804309DF86B
:109070000430012262F307138DF80430264805F00E
:1090800022FD03469AB201AB23491846FFF7AAFE18
:109090000790079B0693069B002B05D01F4A4FF4B1
:1090A000E0710698FBF778F940F24130FFF792FE45
:1090B0000790079B0593059B002B05D0174A40F2AC
:1090C000C3110598FBF768F902AB08220021184686
:1090D00005F0A4FC0C23ADF808301023ADF80A30DD
:1090E0000023ADF80C304FF4C873ADF80E3002AB6E
:1090F0001846FFF773FE0790079B0493049B002B11
:1091000005D0064A40F2CD110498FBF745F900BF9F
:1091100009B05DF804FB00BF90030300EC020300FC
:1091200000B585B06B4608220021184605F076FC94
:10913000002300939DF80430012262F303038DF8AD
:1091400004309DF80430012262F307138DF80430D7
:109150009DF805306FF303038DF805309DF8053059
:109160006FF307138DF805309DF806306FF3030396
:109170008DF806309DF806306FF307138DF8063032
:109180006B461946094802F096F80390039B029338
:10919000029B002B05D0064A4FF4F4710298FBF7AE
:1091A000FBF800BF05B05DF804FB00BFFC330020F6
:1091B000EC02030000B585B00190019B1B78002BE9
:1091C00011D10B4B1B883B211846FFF7FFFD039085
:1091D000039B0293029B002B05D0064A4FF4FF71BC
:1091E0000298FBF7D9F800BF05B05DF804FB00BF9B
:1091F000622B0020EC02030000B583B00190054A09
:1092000040F209210198FBF7C7F800BF03B05DF8F1
:1092100004FB00BFEC02030000B58BB001AB1C22C5
:109220000021184605F0FAFB002301934FF4203388
:1092300002934FF47023039303238DF810300F4BE8
:109240005B89ADF8123000238DF814300C4B069377
:109250000C4B079301AB184603F034FD0990099BB2
:109260000893089B002B05D0074A4FF40871089813
:10927000FBF792F800BF0BB05DF804FBFC33002055
:10928000B5910200F9910200EC02030000B585B02F
:1092900003468DF807309DF80730002B11D0032BC3
:1092A00011D10220FFF780FC0390039B0293029BE5
:1092B000002B0AD0074A40F245210298FBF76CF8D0
:1092C00003E000BF02E000BF00E000BF00BF05B048
:1092D0005DF804FBEC02030010B592B00190009120
:1092E000019B1B88212B22D0212B06DC102B0BD0BD
:1092F000112B11D0012B5AD0B0E0512B6AD0562B34
:1093000042D03B2B2DD0A9E0564802F0C0F9019B7A
:109310009A88554B1A80A1E0019B1B7A1946534845
:1093200002F0B5F9504B4FF6FF721A8096E0002319
:109330008DF82C3000238DF82D30019B9B880BAAD3
:1093400011461846FFF752FD1190119B1093109B88
:10935000002B7AD0464A40F272211098FBF71CF895
:1093600073E0019B9B8813211846FFF72FFD119096
:10937000119B0F930F9B002B69D03D4A40F27B213C
:109380000F98FBF709F862E0019B9B8813211846B0
:10939000FFF71CFD1190119B0E930E9B002B58D0D4
:1093A000334A40F283210E98FAF7F6FF51E02E4B34
:1093B0001B8800211846FFF721FD1190119B0D938A
:1093C0000D9B002B47D02A4A4FF422710D98FAF7D3
:1093D000E3FF40E0019B07AC0633186859689A68C0
:1093E000DB680FC49DF81C30002B36D09DF824306C
:1093F000042B07D09DF82430062B03D09DF8243091
:10940000052B2AD19DF81C30022B03D102238DF8A5
:109410000C3002E001238DF80C304FF4C173ADF82D
:109420001030019B9B8803AA11461846FFF7E2FC07
:109430001190119B0C930C9B002B0ED00C4A40F208
:10944000A3210C98FAF7A8FF07E000BF06E000BFD1
:1094500004E000BF02E000BF00E000BF00BF12B0A8
:1094600010BD00BF9C030300622B0020AC0303006F
:10947000EC02030000B587B004F090FE0590059B58
:109480000493049B002B05D0164A40F2B92104989E
:10949000FAF782FF0023019301AB1946012004F083
:1094A00075FF0590059B0393039B002B05D00D4A88
:1094B00040F2BF210398FAF76FFF01AB184605F0A1
:1094C00075F80590059B0293029B002B05D0054A79
:1094D00040F2C3210298FAF75FFF00BF07B05DF8C2
:1094E00004FB00BFEC02030000B583B00021094873
:1094F00004F0A2F80190019B0093009B002B05D083
:10950000054A40F2DB210098FAF746FF00BF03B09E
:109510005DF804FB0C340020EC02030000B5ABB096
:109520006B46A0220021184605F078FA02238DF838
:10953000003001238DF8023006238DF8033001231B
:10954000ADF81030124B059301238DF87C304FF4A9
:1095500096732293B42323930E4B26936B4619469E
:109560000D4803F024F82990299B2893289B002B71
:1095700005D00A4A40F273312898FAF70DFF01210D
:10958000054803F007F800BF2BB05DF804FB00BFEF
:10959000642B00208D92020020340020EC02030096
:1095A00000B583B00020FAF745F80190019B0093C5
:1095B000009B002B05D0064A4FF464710098FAF71F
:1095C000EBFEF9F795FF00BF03B05DF804FB00BFA9
:1095D000EC02030010B58EB0354A09AB92E80300E7
:1095E0001860043319704FF4A8713248FFF744FC37
:1095F00003461C460C20FFF705FC03461A4621468D
:109600000020FFF71FFC0020FFF70AFC294B049302
:10961000294B0593294B0693294B079317238DF864
:10962000203000238DF80E3001238DF80A300223FC
:109630008DF80B3003238DF80C3004238DF80D309A
:109640007D238DF8043009A901AB013305221846AA
:1096500005F0BBF901AB184601F0F0F80D900D9B39
:109660000C930C9B002B05D0164A4FF46F710C988D
:10967000FAF792FE01F022F90D900D9B0B930B9BD4
:10968000002B05D00F4A40F2BF310B98FAF784FE49
:109690000D4B1B881B0443F003030C491846FAF7D3
:1096A00039FA0B4801F0F3FF00BF0EB010BD00BF48
:1096B000A404030000A0014000A0004000100140ED
:1096C00000700140EC020300682A002060040300DF
:1096D0008404030000B583B0FFF762FFFFF746FC88
:1096E000FBF7ACFCFFF7C6FEFFF7B8FCFFF7FCFE8C
:1096F000FFF716FDFFF790FDFFF76CFFFFF768FC23
:10970000324B1B881B0443F0030331491846FAF718
:1097100001FA304B304A1A60304B93E8030001F0F5
:1097200069FA0346002B03D12D4B01229A7002E007
:109730002B4B00229A702A4B01225A704FF47A70F8
:10974000FFF7F6FB214B1B881B0443F0030325495D
:109750001846FAF7DFF9FFF7E1FE0321224803F08C
:1097600035F81A4B1B881B0443F003031F491846A6
:10977000FAF7D0F901210B20FDF7C0FE134B1B882F
:109780001B0443F003031A491846FAF7C3F9194BAF
:1097900001221A70124B1B78002BFBD0104B0022B9
:1097A0001A700E4B144A93E8030001F0E3FA0346E3
:1097B000002B29D0114801F06AFF094B00229A7052
:1097C0000F49104801F0FAF9E4E700BF682A0020C9
:1097D000AC040300C8330020A0330020E4020300DF
:1097E000D0330020C004030020340020D404030040
:1097F000F0040300D833002094330020FC0403005D
:10980000602B002090330020002001F0CBF80246AE
:10981000824B1A60824B1B780133DAB2804B1A708C
:109820007F4B1B78012B27D17C4B1B681B0EDAB2B8
:109830007C4B5A70794B1B681B0CDAB2794B9A70CF
:10984000764B1B681B0ADAB2764BDA70734B1B68D7
:10985000DAB2744B1A71744B9B681B0CDAB2714B01
:109860005A71714B9B681B0ADAB26E4B9A716E4B40
:109870009B68DAB26B4BDA71694B1B78022B27D1EC
:10988000664B1B681B0EDAB2664B1A72634B1B6881
:109890001B0CDAB2634B5A72604B1B681B0ADAB2BC
:1098A000604B9A725D4B1B68DAB25E4BDA725E4BAC
:1098B0009B681B0CDAB25B4B1A735B4B9B681B0AF1
:1098C000DAB2584B5A73584B9B68DAB2554B9A73BD
:1098D000534B1B78032B27D1504B1B681B0EDAB25E
:1098E000504BDA734D4B1B681B0CDAB24D4B1A749C
:1098F0004A4B1B681B0ADAB24A4B5A74474B1B6827
:10990000DAB2484B9A74484B9B681B0CDAB2454B51
:10991000DA74454B9B681B0ADAB2424B1A75424B0C
:109920009B68DAB23F4B5A753D4B1B78042B27D10D
:109930003A4B1B681B0EDAB23A4B9A75374B1B68D1
:109940001B0CDAB2374BDA75344B1B681B0ADAB2E0
:10995000344B1A76314B1B68DAB2324B5A76324BA3
:109960009B681B0CDAB22F4B9A762F4B9B681B0A15
:10997000DAB22C4BDA762C4B9B68DAB2294B1A7789
:10998000274B1B78052B7FF405AF244B1B681B0E60
:10999000DAB2244B5A77214B1B681B0CDAB2214BED
:1099A0009A771E4B1B681B0ADAB21E4BDA771B4BE9
:1099B0001B68DAB21B4B83F820201B4B9B681B0CE7
:1099C000DAB2184B83F82120174B9B681B0ADAB2D6
:1099D000144B83F82220144B9B68DAB2114B83F8A6
:1099E00023201049114801F095FC0190019B002BA8
:1099F00010D0019B082B0DD0019B132B0AD0019B8B
:109A000043F20142934205D0094A40F2674101986E
:109A1000FAF7C2FC024B00221A70BBE6903300201A
:109A2000CC330020D833002094330020FC330020B6
:109A3000EC02030082B003468DF807309DF8073032
:109A400003F01F0205499DF907305B09012000FA68
:109A500002F241F8232000BF02B0704700E100E0AD
:109A600082B003468DF807309DF8073003F01F02DF
:109A700006499DF907305B09012000FA02F2203304
:109A800041F8232000BF02B0704700BF00E100E0B2
:109A900082B003468DF807309DF8073003F01F02AF
:109AA00006499DF907305B09012000FA02F2603394
:109AB00041F8232000BF02B0704700BF00E100E082
:109AC00082B0034600918DF807309DF90730002BD6
:109AD0000CDA009BDAB20C499DF8073003F00F0353
:109AE000043B5201D2B20B441A7609E0009BDAB271
:109AF00006499DF907305201D2B20B4483F8002386
:109B000000BF02B0704700BF00ED00E000E100E0E0
:109B100031DF704700BF18463FDF704700BF18466F
:109B200045DF704700BF184646DF704700BF184644
:109B300047DF704700BF184610B487B0019000910E
:109B4000019B009A53E8004F44EA020043E80001F9
:109B500091F0000FF6D1059404900391059B1846EF
:109B600007B05DF8044B704710B487B001900091C6
:109B7000019B009A53E8004F04EA020043E8000109
:109B800091F0000FF6D1059404900391049B1846C0
:109B900007B05DF8044B704700B583B00190012118
:109BA0000198FFF7C9FF0346184603B05DF804FBB0
:109BB00000B583B0019000210198FFF7D5FF03465F
:109BC000184603B05DF804FB00B583B00190019B1B
:109BD0001B681F2B04D905494FF4E870FFF72AFAD8
:109BE0004FF0A043184603B05DF804FB10050300D6
:109BF00000B585B0019001AB1846FFF7E5FF039073
:109C0000039BD3F804350293029BDA43019B0121A5
:109C100001FA03F31A40039BC3F80825019B0122B4
:109C20009A40029B1A40039BC3F80C2500BF05B065
:109C30005DF804FB00B585B0244BD3F80C31002B44
:109C40003FD0224B0022C3F80C21204BD3F80C311B
:109C50001F4B1B78DBB2012B30D11C4BD3F80034E7
:109C600003F00103012B29D1184BD3F804350393DA
:109C7000039800F06DFB03468DF80B309DF80B3018
:109C8000002B16D01348FBF745FC0390039B002BD9
:109C900014BF01230023DBB20193019B002B04D1ED
:109CA0000D4AD6210020FAF777FB084A039BC2F839
:109CB00004350A4B1B680133084A1360034B012229
:109CC0009A6000BF05B05DF804FB00BF00100040C3
:109CD000C43500206C06030054050300BC35002089
:109CE00000B583B003468DF807309DF80730042B8C
:109CF00000F2C48001A252F823F000BF119D0200BF
:109D0000919D0200299E02002F9E0200339E0200B8
:109D1000604B01225A605F4B0122DA605D4B0022EA
:109D2000C3F804255B4B0022C3F84021594B0022A5
:109D3000C3F84421584B1B78DBB2002B05D0554BA0
:109D40004FF48032C3F8042304E0524B4FF4403206
:109D5000C3F804234F4B4FF4FA72C3F840254D4B20
:109D60004FF49672C3F844254A4B0222C3F80825E3
:109D7000484B01221A60494B0122C3F8FC2F0820EE
:109D8000FFF758FE464B00221A6000F02BF97CE0EA
:109D9000404BD3F84031002B22D03E4BD3F8043354
:109DA00003F48033002B1BD03A4B01225A60394B0D
:109DB0000022C3F84021374BD3F8403100F0F0F8CF
:109DC000354B1B78DBB2002B08D0354B1A68354B6E
:109DD0001B681344344A9360344B57E0344B55E0CE
:109DE0002C4BD3F84431002B1ED02A4BD3F804332C
:109DF00003F40033002B17D0264B0022C3F8442174
:109E0000244BD3F84431264B1B682A4A934209D885
:109E1000214B1B78DBB283F00103DBB2002B01D0B6
:109E2000254B33E01C4B1B78FFF704FF2DE0234B41
:109E30002CE0184B01225A60164B0022C3F8402137
:109E4000144B0022C3F84421124BD3F84035114A79
:109E500003F2CF33C2F840350E4BD3F844350D4AE8
:109E600003F2CF33C2F844350A4B01221A600C4B7F
:109E70001B6803F57A730A4A136006E0104A40F241
:109E80004B111048FAF788FA00BF0C4B184603B084
:109E90005DF804FB00800040B43500200010004055
:109EA0008C35002090350020782B0020882B002056
:109EB000902B00208F08A107982B0020C835002088
:109EC000540503007856341200B583B00190304B2E
:109ED0000022C3F80C252E4B0122C3F810252C4B71
:109EE0000122C3F850262A4B0322C3F83425284BFD
:109EF0006FF07F42C3F83C25254B264AC3F838252E
:109F0000234B0022C3F81425214B234AC3F81825FC
:109F10001F4A019BC2F80435204B5A781C4BC3F8EA
:109F200024251E4B9B781A061C4BDB781B041A4316
:109F30001A4B1B791B021343184A52791A43144BCC
:109F4000C3F81C25124B0022C3F82C25104B01220C
:109F5000C3F83025114B1A780D4BC3F808250C4B6C
:109F60000422C3F80C250A4B0022C3F80C21084B2D
:109F70004FF0FF32C3F80823054B0822C3F804232F
:109F80000120FFF757FD00BF03B05DF804FB00BFE1
:109F900000100040211001000C0C04019435002039
:109FA00008B50C4B01221A610A4B4FF0FF32C3F87F
:109FB000082300F099FB074BD3F8043519460648EF
:109FC000FBF7F0FA054B00221A60054B00221A70CD
:109FD00000BF08BD001000406C0603008C35002057
:109FE000C435002000B585B0454B1B78DBB283F04B
:109FF0000103DBB2002B2DD0424B1B78DBB2012BCF
:10A0000004D1414BD3F85035032B75D03F48FBF7B3
:10A0100081FA0390039B002B14BF01230023DBB2C2
:10A020000293029B002B05D1394A4FF4CF710020D7
:10A03000FAF7B2F90398FFF747FF334B0122C3F851
:10A040000022314B01225A6000F076FA2D4B01229A
:10A050001A7051E02B4B1B78DBB2012B0DD12A4B30
:10A060000022C3F81021284B01221A6100E000BF32
:10A07000254BD3F81031002BF9D02448FBF74AFACE
:10A080000390039B002B14BF01230023DBB2019339
:10A09000019B002B05D11E4A4FF4DC710020FAF71A
:10A0A0007BF900F077FA0398FFF70EFF164B0322B7
:10A0B000C3F80022144B01221A6000E000BF124BCB
:10A0C000D3F80031002BF9D0124BDB68D3F84435BC
:10A0D0001A46039B1A600F4B1B69D3F84425039B58
:10A0E0009A600C4B5B69D3F804351A46039B5A609F
:10A0F000044B02221A7000E000BF05B05DF804FBBB
:10A10000B4350020C4350020001000406C06030068
:10A11000540503009435002000B587B001900091EC
:10A12000019B023B062B5BD801A252F823F000BF33
:10A13000F7A10200F7A102004DA102004DA102000B
:10A1400077A10200B1A1020097A102002D48FFF7FC
:10A15000EFFC0590059B0493049B002B05D02A4A35
:10A1600040F2DF110498FAF717F9284B1B68013306
:10A17000264A136042E0264B1B881B0443F0010370
:10A1800024491846F9F7C6FC1F4A40F2E711224855
:10A19000FAF702F932E0214B00221A701C4B1B889F
:10A1A0001B0443F003031E491846F9F7B3FC25E0EE
:10A1B000174B1B881B0443F003031A491846F9F791
:10A1C000A9FCFFF7B1FC0390039B0293029B002BB9
:10A1D00013D00D4A4FF4FB710298FAF7DDF80CE04A
:10A1E0000B4B1B881B0443F00303019A0E491846CE
:10A1F000F9F79EFC02E000BF00E000BF00BF07B01F
:10A200005DF804FB682B002054050300883500200E
:10A21000042B0020D8050300785634128435002022
:10A220000806030028060300480603000E4B1B69BE
:10A2300001225A600C4B1B690122DA600A4B1B6930
:10A240000022C3F81025084B1B690122C3F804251E
:10A25000054B1B690322C3F80825034B1B69012228
:10A260001A6000BF704700BF94350020224BDB68A6
:10A2700001225A60204BDB680122DA601E4BDB684A
:10A280000022C3F810251C4BDB680322C3F8082505
:10A29000194BDB6849F64042C3F84025164BDB6892
:10A2A0004FF0FF32C3F84425134BDB684FF0FF3209
:10A2B000C3F84825104BDB684FF0FF32C3F84C253C
:10A2C0000D4BDB680D4A934204D00B4BDB680C4A04
:10A2D000934205D1084BDB6844F62062C3F8502551
:10A2E000054BDB680122C3F80022034BDB68012227
:10A2F0001A6000BF704700BF9435002000A00140E5
:10A3000000B0014008B50D4BD3F80031002B13D03D
:10A310000A4B0022C3F8002100F006FA084B1B6824
:10A320009B68084A1360084B00221A70044B1B6894
:10A3300019460648FBF736F900BF08BD007001401A
:10A34000C0350020B8350020B53500206C0603006C
:10A3500000B589B00390394B1B78DBB2002B01D0DC
:10A36000002366E0039B1B680693069B03F2D5134C
:10A370000693334BDB68D3F844350593059A069B67
:10A380009A4207D9069A059BD31A03F51C4340331A
:10A39000079303E0069A059BD31A0793079B002BAC
:10A3A00004D0079B49F64042934201D1002340E08C
:10A3B000079B49F64042934208D9214BDA68079B34
:10A3C000A3F51C43403BC2F8483507E01C4BDA6854
:10A3D000079BC3F51C434033C2F848351E20FFF7E6
:10A3E00007FC174BDB68D3F8483549F640429342E7
:10A3F00016D9144B1B881B0443F00100079B0093E4
:10A40000059B069A1049F9F7B8FB00230493049BB7
:10A41000002B05D10D4A40F263210020F9F7BCFF63
:10A42000064B01221A700A4A039B136000F06EF972
:10A430000123184609B05DF804FB00BFB5350020C4
:10A4400094350020042B00205C0603005405030013
:10A45000C035002084B0364B9B790393344BDB79B5
:10A460000293334B9B7A01930122039B9A40314B19
:10A47000C3F808252E4BDB6803F5A4732D4A194653
:10A48000039BA23342F83310294BDB680C33294A73
:10A490001946039BA233DB0013445960244B1B690C
:10A4A0000C33244A1946039B03F5117342F8231019
:10A4B0000122029B9A401F4BC3F808251C4BDB6806
:10A4C00003F5A4731B4A1946029BA23342F83310CA
:10A4D000019BDB00043303F1804303F5F833154A95
:10A4E0001946029BA233DB0013445960104B9B6951
:10A4F000104A1946029B03F5117342F823100D4AC6
:10A50000019BDB00134401225A600122039B9A4005
:10A510000121029B01FA03F31343064A1946019BEA
:10A5200003F5007342F8231000BF04B0704700BF6A
:10A530009435002000F0014082B0134B1B7A019348
:10A54000124A019BA233124942F833100E4BDB68CA
:10A5500044330E4A1946019BA233DB001344596071
:10A56000094B1B694433094A1946019B03F51173D2
:10A5700042F823100122019B9A40044BC3F80425A2
:10A5800000BF02B0704700BF9435002000F00140CA
:10A590000411004082B0134B9B790193124A019B36
:10A5A000A233124942F833100E4BDB6844330E4A93
:10A5B0001946019BA233DB0013445960094B1B6908
:10A5C0004433094A1946019B03F5117342F82310DD
:10A5D0000122019B9A40044BC3F8042500BF02B03E
:10A5E000704700BF9435002000F00140001100408A
:10A5F00082B0134B5B7A0193114BDB6803F5A073B8
:10A60000104A1946019BA23342F833100C4B1B69C8
:10A6100008330C4A1946019BA233DB0013445960EE
:10A62000084A019B03F51173002142F8231001220F
:10A63000019B9A40034BC3F8042500BF02B070474A
:10A640009435002000F0014082B00190134B9B69CB
:10A6500003F58273124A1946019BA23342F8331064
:10A660000E4BDB684C330E4A1946019BA233DB00CC
:10A6700013445960094B1B694033094A1946019B31
:10A6800003F5117342F823100122019B9A40044BF9
:10A69000C3F8042500BF02B0704700BF9435002006
:10A6A00000F0014082B001900122019B9A400D4BC5
:10A6B000C3F808250B4A019BA233002142F833104E
:10A6C000084A019BA233DB00134400225A60054A6A
:10A6D000019B03F51173002142F8231000BF02B063
:10A6E000704700BF00F0014082B0064B1B7A019317
:10A6F0000122019B9A40044BC3F8082500BF02B019
:10A70000704700BF9435002000F00140044B054A1B
:10A71000927A1146012243F8312000BF704700BFF2
:10A7200000F0014094350020044A054B9B7ADB0081
:10A73000134401225A6000BF704700BF00F001407F
:10A740009435002000B589B00390029101928DF8F4
:10A7500003303548FFF720FA0346002B0AD00023C8
:10A760000593059B002B05D1304A40F2D9210020EA
:10A77000F9F712FE9DF803301846FFF765FF2C4BE2
:10A780001B78DBB2002B03D100238DF81B3002E0D5
:10A7900001238DF81B309DF81B30002B11D00120B8
:10A7A000FFF75EF9234B9B6901225A60214B9B699D
:10A7B000D3F80431204B1B6807930120FFF73AF9C7
:10A7C0000AE01C4B9B6901225A601A4B9B69D3F823
:10A7D0000431194B1B6807939DF81B3083F001036C
:10A7E000DBB2002B04D0124B1B78DBB2002BC6D19E
:10A7F0009DF803301846FFF755FF0E4BDB68D3F882
:10A800004C25039B1A600B4B1B69D3F84025029B18
:10A810001A60019B079A1A600348FFF7C9F900BF45
:10A8200009B05DF804FB00BFD035002054050300DB
:10A83000C435002094350020B835002000B585B01F
:10A84000019020220199194804F0BFF8174BDB68EA
:10A85000002B07D0154B5B69002B03D0134B9B6972
:10A86000002B01D107231CE0104B9B69104A934237
:10A8700001D0072315E00D4B5B69D3F80835002B99
:10A8800001D008230DE00B48FAF7ECFD0390039B81
:10A89000002B05D0084A40F21F310398F9F77CFDE0
:10A8A0000023184605B05DF804FB00BF9435002076
:10A8B000007001406C0603005405030000B583B02E
:10A8C000314B1B78DBB2002B01D0082358E0FFF797
:10A8D00023F90190019B002B01D0019B50E0002047
:10A8E000FFF716F90246019B13430193019B002BCE
:10A8F00001D0019B44E02548FFF712F90190019B2C
:10A90000002B01D0019B3BE02148FFF711F901909A
:10A91000019B002B01D0019B32E0FFF769FEFFF79E
:10A9200099FD1C4B93F91C301846FFF7B1F8194BF1
:10A9300093F91C3007211846FFF7C2F8154B93F91D
:10A940001C301846FFF776F8124B9B694FF0FF3228
:10A95000C3F808230F4B9B690122C3F804230E4B55
:10A9600000221A600D4B00221A700D4B00221A7043
:10A97000FFF75CFCFFF77AFC034B01221A700023FF
:10A98000184603B05DF804FB84350020E19C02000A
:10A99000682B00209435002088350020B435002035
:10A9A000C435002000B587B003468DF807309DF808
:10A9B000073003AA04A905A8FFF7C4FE049A039B65
:10A9C000134449F6404202FB03F2059B1344184628
:10A9D00007B05DF804FB000000B583B00190019B57
:10A9E0001B681F2B04D905494FF4E870FEF722FBC2
:10A9F0004FF0A043184603B05DF804FB8006030047
:10AA000000B585B00190084611461A4603468DF8F8
:10AA100003300B468DF8023013468DF8013001AB40
:10AA20001846FFF7D9FF03909DF803209DF80230E8
:10AA30005B001A439DF801309B001A439DF81830C3
:10AA40001B0242EA03019DF81C301B04019A1943C2
:10AA5000039B02F5E07243F8221000BF05B05DF8D9
:10AA600004FB00B585B003900023019300230093FD
:10AA70000023012201210398FFF7C2FF00BF05B0A8
:10AA80005DF804FB00B585B0019001AB1846FFF7F7
:10AA9000A3FF0390019B012202FA03F319460398D6
:10AAA00000F018F800BF05B05DF804FB00B585B0F4
:10AAB000019001AB1846FFF78FFF0390019B012225
:10AAC00002FA03F31946039800F00EF800BF05B030
:10AAD0005DF804FB82B001900091019B009AC3F8DD
:10AAE000082500BF02B0704782B001900091019B21
:10AAF000009AC3F80C2500BF02B0704784B00190E3
:10AB0000244B0393019B002B40D0234B1A680399DD
:10AB1000019B00BF00BF00BF00BF00BF00BF00BF60
:10AB200000BF8A422FD000BF00BF00BF00BF00BFE0
:10AB300000BF00BF00BF00BF00BF00BF00BF00BF1D
:10AB400000BF00BF00BF00BF00BF00BF00BF00BF0D
:10AB500000BF00BF00BF00BF00BF00BF00BF00BFFD
:10AB600000BF00BF00BF00BF00BF00BF00BF00BFED
:10AB700000BF00BF00BF00BF00BF00BF00BF00BFDD
:10AB800000BF00BF00BF013BC3D1019300BF04B0B1
:10AB9000704700BF0024F400A02B002000B583B054
:10ABA0000190019B4FF47A7202FB03F31846FFF702
:10ABB000A5FF00BF03B05DF804FB000000B583B043
:10ABC0000190009140F2FF120021084803F026FF97
:10ABD000019B1A68009B08331B680549034803F072
:10ABE000C0FE00BF03B05DF804FB00BFD4350020F9
:10ABF000B806030010B59AB002AB83E80300132037
:10AC0000FFF72FFF1120FFF72CFF1020FFF729FF80
:10AC10001020FFF74BFF1120FFF734FF1320FFF741
:10AC200031FF4FF47A70FFF7B9FF1120FFF73EFFB5
:10AC30000023ADF8663004E0BDF866300133ADF8AE
:10AC40006630BDF866304CF250329342F4D9112090
:10AC5000FFF718FF11238DF8583016A902A800231A
:10AC6000009300230122FDF795FB17903F4A15AB97
:10AC70001268114619800233120C1A7015A902A825
:10AC80000023009300230322FDF784FB1790002389
:10AC9000ADF8643004E0BDF864300133ADF86430E1
:10ACA000BDF864304CF250329342F4D911AB00221B
:10ACB0001A605A609A601A732D4B0DAC0FCB07C403
:10ACC000237011AA0DA902A80D23009313460D228B
:10ACD000FDF760FB179009AB00221A605A609A607A
:10ACE0009A8105AB00221A605A609A609A812023EB
:10ACF0008DF814300B238DF8153009AA05A902A888
:10AD00000E23009313460E22FDF744FB17901020EC
:10AD1000FFF7B8FE0023ADF8623013E00023ADF872
:10AD2000603004E0BDF860300133ADF86030BDF84C
:10AD300060304CF250329342F4D9BDF862300133A6
:10AD4000ADF86230BDF862300A2BE7D910238DF8D8
:10AD5000583016A902A80023009300230122FDF712
:10AD600019FB1790179B18461AB010BDE806030090
:10AD7000EC06030000B593B004AB83E80300039234
:10AD80000AAB00221A605A601A7207AB00221A60DE
:10AD90005A601A720023109300230F9300230E931E
:10ADA00000238DF8473007AA0AA904A809230093B5
:10ADB00013460922FDF7EEFA0D9000238DF8463078
:10ADC0002BE09DF8473007AA13441B7810939DF899
:10ADD0004730013307AA13441B780F939DF847307F
:10ADE000023307AA13441B780E93109B1A040F9B7F
:10ADF0001B0242EA03019DF846309B00039A13446C
:10AE00000E9A0A431A609DF8473003338DF8473095
:10AE10009DF8463001338DF846309DF84630022BC0
:10AE2000CFD90D9B184613B05DF804FB00B583B075
:10AE30000190019B1B681F2B04D905494FF4E87052
:10AE4000FEF7F8F84FF0A043184603B05DF804FB96
:10AE5000FC06030000B585B0019001AB1846FFF772
:10AE6000E5FF0390019B012202FA03F319460398C0
:10AE700000F069F800BF05B05DF804FB00B585B0CF
:10AE8000019001AB1846FFF7D1FF0390019B01220F
:10AE900002FA03F31946039800F05FF800BF05B00B
:10AEA0005DF804FB00B585B0019001AB1846FFF7D3
:10AEB000BDFF0390039BD3F804350293029BDA4352
:10AEC000019B012101FA03F31A40039BC3F80825F3
:10AED000019B01229A40029B1A40039BC3F80C2558
:10AEE00000BF05B05DF804FB00B583B00190009190
:10AEF000009B002B03D10198FFF7C0FF02E00198EF
:10AF0000FFF7A8FF00BF03B05DF804FB00B585B0F4
:10AF1000019001AB1846FFF789FF0390039800F0FA
:10AF20000AF80246019B22FA03F303F001031846D4
:10AF300005B05DF804FB82B00190019BD3F80435A5
:10AF4000184602B0704782B001900091019B009AB0
:10AF5000C3F8082500BF02B0704782B0019000918D
:10AF6000019B009AC3F80C2500BF02B07047000097
:10AF700000B585B00190019B012B03D91149372001
:10AF8000FEF758F8104A019B13441B781846FFF748
:10AF9000BDFF0346002B14BF012300238DF80F30A3
:10AFA0009DF80F30002B14BF01230023DBB283F088
:10AFB0000103DBB203F00103DBB2184605B05DF814
:10AFC00004FB00BF340703009807030000B583B0FB
:10AFD0000190019B012B03D907493E20FEF72AF877
:10AFE000064A019B13441B7800211846FFF77CFF9B
:10AFF00000BF03B05DF804FB3407030098070300AB
:10B0000000B583B00190019B012B03D9074944206F
:10B01000FEF710F8064A019B13441B7801211846DD
:10B02000FFF762FF00BF03B05DF804FB34070300C5
:10B030009807030000B583B00023019305E0019851
:10B04000FFF7DEFF019B01330193019B012BF6D932
:10B0500000BF03B05DF804FB00B583B0002301938B
:10B0600005E00198FFF7B2FF019B01330193019BBB
:10B07000012BF6D900BF03B05DF804FB00B583B027
:10B080000190019B012B03D907495C20FDF7D2FFFA
:10B09000064A019B13441B781846FFF703FF00BFC5
:10B0A00003B05DF804FB00BF3407030098070300FA
:10B0B000A0DF704700BF1846A2DF704700BF1846E8
:10B0C000A6DF704700BF184682B001900091009B38
:10B0D0009A88019BDA8100BF02B0704782B001906C
:10B0E0000091019B4FF6FF72DA8100BF02B07047FA
:10B0F00000B585B001900091009B5B89022B18D1AF
:10B10000019B1B68002B14D0009B0C33184602F0E7
:10B110007FF80346002B03D000238DF80C3002E0AB
:10B1200001238DF80C30019B1B6803AA114601987E
:10B13000984700BF05B05DF804FB00B585B00190ED
:10B140000091009B06330393039B1A88019B5B8944
:10B150009A4203D103990198FFF7CAFF00BF05B0D7
:10B160005DF804FB00B585B001900091009B03934E
:10B17000019B1B88112B08D0502B0BD0102B0ED10C
:10B1800001990398FFF7A0FF0AE001990398FFF7E0
:10B19000A5FF05E001990398FFF7CFFF00E000BF8E
:10B1A00000BF05B05DF804FB00B593B001900091BD
:10B1B0000AAB03220021184603F030FC9DF828302A
:10B1C000012262F303038DF828309DF82830012214
:10B1D00062F307138DF82830009B1B798DF8293016
:10B1E0009DF82A30012262F342038DF82A300BAB1E
:10B1F0001C220021184603F011FC9DF82C3043F06E
:10B2000010038DF82C3000230C9300230E930023A1
:10B210000F930AAB10930023119301238DF8123082
:10B2200042F63723ADF8103003AB03220021184655
:10B2300003F0F4FB009B5B798DF80C30009B9B794D
:10B240008DF80D309DF80E30012262F342038DF827
:10B250000E309DF80E306FF3C3038DF80E309DF85D
:10B260000E306FF304138DF80E309DF80E306FF32F
:10B2700000038DF80E3005AB14220021184603F0B0
:10B28000CDFB04AB059303AB06932423ADF81C3030
:10B290000023ADF81E302423ADF82030019B9888A0
:10B2A000019B063305AA0BA9FFF706FF03461846C4
:10B2B00013B05DF804FB00B585B001900091009BD0
:10B2C0001A68019B1A60019B4FF6FF72DA81012315
:10B2D0008DF80A3041F60D03ADF80830019B1A1DB8
:10B2E00002AB19460120FFF7E3FE0390039B002BFE
:10B2F00001D0039B0AE000990198FFF755FF0390E6
:10B30000039B002B01D0039B00E00023184605B0EF
:10B310005DF804FB00B589B001900091019BDB89C9
:10B320004FF6FF7293422ED02423ADF81A30BDF8A9
:10B330001A30ADF8183002AB10220021184603F085
:10B340006DFB019BDB88ADF8083001238DF80A30D6
:10B350000023ADF80C3006AB0493009B0593019BD2
:10B36000DB8902AA11461846FFF7AAFE0790079B41
:10B37000002B0AD1BDF81830BDF81A209A4204D02B
:10B380000C23079301E008230793079B184609B095
:10B390005DF804FB00B583B01F4B0193019B0222B3
:10B3A0001A61019B02225A61019B1C4A9A61019B0E
:10B3B0001B4ADA61019B4FF400721A62019B002262
:10B3C0009A62019B00225A62019B0022DA62019B71
:10B3D000124A9A64019B134ADA64019B10221A658F
:10B3E000019B00229A65019B00225A65019B002265
:10B3F000DA65019B07330C49184603F042FB019BB9
:10B400000A49184603F03DFB019B20229A7100BFB8
:10B4100003B05DF804FB00BFD43700209C07030095
:10B420004C3800204C3A0020A8070300AC0703006A
:10B4300000B589B003900291019200230693039B0B
:10B44000DB680593039B1B690493049A059B9A424E
:10B4500005D9049A059BD31A013B079307E0039B88
:10B460009A680499059BCB1A1344013B0793039BED
:10B470009A68059BD31A079A934228BF13460793ED
:10B48000079A019B934228BF13460793039B5A6870
:10B49000059B1344079A0299184603F096FA069AF8
:10B4A000079B13440693029A079B13440293019A45
:10B4B000079BD31A0193059A079B13440593039B9B
:10B4C0009B68059A9A4201D100230593039B059A34
:10B4D000DA60019B002BB5D1069B184609B05DF8D8
:10B4E00004FB00B589B0039002910192039BDB68D5
:10B4F0000793039B9A68079BD31A0693069A019BAE
:10B500009A420ED9039B5A68079B1344019A0299E9
:10B51000184603F05AFA079A019B1A44039BDA6013
:10B520001AE0069B0593039B5A68079B1344059AF0
:10B530000299184603F049FA019A069BD31A05931B
:10B54000039B5868029A069B1344059A194603F018
:10B550003CFA039B059ADA6000BF09B05DF804FB72
:10B5600086B00190019B1B690493019BDB680393E8
:10B57000049A039B9A4208D8019B9A68039BD21AAB
:10B58000049B1344013B059304E0049A039BD31AE4
:10B59000013B0593059B184606B0704700B589B07E
:10B5A000039002910192029B0693039B5A1C13463F
:10B5B0005B001344DB001F4A13440593059B5B6942
:10B5C000012B17D0002B02D0022B23D029E00598A5
:10B5D000FFF7C6FF0490049A019B9A4202D200230F
:10B5E000079321E0019B0793019A06990598FFF7BD
:10B5F00078FF19E00598FFF7B3FF0490019A049BC8
:10B60000934228BF13460793079A06990598FFF7B8
:10B6100068FF09E0019A06990598FFF709FF07906E
:10B6200002E00023079300BF079B184609B05DF8AE
:10B6300004FB00BFD437002000B587B0039002910F
:10B6400001920F4B1B78002B01D1FFF7A3FE0023C3
:10B650008DF813300DF113031846F9F719FE019A0E
:10B6600002990398FFF79AFF05909DF8133018464A
:10B67000F9F724FE059B184607B05DF804FB00BFF0
:10B68000D437002008B5FFF785FE00BF08BD0FB412
:10B6900000B5A3B025AB009301A8009B249A80219C
:10B6A00003F085F92190219B802B06DD01AB8022E0
:10B6B00019460020FFF7C0FF08E0219B002B05DDA5
:10B6C000219A01AB19460020FFF7B6FF219B1846CF
:10B6D00023B05DF804EB04B070476DDF704700BF26
:10B6E000184672DF704700BF184679DF704700BF09
:10B6F00018467DDF704700BF184664DF704700BF03
:10B70000184682B003460091ADF80630BDF8063009
:10B71000DAB2009B1A70BDF806301B0A9AB2009B81
:10B720000133D2B21A700223184602B0704700B536
:10B7300089B0039002911346ADF80630029B1B8836
:10B7400003F10902BDF806309A4201D90C2351E0F9
:10B7500005AB1846FFF7C1FF0790079B002B01D0F0
:10B76000079B47E0029B1B881A46039B1344082251
:10B770001A70029B1B8801339AB2029B1A80029BAB
:10B780001B881A46039B13441B221A70029B1B88BA
:10B7900001339AB2029B1A80029B1B881A46039BB4
:10B7A000981805AB01330622194603F00EF9029BE7
:10B7B0001B8806339AB2029B1A809DF8143023F03E
:10B7C0000103DBB2002B07D1029B1B881A46039BA7
:10B7D000134400221A7006E0029B1B881A46039B42
:10B7E000134401221A70029B1B8801339AB2029BF8
:10B7F0001A800023184609B05DF804FB00B589B033
:10B80000039002910192ADF80230039B1B78012B4B
:10B8100005D1039B5B78002B01D1072389E0019BB5
:10B820001B889A1CBDF802309A420ED8039B1B78E5
:10B83000012B0CD1019B1B881A46039B5B78134498
:10B840009A1CBDF802309A4201D90C2371E0019B89
:10B850001B88BDF80220D31A9BB2023BADF81C3006
:10B86000BDF81C30ADF81630019B1B880233029ADC
:10B8700013440DF1160211461846FFF73AFF0690E1
:10B88000069B002B01D0069B53E0039B1B78022BE9
:10B8900009D1BDF81630BDF81C209A4203D3092304
:10B8A0008DF81F3017E008238DF81F30039B1B789D
:10B8B000012B0CD1039B5B789BB2BDF81C209A42F4
:10B8C00005D3039B5B789BB2ADF8163003E0BDF85F
:10B8D0001C30ADF81630BDF81630FE2B01D90C2304
:10B8E00027E0BDF81630DAB2019B1B881946029B8F
:10B8F0000B440132D2B21A70019B1B8801339AB2F9
:10B90000019B1A80019B1B881A46029B13449DF8D9
:10B910001F201A70019B1B8801339AB2019B1A8069
:10B92000019B1A88BDF8163013449AB2019B1A8005
:10B930000023184609B05DF804FB00B587B00390FA
:10B9400002911346ADF80630029B1B881A1DBDF804
:10B9500006309A4201D90C2339E00DF11203184642
:10B96000FFF7C3FE0590059B002B01D0059B2EE041
:10B97000029B1B881A46039B134403221A70029BE6
:10B980001B8801339AB2029B1A80029B1B881A46BD
:10B99000039B134419221A70029B1B8801339AB22D
:10B9A000029B1A80BDF81220029B1B881946039B3C
:10B9B0000B4419461046FFF7A4FE03461946029BA6
:10B9C0001A888BB213449AB2029B1A80002318463D
:10B9D00007B05DF804FB84B0029101921A46034659
:10B9E0008DF80F301346ADF80C30019B1B88DA1C24
:10B9F000BDF80C309A4201D90C2328E0019B1B882A
:10BA00001A46029B134402221A70019B1B880133C1
:10BA10009AB2019B1A80019B1B881A46029B134411
:10BA200001221A70019B1B8801339AB2019B1A8074
:10BA3000019B1B881A46029B13449DF80F201A7025
:10BA4000019B1B8801339AB2019B1A800023184680
:10BA500004B0704784B0029101921A4603468DF8F3
:10BA60000F301346ADF80C30019B1B88DA1CBDF873
:10BA70000C309A4201D90C2328E0019B1B881A46FE
:10BA8000029B134402221A70019B1B8801339AB255
:10BA9000019B1A80019B1B881A46029B13440A22B1
:10BAA0001A70019B1B8801339AB2019B1A80019B7B
:10BAB0001B881A46029B13449DF80F201A70019BA5
:10BAC0001B8801339AB2019B1A800023184604B0E8
:10BAD000704700B58BB0039001930B468DF80B3087
:10BAE00013468DF80A3000238DF823300C9B1B88F9
:10BAF000ADF82030002309936DE0039B5A68099B41
:10BB00009B001A4404AB106818600DF1170104ABD8
:10BB100000221846FFF7F1FD0790079B002B01D08C
:10BB2000079B7AE09DF817309DF80A209A424FD182
:10BB30009DF82330002B01D0002300E002238DF874
:10BB40001B300C9B1B881A469DF817301A449DF831
:10BB50001B301A44BDF834309A4201DD0C235CE0FE
:10BB60009DF8233083F00103DBB2002B16D00C9B31
:10BB70001B8801339AB20C9B1A800C9B1B881A46B7
:10BB8000019B13449DF80B201A700C9B1B880133FA
:10BB90009AB20C9B1A8001238DF823300C9B1B88D2
:10BBA0001A46019B1A440DF1170104AB1846FFF722
:10BBB000A4FD0790079B002B01D0079B2DE00C9B59
:10BBC0001A889DF817309BB213449AB20C9B1A80C6
:10BBD000099B01330993039B1B881A46099B9342D7
:10BBE0008BDB9DF82330002B16D00C9B1A88BDF8F8
:10BBF0002030D31A9BB2013BADF81830BDF8183095
:10BC0000FF2B01D90C2308E0BDF82030019A134422
:10BC1000BDF81820D2B21A70002318460BB05DF898
:10BC200004FB00B589B0059003930B468DF81330E3
:10BC300013468DF812309DF81310BDF82C30019387
:10BC40000A9B0093039B02220598FFF742FF07908F
:10BC5000079B002B01D0079B12E09DF81210BDF846
:10BC60002C3001930A9B0093039B10220598FFF749
:10BC700030FF0790079B002B01D0079B00E00023BB
:10BC8000184609B05DF804FB82B00190019B1B8847
:10BC9000052B0AD9019B1B88B3F5486F07D9019B77
:10BCA0001B884FF6FF72934201D0072325E0019BCA
:10BCB0005B88052B0AD9019B5B88B3F5486F07D9D0
:10BCC000019B5B884FF6FF72934201D0072314E07B
:10BCD000019B1B884FF6FF7293420DD0019B5B883E
:10BCE0004FF6FF72934207D0019B1A88019B5B8835
:10BCF0009A4201D9072300E00023184602B070479A
:10BD000000B587B0039002910192ADF80230019B1B
:10BD10001B889A1DBDF802309A4201D90C234BE0D2
:10BD20000398FFF7B1FF0590059B002B01D0059B01
:10BD300042E0019B1B881A46029B134405221A709D
:10BD4000019B1B8801339AB2019B1A80019B1B88BF
:10BD50001A46029B134412221A70019B1B8801335E
:10BD60009AB2019B1A80039B1A88019B1B88194673
:10BD7000029B0B4419461046FFF7C3FC03461946C5
:10BD8000019B1A888BB213449AB2019B1A80039BC1
:10BD90005A88019B1B881946029B0B441946104682
:10BDA000FFF7AFFC03461946019B1A888BB2134478
:10BDB0009AB2019B1A800023184607B05DF804FB75
:10BDC00000B587B0039002910192ADF80230039B59
:10BDD0009B8802330593019B1B881A46059B1344DD
:10BDE0009A1CBDF802309A4201D90C2354E0059BFD
:10BDF000FE2B01D90C234FE0059BDAB2019B1B8877
:10BE00001946029B0B440132D2B21A70019B1B8867
:10BE100001339AB2019B1A80019B1B881A46029B30
:10BE20001344FF221A70019B1B8801339AB2019BB5
:10BE30001A80039B1A88019B1B881946029B0B449E
:10BE400019461046FFF75DFC03461946019B1A8808
:10BE50008BB213449AB2019B1A80039B9B88002BE0
:10BE600019D0039B9B68002B01D1072314E0019B91
:10BE70001B881A46029B9818039B9968039B9B8812
:10BE80001A4602F0A2FD019B1A88039B9B8813446B
:10BE90009AB2019B1A800023184607B05DF804FB94
:10BEA00000B589B0039002910192ADF80230039B76
:10BEB0009B6A002B01D1072372E000238DF81F300D
:10BEC00066E0039B996A9DF81F2013465B001344AC
:10BED0009B000B440693069B9B8802330593059BAE
:10BEE000FE2B01D90C235BE0059BDAB2019B1B887A
:10BEF0001946029B0B440132D2B21A70019B1B8877
:10BF000001339AB2019B1A80019B1B881A46029B3F
:10BF1000134416221A70019B1B8801339AB2019BAD
:10BF20001A80069B1A88019B1B881946029B0B44AA
:10BF300019461046FFF7E5FB03461946019B1A8890
:10BF40008BB213449AB2019B1A80069B9B88002BEC
:10BF500019D0069B9B68002B01D1072320E0019B91
:10BF60001B881A46029B9818069B9968069B9B881B
:10BF70001A4602F02AFD019B1A88069B9B881344EF
:10BF80009AB2019B1A809DF81F3001338DF81F3043
:10BF9000039B93F82C309DF81F209A4291D30023E5
:10BFA000184609B05DF804FB00B589B0059004910E
:10BFB000039200230793039B1B88ADF81A30039B61
:10BFC00000221A80059B93F82D30002B0CD0BDF871
:10BFD0001A301A4603990498FFF7A9FB0790079BAC
:10BFE000002B01D0079BC4E0059B9B78002B0CD055
:10BFF000BDF81A301A4603990498FFF79EFC079083
:10C00000079B002B01D0079BB3E0059BDB78002B3F
:10C010000ED0059BDB7858B2BDF81A30039A04990C
:10C02000FFF7D9FC0790079B002B01D0079BA0E0EE
:10C03000059B5B68002B0FD0059B5B6893F90000A4
:10C04000BDF81A30039A0499FFF704FD0790079B87
:10C05000002B01D0079B8CE0059B1B89002B12D085
:10C06000059B03F10800BDF81A300193039B009370
:10C07000049B06220221FFF7D4FD0790079B002BAB
:10C0800001D0079B75E0059B1B8A002B12D0059BF6
:10C0900003F11000BDF81A300193039B0093049B39
:10C0A00007220321FFF7BDFD0790079B002B01D05E
:10C0B000079B5EE0059B1B8B002B12D0059B03F1B9
:10C0C0001800BDF81A300193039B0093049B1522BE
:10C0D0001421FFF7A6FD0790079B002B01D0079BBB
:10C0E00047E0059B1B6A002B0DD0059B186ABDF825
:10C0F0001A30039A0499FFF703FE0790079B002B61
:10C1000001D0079B35E0059B5B6A002B0DD0059B9A
:10C11000586ABDF81A30039A0499FFF751FE079048
:10C12000079B002B01D0079B23E0059B93F82C3045
:10C13000002B0CD0BDF81A30039A04990598FFF72C
:10C14000AFFE0790079B002B01D0079B11E0059BDA
:10C150001B78002B0CD0BDF81A30039A049905986F
:10C16000FFF74CFB0790079B002B01D0079B00E0DB
:10C17000079B184609B05DF804FB82B00190019B53
:10C18000DB7803F00403002B01D1072300E0002338
:10C19000184602B0704782B00190019BDB78002BFB
:10C1A00001D0072300E00023184602B0704700B515
:10C1B00097B0019000911F23ADF84A301F23ADF8CE
:10C1C0004830019B002B18D00198FFF7D6FF139041
:10C1D000139B002B01D0139B3FE00DF14A020AABE9
:10C1E00019460198FFF7E0FE1390139B002B01D036
:10C1F000139B32E00AAB159304E000231593002350
:10C20000ADF84A30009B002B17D00098FFF7C3FF12
:10C210001390139B002B01D0139B1EE012AA02ABBC
:10C2200019460098FFF7C0FE1390139B002B01D016
:10C23000139B12E002AB149304E000231493002339
:10C24000ADF84830BDF84A30D9B2BDF84830DBB25D
:10C25000149A1598FFF745FA0346184617B05DF88B
:10C2600004FB73DF704700BF184682B00190019B4A
:10C2700093F8D630184602B0704784B0019000237E
:10C2800003930AE0019A039B13441B78002B01D00F
:10C29000012306E0039B01330393039B052BF1D994
:10C2A0000023184604B0704782B003468DF807306B
:10C2B0009DF807305A1C074B83FB02135910D31704
:10C2C000C91A0B469B000B44D11ACBB2184602B0D8
:10C2D000704700BF6766666682B001900091009B60
:10C2E000DB7B012B04D1009B9A88019BA3F8C8201B
:10C2F00000BF02B0704700B585B001900091019B6E
:10C30000002283F8D420009B9A88019BB3F8C830A0
:10C310009A4218D1019B1B7983F00103DBB2002BF9
:10C3200011D00121019800F051FA0390039B002BDA
:10C3300009D0019BD3F8D030002B04D0019BD3F857
:10C34000D0300398984700BF05B05DF804FB00B5F6
:10C3500085B001900091009B1B7A002B18D1019BA6
:10C36000DB781846FFF7A0FF03461946019800F056
:10C370002DFA0390039B002B0BD0019BD3F8D030F8
:10C38000002B06D0019BD3F8D0300398984700E0EB
:10C3900000BF05B05DF804FB08B50020F9F756FDB5
:10C3A0000346184608BD000000B585B001900B4655
:10C3B0008DF80330019B26331846FFF75EFF0346D6
:10C3C0008DF80F309DF80330013B032B2AD801A2D2
:10C3D00052F823F0E5C30200F9C302000DC40200C5
:10C3E00019C40200019B9B79002B05D09DF80F30EA
:10C3F000002B01D0012316E0019BDB79002B05D037
:10C400009DF80F30002B01D002230CE0019B1B7A1A
:10C41000002B01D0032306E0019B5B7A002B01D0A7
:10C42000042300E00023184605B05DF804FB00BFBC
:10C4300082B001900091019B01229A70019B03F14F
:10C440002502009B5A60009B01221A70009B00226B
:10C450009A81009B00225A810023184602B070473F
:10C4600082B001900091019B02229A70019B03F11E
:10C470002502009B5A60009B01221A70019B1B69D8
:10C480009AB2009B9A81019BDB689AB2009B5A8109
:10C490000023184602B0704700B585B001900091A6
:10C4A000019B5B699AB2009B5A81019B9B699AB27E
:10C4B000009B9A81019B5B79002B24D0019B93F810
:10C4C000D43083F00103DBB2002B1CD00198FFF7BE
:10C4D000CCFE0346002B16D0009B02221A72019B51
:10C4E000042283F83320019B303300211846FFF7E4
:10C4F0005EFE0390039B002B01D0039B07E0019B92
:10C5000005229A7002E0019B03229A7000231846CC
:10C5100005B05DF804FB00B585B001900091019B6A
:10C52000DB699AB2009B5A81019B1B6A9AB2009BFD
:10C530009A81019B5B79002B24D0019B93F8D43026
:10C5400083F00103DBB2002B1CD00198FFF78DFEB6
:10C550000346002B16D0009B02221A72019B042274
:10C5600083F83320019B303300211846FFF71FFE6C
:10C570000390039B002B01D0039B07E0019B062245
:10C580009A7002E0019B04229A700023184605B0BD
:10C590005DF804FB82B001900B468DF80330019BDF
:10C5A0009DF8032083F8242000BF02B0704730B507
:10C5B00087B001900091009B002B02D0019B002BC3
:10C5C00001D10E23FFE0019B01221A70019B002282
:10C5D000DA70019A009B141D03F178050FCD0FC48A
:10C5E00095E80F0084E80F00019B002283F82420C7
:10C5F000009BD3F89820019BC3F8CC20009BD3F874
:10C600009C20019BC3F8D020019B4FF6FF72A3F83A
:10C61000C820019B253307220021184602F0FEF9AD
:10C62000019B30333C220021184602F0F7F9009BB1
:10C630001A78019B83F83020009B9A78019B83F83D
:10C640003220009BDA78019B83F83320009B5A78D4
:10C65000019B83F83120019B009A4033103292E80D
:10C66000030083E80300019B009A3833083292E804
:10C67000030083E80300019B009A4833183292E8D4
:10C68000030083E80300009B93F82D20019B83F8AF
:10C690005D20009B5B6A002B2ED0019B03F16C0296
:10C6A000019B5A65019B03F17802019B5A67009B2D
:10C6B0005A6A019B5B6D12881A80009B5A6A019B23
:10C6C0005B6D92889A80002305930EE0009B5B6A65
:10C6D0009A68059B13441978019A059B1344783393
:10C6E0000A461A70059B01330593019B5B6D9B887D
:10C6F0001A46059B9342E9D3009B9B6A002B3AD0D4
:10C70000019B03F1A402019BC3F8A020019B03F14C
:10C710009802019B9A65019B9B6D019AA4329A60D5
:10C72000009B9A6A019B9B6D92889A80009B9A6AF3
:10C73000019B9B6D12881A80002304930EE0009BDE
:10C740009B6A9A68049B13441978019A049B1344CA
:10C75000A4330A461A70049B01330493019B9B6D1A
:10C760009B881A46049B9342E9D3009B93F82C20A4
:10C77000019B83F85C20009B1B6A002B10D0019B5F
:10C7800003F1C402019B1A65009B1A6A019B1B6D91
:10C7900052885A80009B1A6A019B1B6D12881A806E
:10C7A000009B5B68002B03D0009B5A68019B5A6377
:10C7B000019B03F13002009B3C3319461046FFF702
:10C7C000F6FC0390039B184607B030BD00B589B056
:10C7D00001900B468DF80330019B1B7883F0010319
:10C7E000DBB2002B01D00823D2E0019B9DF803208F
:10C7F000DA70FFF7D1FD0346002B04D0019B012224
:10C800005A700023C4E0019B2533072200211846FB
:10C8100002F004F9019B9B79002B03D0019BDB788C
:10C82000012B0FD0019BDB79002B03D0019BDB7820
:10C83000012B07D0019BDB79002B16D0019BDB7805
:10C84000022B12D1019BD3F8CC30002B09D0019BD5
:10C85000012283F82C20019BD3F8CC300820984784
:10C8600003E0019B002283F82C209DF80330194639
:10C870000198FFF799FD03461A46019BDA70019B68
:10C88000D3F8CC30002B21D0019BDB78032B03D0D5
:10C89000019BDB78042B19D1019B5B79002B15D010
:10C8A000019B93F8D43083F00103DBB2002B0DD051
:10C8B000019B002283F8D620019B012283F8D5201A
:10C8C000019BD3F8CC300720984703E0019B00225E
:10C8D00083F8D52003AB10220021184602F09EF801
:10C8E00000238DF80C3000238DF81430019BDB7889
:10C8F000042B2DD801A252F823F000BF49C9020031
:10C9000011C902001FC902002DC902003BC9020063
:10C9100003AB19460198FFF78BFD079019E003ABB5
:10C9200019460198FFF79CFD079012E003AB1946EA
:10C930000198FFF7B1FD07900BE003AB1946019892
:10C94000FFF7E9FD079004E0019B00229A7000E0E8
:10C9500000BF019BDB78002B0DD0019B93F82420B6
:10C9600003AB11461846FFF77CFC0790079B002B92
:10C9700001D0079B0CE0019BD3F8CC30002B06D0F4
:10C98000019BD3F8CC30019A927810469847002347
:10C99000184609B05DF804FB00B585B00190009120
:10C9A000009B0393019B1B88112B08D01B2B0BD0E2
:10C9B000102B0ED101990398FFF78EFC0AE0019924
:10C9C0000398FFF798FC05E001990398FFF7BFFC77
:10C9D00000E000BF00BF05B05DF804FB00B585B006
:10C9E00001900091009B0393019B023B012B1BD8FC
:10C9F000039B5B78002B19D0039B00225A70039B8A
:10CA0000DB7819460398FFF7E1FE0290029B002BAA
:10CA10000CD0039BD3F8D030002B07D0039BD3F866
:10CA2000D0300298984701E000BF00E000BF00BF8F
:10CA300005B05DF804FB75DF704700BF184676DF70
:10CA4000704700BF18467ADF704700BF18467BDF8B
:10CA5000704700BF1846000084B00346ADF80630AA
:10CA60000023039316E00F49039A13469B001344D7
:10CA70009B000B441B88BDF806209A4207D1039AFD
:10CA800013469B0013449B00064A134406E0039B95
:10CA900001330393039B002BE5D00023184604B019
:10CAA000704700BF7C3A002082B001900B46ADF881
:10CAB0000230019BBDF802201A80019B00221A72ED
:10CAC000019B054903F10A020B4603CB106051603C
:10CAD00000BF02B0704700BFAC3A002082B00190A6
:10CAE000019B4FF6FF721A8000BF02B0704788B0FA
:10CAF0000390029111461A460B46ADF806301346D4
:10CB0000ADF80430039B9B881A46BDF806301344E9
:10CB10000793039B9B881946039B9B88BDF80620BF
:10CB2000934228BF13469BB2CB1A0693039BDB8824
:10CB30001A46BDF8043013440593039BDB8819465D
:10CB4000039BDB88BDF80420934228BF13469BB2A9
:10CB5000CB1A0493029B5A88039B1B889A4205D3E5
:10CB6000029B5A88039B5B889A4201D900231CE0F0
:10CB7000029B9B881A46069B934205D8029B9B8882
:10CB80001A46079B934201D200230EE0029BDB88EA
:10CB90001A46049B934205D8029BDB881A46059BE4
:10CBA000934201D2002300E00123184608B07047E9
:10CBB00000B583B00190064B9B69002B03D0044B5A
:10CBC0009B690198984700BF03B05DF804FB00BF64
:10CBD000903A002000B585B003460091ADF80630CC
:10CBE000BDF8063000991846FFF725FF0390039B18
:10CBF000002B05D0039B112B02D00398FFF7D8FF21
:10CC0000039B002B0CBF01230023DBB2184605B0A9
:10CC10005DF804FB00B589B00190019B0793079B69
:10CC20009BB21846FFF718FF0690069B002B42D0D8
:10CC3000069B1A7A224B1B7B9A4215D2079B9AB20B
:10CC4000069B0A3319461046FFF7C4FF03468DF8CA
:10CC500017309DF81730002B2DD0069B1B7A01331F
:10CC6000DAB2069B1A7226E0069B00221A72144B57
:10CC70001B7C002B0FD0079B9BB23B211846FFF774
:10CC8000DEFE0490049B002B05D0049B082B02D0F1
:10CC90000498FFF78DFF0A4B5B69002B0BD0002334
:10CCA0008DF80C30079B9BB2ADF80E30044B5B69DE
:10CCB00003AA1046984700BF09B05DF804FB00BF07
:10CCC000903A002030B587B00190019B002B01D134
:10CCD0000E2353E02B4A019B14461D460FCD0FC473
:10CCE00095E8070084E80700264B274A1A60019B55
:10CCF0001B68002B11D0019B1B681846FFF7A3FE91
:10CD00000490049B002B01D0049B37E0019B1A6820
:10CD10001D4B1068516803C308E01B48FFF797FEDE
:10CD20000490049B002B01D0049B27E00023059373
:10CD300020E0059A13469B0013449B00134A1344BA
:10CD400003930398FFF7CAFE059B5B01104A1A4440
:10CD5000039B5A60039B04330E4A00211846F8F7E0
:10CD6000A1F90490049B002B01D0032306E0059B4E
:10CD700001330593059B002BDBD00023184607B039
:10CD800030BD00BF903A0020AC3A00207C3A002031
:10CD90005C3A002015CC020000B587B00346009134
:10CDA000ADF80630009B5B7A002B1AD1009B1B7AF2
:10CDB000002B03D1164B5B68059302E0144B9B6874
:10CDC0000593009B5B68BDF8062005991846F8F7A7
:10CDD00099F90490049B002B16D00498FFF7E8FE05
:10CDE00012E0009B00221A72094B5B69002B0BD0EA
:10CDF00001238DF80C30BDF80630ADF80E30044B31
:10CE00005B6903AA1046984700BF07B05DF804FBB2
:10CE1000903A002000B585B00190019BDB7B8DF836
:10CE20000F30019B9B88ADF80C309DF80F30012B23
:10CE30002CD14FF6FF70FFF70FFE0290029B002BE4
:10CE400003D10420FFF7B4FE21E0BDF80C301946F1
:10CE50000298FFF729FE029B03F10A00019B03F1F0
:10CE600010014FF6FF7340F2F312FFF740FE034646
:10CE70001A46029B5A72074BDB89002B07D1BDF87B
:10CE80000C3002991846FFF787FF00E000BF05B09D
:10CE90005DF804FB903A002000B587B00190019B3B
:10CEA0009B88ADF81630BDF816301846FFF7D4FD54
:10CEB0000490049B002B0ED0049B5B681846F8F787
:10CEC00053F90390039B002B02D00398FFF770FEE9
:10CED0000498FFF703FE00BF07B05DF804FB0000F5
:10CEE00000B587B00190019B06330593059B1A8816
:10CEF000194BDB899A422BD1059B5B89022B27D1E9
:10CF0000019B9B88ADF81230BDF812301846FFF730
:10CF1000A3FD0390039B002B1AD0059B0C331846EE
:10CF200000F076F90346002B06D0BDF812300399C5
:10CF30001846FFF731FF0BE0039B5B681846F8F7D4
:10CF400013F90290029B002B02D00298FFF730FEEB
:10CF500000BF07B05DF804FB903A002000B585B033
:10CF60000190019B9B88ADF80E30BDF80E3018463D
:10CF7000FFF772FD0290029B002B15D0029B03F17C
:10CF80000A00019B03F108014FF6FF7340F2F31210
:10CF9000FFF7ADFD03461A46029B5A72BDF80E30EC
:10CFA00002991846FFF7F8FE00BF05B05DF804FBD4
:10CFB00000B583B001900091019B1B88112B0DD00F
:10CFC000112B02DC102B05D014E0122B0ED0502BAD
:10CFD00008D00FE00198FFF71DFF0BE00198FFF765
:10CFE0005BFF07E00198FFF77BFF03E00198FFF785
:10CFF000B5FF00BF00BF03B05DF804FB00B585B00E
:10D000000346ADF80630164B5B6CDB431846F9F768
:10D01000B7FB0346ADF80E30BDF80E304FF6FF7289
:10D02000934217D0BDF80E300D4A5B001344BDF893
:10D0300006209A80BDF8062001230A490A48F9F71C
:10D04000C1FBBDF80620012308490748F9F7BAFBE0
:10D05000012300E00023184605B05DF804FB00BF83
:10D06000B43A0020FC3A0020B83A0020F83A0020F8
:10D0700000B585B00346ADF80E30BDF80E20002394
:10D08000009313461D2204490448F9F7B6FB00BF7C
:10D0900005B05DF804FB00BFF83A0020B83A002064
:10D0A00000B583B00346ADF80630BDF80620002376
:10D0B00003490448F9F786FB00BF03B05DF804FBA1
:10D0C000FC3A0020B83A002000B5A5B0134B9B6C89
:10D0D000DA43124B5B6C1A406B4611491846F9F75C
:10D0E000D5FB12AB69464422184601F06EFC0023C2
:10D0F00023930BE0239B5B0024AA134433F8443CA6
:10D100001846FFF7B5FF239B01332393129B239A05
:10D110009A42EFD300BF25B05DF804FBB43A00207B
:10D12000B83A002000B585B001900091019B1B88A2
:10D13000112B27D01A2B2BD0102B4AD1FFF7C4FF6D
:10D14000019B9B881846FFF759FF034683F00103B4
:10D15000DBB2002B05D0214AE5210420F7F71CF9AA
:10D1600037E0019BDB7B022B0CBF012300238DF8F2
:10D170000F30019B9A889DF80F3019491948F9F72B
:10D1800021FB26E0019B9B881846FFF789FF20E0E2
:10D19000019B9A88019B1B7AC3F30313DBB2012B1B
:10D1A0008CBF01230023DBB20F490E48F9F70AFBBD
:10D1B000019B9A88019B1B7AC3F30313DBB2022BFA
:10D1C0008CBF01230023DBB208490648F9F7FAFABD
:10D1D00000BF00BF05B05DF804FB00BFB40703004B
:10D1E000003B0020B83A0020043B0020083B002010
:10D1F00082B00190019B1B781AB2019B01331B780E
:10D200001B021BB213431BB29BB2184602B07047FD
:10D2100000B585B001900198FFF7EAFF0346ADF82D
:10D220000E30BDF80E3003F00103002B14BF0123B4
:10D230000023DBB2184605B05DF804FB90DF7047B1
:10D2400000BF18469EDF704700BF1846ADDF70472D
:10D2500000BF184682B00190019B27221A80019BD3
:10D2600017225A80019B00221A71019B00225A71D9
:10D27000019B2B229A71019B1B22DA7100BF02B025
:10D280007047000000B587B003460091ADF8063046
:10D29000BDF80630009ADB0013441B7B9BB2ADF84F
:10D2A0000C30BDF80630009ADB0013441B7B9BB2A8
:10D2B000ADF80E300023ADF810300023ADF8123079
:10D2C00003A9BDF8063000221846FFF7B7FF059006
:10D2D000059B002B0AD0074B1B881B0443F0010061
:10D2E000BDF80620059B0449F6F733FC00BF07B0E4
:10D2F0005DF804FB802A00203008030000B587B0E9
:10D3000001900091009B9B88ADF80E30BDF80E3067
:10D31000DB00019A134406330593019B1A79059BA0
:10D320009A71009BDB7B012B02D0022B05D009E018
:10D33000019B1A88059B1A8004E0019B5A88059B73
:10D340001A8000BF059B1A88059B5B889A4220D9EA
:10D35000059B1A88BDF80E3011461846FFF772FF7C
:10D360000490049B002B03D1059B01225A7110E00D
:10D37000049B112B03D1059B01221A7109E00D4B6F
:10D380001B881B0443F00103049A0B491846F6F767
:10D39000CFFB059B9A79059BDB799A4205D9BDF8AD
:10D3A0000E3001991846FFF76DFF00BF07B05DF81A
:10D3B00004FB00BF802A00209008030000B583B062
:10D3C00001900091009B9B88DB00019A1344063377
:10D3D0001846FFF73FFF00BF03B05DF804FB00B540
:10D3E00087B001900091009B9B88ADF81630009BA0
:10D3F0005B89ADF81430BDF81630DB00019A134498
:10D4000006330493049B1B88BDF81420934228BF65
:10D4100013469AB2049B5A80049B5B88172B38BF33
:10D4200017239AB2049B5A80019B1B69002B15D0CD
:10D43000049B5B79002B11D040F67723ADF80830C0
:10D44000BDF81630ADF80A30049B5B88ADF80C309F
:10D45000019B1B6902AA114601989847049B002270
:10D460005A71049B00221A7100BF07B05DF804FBDB
:10D4700000B589B001900091009B9B88ADF81A30EF
:10D48000009BDB88ADF81830BDF81A30DB00019A3C
:10D49000134406330593BDF81830172B38BF1723F4
:10D4A000ADF81830059B1B88BDF81820934228BFA3
:10D4B00013469AB2059B5A80059B00221A71059B60
:10D4C0001A88BDF81A3011461846FFF7BFFE0790BC
:10D4D000079B002B09D0144B1B881B0443F001034E
:10D4E000079A12491846F6F723FB059B5B79002B38
:10D4F00016D1019B1B69002B13D040F67723ADF8A2
:10D500000C30BDF81A30ADF80E30059B5B88ADF8D5
:10D510001030019B1B6903AA11460198984700E04F
:10D5200000BF09B05DF804FB802A0020D408030086
:10D5300030B593B001900091009B04AC1D1D0FCD40
:10D540000FC40FCD0FC40FCD0FC42B682360BDF8DF
:10D550001030ADF84630BDF81420BDF84630D1B2D9
:10D56000019ADB0013440A465A73019B1B69002B86
:10D5700019D002AB00221A609A804DF67A23ADF8DA
:10D580000830BDF84630ADF80A30BDF84630019A93
:10D59000DB0013445B7B8DF80C30019B1B6902AAF6
:10D5A00011460198984700BF13B030BD00B589B04F
:10D5B00001900091009B04330693069B1B88DB00BF
:10D5C000019A134406330593069B9B888DF813300C
:10D5D000059B9B799DF81320934228BF13468DF835
:10D5E000123002AB00221A605A609DF812309BB2D2
:10D5F000ADF808309DF812309BB2ADF80A30069BAA
:10D600001B8802A900221846FFF718FE0790079B07
:10D61000002B09D0064B1B881B0443F00103079A1B
:10D6200004491846F6F784FA00BF09B05DF804FB18
:10D63000802A00201809030000B585B001900091F0
:10D64000019B002B01D10E231DE0019B009A1A6162
:10D65000019B27221A80019B27225A80019B2B22A3
:10D660001A71002303930AE0039BDB00019A134421
:10D6700006331846FFF7EEFD039B01330393039B2C
:10D68000002BF1D00023184605B05DF804FB000024
:10D6900000B587B001900091009B0593019B9B888A
:10D6A000ADF81230BDF81230002B64D1019B1B88FD
:10D6B000232B26D0232B04DC102B09D0112B0CD0CC
:10D6C00024E03A2B0ED0552B11D0242B14D01DE082
:10D6D00001990598FFF712FE18E001990598FFF7E8
:10D6E0006DFE13E001990598FFF779FE0EE00199B0
:10D6F0000598FFF7BDFE09E001990598FFF718FFAF
:10D7000004E001990598FFF751FF00BFBDF8123002
:10D71000059ADB0013449B7A002B2DD0BDF8123004
:10D72000059ADB001344DA88BDF81230114618461A
:10D73000FFF788FD0390039B002B0ED1BDF812303C
:10D74000059ADB00134400229A72BDF81230059A44
:10D75000DB0013440122DA720EE0039B112B0BD085
:10D76000074B1B881B0443F00103039A0549184625
:10D77000F6F7DEF900E000BF07B05DF804FB00BF7C
:10D78000802A002090080300BFF34F8F054BDB6811
:10D7900003F4E0620349044B1343CB60BFF34F8FA4
:10D7A00000BFFDE700ED00E00400FA05024B034A6C
:10D7B0001A6000BF704700BFA02B00200090D0036C
:10D7C00008B500F05BF90346002B06D09A4B1B68A6
:10D7D0001B0A9A4A03F01F03136000F07BF903460B
:10D7E000002B02D0964B974A1A6000F08FF903463F
:10D7F000002B06D0944B1B685B0B944A03F0070385
:10D80000136000F0AFF90346002B05D0904BDB68A6
:10D810008F4A23F08073D36000F0C0F90346002BD9
:10D820000ED04FF080430022C3F80C214FF080430C
:10D830000022C3F810214FF080430022C3F838259E
:10D8400000F0D8F90346002B02D0824B03221A6065
:10D8500000F0ECF90346002B0BD07F4B05221A6039
:10D860007E4B01221A607E4B00221A607D4B3F22C4
:10D870001A6000F0F7F90346002B76D04FF0805382
:10D88000794AD3F80434C2F820354FF08053764AF1
:10D89000D3F80834C2F824354FF08053724AD3F8D5
:10D8A0000C34C2F828354FF080536F4AD3F8103447
:10D8B000C2F82C354FF080536B4AD3F81434C2F8B9
:10D8C00030354FF08053684AD3F81834C2F83435F5
:10D8D0004FF08053644AD3F81C34C2F840354FF0FF
:10D8E0008053614AD3F82034C2F844354FF0805356
:10D8F0005D4AD3F82434C2F848354FF080535A4A71
:10D90000D3F82834C2F84C354FF08053564AD3F838
:10D910002C34C2F850354FF08053534AD3F830348A
:10D92000C2F854354FF080534F4AD3F83434C2F81C
:10D9300060354FF080534C4AD3F83834C2F8643520
:10D940004FF08053484AD3F83C34C2F868354FF062
:10D950008053454AD3F84034C2F86C354FF08053B9
:10D96000414AD3F84434C2F8703500F097F90346C1
:10D97000002B05D03D4B1B683D4A03F04F0313605D
:10D9800000F0B8F90346002B0DD04FF08043D3F8D8
:10D99000003403F00103002B05D04FF080436FF0FB
:10D9A0000102C3F80024334BD3F88830314A43F4E2
:10D9B0007003C2F88830BFF34F8FBFF36F8F4FF003
:10D9C0001023D3F80032002B05DB4FF01023D3F8DF
:10D9D0000432002B2BDA284B0122C3F8042500BFA8
:10D9E000254BD3F80034002BFAD04FF0102315222A
:10D9F000C3F8002200BF204BD3F80034002BFAD02C
:10DA00004FF010231522C3F8042200BF1A4BD3F89D
:10DA10000034002BFAD0184B0022C3F8042500BFB5
:10DA2000154BD3F80034002BFAD0FFF7ADFEFFF70B
:10DA3000BDFE00BF08BD00BF2403001040350140FB
:10DA400074C007400DF0ADBA440200103C05004020
:10DA5000F0ED00E0A0050040105600408856004060
:10DA6000185600401456004000C0004058020010F4
:10DA7000E40E004000ED00E000E00140124B1B68A6
:10DA8000DBB2062B1DD1114B1B6803F00F03002BDB
:10DA900017D10F4B1B6803F0F003302B01D101238A
:10DAA00010E00B4B1B6803F0F003402B01D1012366
:10DAB00008E0074B1B6803F0F003502B01D1012352
:10DAC00000E0002318467047E00F00F0E40F00F07C
:10DAD000E80F00F00A4B1B68DBB2062B0DD1094B97
:10DAE0001B6803F00F03002B07D1074B1B6803F0E3
:10DAF000F003302B01D1012300E0002318467047CA
:10DB0000E00F00F0E40F00F0E80F00F0124B1B688C
:10DB1000DBB2062B1DD1114B1B6803F00F03002B4A
:10DB200017D10F4B1B6803F0F003302B01D10123F9
:10DB300010E00B4B1B6803F0F003402B01D10123D5
:10DB400008E0074B1B6803F0F003502B01D10123C1
:10DB500000E0002318467047E00F00F0E40F00F0EB
:10DB6000E80F00F00A4B1B68DBB2062B0DD1094B06
:10DB70001B6803F00F03002B07D1074B1B6803F052
:10DB8000F003302B01D1012300E000231846704739
:10DB9000E00F00F0E40F00F0E80F00F0124B1B68FC
:10DBA000DBB2062B1DD1114B1B6803F00F03002BBA
:10DBB00017D10F4B1B6803F0F003302B01D1012369
:10DBC00010E00B4B1B6803F0F003402B01D1012345
:10DBD00008E0074B1B6803F0F003502B01D1012331
:10DBE00000E0002318467047E00F00F0E40F00F05B
:10DBF000E80F00F00A4B1B68DBB2062B0DD1094B76
:10DC00001B6803F00F03002B07D1074B1B6803F0C1
:10DC1000F003302B01D1012300E0002318467047A8
:10DC2000E00F00F0E40F00F0E80F00F00A4B1B6873
:10DC3000DBB2062B0DD1094B1B6803F00F03002B41
:10DC400007D1074B1B6803F0F003302B01D10123F0
:10DC500000E0002318467047E00F00F0E40F00F0EA
:10DC6000E80F00F00A4B1B68DBB2062B0DD1094B05
:10DC70001B6803F00F03002B07D1074B1B6803F051
:10DC8000F003502B01D1012300E000231846704718
:10DC9000E00F00F0E40F00F0E80F00F0124B1B68FB
:10DCA000DBB2062B1DD1114B1B6803F00F03002BB9
:10DCB00017D10F4B1B6803F0F003302B01D1012368
:10DCC00010E00B4B1B6803F0F003402B01D1012344
:10DCD00008E0074B1B6803F0F003502B01D1012330
:10DCE00000E0002318467047E00F00F0E40F00F05A
:10DCF000E80F00F0124B1B68DBB2062B1DD1114B55
:10DD00001B6803F00F03002B17D10F4B1B6803F0A8
:10DD1000F003302B01D1012310E00B4B1B6803F003
:10DD2000F003402B01D1012308E0074B1B6803F0EF
:10DD3000F003502B01D1012300E000231846704767
:10DD4000E00F00F0E40F00F0E80F00F082B00346AF
:10DD50008DF807309DF8073003F01F0205499DF943
:10DD600007305B09012000FA02F241F8232000BFCE
:10DD700002B0704700E100E082B003468DF8073042
:10DD80009DF8073003F01F0206499DF907305B0933
:10DD9000012000FA02F2203341F8232000BF02B034
:10DDA000704700BF00E100E082B0034600918DF8AB
:10DDB00007309DF90730002B0CDA009BDAB20C49D2
:10DDC0009DF8073003F00F03043B5201D2B20B441D
:10DDD0001A7609E0009BDAB206499DF90730520134
:10DDE000D2B20B4483F8002300BF02B0704700BFDB
:10DDF00000ED00E000E100E082B003468DF807305E
:10DE00009DF90730002B0BDA0B4A9DF8073003F021
:10DE10000F03043B13441B7EDBB25B09DBB208E05B
:10DE2000064A9DF90730134493F80033DBB25B09CF
:10DE3000DBB2184602B0704700ED00E000E100E000
:10DE400000B583B00190019B002B03D10449C4208D
:10DE5000FBF7F0F8019B5B68184603B05DF804FB24
:10DE60006009030010DF704700BF184611DF7047DC
:10DE700000BF184682B003468DF807309DF9073081
:10DE80001F2B0CDC9DF907300F4A22FA03F303F035
:10DE90000103002B14BF01230023DBB210E09DF926
:10DEA00007303F2B0BDC9DF90730203B012202FAA3
:10DEB00003F3002B14BF01230023DBB200E0012396
:10DEC000184602B0704700BFFC06FFBD82B001904B
:10DED000019B072B01D900230BE0019B002B05D0F0
:10DEE000019B012B02D0019B042B01D1002300E0F8
:10DEF0000123184602B0704700B583B003468DF881
:10DF000007309DF907301846FFF7B4FF0346002B92
:10DF100002D142F201032EE09DF907301846FFF7C7
:10DF20006BFF03461846FFF7D1FF0346002B02D1D3
:10DF300042F202031FE0124B9B68002B15D09DF9A3
:10DF400007305B090E4A52F823209DF8073003F092
:10DF50001F03012101FA03F319469DF907305B09FC
:10DF60000A43074941F8232004E09DF90730184689
:10DF7000FFF7ECFE0023184603B05DF804FB00BF7A
:10DF80002832002000B583B003468DF807309DF994
:10DF900007301846FFF76EFF0346002B02D142F20E
:10DFA00001031FE0114B9B68002B15D09DF9073032
:10DFB0005B090E4A52F823109DF8073003F01F0347
:10DFC000012202FA03F3DA439DF907305B090A40A4
:10DFD000064941F8232004E09DF907301846FFF771
:10DFE000CBFE0023184603B05DF804FB2832002066
:10DFF00000B583B0034600918DF807309DF90730D6
:10E000001846FFF737FF0346002B02D142F2010307
:10E010000FE00098FFF75AFF0346002B02D142F2AF
:10E02000020306E09DF9073000991846FFF7BCFE91
:10E030000023184603B05DF804FB000000B587B06C
:10E0400003468DF8073002AB14491846F8F7BAFAC0
:10E0500017E002AB1846FFF7F3FE0590059B1B681F
:10E060000493059B59689DF80720049B1046984728
:10E070000346002B01D111230BE002AB1846F8F741
:10E08000CBFA02AB1846FFF7DBFE0346002BE0D1CC
:10E090000023184607B05DF804FB00BF300A0300F8
:10E0A00000B587B003468DF8073002AB114918461A
:10E0B000F8F788FA12E002AB1846FFF7C1FE0590A8
:10E0C000059B1B680493059B59689DF80720049BDA
:10E0D0001046984702AB1846F8F79EFA02AB18466E
:10E0E000FFF7AEFE0346002BE5D100BF07B05DF899
:10E0F00004FB00BF3C0A030000B583B01620FFF705
:10E10000FBFE0190019B0093009B002B04D0044A6E
:10E1100099210098F6F740F900BF03B05DF804FBC1
:10E12000BC09030000B583B01620FFF72BFF019058
:10E13000019B0093009B002B04D0044AA52100986A
:10E14000F6F72AF900BF03B05DF804FBBC09030031
:10E1500000B585B007211620FFF74AFF0390039B07
:10E160000293029B002B04D00B4AB8210298F6F7C9
:10E1700013F907211520FFF73BFF0390039B019341
:10E18000019B002B04D0044ABA210198F6F704F948
:10E1900000BF05B05DF804FBBC09030000B583B007
:10E1A0001B4B1B78002B01D008232CE0194B0122BC
:10E1B0001A700020FFF742FF0346112B01D1002304
:10E1C00021E00020FFF76CFF134B1B6800936B46A8
:10E1D00012491846FFF746FE0190019B002B01D023
:10E1E000019B10E00A4B01221A700A4B00221A70A0
:10E1F0000B4B00221A70FFF7ABFFFFF77DFF0120EA
:10E20000FFF74EFF0023184603B05DF804FB00BF84
:10E210006C3B00206E3B00202C0A0300614402008E
:10E220006D3B002000B583B0174B1B7883F00103D2
:10E23000DBB2002B01D0082321E0144B01221A701D
:10E240000120FFF7FBFE0346112B01D1002316E04E
:10E250000220FFF725FFFFF709FE0190019B002B2D
:10E2600001D0019B0BE0084B00221A70074B0022E3
:10E270001A70FFF757FF0320FFF712FF002318461D
:10E2800003B05DF804FB00BF6C3B00206E3B002038
:10E2900008B50B4B1B7883F00103DBB2002B01D0D8
:10E2A00008230AE0074B1B78002B03D0FFF7BAFFC7
:10E2B000034602E0FFF772FF0346184608BD00BFA1
:10E2C0006E3B00206C3B0020014B1B7818467047CA
:10E2D0006C3B002000B585B06B4610491846F8F736
:10E2E00071F910E06B461846FFF7AAFD0390039BF7
:10E2F0001B680293039B5A68029B104698476B4623
:10E300001846F8F789F96B461846FFF799FD03465A
:10E31000002BE7D100BF05B05DF804FB480A0300FD
:10E3200008B5FFF7D7FF00BF08BD60DF704700BF2B
:10E33000184669DF704700BF184661DF704700BFAD
:10E340001846000000B583B00190019B002B03D15B
:10E350000449C420FAF76EFE019B5B68184603B0BF
:10E360005DF804FB540A030082B00190019B002B6E
:10E3700001D10E2304E0044B1A46019B1A600023CE
:10E38000184602B0704700BF682A002010B586B05A
:10E39000034600918DF807300098FFF7E5FF0590E0
:10E3A000059B002B01D0059BE0E002AB0C22002175
:10E3B000184600F033FB9DF807308DF80830012334
:10E3C0008DF80A300323ADF80C30009B1A6802ABBD
:10E3D00019462020FFF7ADFF0590059B002B0DD0BF
:10E3E000644B1B881B0443F001040598F8F746F9B9
:10E3F00003461A4660492046F5F79AFB02AB0C2209
:10E400000021184600F00AFB01238DF80830002394
:10E410008DF8093000238DF80A30009B1A6802AB92
:10E4200019464020FFF785FF0590059B002B0DD076
:10E43000504B1B881B0443F001040598F8F71EF9A4
:10E4400003461A464D492046F5F772FB02AB0C22F3
:10E450000021184600F0E2FA9DF807308DF80830E8
:10E460002723ADF80A30009B1A6802AB1946232017
:10E47000FFF75FFF0590059B002B0DD03D4B1B88E0
:10E480001B0443F001040598F8F7F8F803461A4610
:10E490003B492046F5F74CFB02AB0C220021184605
:10E4A00000F0BCFA01238DF80830009B1A6802AB1B
:10E4B00019460120FFF73DFF0590059B002B0DD06D
:10E4C0002C4B1B881B0443F001040598F8F7D6F881
:10E4D00003461A462B492046F5F72AFB02AB0C22CD
:10E4E0000021184600F09AFA4FF4B0630293009BA3
:10E4F0001A6802AB1946A120FFF71BFF0590059B88
:10E50000002B0DD01B4B1B881B0443F00104059806
:10E51000F8F7B4F803461A461B492046F5F708FBFE
:10E5200002AB0C220021184600F078FA9DF8083062
:10E530006FF300038DF80830009B1A6802AB194690
:10E54000A020FFF7F6FE0590059B002B0DD0094B90
:10E550001B881B0443F001040598F8F78FF8034665
:10E560001A460A492046F5F7E3FA0023184606B092
:10E5700010BD00BFB02A0020B40A0300FC0A03004B
:10E58000480B0300900B0300DC0B0300300C03006E
:10E5900082B04FF08053D3F80C319B020193019B62
:10E5A00003F10053184602B07047000010B584B064
:10E5B0000190019B1B6803930198FFF7B6FE029040
:10E5C000019B1B68039A9A421AD0184B1B881B04A4
:10E5D00043F00200019B1B68039A1549F5F7B9FA4D
:10E5E000124B1B881B0443F00204FFF7D1FF0246C5
:10E5F000019B1B68D31A1A460E492046F5F798FA74
:10E60000029B002B0DD0094B1B881B0443F0010417
:10E610000298F8F733F803461A4607492046F5F7FB
:10E6200087FA029B184604B010BD00BFB02A002034
:10E63000840C0300B40C0300D80C030000B59DB09B
:10E6400001904823ADF85E300DF15E0203AB114638
:10E650001846FFF772FE1B901B9B002B03D01B9BE1
:10E66000052B22D127E003AB1A9315AB14491846AA
:10E67000F7F7A8FF11E015AB1846FFF763FE1990F6
:10E68000199B1B681893199B5A68189B11461A9876
:10E69000984715AB1846F7F7BFFF15AB1846FFF7BD
:10E6A00051FE0346002BE6D1CBE7064A40F221118A
:10E6B0001B98F5F771FE00BF1DB05DF804FB00BFAD
:10E6C0006C0D0300F80C030000B583B00190019BB2
:10E6D000002B03D10449C420FAF7ACFC019B5B6812
:10E6E000184603B05DF804FB780D030048DF70475F
:10E6F00000BF184600B589B0019004AB1846FFF77B
:10E70000F5FF0790079B002B03D0079B052B20D11B
:10E7100024E002AB13491846F7F754FF11E002ABAF
:10E720001846FFF7D1FF0690069B1B680593049AD5
:10E73000069B5968059B1046984702AB1846F7F7A9
:10E740006BFF02AB1846FFF7BFFF0346002BE6D175
:10E75000D3E7054A6B210798F5F71EFE00BF09B005
:10E760005DF804FB4C0E0300D80D030053EA020CC5
:10E7700061D02DE9F04BB3FA83F51E0007BFB2FA62
:10E7800082F502FA05F403FA05F41646C5F12005F0
:10E790001EBF22FA05F73C43203556EA044C4FEAE7
:10E7A000144418BF0134A3464FF00009C8469042F4
:10E7B00071EB030C39D3094207BFB0FA80F700FAB6
:10E7C00007F6B1FA81F701FA07F6C7F120071EBF75
:10E7D00020FA07FC46EA0C062037B6FBFBFC7F1B41
:10E7E000103F07F01F04C4F120060CFA04F42CFAC1
:10E7F00006F644BF34460026202FA4BF2646002438
:10E8000054EA060C08BF012418EB040849EB06097A
:10E81000A4FB027CC01B06FB02CC04FB03CC71EB07
:10E820000C01904271EB030CC5D20B4602464946DF
:10E830004046BDE8F08BB2FBF3F200007F2805D81C
:10E84000034B185C034B5B5C18407047002070471B
:10E85000580E0300D80E0300A0F16103192B98BFD6
:10E8600020387047A0F14103192B98BF2030704722
:10E870007F2805D8034B185C034B5B5C184070473E
:10E8800000207047580E0300D80E0300A0F161036A
:10E89000192B98BF20387047A0F14103192B98BF5E
:10E8A000203070477F299ABF017001206FF02E0041
:10E8B00070475AB10A787F2A0AD800B10260002155
:10E8C00019605960501A18BF012070470020704726
:10E8D0006FF02E00704738B504460846A26842B172
:10E8E000236861685D1C8D4208BF00208B4208D2FE
:10E8F000D054E3682BB121686268914201D221466D
:10E90000984723680133236038BD70B54C1E09D485
:10E910001646C5B229463046FFF7DDFF013CB4F18B
:10E92000FF3FF7D170BD10F0100F09D108B500F40A
:10E930000070002814BF30202020FFF7E6FF08BD3C
:10E940007047000008B5034B5B689B681B689847DD
:10E9500008BD00BFA42B002008B50921FFF7F2FF76
:10E9600008BD0EB400B586B007AA52F8041B059284
:10E970000390002304936FF00043029301A800F07A
:10E98000D3F806B05DF804EB03B07047037853B1D9
:10E9900059B10144034613F8012F12B18B42FAD149
:10E9A0000B46181A70470346FBE70346F9E710B514
:10E9B00084B0144602900022039201911A46214627
:10E9C000684600F0B1F804B010BD844640EA010387
:10E9D00013F0030F18D18446202A0BD32DE9F0073A
:10E9E000B1E8F807A0E8F807A2F12002202AF7D240
:10E9F000BDE8F007042A07D351F8043B40F8043B74
:10EA0000A2F10402042AF7D2002A05D011F8013B32
:10EA100000F8013B013AF9D1604670478446002A6C
:10EA20002DD010F0030F04D000F8011B013A26D0BE
:10EA3000F7E7C9B241EA012141EA0141202A12D394
:10EA4000A2F120022DE9F0030B460C460D460E46BE
:10EA50000F4688468946A0E8FA03203AFBD2BDE873
:10EA6000F00320320BD0042A05D340F8041B043AEB
:10EA700005D0042AF9D200F8011B013AFBD1604607
:10EA80007047024610F0030F16D111F0030F13D197
:10EA90002DE9F0004FF001374FF0803351F8044B6F
:10EAA000A4EB070525EA04051D4002D142F8044BFA
:10EAB000F4E7A1F10401F0BC11F8013B02F8013BBD
:10EAC000002BF9D1704700F1010110F0030F11D0B4
:10EAD00010F8012B002A23D010F0030F0AD010F8F1
:10EAE000012B002A1CD010F0030F03D010F8012BCB
:10EAF000002A15D02DE970004FF001324FF080331D
:10EB000050F8044BA4EB020525EA04051D4000D192
:10EB1000F6E7A0F1040070BC10F8012B002AFBD12D
:10EB2000A0EB0100704700002DE9F04F89B00746C7
:10EB30000C46039200230360DFF83CB675E3002522
:10EB400002E045F040051C46234613F8010BA0F1F6
:10EB500020023E2A00F2948001A151F822F000BF69
:10EB600043EB020081EC020081EC02005DEC02004C
:10EB700081EC020081EC020081EC020063EC0200F7
:10EB800081EC020081EC020081EC02006FEC0200DB
:10EB900081EC020075EC020081EC020081EC0200C5
:10EBA0007BEC020081EC020081EC020081EC0200AF
:10EBB00081EC020081EC020081EC020081EC020099
:10EBC00081EC020081EC020081EC020081EC020089
:10EBD00081EC020081EC020081EC020081EC020079
:10EBE00081EC020081EC020081EC020081EC020069
:10EBF00081EC020081EC020081EC020081EC020059
:10EC000081EC020081EC020081EC020081EC020048
:10EC100081EC020081EC020081EC020081EC020038
:10EC200081EC020081EC020081EC020081EC020028
:10EC300081EC020081EC020081EC020081EC020018
:10EC400081EC020081EC020081EC020081EC020008
:10EC500081EC020081EC020069EC020045F08005C5
:10EC600071E745F400456EE745F480556BE745F0E4
:10EC7000200568E745F0100565E745F4007562E793
:10EC80002A2821D1039A111D0391D2F800A0BAF1CC
:10EC9000000FBCBFCAF1000A45F010051878A31C8C
:10ECA0002AEAEA7A2E2826D00021742847D07A282A
:10ECB00045D06C2800F0C4804C2800F0C78068283C
:10ECC00000F0D4801C463DE0A0F13002D2B2092A07
:10ECD00088BF4FF0000AE3D84FF0000A0AEB8A0A17
:10ECE000303800EB4A0A13F8010BA0F13002D2B21F
:10ECF000092AF3D9D4E718782A280AD1039A111DD2
:10ED000003911168587802330029CEDB45F48075F1
:10ED1000CBE70133A0F13002D2B2092A88BF00212B
:10ED2000F4D8002101EB8101303800EB410113F8E8
:10ED3000010BA0F13002D2B2092AF3D9E4E71C4654
:10ED400014F8010B782800F28480DFE810F08A02C2
:10ED500082008200820082008200820082008200A3
:10ED60008200820082008200820082008200820093
:10ED70008200820082008200820082008200820083
:10ED80008200820082008200820082008200820073
:10ED900082008200820082009B008200820082004A
:10EDA0008200820082008200820082008200820053
:10EDB0008200820082008200820082008200820043
:10EDC0008200820082008200820082008200820033
:10EDD0008200820082008200820082008200820023
:10EDE0008200820082008200820082008200820013
:10EDF0008200820082008200820082008200120172
:10EE000082008200820082008200820082008200F2
:10EE100082008200A00048018200820082008200FD
:10EE200048018200820082008200BA003201F600AE
:10EE300082008200CB008200400182008200140127
:10EE40001C4614F8010B45F001057BE745F0010570
:10EE50001C46C54B1E68002E00F0E78103AB0193F2
:10EE6000009153462A463946B047DEE118786828B3
:10EE700003D05C1C45F0040564E745F008059C1CC4
:10EE800058785FE725213846FFF725FDCDE1039B44
:10EE90001A1D03921E780AF1FF3A3A465146284657
:10EEA000FFF741FD31463846FFF715FDA94619F039
:10EEB000100F00F0BA813A4651462020FFF725FD99
:10EEC000B3E115F0080F06D03A68039B191D0391B2
:10EED0001B681A70A9E1039B1A1D03921B683A680C
:10EEE0001A60A2E1039B1A1D0392D3F800809F4B86
:10EEF000B8F1000F08BF9846464625F4007915F48E
:10EF0000807F15D04046FFF741FD0546AAEB050A74
:10EF10003A4651464846FFF706FD002DC7D0454406
:10EF200016F8011B3846FFF7D6FCAE42F8D1BEE713
:10EF30004046FFF7C8FD0546E8E7039B1A1D03920C
:10EF40001B6805F08002002A0CBF4FF000084FF04C
:10EF5000230845F4807608211A46002B00F02F8103
:10EF600005AB002506F4005CA64660468C460146CB
:10EF7000D6E045F4005515F0800F17D043F278081D
:10EF800043F25803782818BF984615F4807F3FD085
:10EF900025F40076039B1A1D03921B6816F0040FDC
:10EFA00045D116F0080F43D0DBB241E04FF0000826
:10EFB000EBE705F08003002B0CBF4FF000084FF08B
:10EFC000300815F4807F25D025F40076E2E715F4AB
:10EFD000807F21D025F400764FF00008DAE745F471
:10EFE0008046039B1A1D03921B6815F0040F17D16E
:10EFF00015F0080F15D0DBB215F0200F68D105F021
:10F000004005002D0CBF4FF000084FF020080FE026
:10F010002E46BFE72E46BDE72E464FF00008B9E763
:10F020001BB2002BE8DA5B424FF02D0800E09BB2E8
:10F0300016F4807F14BF26F400760121583820286A
:10F0400000F2BB8001A252F820F000BF59EF02008D
:10F05000BBF10200BBF10200BBF10200BBF10200F8
:10F06000BBF10200BBF10200BBF10200BBF10200E8
:10F07000BBF10200BBF10200BBF10200F7F002009D
:10F08000BBF10200BBF10200BBF10200BBF10200C8
:10F09000F7F00200BBF10200BBF10200BBF102007D
:10F0A000BBF10200BBF10200D7F0020059EF0200F1
:10F0B000BBF10200BBF10200BBF10200BBF1020098
:10F0C000F7F00200BBF10200BBF1020059EF0200B1
:10F0D0004FF02B08ACE71A46002553B305A80025CE
:10F0E00003F00703303300F8013B0135D208134623
:10F0F000002AF5D11DE018460025D3B1002506F4FD
:10F10000004E4FF02C0973468E46194647E002F038
:10F110000F00174C205C03F8010B0135120906D0D3
:10F120000029F4D002F00F00124C205CF3E7614696
:10F130007446491B21EAE179AAEB090AAAEB050A00
:10F14000B8F1FF0F3DD9AAF1020A16F4007F3ED0B4
:10F150004FEA18213846FFF7BEFB08F07F0138461A
:10F16000FFF7B9FB41E000BF703B0020B81003007F
:10F1700098100300A8100300CDCCCCCC08AB03EB57
:10F18000050CABFB0032D20802EB8203A0EB430379
:10F1900030330CF80C3C013509280CD910460029F5
:10F1A000ECD005F00303032BE8D108AB2B4403F8A4
:10F1B0000C9C0135E2E77146BBE70025B9E7002565
:10F1C000B7E7B8F1000F4FD116F4007F0DD13A46E2
:10F1D00051463046FFF7A7FBB8F1FF0F98BF4FF03D
:10F1E000000A13D8B8F1000FB7D13A46514630465D
:10F1F000FFF799FB3A4649463020FFF786FB002D82
:10F2000010DD0DF11409013D4D4403E04FF0000AFB
:10F210009EE74546A84618F801193846FFF75BFBFC
:10F220004D45F6D116F0100F09D114F8011B61B14C
:10F2300025293FF484AC3846FFF74DFBF5E73A4605
:10F2400051462020FFF761FBEFE7BB682BB13A681E
:10F2500079688A423CBF00219954386809B0BDE8FA
:10F26000F08F4FF0FF30F9E70AF1FF3A16F4007F14
:04F27000B8D1ACE77E
:10F274008161020000000000FD6B0200000000003C
:10F2840019A1020000000000DDC9020020340020A2
:10F2940025D1020000000000458D0200000000009E
:10F2A40091D602000C34002099C9020020340020B9
:10F2B400D992020000000000B1CF0200000000005B
:08F2C40065B10200FC330020DB
:10F2CC00DCF402000000030004F702000000000060
:10F2DC00240803000000030090FE02000000000060
:10F2EC00C0FF020000000000B4090300000003008E
:10F2FC00A80A030000000300CC0D0300000003006B
:10F30C00FC0003000000000074F902000000000083
:10F31C00B8010300000000007C00030000000000A6
:10F32C006802030000000000480503000000040010
:08F33C000001030000000000C5
:08F34400296202000000000034
:10F34C005162020000000000196C02000000000075
:10F35C003DE6020000000000F5E60200000000009F
:10F36C000000000000000000000000000000000091
:10F37C000000000000000000000000000000000081
:10F38C000000000000000000000000000000000071
:10F39C000000000000000000000000000000000061
:10F3AC000000000000000000000000000000000051
:10F3BC000000000000000000000000000000000041
:10F3CC000000000000000000000000000000000031
:10F3DC000000000000000000000000000000000021
:10F3EC000000000000000000000000000000000011
:10F3FC000000000000000000000000000000000001
:10F40C0000000000000000000000000000000000F0
:04F41C0000000000EC
:10F42000593302008B33020081330200433A5C55AA
:10F43000736572735C436174616C696E615C446F87
:10F4400063756D656E74735C54475C75566973695A
:10F450006F6E5C424C455F53796E635C6E5246350D
:10F460005F53444B5F31342E322E305F3137623977
:10F470003438615C636F6D706F6E656E74735C6C55
:10F4800069627261726965735C6578706572696DD5
:10F49000656E74616C5F6C6F675C7372635C6E72D7
:10F4A000665F6C6F675F64656661756C745F6261EF
:10F4B000636B656E64732E6300000000C02C002037
:10F4C000F82B0020002C0020002C00201800000049
:10F4D0004F766572666C6F77000000006170700097
:10F4E000433A5C55736572735C436174616C696E19
:10F4F000615C446F63756D656E74735C54475C75D5
:10F50000566973696F6E5C424C455F53796E635CFC
:10F510006E5246355F53444B5F31342E322E305F8E
:10F52000313762393438615C636F6D706F6E656E50
:10F5300074735C6C69627261726965735C65787022
:10F540006572696D656E74616C5F6C6F675C737218
:10F55000635C6E72665F6C6F675F66726F6E746518
:10F560006E642E63000000006572726F720000000E
:10F570007761726E696E6700696E666F00000000E9
:10F5800064656275670000001B5B306D0000000061
:10F590001B5B313B33306D001B5B313B33316D0006
:10F5A0001B5B313B33326D001B5B313B33336D00F2
:10F5B0001B5B313B33346D001B5B313B33356D00DE
:10F5C0001B5B313B33366D001B5B313B33376D00CA
:10F5D000257300003C25733E2025733A200000006F
:10F5E0000D0A000020253032780000002020200085
:10F5F0007C0000002563000020000000534F4654AB
:10F600004445564943453A20415353455254494F86
:10F610004E204641494C454400000000534F46549B
:10F620004445564943453A20494E56414C494420A9
:10F630004D454D4F5259204143434553530000001F
:10F64000415353455254494F4E204641494C45443D
:10F650002061742025733A25750000004552524FF1
:10F6600052202575205B25735D2061742025733A37
:10F6700025750000554E4B4E4F574E204641554C78
:10F68000542061742030782530385800433A5C5556
:10F69000736572735C436174616C696E615C446F25
:10F6A00063756D656E74735C54475C7556697369F8
:10F6B0006F6E5C424C455F53796E635C6E524635AB
:10F6C0005F53444B5F31342E322E305F3137623915
:10F6D0003438615C636F6D706F6E656E74735C6CF3
:10F6E00069627261726965735C7574696C5C617082
:10F6F000705F7574696C5F706C6174666F726D2E8B
:10F700006300000062616C6C6F630000433A5C55FB
:10F71000736572735C436174616C696E615C446FA4
:10F7200063756D656E74735C54475C755669736977
:10F730006F6E5C424C455F53796E635C6E5246352A
:10F740005F53444B5F31342E322E305F3137623994
:10F750003438615C636F6D706F6E656E74735C6C72
:10F7600069627261726965735C62616C6C6F635C23
:10F770006E72665F62616C6C6F632E6300000000E6
:10F78000433A5C55736572735C436174616C696E76
:10F79000615C446F63756D656E74735C54475C7532
:10F7A000566973696F6E5C424C455F53796E635C5A
:10F7B0006E5246355F53444B5F31342E322E305FEC
:10F7C000313762393438615C65787465726E616CAA
:10F7D0005C667072696E74665C6E72665F6670728B
:10F7E000696E74662E630000433A5C5573657273EC
:10F7F0005C436174616C696E615C446F63756D65D7
:10F800006E74735C54475C75566973696F6E5C42C5
:10F810004C455F53796E635C6E5246355F53444B83
:10F820005F31342E322E305F313762393438615CCB
:10F8300065787465726E616C5C667072696E746610
:10F840005C6E72665F667072696E74665F666F7218
:10F850006D61742E63000000303132333435363739
:10F860003839414243444546433A5C5573657273A7
:10F870005C436174616C696E615C446F63756D6556
:10F880006E74735C54475C75566973696F6E5C4245
:10F890004C455F53796E635C6E5246355F53444B03
:10F8A0005F31342E322E305F313762393438615C4B
:10F8B000636F6D706F6E656E74735C6C696272619C
:10F8C000726965735C6578706572696D656E746187
:10F8D0006C5F6D656D6F626A5C6E72665F6D656DA3
:10F8E0006F626A2E630000002E2E2F2E2E2F2E2EDA
:10F8F0002F2E2E2F2E2E2F2E2E2F636F6D706F6EAC
:10F90000656E74732F6C69627261726965732F65BD
:10F9100078706572696D656E74616C5F7365637430
:10F92000696F6E5F766172732F6E72665F73656367
:10F9300074696F6E5F697465722E68002E2E2F2EAB
:10F940002E2F2E2E2F2E2E2F2E2E2F2E2E2F636F5C
:10F950006D706F6E656E74732F6C6962726172691F
:10F9600065732F6D757465782F6E72665F6D747830
:10F970002E6800007077725F6D676D740000000084
:10F98000433A5C55736572735C436174616C696E74
:10F99000615C446F63756D656E74735C54475C7530
:10F9A000566973696F6E5C424C455F53796E635C58
:10F9B0006E5246355F53444B5F31342E322E305FEA
:10F9C000313762393438615C636F6D706F6E656EAC
:10F9D00074735C6C69627261726965735C70777272
:10F9E0005F6D676D745C6E72665F7077725F6D6776
:10F9F0006D742E6300000000433A5C5573657273AA
:10FA00005C436174616C696E615C446F63756D65C4
:10FA10006E74735C54475C75566973696F6E5C42B3
:10FA20004C455F53796E635C6E5246355F53444B71
:10FA30005F31342E322E305F313762393438615CB9
:10FA4000636F6D706F6E656E74735C6C696272610A
:10FA5000726965735C6578706572696D656E7461F5
:10FA60006C5F73656374696F6E5F766172735C6EF1
:10FA700072665F73656374696F6E5F697465722E19
:10FA800063000000556E6B6E6F776E206572726F4B
:10FA90007220636F646500004E52465F53554343C6
:10FAA000455353004E52465F4552524F525F535694
:10FAB000435F48414E444C45525F4D495353494E74
:10FAC000470000004E52465F4552524F525F534F1F
:10FAD00046544445564943455F4E4F545F454E4159
:10FAE000424C4544000000004E52465F4552524F82
:10FAF000525F494E5445524E414C00004E52465FB3
:10FB00004552524F525F4E4F5F4D454D0000000031
:10FB10004E52465F4552524F525F4E4F545F464FD2
:10FB2000554E44004E52465F4552524F525F4E4F23
:10FB3000545F535550504F52544544004E52465F07
:10FB40004552524F525F494E56414C49445F5041D5
:10FB500052414D004E52465F4552524F525F494E00
:10FB600056414C49445F5354415445004E52465F00
:10FB70004552524F525F494E56414C49445F4C45A5
:10FB80004E475448000000004E52465F4552524FC7
:10FB9000525F494E56414C49445F464C41475300E1
:10FBA0004E52465F4552524F525F494E56414C4964
:10FBB000445F4441544100004E52465F4552524F0B
:10FBC000525F444154415F53495A45004E52465F8B
:10FBD0004552524F525F54494D454F555400000015
:10FBE0004E52465F4552524F525F4E554C4C0000AC
:10FBF0004E52465F4552524F525F464F5242494421
:10FC000044454E004E52465F4552524F525F494E58
:10FC100056414C49445F4144445200004E52465FB5
:10FC20004552524F525F4255535900004E52465F63
:10FC30004552524F525F4D4F44554C455F4E4F54C5
:10FC40005F494E495449414C5A4544004E52465F23
:10FC50004552524F525F4D555445585F494E495495
:10FC60005F4641494C4544004E52465F4552524F13
:10FC7000525F4D555445585F4C4F434B5F46414989
:10FC80004C4544004E52465F4552524F525F4D55CF
:10FC90005445585F554E4C4F434B5F4641494C4588
:10FCA000440000004E52465F4552524F525F4D5540
:10FCB0005445585F434F4E445F494E49545F464157
:10FCC000494C4544000000004E52465F4552524F99
:10FCD000525F4D4F44554C455F414C52454144594C
:10FCE0005F494E495449414C495A4544000000007F
:10FCF0004E52465F4552524F525F53544F52414706
:10FD0000455F46554C4C00004E52465F4552524F9F
:10FD1000525F4150495F4E4F545F494D504C454DE5
:10FD2000454E5445440000004E52465F4552524FE6
:10FD3000525F464541545552455F4E4F545F454EC4
:10FD400041424C45440000004E52465F4552524FDE
:10FD5000525F4452565F5457495F4552525F4F5667
:10FD6000455252554E0000004E52465F4552524F8A
:10FD7000525F4452565F5457495F4552525F414E5D
:10FD800041434B004E52465F4552524F525F4452E0
:10FD9000565F5457495F4552525F444E41434B00B2
:10FDA0000000000098FA020001000000A4FA02001E
:10FDB00002000000C4FA020003000000E8FA02009A
:10FDC00004000000FCFA02000500000010FB020025
:10FDD0000600000024FB0200070000003CFB0200BC
:10FDE0000800000054FB0200090000006CFB020048
:10FDF0000A00000088FB02000B000000A0FB0200CC
:10FE00000C000000B8FB02000D000000CCFB02005B
:10FE10000E000000E0FB02000F000000F0FB0200FB
:10FE20001000000004FC0200110000001CFC020095
:10FE3000800000002CFC0200810000004CFC02004D
:10FE40008200000068FC02008300000084FC0200C5
:10FE500084000000A4FC020085000000C8FC020031
:10FE600086000000F0FC02009000000008FD020087
:10FE70009100000028FD02000082000048FD020001
:10FE80000182000068FD02000282000084FD020081
:10FE9000636C6F636B000000433A5C55736572736B
:10FEA0005C436174616C696E615C446F63756D6520
:10FEB0006E74735C54475C75566973696F6E5C420F
:10FEC0004C455F53796E635C6E5246355F53444BCD
:10FED0005F31342E322E305F313762393438615C15
:10FEE000636F6D706F6E656E74735C647269766556
:10FEF00072735F6E72665C636C6F636B5C6E72666E
:10FF00005F6472765F636C6F636B2E63000000004A
:10FF1000433A5C55736572735C436174616C696EDE
:10FF2000615C446F63756D656E74735C54475C759A
:10FF3000566973696F6E5C424C455F53796E635CC2
:10FF40006E5246355F53444B5F31342E322E305F54
:10FF5000313762393438615C636F6D706F6E656E16
:10FF600074735C647269766572735F6E72665C63EB
:10FF70006F6D6D6F6E5C6E72665F6472765F636FDD
:10FF80006D6D6F6E2E6300002E2E2F2E2E2F2E2EB7
:10FF90002F2E2E2F2E2E2F2E2E2F636F6D706F6E05
:10FFA000656E74732F647269766572735F6E7266C4
:10FFB0002F68616C2F6E72665F6770696F2E6800C4
:10FFC0006770696F74650000433A5C5573657273BE
:10FFD0005C436174616C696E615C446F63756D65EF
:10FFE0006E74735C54475C75566973696F6E5C42DE
:10FFF0004C455F53796E635C6E5246355F53444B9C
:020000023000CC
:100000005F31342E322E305F313762393438615CE3
:10001000636F6D706F6E656E74735C647269766524
:1000200072735F6E72665C6770696F74655C6E7226
:10003000665F6472765F6770696F74652E63000037
:100040002E2E2F2E2E2F2E2E2F2E2E2F2E2E2F2ECB
:100050002E2F636F6D706F6E656E74732F6472698F
:10006000766572735F6E72662F68616C2F6E726652
:100070005F73616164632E680000000073616164F6
:1000800063000000433A5C55736572735C436174AE
:10009000616C696E615C446F63756D656E74735CF1
:1000A00054475C75566973696F6E5C424C455F538B
:1000B000796E635C6E5246355F53444B5F31342E2C
:1000C000322E305F313762393438615C636F6D7066
:1000D0006F6E656E74735C647269766572735F6E61
:1000E00072665C73616164635C6E72665F64727693
:1000F0005F73616164632E630000000070706900CB
:1001000074696D6572000000433A5C5573657273E3
:100110005C436174616C696E615C446F63756D65AD
:100120006E74735C54475C75566973696F6E5C429C
:100130004C455F53796E635C6E5246355F53444B5A
:100140005F31342E322E305F313762393438615CA2
:10015000636F6D706F6E656E74735C6472697665E3
:1001600072735F6E72665C74696D65725C6E7266E6
:100170005F6472765F74696D65722E6300000000C3
:100180002E2E2F2E2E2F2E2E2F2E2E2F2E2E2F2E8A
:100190002E2F636F6D706F6E656E74732F6472694E
:1001A000766572735F6E72662F68616C2F6E726611
:1001B0005F7274632E68000072746300433A5C558A
:1001C000736572735C436174616C696E615C446FEA
:1001D00063756D656E74735C54475C7556697369BD
:1001E0006F6E5C424C455F53796E635C6E52463570
:1001F0005F53444B5F31342E322E305F31376239DA
:100200003438615C636F6D706F6E656E74735C64BF
:100210007269766572735F6E72665C7274635C6E2F
:1002200072665F6472765F7274632E630000000012
:100230002E2E2F2E2E2F2E2E2F2E2E2F2E2E2F2ED9
:100240002E2F636F6D706F6E656E74732F6472699D
:10025000766572735F6E72662F68616C2F6E726660
:100260005F6770696F2E680073706900433A5C5570
:10027000736572735C436174616C696E615C446F39
:1002800063756D656E74735C54475C75566973690C
:100290006F6E5C424C455F53796E635C6E524635BF
:1002A0005F53444B5F31342E322E305F3137623929
:1002B0003438615C636F6D706F6E656E74735C640F
:1002C0007269766572735F6E72665C7370695F6D7A
:1002D00061737465725C6E72665F6472765F737070
:1002E000692E63000030024023000100433A5C5550
:1002F000736572735C436174616C696E615C446FB9
:1003000063756D656E74735C54475C75566973698B
:100310006F6E5C424C455F53796E635C6E5246353E
:100320005F53444B5F31342E322E305F31376239A8
:100330003438615C6578616D706C65735C626C65A6
:100340005F7065726970686572616C5C626C655F34
:100350006170705F73796E635F6164735F626C6517
:100360005C6D61696E2E63000000000002000001F8
:100370000000000000000741000000000200000132
:10038000FFFFFFFF07FF000000000040000000002B
:100390004E6F726469635F48524D0000436F6E6E2A
:1003A00065637465642E0A0D000000004469736380
:1003B0006F6E6E65637465642C20726561736F6E19
:1003C0002025642E0000000047415454204154541D
:1003D000204D5455206F6E20636F6E6E6563746997
:1003E0006F6E2030782578206368616E67656420C1
:1003F000746F2025642E000053746F7070696E67EF
:100400002073796E6320626561636F6E2074726120
:100410006E736D697373696F6E210D0A00000000C1
:100420005374617274696E672073796E63206265BC
:1004300061636F6E207472616E736D697373696F3F
:100440006E210D0A000000001700000018000000D7
:100450001B00000014000000000000000000D60196
:1004600053746172746564206C697374656E696E2F
:100470006720666F7220626561636F6E732E0D0A6E
:10048000000000005363616E6E65722066756E63D6
:1004900074696F6E20737461727420636865636B36
:1004A0000D0A0000DEADBEEF1900000053504920D8
:1004B000696E697420636865636B0D0A0000000053
:1004C00041445320696E697420636865636B0D0A4B
:1004D000000000004164766572746973696E67207C
:1004E000737461727420636865636B0D0A000000A9
:1004F0005374617274210D0A00000000526561643A
:1005000044617461204661696C65640D0A000000F5
:100510002E2E2F2E2E2F2E2E2F2E2E2F2E2E2F2EF6
:100520002E2F636F6D706F6E656E74732F647269BA
:10053000766572735F6E72662F68616C2F6E72667D
:100540005F6770696F2E680074696D655F73796E9F
:1005500063000000433A5C55736572735C436174D9
:10056000616C696E615C446F63756D656E74735C1C
:1005700054475C75566973696F6E5C424C455F53B6
:10058000796E635C6E5246355F53444B5F31342E57
:10059000322E305F313762393438615C6578616D95
:1005A000706C65735C626C655F70657269706865BC
:1005B00072616C5C626C655F6170705F73796E63B1
:1005C0005F6164735F626C655C74696D655F7379AC
:1005D0006E632E63000000004E52465F4556545F26
:1005E000524144494F5F5349474E414C5F43414C50
:1005F0004C4241434B5F494E56414C49445F524542
:100600005455524E0D0A00004E52465F4556545FF7
:10061000524144494F5F53455353494F4E5F434CFA
:100620004F5345440D0A00004E52465F4556545FF5
:10063000524144494F5F53455353494F4E5F4944DC
:100640004C450D0A000000004576656E74733A2033
:100650003078253038780D0A000000002564202D00
:10066000202564202D202564000000007C3500201A
:10067000F834002002350020043500200C00000072
:100680002E2E2F2E2E2F2E2E2F2E2E2F2E2E2F2E85
:100690002E2F636F6D706F6E656E74732F64726949
:1006A000766572735F6E72662F68616C2F6E72660C
:1006B0005F6770696F2E68000A3B6B3B25783B25AE
:1006C000780D0A000A3B6B3B25783B25783B257863
:1006D0003B25783B25783B25783B25783B25783BA7
:1006E00025783B25780D0A004200A800410A01A8A0
:1006F000104060AC0000F283030000002E2E2F2E6D
:100700002E2F2E2E2F2E2E2F2E2E2F2E2E2F636F8E
:100710006D706F6E656E74732F6472697665727337
:100720005F6E72662F68616C2F6E72665F677069AC
:100730006F2E6800433A5C55736572735C43617455
:10074000616C696E615C446F63756D656E74735C3A
:1007500054475C75566973696F6E5C424C455F53D4
:10076000796E635C6E5246355F53444B5F31342E75
:10077000322E305F313762393438615C636F6D70AF
:100780006F6E656E74735C626F617264735C626FCE
:10079000617264732E630000111200005465726D63
:1007A000696E616C00000000525454005345474785
:1007B00045520000433A5C55736572735C43617443
:1007C000616C696E615C446F63756D656E74735CBA
:1007D00054475C75566973696F6E5C424C455F5354
:1007E000796E635C6E5246355F53444B5F31342EF5
:1007F000322E305F313762393438615C636F6D702F
:100800006F6E656E74735C626C655C636F6D6D6F4B
:100810006E5C626C655F636F6E6E5F73746174654E
:100820002E630000626C655F6761747400000000F5
:1008300073645F626C655F6761705F646174615F60
:100840006C656E6774685F757064617465282920D3
:10085000287265717565737429206F6E20636F6EE1
:100860006E656374696F6E203078257820726574C8
:1008700075726E656420756E657870656374656405
:100880002076616C756520307825782E0000000098
:1008900073645F626C655F67617474635F657863DE
:1008A00068616E67655F6D74755F7265717565739C
:1008B0007428292072657475726E656420756E6582
:1008C000787065637465642076616C756520307836
:1008D00025782E0073645F626C655F676174747362
:1008E0005F65786368616E67655F6D74755F72657B
:1008F000706C7928292072657475726E6564207534
:100900006E65787065637465642076616C756520CA
:10091000307825782E00000073645F626C655F6735
:1009200061705F646174615F6C656E6774685F7548
:100930007064617465282920287265706C7929209B
:1009400072657475726E656420756E657870656326
:100950007465642076616C756520307825782E008A
:100960002E2E2F2E2E2F2E2E2F2E2E2F2E2E2F2EA2
:100970002E2F636F6D706F6E656E74732F6C69626E
:100980007261726965732F6578706572696D656EE5
:1009900074616C5F73656374696F6E5F76617273A7
:1009A0002F6E72665F73656374696F6E5F697465DD
:1009B000722E68006E72665F73646800433A5C551D
:1009C000736572735C436174616C696E615C446FE2
:1009D00063756D656E74735C54475C7556697369B5
:1009E0006F6E5C424C455F53796E635C6E52463568
:1009F0005F53444B5F31342E322E305F31376239D2
:100A00003438615C636F6D706F6E656E74735C73A8
:100A10006F66746465766963655C636F6D6D6F6E38
:100A20005C6E72665F7364682E63000001000007ED
:100A300044F302004CF30200080000004CF30200F3
:100A40005CF30200080000005CF302006CF302009B
:100A5000080000002E2E2F2E2E2F2E2E2F2E2E2F62
:100A60002E2E2F2E2E2F636F6D706F6E656E74732A
:100A70002F6C69627261726965732F657870657237
:100A8000696D656E74616C5F73656374696F6E5FC9
:100A9000766172732F6E72665F73656374696F6ED1
:100AA0005F697465722E68006E72665F7364685F5A
:100AB000626C650073645F626C655F6366675F7339
:100AC000657428292072657475726E6564202573BB
:100AD000207768656E20617474656D7074696E67E7
:100AE00020746F2073657420424C455F434F4E4E17
:100AF0005F4346475F4741502E00000073645F62CA
:100B00006C655F6366675F7365742829207265741E
:100B100075726E6564202573207768656E20617438
:100B200074656D7074696E6720746F2073657420CE
:100B3000424C455F4741505F4346475F524F4C45EB
:100B40005F434F554E542E0073645F626C655F6364
:100B500066675F73657428292072657475726E65A7
:100B600064202573207768656E20617474656D70EC
:100B700074696E6720746F2073657420424C455F02
:100B8000434F4E4E5F4346475F474154542E00004B
:100B900073645F626C655F6366675F736574282961
:100BA0002072657475726E656420257320776865A0
:100BB0006E20617474656D7074696E6720746F2047
:100BC00073657420424C455F434F4D4D4F4E5F431C
:100BD00046475F56535F555549442E0073645F6224
:100BE0006C655F6366675F7365742829207265743E
:100BF00075726E6564202573207768656E20617458
:100C000074656D7074696E6720746F2073657420ED
:100C1000424C455F47415454535F4346475F4154FC
:100C200054525F5441425F53495A452E0000000020
:100C300073645F626C655F6366675F7365742829C0
:100C40002072657475726E656420257320776865FF
:100C50006E20617474656D7074696E6720746F20A6
:100C600073657420424C455F47415454535F43467B
:100C7000475F534552564943455F4348414E4745B8
:100C8000442E000052414D207374617274732061D0
:100C90007420307825782C2063616E206265206195
:100CA000646A757374656420746F20307825782EBB
:100CB0000000000052414D2073697A652063616E27
:100CC0002062652061646A757374656420746F20A6
:100CD000307825782E00000073645F626C655F6574
:100CE0006E61626C6528292072657475726E656428
:100CF0002025732E00000000433A5C557365727323
:100D00005C436174616C696E615C446F63756D65B1
:100D10006E74735C54475C75566973696F6E5C42A0
:100D20004C455F53796E635C6E5246355F53444B5E
:100D30005F31342E322E305F313762393438615CA6
:100D4000636F6D706F6E656E74735C736F667464E1
:100D500065766963655C636F6D6D6F6E5C6E726600
:100D60005F7364685F626C652E63000094F202003A
:100D7000CCF20200080000002E2E2F2E2E2F2E2E39
:100D80002F2E2E2F2E2E2F2E2E2F636F6D706F6E07
:100D9000656E74732F6C69627261726965732F6519
:100DA00078706572696D656E74616C5F736563748C
:100DB000696F6E5F766172732F6E72665F736563C3
:100DC00074696F6E5F697465722E68006E72665F1B
:100DD0007364685F736F6300433A5C557365727345
:100DE0005C436174616C696E615C446F63756D65D1
:100DF0006E74735C54475C75566973696F6E5C42C0
:100E00004C455F53796E635C6E5246355F53444B7D
:100E10005F31342E322E305F313762393438615CC5
:100E2000636F6D706F6E656E74735C736F66746400
:100E300065766963655C636F6D6D6F6E5C6E72661F
:100E40005F7364685F736F632E63000074F2020067
:100E500094F2020008000000202020202020202002
:100E6000206828282828202020202020202020201A
:100E700020202020202020204810101010101010BA
:100E800010101010101010108484848484848484C2
:100E900084841010101010101081818181818101D3
:100EA0000101010101010101010101010101010132
:100EB00001010110101010101082828282828202C1
:100EC0000202020202020202020202020202020202
:100ED0000202021010101020000703200417020164
:100EE00008571040800000008C100300500F0300D2
:100EF0006410030053756E004D6F6E0054756500ED
:100F00005765640054687500467269005361740047
:100F1000000000004A616E00466562004D6172008B
:100F2000417072004D6179004A756E004A756C001F
:100F300041756700536570004F6374004E6F760013
:100F40004465630000000000414D00504D0000006A
:100F50008810030084100300841003008410030031
:100F60008410030084100300841003008410030025
:100F70008410030084100300FFFFFFFFFFFFFFFF4B
:100F8000FFFFFFFFFFFF0000C40F0300F40E03008C
:100F900000100300140F0300480F0300A80F030004
:100FA00058100300B40F0300256D2F25642F2579F9
:100FB00000000000256120256220256520255420A1
:100FC0002559000053756E646179004D6F6E646140
:100FD000790054756573646179005765646E657353
:100FE000646179005468757273646179004672694E
:100FF0006461790053617475726461790000000066
:101000004A616E75617279004665627275617279C6
:10101000004D6172636800417072696C004D6179C6
:10102000004A756E65004A756C7900417567757385
:10103000740053657074656D626572004F63746F00
:10104000626572004E6F76656D626572004465631D
:10105000656D62657200000025483A254D3A2553BA
:10106000000000003DE8020059E8020065E80200C7
:1010700071E802008DE8020099E80200A5E802008C
:10108000B3E80200000000002E0000004300000052
:10109000504F534958000000303132333435363721
:1010A00038396162636465663031323334353637DE
:1010B0003839414243444546286E756C6C2900001E
:1010C00020F402000000000000000000000000000A
:1010D00068F5020070F5020078F5020080F5020064
:1010E00088F5020090F5020098F50200A0F50200D4
:1010F000A8F50200B0F50200B8F50200C0F5020044
:10110000C8F502000101FFFF0D18010000000000FA
:1011100000010000E8030000FF1FA107010000001C
:101120000001000000000000E803000003000000D0
:10113000782B002003000000682B00200100000035
:10114000E80300000090D003E80E0300E80E03005F
:0C115000E80E0300E80E0300E80E0300A8
:04000003200032396E
:00000001FF
