:020000022000DC
:10300000000001203D32020095320200973202009A
:10301000993202009B3202009D3202000000000043
:103020000000000000000000000000009F320200CD
:10303000A132020000000000A3320200A53202000B
:10304000299B020071E802000DBC0200AF320200B1
:10305000B1320200B3320200E1A5020075C70200DE
:10306000B9320200BB320200BD320200BF320200A0
:10307000C1320200C3320200C5320200C732020070
:10308000C9320200A1520200CD320200CF3202004A
:10309000E1520200D3320200B57D030041EF02008D
:1030A000D9320200DB320200DD320200DF320200E0
:1030B000E1320200E3320200A7320200A73202002E
:1030C000E5320200E7320200E932020039C40200B0
:0C30D000F1C50200EF320200F1320200F4
:1030DC00364937480A1A02D0072291438D463549A2
:1030EC0035480A1A06D00722914381F30988022237
:1030FC0082F3148831483249324A00F045F832489C
:10310C003249334A00F040F832483349334A00F030
:10311C003BF833483349344A00F036F833483449E5
:10312C00344A00F031F834483449354A00F02CF870
:10313C0034483549354A00F027F8354835490022DE
:10314C0000F02DF834483549002200F028F83448B6
:10315C003449091A082903DB00220260043001609B
:10316C00314A90471F482049884205D002680430F4
:10317C0003B4904703BCF7E700208646EC460020DA
:10318C0000212A4A9047FEE7884207D0521A05D000
:10319C00037801300B700131013AF9D17047884244
:1031AC0002D002700130FAE77047000000000120E5
:1031BC0000F80020000001200000012034AF0300C3
:1031CC00242B0020F02B0020F4320200F4320200F9
:1031DC00048D030034AF0300242B0020242B00208B
:1031EC00B88E0300B88E0300B88E0300B88E0300AF
:1031FC00B88E0300B88E0300B88E0300B88E03009F
:10320C0034AF030000B00300F02B0020F02B0020A3
:10321C00F02B0020F0420020F0420020F042002071
:10322C00F0420020F044002061320200B9E60200B6
:10323C000F484FF00701884385460E4880470E48DB
:10324C00016841F470010160BFF34F8FBFF36F8FC2
:10325C00FFF73EBF09480A490A4A884207D0521A6A
:10326C0005D0037801300B700131013AF9D1704768
:10327C00000001205572030088ED00E0FC8D030076
:10328C00682A0020242B0020FEE7FEE7FEE7FEE77D
:10329C00FEE7FEE7FEE7FEE7FEE7FEE7FEE7FEE7FA
:1032AC00FEE7FEE7FEE7FEE7FEE7FEE7FEE7FEE7EA
:1032BC00FEE7FEE7FEE7FEE7FEE7FEE7FEE7FEE7DA
:1032CC00FEE7FEE7FEE7FEE7FEE7FEE7FEE7FEE7CA
:1032DC00FEE7FEE7FEE7FEE7FEE7FEE7FEE7FEE7BA
:0832EC00FEE7FEE7FEE700BF6C
:1032F40008B50CF079FE00BF08BD00B589B0039095
:1033040002910192019B002B22D0002307930A23F0
:103314000693029A079B1344019A194600200CF065
:1033240015FE0590079A059B13440793019A059B84
:10333400D31A0193059B002B05D1069B013B0693F1
:10334400069B002B03D0019B002BE2D100E000BFC1
:1033540000BF09B05DF804FB00B585B0039002918D
:10336400054B00934023054A0299039800F012F894
:1033740000BF05B05DF804FBFF320200F02B002013
:1033840082B0019000BF02B0704782B0019000BFCC
:1033940002B0704700B5A1B0059004910392029366
:1033A400049803F068FC039B1593029B1693002377
:1033B400179300238DF8603000231993229B1A93EE
:1033C40000231F930FA91F9B0822049803F00EFDEE
:1033D40008231F93119B1293109B9BB2ADF84C30A2
:1033E40000238DF850309DF83C3003F00303DBB22A
:1033F400012B32D10F9BC3F395231C939DF83C30D2
:10340400C3F3C203DBB28DF84E309DF83C30C3F3F6
:103414008003DBB2002B14BF01230023DBB28DF841
:103424004F30BDF83C30C3F38313DBB21B931B9BBB
:103434009A0009A91F9B049803F0D8FC1B9B9B00CE
:103444001F9A13441F9312AA09A915AB009313469C
:103454001B9A1C9800F08AFE3BE09DF83C3003F078
:103464000303DBB2022B34D1BDF83E30C3F389131E
:103474009BB21E939DF83C30C3F3C203DBB28DF8BC
:103484004E309DF83C30C3F38003DBB2002B14BFF5
:1034940001230023DBB28DF84F301E9B082B28BF7D
:1034A40008231D9307A91F9B1D9A049803F09EFCF3
:1034B4001F9A1D9B13441F931E9A1D9BD31A1E9380
:1034C40015AB12AA07A81D9900F0F2FE1E9B002B53
:1034D400E3D1049803F0DEFB00BF21B05DF804FBE8
:1034E40082B00190019B01225A7200BF02B0704762
:1034F40000B583B04FF0FF330193FFF7F9FE0421C9
:10350400084800F06DFD0190019B002B03DA064989
:1035140041200AF04DFB0348FFF7E2FF00BF03B070
:103524005DF804FB242B0020C48E030000B583B097
:1035340001900091019B1B681B68009901989847B2
:1035440000BF03B05DF804FB00B583B00190019B9C
:103554001B685B680198984700BF03B05DF804FBE3
:1035640082B001900B468DF80330019B9DF8032037
:103574001A7200BF02B0704782B00190019B1B7A9F
:10358400184602B0704782B00190019B01225A7222
:1035940000BF02B0704782B00190019B5B7A18466D
:1035A40002B0704710B487B001900091019B009A5B
:1035B40053E8004F44EA020043E8000191F0000F91
:1035C400F6D1059404900391049B184607B05DF866
:1035D400044B704710B487B001900091019B009A8E
:1035E40053E8004F04EA020043E8000191F0000FA1
:1035F400F6D1059404900391059B184607B05DF835
:10360400044B704700B583B0019001210198FFF786
:10361400C9FF0346184603B05DF804FB00B583B048
:10362400019000210198FFF7D5FF0346184603B027
:103634005DF804FB00B587B001901F4BFF229A6030
:103644001D4B00221A601C4B00225A601A4B0022A8
:10365400C3F81824184B0022C3F81424164B012273
:1036640083F81C24154803F06BFA0490049B002B88
:1036740001D0049B1CE0124A124BD31ADB080393BB
:10368400002305930FE0059A13465B0013449B0047
:103694001A460D4B13440293059B9AB2029B1A805F
:1036A400059B01330593059A039B9A42EBD30023B0
:1036B400184607B05DF804FB002D00205C8F030062
:1036C400D48D0300648D0300682A0020024A034B52
:1036D400D31ADB0818467047D48D0300648D0300A9
:1036E40000B587B001900B468DF803309DF8033088
:1036F400002B23D0FFF7EAFF04900023059317E083
:10370400059A13465B0013449B001A460E4B134460
:103714000393039B5B881A46019B1B689A4204D15E
:10372400019B059A1A60002309E0059B0133059368
:10373400059A049B9A42E3D3052300E0002318462C
:1037440007B05DF804FB00BF682A002000B585B00F
:1037540001900B468DF803309DF8032001AB114610
:103764001846FFF7BDFF0346002B07D1019BDB0082
:10377400054A13440393039B1B6800E00023184687
:1037840005B05DF804FB00BF648D030084B00190B4
:103794000B468DF80330019BDB00174A1344029358
:1037A4009DF80330013B032B1CD801A252F823F0EF
:1037B400C5370200CD370200D5370200DF370200DB
:1037C40000238DF80F3011E000238DF80F300DE049
:1037D400029B1B798DF80F3008E0029B5B798DF812
:1037E4000F3003E000238DF80F3000BF9DF80F3039
:1037F400184604B0704700BF648D030000B589B05B
:103804004148FFF7FFFE4148FFF7FCFE404B5B6871
:1038140007933F4B9B680493079A049B134002331E
:103824009B003B4A1344043306931BE0079B01337C
:103834000793069B5B88C3F389139BB21A46069BC6
:103844001B88C3F389139BB213441A46079B134482
:103854000793079A049B134002339B002C4A13449A
:1038640004330693069B1B7803F00303DBB2002B9F
:10387400DCD00023059311E0079B5A1C0792049A9D
:103884001340059A920069460A44214902339B0079
:103894000B445B681360059B01330593059B012B67
:1038A400EAD99DF80030C3F30103DBB2012B0CD03D
:1038B400022B14D1BDF80230C3F389139BB2033336
:1038C4009B08079A134407930FE0BDF80030C3F335
:1038D4008313DBB21A46079B1344079305E00D4993
:1038E40040F24D100AF064F900BF0848FFF796FE55
:1038F4000390039B002B02D0054A079B536000BF33
:1039040009B05DF804FB00BF183100201431002019
:10391400002D0020808F030010B586B00390029123
:1039240001920093039B1B0CADF81630BDF81640B2
:10393400FFF7CCFE03469C4204D323494FF4B270F4
:103944000AF036F9009B5A1C089B1340BDF8162058
:103954001E4902339B000B445A60009A089B134093
:1039640002339B00194A134404330493039B1B0939
:1039740003F00103D9B2049A137861F3820313703C
:10398400039B03F00703D9B2049A137861F3C503C8
:103994001370019B03F00F03D9B2049A138861F3E7
:1039A40089131380029BC3F31501049A136861F30E
:1039B4009F231360049A1378012161F301031370A8
:1039C40000BF06B010BD00BF808F0300002D002093
:1039D40000B58BB001900091019B02330893022340
:1039E400079301238DF81B3000238DF80F300DF160
:1039F4000F03184601F0A2FD214B1A68009B1A60C0
:103A04001F4B9A681E4B59681D4B1B68CB1A1344F5
:103A140001330993089A079B134405930BE0FFF7BE
:103A2400EDFE174B9A68164B5968154B1B68CB1A59
:103A3400134401330993059A099B9A42EFD8104B1A
:103A44001A680F4B9B68134002339B000C4A1344C3
:103A540004330493049A137843F003031370084B5C
:103A64001A68089B1344064A13609DF80F301846E1
:103A740001F07AFD9DF81B3018460BB05DF804FB8D
:103A8400002D002000B58BB00590049103920293A1
:103A94001F4B9B68079306AB19460298FFF798FFE4
:103AA4000346002B24D0069B02330993002308937A
:103AB40011E0089B9B00039A1A44099B591C099125
:103AC40007990B401268124902339B000B445A6059
:103AD400089B01330893089A029B9A42E9D3069AF9
:103AE400079B00931346029A04990598FFF714FF65
:103AF400074B93F81C34002B05D000BF00F07AF874
:103B04000346002BFAD100BF0BB05DF804FB00BFE5
:103B1400002D002000B583B0019000910023002205
:103B240000990198FFF7AEFF00BF03B05DF804FBF6
:103B340000B587B0039002910192019B059305AAF9
:103B4400012302990398FFF79DFF00BF07B05DF8BA
:103B540004FB00B587B00390029101920093019B8E
:103B64000493009B059304AA022302990398FFF788
:103B740089FF00BF07B05DF804FB00B589B003906E
:103B8400029101920093019B0593009B06930A9B6B
:103B9400079305AA032302990398FFF773FF00BF55
:103BA40009B05DF804FB00B589B00390029101925D
:103BB4000093019B0493009B05930A9B06930B9B24
:103BC400079304AA042302990398FFF75BFF00BF3D
:103BD40009B05DF804FB0000054B5A68044B1B68F0
:103BE4009A420CBF01230023DBB21846704700BF82
:103BF400002D002000B599B0FFF7EEFF0346002B1F
:103C040001D00023B2E1AB4B0022C3F81824BFF368
:103C14004F8FA84B5B681793A64B9B681093179A1A
:103C2400109B134002339B00A24A1344043316939F
:103C3400002315930023149300230F931BE0179B79
:103C440001331793169B5B88C3F389139BB21A46FF
:103C5400169B1B88C3F389139BB213441A46179B04
:103C640013441793179A109B134002339B00914AF5
:103C7400134404331693169B1B7803F00303DBB23F
:103C8400002BDCD00023139311E0179B5A1C1792CE
:103C9400109A1340139A920002A90A4485490233E8
:103CA4009B000B445B681360139B01331393139BBA
:103CB400012BEAD99DF8083003F00303DBB2022B91
:103CC40040F09C80BDF80A30C3F389139BB20D9376
:103CD400BDF80A30C3F389139BB2502B28BF50237D
:103CE4009BB20C930C9BC3F309039AB2BDF80A3040
:103CF40062F38F13ADF80A300C9B08330B939DF8D5
:103D04000830C3F3C203DBB20F930B996A4802F085
:103D140022FF1590159B002B00F0E080159802F00F
:103D2400AAFF02A9149B0822159803F04DF8149BCE
:103D340008331493179BDA43109B134001339B0001
:103D44000A930C9A0A9B9A4242D90A9B002B08D0E8
:103D5400179A109B134002339B00564A13440433B2
:103D640000E0564B08930A9B002B02D00A9BDBB25F
:103D740001E00C9BDBB28DF81F300A9B002B01D0B5
:103D84004E4B00E0002306930A9B002B06D00C9BAD
:103D9400DAB20A9BDBB2D31ADBB200E000238DF85F
:103DA40017309DF81F20149B0899159803F00CF800
:103DB4009DF81F30149A13441493069B002B16D0BD
:103DC4009DF81720149B0699159802F0FDFF0EE04C
:103DD400179A109B134002339B00364A1344043352
:103DE4000993149B0C9A0999159802F0EDFF0D9B09
:103DF40003339B08179A134417936FE09DF8083018
:103E040003F00303DBB2012B5AD1BDF80830C3F32E
:103E14008313DBB2062B28BF0623DAB2BDF80830C1
:103E240062F38913ADF80830BDF80830C3F3831387
:103E3400DBB202330E939DF80830C3F3C203DBB246
:103E44000F930E9B9B0019461B4802F084FE1590AD
:103E5400159B002B42D0159802F00DFF02A9149B6C
:103E64000822159802F0B0FF149B08331493002322
:103E7400139314E0179B5A1C1792109A13400233A1
:103E84009B000C4A1344191D149B0422159802F03C
:103E94009BFF149B04331493139B01331393BDF8BA
:103EA4000830C3F38313DBB21A46139B9342E1D366
:103EB40014E000BF002D00205C8F03000C2D0020B7
:103EC4009DF8083003F00303DBB2032B06D1294B22
:103ED400D3F81834002B01D1002347E0159B002BA5
:103EE4003ED0244BD3F810341293224BD3F8183419
:103EF400002B1AD0159802F0CDFE31E000238DF886
:103F040047301298FFF747FB0346002B02D00123EA
:103F14008DF847309DF84730002B03D0159912983F
:103F2400FFF704FB129B5B681293129B002BE5D1F5
:103F3400159802F0AFFE00238DF807300DF107034A
:103F4400184601F0FBFA0B4BD3F81834002B02D1BE
:103F5400084A179B53609DF80730184601F004FB8C
:103F6400FFF73AFE034683F00103DBB2184619B0AB
:103F74005DF804FB002D002000B585B000230393F9
:103F840022E0164BD3F81034029301238DF8073046
:103F94000EE00298FFF7F0FA03461A46039B934299
:103FA40003D100238DF8073005E0029B5B68029380
:103FB400029B002BEDD19DF80730002B01D0039B11
:103FC40007E0039B01330393039B092BD9DD4FF0D7
:103FD400FF33184605B05DF804FB00BF002D002038
:103FE40000B585B001900B468DF80330FFF7C4FF90
:103FF4000390039BB3F1FF3F01D1039B1EE0039B9E
:10400400DBB219460198FFF7ABFA0E4BD3F8103424
:10401400002B07D10B4A019BC2F81034019B0022EC
:104024005A600AE0074BD3F810345A68019B5A606F
:10403400044BD3F81034019A5A60039B184605B018
:104044005DF804FB002D002000B583B00C4BD3F8C1
:10405400103401930A4B012283F81C2408E00198D0
:10406400FFF791FA0198FFF76FFA019B5B680193E0
:10407400019B002BF3D100BF03B05DF804FB00BF2C
:10408400002D002010B582B001900091019BDB79D6
:1040940083F00103DBB2002B28D0019B1B7A002B99
:1040A40012D0019B9B881A46019B9B7919461046A6
:1040B400FFF76CFB03461A460E4B53F822301A46A0
:1040C4000D49009801F0EAFC019B9B791A460B4BC1
:1040D40053F82240019B9B8800211846FFF736FBCA
:1040E400034622460649009801F0D8FC00BF02B0FE
:1040F40010BD00BF442B002078900300302B00201B
:104104007C90030000B585B00390029113468DF8AE
:104114000730039BDB7983F00103DBB2002B0FD064
:10412400039B1B7A002B06D00D4B1B681A460D49C6
:10413400029801F0B3FC0C49029801F0AFFC07E0CF
:104144009DF80730002B03D00749029801F0A6FC24
:10415400029801F081FC00BF05B05DF804FB00BFCC
:10416400442B0020789003008890030030B58BB076
:1041740007900691059204930E9B1B7B8DF82730C4
:104184000E9B00221A730E990498FFF77BFF059B80
:10419400062B7FD801A252F823F000BFBD410200D4
:1041A400C7410200D7410200EB410200094202006C
:1041B400314202006142020007990E9801F06EFC40
:1041C40069E0069B1B681A4607990E9801F066FC85
:1041D40061E0069B1A68069B04331B6807990E98D6
:1041E40001F05CFC57E0069B1A68069B04331968CF
:1041F400069B08331B6800930B4607990E9801F041
:104204004DFC48E0069B1968069B04331868069B1E
:1042140008331B68069A0C32126801920093034615
:104224000A4607990E9801F039FC34E0069B186899
:10423400069B04331C68069B08331B68069A0C32E1
:10424400126806991031096802910192009323467D
:10425400024607990E9801F021FC1CE0069B1C689D
:10426400069B04331D68069B08331B68069A0C32B0
:104274001268069910310968069814300068039092
:104284000291019200932B46224607990E9801F061
:1042940005FC00E000BF00220E990498FFF732FFEE
:1042A4000E9B9DF827201A7300BF0BB030BD00BFD2
:1042B40000B587B00390029101920093029B082BF2
:1042C4005CD8009B1B7B8DF81330009B00221A7373
:1042D40000990198FFF7D6FE0023059314E0059A90
:1042E400029B9A4209D2039A059B13441B781A46EF
:1042F4002449009801F0D2FB03E02349009801F01F
:10430400CDFB059B01330593059B072BE7D91F497B
:10431400009801F0C3FB0023059322E0059A029B59
:104324009A4217D2039A059B13441B788DF81230D6
:104334009DF81230184614F02FF80346002B02D0D3
:104344009DF8123000E02E231A461149009801F01E
:10435400A5FB03E00F49009801F0A0FB059B013386
:104364000593059B072BD9D9012200990198FFF7E2
:10437400C9FE009B9DF813201A7300E000BF07B02C
:104384005DF804FB8C900300949003009890030064
:104394009C900300A090030000B589B00190002315
:1043A4008DF81F3051E02E4B1A689DF81F30DB004A
:1043B40013440693069B1B781A46012393400593E6
:1043C400284B1A68059B1340002B39D0059BDA4310
:1043D400244B1B681340234A1360069B1B78184622
:1043E40006F0E2F803468DF81330069B1B781A4654
:1043F400012393401A461C4B1B6813409DF813205D
:10440400069909788A4093421AD19DF81330069A86
:104414005278012A0CBF01220022D2B293420CBF6F
:1044240001230023DBB20393069B5B68002B07D0B8
:10443400069B5B68069A12780399C9B2104698479E
:104444009DF81F3001338DF81F30084B1B789DF801
:104454001F209A42A7D300BF09B05DF804FB00BF38
:1044640020310020503100204C3100202431002024
:1044740000B585B001900B468DF803300122019BF5
:1044840002FA03F303931E4B184600F0C3FF029095
:10449400029B002B30D11B4B1A68039B1340002B4B
:1044A40022D1019806F080F80346002B06D0164B63
:1044B4001A68039B1343144A136006E0039BDA4310
:1044C400114B1B681340104A13600E4B1A68039B70
:1044D40013430C4A13600A480C4B1B68002219460C
:1044E40000F066FF029008E0039BDA43054B1B686B
:1044F4001340044A136000E000BF05B05DF804FBFC
:104504002C310020503100204C3100202831002073
:1045140000B589B003900B4601928DF80B30019BD6
:10452400042B01D8072351E005F046FF034683F02E
:104534000103DBB2002B07D005F0F6FE0790079BC2
:10454400002B01D0079B41E0224A039B1360224ABF
:104554009DF80B301370214A019B1360204B0022FD
:104564001A60204B00221A6023E09DF80B30DB0018
:10457400039A1344069303238DF8143000238DF813
:10458400153000238DF8163000238DF81730069B64
:104594009B788DF81530069B1B78184605AB124A9C
:1045A400194605F015FF0790079B002B01D0079BC8
:1045B4000CE09DF80B305A1E8DF80B20002BD4D143
:1045C4000A4A00210A4800F0C3FE0346184609B00F
:1045D4005DF804FB20310020243100202831002024
:1045E4004C31002050310020754402009D430200EC
:1045F400A490030000B583B0114B1B68002B03D1BA
:104604001049B62009F0D4FA002301930CE00C4BB6
:104614001A68019BDB0013441B780121184605F03E
:104624003BFF019B01330193074B1B781A46019B07
:104634009342ECD30023184603B05DF804FB00BF9B
:1046440020310020A89003002431002000B589B057
:10465400039002910192029B9BB2ADF81430019B2E
:104664000693039B079305AB1A46002144F201000D
:1046740000F050F800BF09B05DF804FB86B0039069
:104684000291019201238DF817309DF81730204ACA
:10469400039B13601E4A029B53601D4A019B936057
:1046A400039B44F20102934212D044F20202934269
:1046B40022D1019B164AD360154BDB681B881A462E
:1046C400134B9A61124BDB685B68114AD36113E0A8
:1046D400019B0F4A13610E4B1B699B680C4A536183
:1046E4000B4B1B691B881A46094B9A61084B1B69C3
:1046F4005B68074AD36100BF72B600BF9DF81730EC
:10470400DBB2002BFAD162B600BF06B0704700BF1F
:104714005431002030B589B0059004910392FFF71D
:1047240093FC00BFFFF766FA0346002BFAD1059B02
:1047340041F20102934219D041F20102934202D89C
:10474400012B09D04AE044F20102934228D044F2FA
:104754000202934214D041E02D4B1B881B0443F00A
:1047640001032C491846FFF7D5F942E0284B1B8872
:104774001B0443F0010328491846FFF7CBF938E03E
:10478400039B0793224B1B881B0443F00100079BE8
:104794005B681A46079B1B882049FFF7DAF928E073
:1047A400039B06931A4B1B881B0443F00104069BCE
:1047B4009D68069B9B68184602F086FB03461946D3
:1047C400069B5B681A46069B1B88019300920B4666
:1047D4002A4613492046FFF7E6F90AE00C4B1B88EA
:1047E4001B0443F00103049A0E491846FFF7A0F98D
:1047F40000BF0D4B1B6803F00103002B00D0FFDE4C
:10480400039A04990598FFF739FF00BF09B030BD3A
:10481400682A002024910300449103006891030056
:10482400849103009C910300F0ED00E082B0034604
:104834008DF807309DF8073003F01F0205499DF9F4
:1048440007305B09012000FA02F241F8232000BF7F
:1048540002B0704700E100E082B003468DF80730F3
:104864009DF8073003F01F0206499DF907305B09E4
:10487400012000FA02F2203341F8232000BF02B0E5
:10488400704700BF00E100E082B003468DF80730B6
:104894009DF8073003F01F0206499DF907305B09B4
:1048A400012000FA02F2403341F8232000BF02B095
:1048B400704700BF00E100E082B003468DF8073086
:1048C4009DF8073003F01F0206499DF907305B0984
:1048D400012000FA02F2603341F8232000BF02B045
:1048E400704700BF00E100E082B0034600918DF8FC
:1048F40007309DF90730002B0CDA009BDAB20C4923
:104904009DF8073003F00F03043B5201D2B20B446D
:104914001A7609E0009BDAB206499DF90730520184
:10492400D2B20B4483F8002300BF02B0704700BF2B
:1049340000ED00E000E100E084B00190244B03931B
:10494400019B002B40D0234B1A680399019B00BFA5
:1049540000BF00BF00BF00BF00BF00BF00BF8A424E
:104964002FD000BF00BF00BF00BF00BF00BF00BF0B
:1049740000BF00BF00BF00BF00BF00BF00BF00BF3B
:1049840000BF00BF00BF00BF00BF00BF00BF00BF2B
:1049940000BF00BF00BF00BF00BF00BF00BF00BF1B
:1049A40000BF00BF00BF00BF00BF00BF00BF00BF0B
:1049B40000BF00BF00BF00BF00BF00BF00BF00BFFB
:1049C40000BF013BC3D1019300BF04B0704700BFD7
:1049D4000024F400D82B002000B583B00190064ACF
:1049E400019BC2F8083507211120FFF77DFF00BFA6
:1049F40003B05DF804FB00BF0010014008B50D4B87
:104A04004FF48032C3F844230A4B4FF48032C3F886
:104A140004231120FFF750FF1120FFF707FF054B78
:104A240001221A602F20FFF787FF034B01221A701F
:104A340000BF08BD001001409232002008B51120CB
:104A4400FFF70AFF0E4B4FF48032C3F848230C4B98
:104A54004FF48032C3F80823094B01225A602F20F7
:104A6400FFF76AFF064B01229A60064B00221A6088
:104A74002F20FFF761FF044B00221A7000BF08BD0E
:104A8400001001408432002092320020024BD3F8FF
:104A940004351846704700BF0010014082B00190F1
:104AA4000091019A009BD31A23F07F43184602B069
:104AB4007047000082B00190034A019BC2F8403560
:104AC40000BF02B0704700BF0010014086B00190E3
:104AD400284B1B68002B03D1264A019B136045E039
:104AE400019B1A68234B1B681B689A4210D8214B00
:104AF4001B681968019B1A681E4B1B688A1A1A6086
:104B04001C4B1A68019BDA611A4A019B13602DE061
:104B1400019B1B680393174B1B680593154B1B687C
:104B2400049309E0049B1B68039AD31A0393049B20
:104B34000593049BDB690493049B002B04D0049B22
:104B44001B68039A9A42EDD8049B002B05D0049B62
:104B54001A68039BD21A049B1A60019B039A1A6079
:104B6400019B049ADA61059B019ADA6100BF06B0E1
:104B7400704700BF8032002000B587B001902A4BF7
:104B84001B680393284B1B680593059B049308E05B
:104B9400049A019B9A4208D0049B0593049BDB6909
:104BA4000493049B002BF3D100E000BF049B002B73
:104BB40001D1002333E0059A049B9A4214D11A4B85
:104BC4001B68DB69184A1360174B1B68002B0BD159
:104BD400164B01229A60164B00221A60154B0122D3
:104BE4001A702F20FFF7A8FE049B1B680293049BF6
:104BF400DA69059BDA61059BDB690493049B002B4E
:104C040005D0049B1A68029B1A44049B1A60064B45
:104C14001B68039A9A4214BF01230023DBB218468F
:104C240007B05DF804FB00BF803200200010014093
:104C3400843200209332002008B51120FFF724FEAF
:104C440000BF08BD08B51420FFF71EFE00BF08BD55
:104C540000B583B00190019B5B69019A926910468B
:104C6400984700BF03B05DF804FB000000B585B0B1
:104C74002B4B1B68002B4ED000230193FFF706FF3C
:104C84000246284B1B6819461046FFF707FF02909F
:104C9400234B1B6803931DE0039B1B68029A9A42F3
:104CA4001CD3039B1B68029AD31A0293039B1B68B1
:104CB400019A13440193039B0093039BDB690393C1
:104CC400009B1B7C002B05D0009B00221A740098CB
:104CD400FFF7BEFF039B002BDED100E000BF124BA9
:104CE4001A78124B1B789A420CD1104B1B78013363
:104CF400DAB20E4B1A700D4B1B78022B02D10B4B00
:104D040000221A70094B1B781946094A019B42F884
:104D14002130FFF797FF00BF05B05DF804FB00BF2B
:104D24008032002084320020903200209132002012
:104D34008832002082B00190184B1A78184B1B78E7
:104D44009A4223D0154B1B780133DAB2134B1A70F5
:104D5400124B1B78022B02D1104B00221A700F4BFE
:104D64001B781A460F4B53F82220019B1A60019BB3
:104D74001A680D4B1B6813440B4A13600A4B1B68DB
:104D840023F07F43084A1360012303E0019B0022C0
:104D94001A600023184602B0704700BF903200200A
:104DA40091320020883200208432002088B00390A1
:104DB400029101920023079338E0204B1B6806936D
:104DC400069B1B68039A9A4206D2069B1A68039BA9
:104DD400D21A069B1A602DE0069B1B68039AD31A0D
:104DE4000393069B1B68079A13440793069B0022B0
:104DF4001A60124B1B680593069BDB690F4A13600C
:104E0400069BDB68002B11D0029A079B134423F006
:104E14007F42069B5A60069BDA68069B9A60019B58
:104E24001A68069BDA61019B059A1A60034B1B689A
:104E3400002BC2D100BF08B0704700BF80320020F1
:104E440000B589B0019000238DF81F30664B1B68B4
:104E54000593AAE0019B002B05D0019B0693069BBA
:104E6400DB69019361E0614B1B781A4613465B00D2
:104E74001344DB005D4A1344043304935B4B1B78F7
:104E84000133DAB2594B1A70584B1A78574B9B7846
:104E94009A4202D1554B00221A70049B5B68069318
:104EA400049B1B78022B04D0032B1BD0012B1FD097
:104EB4001DE0049B5B681846FFF75EFE0346002B6B
:104EC40002D001238DF81F30069B00221A746CE077
:104ED400454B1B680393039B00221A74039BDB69F5
:104EE400414A1360404B1B68002BF1D15DE05CE04C
:104EF40000BF069B1B7C002B00D056E0049B9A68E5
:104F0400069B5A60049BDA68069B9A60049B1A69A4
:104F1400069BDA60049B5A69069B9A61344B1B78A2
:104F2400002B02D0069B00225A60069B5A68314B24
:104F34001B68D31A23F07F432F4A93420ED8069B53
:104F44005A682C4B1B6819461046FFF7A7FD02460A
:104F5400069B9B681A44069B1A6017E0254B1A6847
:104F6400069B5B6819461046FFF798FD0290069B66
:104F74009B68029A9A4206D2069B9A68029BD21AAE
:104F8400069B1A6002E0069B00221A60069B002220
:104F94005A60069B00229A60069B01221A74069BA3
:104FA4000022DA610698FFF791FD019B002B7FF444
:104FB40051AF0E4B1A780D4B5B789A427FF44AAF8F
:104FC4009DF81F30002B04D1074B1B68059A9A42A9
:104FD40001D0012300E0002303F00103DBB21846F3
:104FE40009B05DF804FB00BF80320020743100205A
:104FF4009332002084320020FEFF7F0010B588B079
:105004000190274B1B68002B44D0254B1B681B6861
:105014000793FFF73BFD0690224B1B680593059908
:105024000698FFF73BFD0346033304931E4B1B789E
:1050340083F00103DBB2002B01D0FFF7DFFC049AFD
:10504400079B934238BF1346059A13440593059B67
:1050540023F07F4305930598FFF72CFDFFF716FD1A
:10506400039006990398FFF719FD0346DC1C069983
:105074000598FFF713FD03469C420DD9FFF706FD83
:1050840003461846FFF716FD2F20FFF755FCFFF7E0
:10509400D3FD01E0FFF7D2FC00BF08B010BD00BF94
:1050A40080320020843200209232002000B587B084
:1050B4000023019300238DF81730194B1B680493C8
:1050C400184B1B6803936B461846FFF733FE0346E1
:1050D4008DF80B309DF80B30002B08D0009B01AAF3
:1050E40004991846FFF762FE01238DF81730019BDF
:1050F4001846FFF7A5FE0346002B02D001238DF8C6
:1051040017309DF81730002B02D00398FFF776FF75
:10511400054B00221A7000BF07B05DF804FB00BF06
:1051240084320020803200209332002082B0034673
:105134008DF80730034A9DF80730537000BF02B062
:10514400704700BF7431002084B00190144B5B7829
:1051540001338DF80F30124B9B789DF80F209A4243
:1051640002D100238DF80F300D4B1B789DF80F20D2
:105174009A4201D100230FE0019B9DF80F201A7081
:10518400074B5B781A4613465B001344DB00044A62
:10519400134404330293029B184604B0704700BFC3
:1051A4007431002000B589B00390029101920093FC
:1051B4000023079300238DF816300DF116031846CB
:1051C40000F0BCF90DF117031846FFF7BDFF069078
:1051D400069B002B02D10423079318E0069B0122AF
:1051E4001A70069B039A5A60FFF750FC0246069B0E
:1051F4009A60069B029ADA60069B019A1A61069BE2
:10520400009A5A619DF817301846FFF78FFF9DF8F2
:105214001630184600F0A8F9079B002B01D1FFF7C0
:1052240011FD079B184609B05DF804FB00B587B073
:1052340001900B468DF803300023059300238DF86D
:105244000E300DF10E03184600F078F90DF10F033E
:105254001846FFF779FF0490049B002B02D1042326
:1052640005930BE0049B9DF803201A70049B019A9C
:105274005A609DF80F301846FFF758FF9DF80E301E
:10528400184600F071F9059B002B01D1FFF7DAFCF9
:10529400059B184607B05DF804FB000008B50E4BEB
:1052A4000022C3F840210C4B0022C3F844210A4BCE
:1052B4000022C3F84821084B0022C3F84C21064BB6
:1052C4000022C3F80021044B0022C3F80421FFF795
:1052D400CDFC00BF08BD00BF0010014008B5FFF7BA
:1052E400E5FE00BF08BD000008B5FFF7A7FB134BA0
:1052F40000221A70114B00225A70104B0B229A7024
:105304000F4B00221A600F4B00221A700E4B002222
:105314001A701420FFF7D0FA07211420FFF7E4FADB
:105324001420FFF783FA0020FFF756FBFFF7AEFBCC
:105334000246064B1A600023184608BD743100204B
:1053440080320020903200209132002084320020EC
:1053540086B003900B4601928DF80B30134B9B786B
:10536400002B01D108231EE0019B002B01D1072350
:1053740019E0039B002B01D1072314E0039B1B6856
:105384001B7C002B01D008230DE0039B1B680593B5
:10539400059B00221A74059B9DF80B205A74059BEB
:1053A400019A5A610023184606B0704774310020F0
:1053B40000B587B0039002910192039B0593144BAF
:1053C4009B78002B01D108231EE0039B002B01D105
:1053D400082319E0029B042B01D8072314E0059B42
:1053E4005B69002B01D108230EE0059B5B7C012B3C
:1053F40001D1029B00E000230493019B049A0299CB
:105404000598FFF7CFFE0346184607B05DF804FB86
:105414007431002000B585B00190019B03930D4BBE
:105424009B78002B01D1082310E0019B002B03D0B3
:10543400039B5B69002B01D1082307E0039B002237
:105444001A7402210398FFF7F1FE0346184605B0CB
:105454005DF804FB7431002082B0EFF310830093F5
:10546400009B019372B6019B184602B0704762B666
:1054740000BF704700B585B00190FFF7EDFF0390C2
:10548400164B9B68002B1BD1144B01229A60144BC2
:10549400D3F88020134B1340104A1360104B114A69
:1054A400C3F880200E4BD3F884300C4A53600C4B65
:1054B4004FF0FF32C3F88420019B00221A7002E0EF
:1054C400019B01221A70039B002B01D1FFF7CFFF30
:1054D4000023184605B05DF804FB00BF9432002099
:1054E40000E100E0FC06FFBD00B585B003468DF881
:1054F4000730104B9B68002B16D09DF80730002B0B
:1055040012D1FFF7A9FF03900B4A0A4B1B681360E3
:10551400094A084B5B685360064B00229A60039B60
:10552400002B01D1FFF7A3FF0023184605B05DF857
:1055340004FB00BF9432002000E100E000B583B01A
:10554400019000F02BF80346012B03D005494320BA
:1055540008F02EFB0198FFF78DFF00BF03B05DF844
:1055640004FB00BFB491030000B583B003468DF87B
:10557400073000F013F80346012B03D006495120ED
:1055840008F016FB9DF807301846FFF7ADFF00BF83
:1055940003B05DF804FB00BFB491030084B0EFF3E3
:1055A40005830193019BC3F308030393039B002B1F
:1055B4000DD1EFF314830093009B0293029B03F03D
:1055C4000103002B0CBF01230023DBB200E0012305
:1055D400184604B0704786B001900091019B53E8CF
:1055E400011F8AB2D88902449889824228BF121ABC
:1055F4001889824202BFBFF32F8F002307E0C2EA5B
:10560400010243E801200028E9D14FF001038DF89D
:105614000F30059002910492029A009B1A609DF843
:105624000F30DBB2184606B0704784B00190019980
:1056340051E8013FC3EA034341E80132002AF7D1AC
:105644000392029300BF04B0704786B001900091AA
:10565400019B53E8021F1FFAA1F2D888824202BFBD
:10566400BFF32F8F00230DE0D8890244988982422A
:1056740028BF121AC1EA024243E802200028E8D1F6
:105684004FF001038DF80F30059002910492029AB5
:10569400009B1A609DF80F30DBB2184606B07047C5
:1056A40084B00190019951E8023FC3EA234341E8E1
:1056B4000232002AF7D10392029300BF04B070476C
:1056C40086B00190019B53E8021FDA88B1EB314F99
:1056D4004FF0000017BF89B242EA024241EA024297
:1056E40004E05968B1EB314F08BF012043E80221BF
:1056F4000029E8D18DF80F00059104929DF80F3030
:10570400DBB2184606B0704784B00390029111468C
:105714001A460B46ADF806301346ADF80430029B2A
:10572400002B01D10E231FE0BDF80630BDF8042084
:10573400B3FBF2F102FB01F29B1A9BB2002B01D0E6
:10574400092311E0039B029A1A60039B00225A600A
:10575400039B00229A60039BBDF806209A81039B59
:10576400BDF80420DA810023184604B0704700B560
:1057740085B001900198FFF7A3FF03468DF80F3021
:105784009DF80F30002B01D0002300E011231846B0
:1057940005B05DF804FB00B583B001900091009B57
:1057A40019460198FFF717FF0346002B05D0019B0C
:1057B4001B68009A1288134400E00023184603B0C3
:1057C4005DF804FB00B583B001900091009B1A883A
:1057D400009B5B889A4204D10198FFF726FF0123BE
:1057E40000E00023184603B05DF804FB00B583B065
:1057F40001900091009B19460198FFF726FF03468C
:10580400002B05D0019B1B68009A5288134400E0CA
:105814000023184603B05DF804FB00B583B0019083
:105824000091009B1A88009B5B889A4204D10198DE
:10583400FFF736FF012300E00023184603B05DF8AC
:1058440004FB000000B583B001900B468DF80330D3
:10585400019B002B03D10849AF2008F0A9F9019B53
:10586400DA689DF803300199098A01FB03F31344B4
:10587400184603B05DF804FB3C92030000B583B006
:1058840001900091019B002B03D10849BC2008F032
:105894008FF9009B019AD2689B1A019A128AB3FB72
:1058A400F2F3DBB2184603B05DF804FB3C9203004C
:1058B40000B585B00190019B002B01D10E2349E076
:1058C400019B1B68002B03D12449C62008F070F902
:1058D400019B5B68002B03D12049C72008F068F9BD
:1058E400019B9B68002B03D11C49C82008F060F978
:1058F400019BDB68002B03D11849C92008F058F933
:10590400019B1B8A002B03D11449CA2008F050F9CB
:10591400019B9B681A46019B5B68D31A8DF80F3074
:10592400019B1B68019A52681A6007E0019B1A6880
:105934001368591C11609DF80F201A709DF80F30E0
:105944005A1E8DF80F20002BF0D1019B1B680022FA
:105954001A710023184605B05DF804FB3C9203005D
:1059640000B585B00190019B002B03D11F49EC20A9
:1059740008F01EF90023039300238DF80A300DF17B
:105984000A031846FFF7DAFD019B1B681A68019B9E
:105994005B689A4220D9019B1B681A68013A1A6015
:1059A4001B681B7819460198FFF74CFF0390019B75
:1059B4009B681A46019B1B681B68D31A8DF80B3031
:1059C400019B1B681B799DF80B209A4204D9019B0B
:1059D4001B689DF80B201A719DF80A301846FFF7D2
:1059E400C3FD039B184605B05DF804FB3C9203001D
:1059F40010B584B001900091019B002B04D115498E
:105A04004FF4887008F0D4F8009B002B04D111499E
:105A140040F2111008F0CCF8009B039300238DF89A
:105A24000B300DF10B031846FFF788FD019B1B6833
:105A34001C68621C1A6003990198FFF71FFF034654
:105A440023709DF80B301846FFF78EFD00BF04B09D
:105A540010BD00BF3C92030000B583B00190019BD0
:105A6400002B03D10C49312008F0A2F8019B9B685C
:105A7400002B0CD0019B5B69019A1069019A116893
:105A8400019A92689847019B00229A6000E000BF47
:105A940003B05DF804FB00BFB89203000EB400B578
:105AA40084B00190019B002B03D11849422008F0D7
:105AB4007FF8019B5B69002B03D11449432008F054
:105AC40077F8019B1B68002B03D11049442008F090
:105AD4006FF8019B5B68002B03D10C49452008F04B
:105AE40067F8059B002B0AD00023039306AB0393AE
:105AF40003AB1A460599019800F0B0F900E000BF25
:105B040004B05DF804EB03B0704700BFB892030023
:105B140000B583B001900B468DF80330019B1A68E1
:105B2400019B9B68581C0199886013449DF80320CD
:105B34001A70019B9A68019B5B689A4202D3019890
:105B4400FFF78AFF00BF03B05DF804FB00B587B020
:105B5400039002910192009300230593009B03F0AC
:105B64000103002B24D00BE0029B01330293059B1D
:105B7400013305939DF8133019460398FFF7C8FFC6
:105B8400029B1B788DF813309DF81330002BEBD15A
:105B940006E0019B013B019320210398FFF7B8FF26
:105BA400019A059B9A422ED9019B002BF1D12AE040
:105BB400029B002B0BD0029812F0D8FC059006E053
:105BC400019B013B019320210398FFF7A1FF019A58
:105BD400059B9A420FD9019B002BF1D10BE0029B4C
:105BE40001330293059B013305939DF81330194645
:105BF4000398FFF78DFF029B1B788DF813309DF8F7
:105C04001330002BEBD100BF07B05DF804FB00009C
:105C140000B589B00390029101920093029B07930F
:105C24000123069307E0079A019BB2FBF3F3079362
:105C3400069B01330693079A019B9A42F3D2009A7A
:105C4400069B9A4201D9009B06930B9B03F0010328
:105C5400002B22D10A9B002B1FD00B9B03F00203C5
:105C6400002B06D0009B002B03D130238DF8173076
:105C740002E020238DF8173008E00A9B013B0A93C9
:105C84009DF8173019460398FFF742FF0A9B002B33
:105C940003D0069A0A9B9A42EFD301230793009BF1
:105CA400012B03D9009B013B009309E0029A079B57
:105CB400B2FBF3F30493049A019B9A4200D205E0E9
:105CC400079B019A02FB03F30793E8E7029A079BF9
:105CD400B2FBF3F30493049B079A02FB03F3029AC7
:105CE400D31A0293154A049B13441B78194603984C
:105CF400FFF70EFF079A019BB2FBF3F30793079B91
:105D0400002BE3D10B9B03F00103002B11D00A9B62
:105D1400002B0ED006E00A9B013B0A932021039836
:105D2400FFF7F6FE0A9B002B03D0069A0A9B9A42C1
:105D3400F1D300BF09B05DF804FB00BFA4930300D6
:105D440000B589B00590049103920293049B002B43
:105D5400B8BF5B4206930123079307E0039B069AAF
:105D640092FBF3F30693079B01330793039B069A75
:105D74009A42F3DA029A079B9A4201D9029B07934B
:105D84000A9B002B0AD0049B002B04DB0B9B03F023
:105D94000403002B02D00A9B013B0A930B9B03F0E4
:105DA4000203002B02D0029B002B16D00B9B03F0A6
:105DB4000103002B11D10A9B002B0ED006E00A9B95
:105DC400013B0A9320210598FFF7A2FE0A9B002BB2
:105DD40003D0079A0A9B9A42F1D3049B002B07DA5B
:105DE400049B5B4204932D210598FFF791FE08E084
:105DF4000B9B03F00403002B03D02B210598FFF722
:105E040087FE0B9B03F00203002B19D00B9B03F0BE
:105E14000103002B14D1029B002B11D10A9B002BF0
:105E24000ED006E00A9B013B0A9330210598FFF748
:105E34006FFE0A9B002B03D0079A0A9B9A42F1D368
:105E440004990B9B01930A9B0093029B039A059868
:105E5400FFF7DEFE00BF09B05DF804FB00B58FB0AC
:105E6400059004910392059B002B04D1C8494FF47B
:105E74009F7007F09DFE059B5B69002B04D1C4490C
:105E84004FF4A07007F094FE059B1B68002B04D10F
:105E9400BF4940F2411007F08BFE059B5B68002B65
:105EA40004D1BB494FF4A17007F082FE049B002B80
:105EB40000F0ED81049B1B788DF83730049B01338F
:105EC40004939DF83730002B00F0D8819DF83730CB
:105ED400252B40F0C78100230A9301230C93049BD4
:105EE4001B788DF837309DF837302D2B04D0302BAC
:105EF4000AD02B2B10D017E00A9B43F001030A931E
:105F0400049B0133049312E00A9B43F002030A93B7
:105F1400049B013304930AE00A9B43F004030A93AD
:105F2400049B0133049302E000230C9300BF0C9BF9
:105F3400002BD4D1002309939DF837302A2B0CD1A0
:105F4400039B1B68191D039A11601B68099A13446B
:105F54000993049B013304931AE0049B1B788DF886
:105F640037309DF837302F2B12D99DF83730392B25
:105F74000ED8049B01330493099A13469B001344DF
:105F84005B001A469DF837301344303B0993D3E73E
:105F940000230B93049B1B788DF837309DF8373022
:105FA4002E2B1DD1049B01330493049B1B788DF885
:105FB40037309DF837302F2B12D99DF83730392BD5
:105FC4000ED8049B013304930B9A13469B0013448D
:105FD4005B001A469DF837301344303B0B93E4E7DB
:105FE400049B1B788DF837309DF837306C2B03D029
:105FF4009DF83730682B07D1049B01330493049B2D
:106004001B788DF83730EFE79DF83730253B532B5D
:1060140000F2238101A252F823F000BF556202006E
:106024005F6202005F6202005F6202005F62020060
:106034005F6202005F6202005F6202005F62020050
:106044005F6202005F6202005F6202005F62020040
:106054005F6202005F6202005F6202005F62020030
:106064005F6202005F6202005F6202005F62020020
:106074005F6202005F6202005F6202005F62020010
:106084005F6202005F6202005F6202005F62020000
:106094005F6202005F6202005F6202005F620200F0
:1060A4005F6202005F6202005F6202005F620200E0
:1060B4005F6202005F6202005F6202005F620200D0
:1060C4005F6202005F6202005F6202005F620200C0
:1060D4005F6202005F6202005F6202005F620200B0
:1060E4005F6202005F620200E16102005F6202001F
:1060F4005F6202005F6202005F6202005F62020090
:106104005F6202005F6202005F6202005F6202007F
:106114005F62020071610200996102005F62020025
:106124005F6202005F6202005F6202009961020026
:106134005F6202005F6202005F6202005F6202004F
:106144005F6202005F620200216202005F6202007D
:106154005F620200056202005F620200BD6102002C
:106164005F6202005F620200E1610200039B1B6840
:10617400191D039A11601B680C930C9B8DF81F303A
:106184009DF81F3019460598FFF7C2FC66E000BF72
:106194002C930300039B1B68191D039A11601B6851
:1061A4000C930A9B0193099B00930B9B0A220C9965
:1061B4000598FFF7C5FD51E0039B1B68191D039A61
:1061C40011601B680C930C990A9B0193099B009323
:1061D4000B9B0A220598FFF71BFD3FE0039B1B68FE
:1061E400191D039A11601B680C930C990A9B019367
:1061F400099B00930B9B10220598FFF709FD2DE0E6
:10620400039B1B68191D039A11601B6808930A9B62
:10621400099A08990598FFF799FC1FE0039B1B68EE
:10622400191D039A11601B680C9330210598FFF720
:106234006FFC78210598FFF76BFC0C990023019300
:1062440008230093082310220598FFF7E1FC05E0DA
:1062540025210598FFF75CFC00E000BF049B013397
:10626400049305E09DF8373019460598FFF750FC74
:10627400049B1B78002B7FF41DAE00E000BF059B40
:106284001B7B002B04D00598FFF7E6FB00E000BF62
:106294000FB05DF804FB00BF00B585B00390029118
:1062A4000192039B002B02D0029B002B01D10E23F1
:1062B40009E0039B029A1A60039B1B681B680199FF
:1062C400039898470346184605B05DF804FB10B5DB
:1062D40086B00590049103920293059B002B02D093
:1062E400039B002B01D10E2340E0059B1B68002B70
:1062F40001D108233AE0029B002B0AD0059B5B687E
:106304005A68029BB3FBF2F102FB01F29B1A002BC9
:1063140001D009232AE0049800F0C6F8034683F06C
:106324000103DBB2002B14D1039B184600F0BCF828
:10633400034683F00103DBB2002B0AD1029A0499CD
:10634400059800F097F8034683F00103DBB2002BB5
:1063540001D010230AE0059B1B68DC68089B0093AE
:10636400029B039A04990598A0470346184606B071
:1063740010BD10B584B00390029101920093039B69
:10638400002B01D10E232EE0039B1B68002B01D1AF
:10639400082328E0019B002B01D1092323E0039B60
:1063A4005B681B685A1E029B1340002B10D1039B91
:1063B4005B681B68019A02FB03F31A46029903986F
:1063C40000F058F8034683F00103DBB2002B01D040
:1063D400102308E0039B1B681C69009B019A029927
:1063E4000398A0470346184604B010BD00B585B015
:1063F4000190019B002B03D0019B1B68002B28D12B
:106404000023039319E0039A13469B0013449B0053
:106414001A46154B13440193019B1B68002B09D0AA
:10642400019B1B68DB69019898470346002B01D048
:10643400012314E0039B013303930C4A0A4BD31A40
:106444000B4AA2FB03231B09039A9A42DBD30023C2
:1064540005E0019B1B68DB690198984703461846D1
:1064640005B05DF804FB00BF102B0020242B002096
:10647400CDCCCCCC84B0039002910192039BDB6819
:10648400029A9A4209D3029A019B13445A1E039B0F
:106494001B699A4201D8012300E0002303F00103A1
:1064A400DBB2184604B0704782B00190019B03F040
:1064B4000303002B0CBF01230023DBB2184602B0F8
:1064C400704729DF704700BF184628DF704700BFB8
:1064D400184610B487B001900091019B009A53E8CC
:1064E400004F104643E8000191F0000FF7D10594E6
:1064F40004900391059B184607B05DF8044B704760
:1065040010B487B001900091019B009A53E8004FAA
:1065140044EA020043E8000191F0000FF6D105942B
:1065240004900391059B184607B05DF8044B70472F
:1065340000B583B0019001210198FFF7E1FF034604
:10654400184603B05DF804FB00B589B001900091D2
:10655400019B1B689B68002B31D003AB00221A609F
:106564005A609A60DA601A61009B0493019B9B68ED
:106574000793019B1B79002B02D0012B0AD017E053
:1065840001238DF80C30019B1B690593019B5B690A
:1065940006930DE002238DF80C30019BDB684FF469
:1065A400805202FB03F30593019B5B69069300BFD2
:1065B400019B1B689B6803AA1046984700E000BF34
:1065C40009B05DF804FB00B587B00190019B5A69DE
:1065D400019B9B69D31AB3F5805F28BF4FF48053A6
:1065E40005930422059BB3FBF2F3012B38BF01236F
:1065F4000593019B1A69019B9B6913440493019BB6
:10660400DB681A46019B9B6913440393059A03991B
:106614000498FFF756FF0346184607B05DF804FBDD
:1066240000B583B00190019BDA68019B1B69134498
:106634001846FFF74AFF0346184603B05DF804FB0B
:1066440008B5034B03491846FFF7E7F800BF08BD38
:106654002C3300205433002008B5084B0849184651
:10666400FFF7C4F80246074B1A60064B1B68002B61
:1066740014BF01230023DBB2184608BD2C330020CD
:10668400543300205033002000B583B0294B1B7ACB
:10669400002B0BD1FFF7E0FF034683F00103DBB2CD
:1066A400002B03D0234B00225A6040E0214B0222EE
:1066B4001A72214B1B681B79002B02D0012B07D0C7
:1066C4000DE01D4B1B681846FFF77DFF019009E0A4
:1066D400194B1B681846FFF7A3FF019002E0032340
:1066E400019300BF019B002B02D0112B0CD00FE0B3
:1066F400104B1B7C83F00103DBB2002B16D000216E
:10670400022000F065F911E00A4B01221A720EE032
:10671400094B1B6803211846FFF716FF054B00229F
:106724001A72044B00225A6000BF00E000BF03B09D
:106734005DF804FB3C3300205033002000B583B0E7
:1067440001210A48FFF7C5FE03460193019B002B74
:1067540008D1074B5B7C83F00103DBB2002B01D033
:10676400FFF792FF00BF03B05DF804FB4033002045
:106774003C33002084B001901B4B0022DA60019B63
:106784001B79002B02D0012B19D028E0019B5A69F8
:10679400019B9B69D31AB3F5805F28BF4FF48053E4
:1067A4000393019B9A69039B1A44019B9A61019B81
:1067B4009A69019B5B699A420ED1012310E0019B07
:1067C4001B695A1C019B1A61019B1A69019B5B6935
:1067D4009A4203D1012303E000BF00E000BF00237D
:1067E400184604B0704700BF3C33002082B00190CB
:1067F400084BDB680133074AD360064BDB68082B80
:1068040004D9044B0022DA60012300E00023184677
:1068140002B070473C33002000B583B00190009172
:106824000C48FFF785FE0346002B0ED1019B0A4A54
:106834005A6011F091FA03461A46064B1A74074837
:106844001C238C220649FEF75FFF0023184603B081
:106854005DF804FB3C330020B49303002C33002088
:10686400A032002000B583B00190009114220021D1
:10687400054811F026FE054B1846FEF778FF002365
:10688400184603B05DF804FB3C3300202C33002091
:1068940000B587B00390029101920093174A04ABAC
:1068A40019461046FEF777FF0590059B002B01D192
:1068B40004231FE01C220021059811F002FE059B11
:1068C40000221A71059B039A1A60059B089A9A6024
:1068D400059B029A1A61059B019ADA60059B009A4E
:1068E4005A61064A04AB19461046FEF76BFFFFF7E0
:1068F40025FF0023184607B05DF804FB2C33002065
:1069040000B585B00390029101920093029B009A16
:106914001946019811F0ACFD0023184605B05DF846
:1069240004FB000000B587B003900291019200932C
:10693400184A04AB19461046FEF72DFF0590059B37
:10694400002B01D1042320E01C220021059811F022
:10695400B8FD059B01221A71059B039A1A60059BD9
:10696400009A9A604FF48052029BB3FBF2F2059BAB
:10697400DA60059B019A5A61064A04AB194610462F
:10698400FEF720FFFFF7DAFE0023184607B05DF894
:1069940004FB00BF2C33002082B001900091009BC7
:1069A400184602B0704782B0019000910023184647
:1069B40002B0704782B00190044B1B7A002B14BFC5
:1069C40001230023DBB2184602B070473C33002099
:1069D40000B585B001900091244B1B7A012B33D074
:1069E400022B00D03FE000238DF80F30019B022BD7
:1069F40002D0032B09D011E01D4B1B681846FFF78A
:106A0400B9FE03468DF80F3008E0194B1B68184691
:106A1400FFF7ECFE03468DF80F3000BF9DF80F30F2
:106A2400002B13D0114B00221A72114B1A68019BD0
:106A3400022B01D1002300E00D2319461046FFF775
:106A440083FDFFF7FDFD01E000BF00E000BF074B41
:106A54005B7C83F00103DBB2002B02D0FFF714FE52
:106A640001E011F05DF905B05DF804FB3C33002052
:106A74005033002082B0034600918DF80730064B56
:106A840001225A74044B1B7A002B0CBF01230023F0
:106A9400DBB2184602B070473C33002000B583B027
:106AA400034600918DF807309DF80730012B03D081
:106AB4009DF80730032B0DD1084B00225A749DF822
:106AC4000730012B0CBF01230023DAB2034B1A74E5
:106AD400FFF7DAFD00BF03B05DF804FB3C33002090
:106AE40010B487B001900091019B009A53E8004FC5
:106AF40004EB020043E8000191F0000FF6D1059485
:106B040004900391049B184607B05DF8044B70474A
:106B140010B487B001900091019B009A53E8004F94
:106B2400A4EB020043E8000191F0000FF6D10594B4
:106B340004900391049B184607B05DF8044B70471A
:106B440000B583B001900198FEF7B2FE03461846E3
:106B540003B05DF804FB00B58BB001900091019B7C
:106B64001B8A043B0793009A079B1344DA1C079B78
:106B7400B2FBF3F38DF81B300198FEF7F1FE05909C
:106B8400059B002B01D1002338E0059B00221A71DC
:106B9400059B01225A71079B9AB2059BDA80059BDB
:106BA40009939DF81B30013B0493099B019A1A60D9
:106BB400002308931DE00198FEF7D2FE0390039B87
:106BC400002B0ED0059B5B790133DAB2059B5A7119
:106BD400099B039A1A60039B019A1A60039B099309
:106BE40004E0059800F00EF8002307E0089B013349
:106BF4000893089A049B9A42DDD3059B18460BB070
:106C04005DF804FB00B58BB00190019B0793079BD3
:106C14005B798DF81B30019B08939DF81B30013B79
:106C240005930023099305E0089B1B680893099BBF
:106C340001330993099A059B9A42F5D3089B1B6873
:106C44000493019B0893002309930BE0089B1B68A2
:106C5400039308990498FEF7CBFE039B0893099BC2
:106C6400013309939DF81B30099A9A42EED300BF71
:106C74000BB05DF804FB00B585B00190019B039354
:106C8400039B043301211846FFF72AFF00BF05B018
:106C94005DF804FB00B587B00190019B0593059B4B
:106CA400043301211846FFF733FF0346039303AB74
:106CB4000493049B1B78002B02D10198FFF7A2FFD9
:106CC40000BF07B05DF804FB00B58DB003900291DE
:106CD40001920093039B0693069BDB880593039B19
:106CE4000B93009B1A1D059BB2FBF3F30A93009BC5
:106CF4000433059AB3FBF2F2059901FB02F29B1AE5
:106D04000993009A019B1A44059B1344DA1C059BC2
:106D1400B2FBF3F38DF81330069B5B799DF81320D7
:106D24009A420AD92749BA2006F042FF05E00B9B94
:106D34001B680B930A9B013B0A930A9B002BF6D119
:106D440000230893059A099BD31A0793079A019B7A
:106D5400934228BF134607932DE09DF83830002B4B
:106D64000BD0029A089BD0180B9A099B1344043346
:106D7400079A194611F07CFB0AE00B9A099B13440D
:106D8400181D029A089B1344079A194611F070FBC8
:106D9400002309930B9B1B680B93019A079BD31A3F
:106DA4000193089A079B13440893059A019B934205
:106DB40028BF13460793019B002BCED100BF0DB013
:106DC4005DF804FBE093030000B587B005900491DF
:106DD4000392029300230093029B039A049905985B
:106DE400FFF772FF00BF07B05DF804FB00B587B082
:106DF400059004910392029301230093029B039A4A
:106E040004990598FFF760FF00BF07B05DF804FB25
:106E140000B583B001900091019B002B03D1104970
:106E2400502006F0C5FE009B002B03D10C495120D5
:106E340006F0BEFE019B009A1A60019B1B681A684B
:106E4400019B5A60019B5A68019B1B685B689A42CC
:106E540002D1019B00225A6000BF03B05DF804FB1D
:106E64008095030000B583B00190019B002B03D1F2
:106E74001449632006F09CFE019B1B68002B03D180
:106E84001049642006F094FE019B5B68002B14D02B
:106E9400019B5B681A46019B1B689B6813441A4656
:106EA400019B5A60019B5A68019B1B685B689A426C
:106EB40004D1019B00225A6000E000BF03B05DF8DA
:106EC40004FB00BF8095030000B585B001900198D4
:106ED40000F00EF80390039B002B01D0039B00E00D
:106EE400024B184605B05DF804FB00BF149603007E
:106EF40086B00190164B0593164B04931FE0049A39
:106F0400059BD31ADB10DA0F13445B10DB00059AE0
:106F140013440393039B1B680293029A019B9A42B6
:106F240002D9039B04930AE0029A019B9A4203D27A
:106F3400039B0833059302E0039B5B6804E0059A16
:106F4400049B9A42DBD30023184606B0704700BF67
:106F540030990300209A030000B583B0019000919A
:106F6400019BDBB2184602F0D1F9019B184603B02D
:106F74005DF804FB82B001900B46ADF80230019B32
:106F84001A68BDF80230012101FA03F31A43019B88
:106F94001A6000BF02B0704782B001900B46ADF892
:106FA4000230019B1A68BDF80230012101FA03F393
:106FB400DB431A40019B1A6000BF02B0704782B0E5
:106FC40001900B46ADF80230BDF80230012202FAFE
:106FD40003F31A46019B1340002B14BF0123002323
:106FE400DBB2184602B0704700B585B001900023AB
:106FF400ADF80E3010E0BDF80E3019460198FFF7D9
:10700400DEFF0346002B02D0BDF80E300AE0BDF8C7
:107014000E300133ADF80E30BDF80E301F2BEAD917
:107024004FF6FF73184605B05DF804FB00B587B052
:107034000590049111461A460B46ADF80E301346DE
:107044008DF80D30BDF80E209DF80D3000931346D9
:1070540001220499059800F004F800BF07B05DF818
:1070640004FB00B587B0039002910192ADF80230A1
:10707400039B002B3BD0029B002B38D0019B002BA1
:1070840035D0002305932FE0059B5B00039A13443E
:107094001B88BDF802209A4223D1002304931BE0ED
:1070A4009DF82030002B0AD0049B9B00029A1344C5
:1070B400059A92B211461846FFF75CFF09E0049B5B
:1070C4009B00029A1344059A92B211461846FFF7A0
:1070D40063FF049B01330493049A019B9A42DFD318
:1070E40005E0059B01330593059B1F2BCCD907B005
:1070F4005DF804FB00B587B0039002911346ADF828
:107104000630039B002B19D00023059313E0059B45
:107114005B00039A13441B88BDF806209A4207D1EA
:10712400059B9BB219460298FFF749FF034606E008
:10713400059B01330593059B1F2BE8D900231846B3
:1071440007B05DF804FB00B597B00390029101927B
:1071540000230493029B002B1ED00023159318E0F8
:10716400159B9BB219460198FFF729FF0346002B94
:107174000CD0159B5B00029A1A44049B591C049181
:1071840012885B0016A90B4423F8442C159B013389
:107194001593159B1F2BE3D9039B184604AB44227C
:1071A400194611F065F9039817B05DF804FB82B035
:1071B4000190019B03F00303002B0CBF0123002368
:1071C400DBB2184602B0704710B487B0019000914A
:1071D400019B009A53E8004F44EA020043E800018F
:1071E40091F0000FF6D1059404900391059B184685
:1071F40007B05DF8044B704710B487B0019000915C
:10720400019B009A53E8004F04EB020043E800019D
:1072140091F0000FF6D1059404900391059B184654
:1072240007B05DF8044B704710B487B0019000912B
:10723400019B009A53E8004F04EB020043E800016D
:1072440091F0000FF6D1059404900391049B184625
:1072540007B05DF8044B704710B487B001900091FB
:10726400019B009A53E8004FA4EB020043E800019D
:1072740091F0000FF6D1059404900391049B1846F5
:1072840007B05DF8044B704700B583B0019001214D
:107294000198FFF799FF0346184603B05DF804FB15
:1072A40000B585B00190002303930EE00A4A039BC6
:1072B40052F82330002B05D0074A039B52F82330A1
:1072C40001989847039B01330393039B032BEDD948
:1072D40000BF05B05DF804FB6833002082B0019064
:1072E4000091019B1B78013B052B61D801A252F848
:1072F40023F000BF11730200197302003F730200F0
:107304007173020091730200AD730200009B0022AE
:107314001A704EE0009B01221A70019B1A89009B8F
:107324009A81019B9A88009BDA81019BDA68009B11
:107334009A60009B00221A743BE0009B02221A70A0
:10734400019B1A89009B9A81019B9A88009BDA8190
:10735400019BDA68009B9A60019B9B7D062B0CBF06
:1073640001230023DAB2009B1A7422E0009B03225B
:107374001A70019BDA88009B9A81019B1A89009BF1
:10738400DA81019BDA68009B9A6012E0009B042278
:107394001A70019BDA88009B9A81009B0022DA8193
:1073A400009B00229A6004E0009B05221A7000E012
:1073B40000BF00BF02B0704784B001900091019BF0
:1073C4000393039A009B9A4206D2039B1B68B3F172
:1073D400FF3F01D0012300E0002303F00103DBB2EF
:1073E400184604B0704782B00190019B5B88033358
:1073F4009B00019A1344184602B0704700B583B04D
:10740400019000910198FFF7EEFF0246009B934222
:1074140001D202230CE0019B9B884FF6FF7293423A
:1074240003D0019B1B88002B01D1012300E0002322
:10743400184603B05DF804FB00B583B00190019BCE
:10744400002B13D00D4BDB681A46019B93420DD3DE
:107454000A4B1B691A46019B934207D80198FFF710
:10746400A6FE0346002B01D0012300E0002303F015
:107474000103DBB2184603B05DF804FB102B0020B7
:1074840082B00190019B002B04D0019B1B680B4A26
:10749400934201D003230DE0019B04331B68084A87
:1074A400934204D0074A934203D1012302E000230C
:1074B40000E00323184602B0704700BFDEC0ADDE13
:1074C400FE011EF1FF011EF184B00190002303931D
:1074D4000CE0039B9B00019A13441B68B3F1FF3F2C
:1074E40001D0002307E0039B01330393039BB3F50F
:1074F400806FEED30123184604B0704782B0034670
:107504000A46ADF806301346ADF80430BDF806203F
:10751400134913469B0013449B000B4408331A88F9
:10752400BDF804301344ADF80430BDF806200C490E
:1075340013469B0013449B000B440A331A88BDF87E
:1075440004301344ADF80430BDF8043040F2FF3287
:10755400934294BF01230023DBB2184602B0704764
:107564001834002084B0019000910A23039300236F
:10757400ADF80A3027E0BDF80A20174913469B00EE
:1075840013449B000B4404331B68009A9A4215D998
:10759400BDF80A20104913469B0013449B000B447A
:1075A40004331B6803F58053009A9A4206D20023E1
:1075B4000393019BBDF80A201A8008E0BDF80A3045
:1075C4000133ADF80A30BDF80A30012BD3D9039B3F
:1075D400184604B0704700BF1834002000B589B0C5
:1075E400039002910192039B03F580530693039B3E
:1075F40008330393029B02221A80039B079332E011
:1076040006990798FFF7FAFE03468DF817309DF8A0
:107614001730002B0AD1079B9A68184B1B689A42B3
:1076240013D9079B9B68154A13600EE0019B002B3E
:1076340002D0019B01221A709DF81730022B04D14D
:10764400029B4FF480621A8014E0029B1A88079B05
:107654005B8813449BB203339AB2029B1A80079847
:10766400FFF7C1FE079006990798FFF7A5FE0346AA
:10767400002BC5D109B05DF804FB00BF78330020AE
:1076840082B001900B46ADF80230019B1A89BDF817
:10769400023013449BB203339AB2019B1A81019BBB
:1076A4005A89BDF80230D31A9BB2033B9AB2019BAC
:1076B4005A8100BF02B0704700B583B0074B1B6806
:1076C4001946002300930823054A0648FEF7FFFDE8
:1076D4000346184603B05DF804FB00BF40340020A5
:1076E400949A0300102B002000B585B003900399F1
:1076F400002300930823044A0448FEF7E8FD0346E8
:10770400184605B05DF804FB9C9A0300102B00207A
:1077140000B585B003460091ADF8063000238DF81E
:107724000F30BDF806300333ADF80A30BDF80A3027
:1077340040F2FD32934201D909234AE00023ADF817
:107744000C303BE0BDF80C20244913469B00134445
:107754009B000B441B78002B2BD1BDF80A20BDF8ED
:107764000C3011461846FFF7C9FE0346002B20D003
:1077740001238DF80F30009BBDF80C201A80BDF852
:107784000C20164913469B0013449B000B440A33F8
:107794001988BDF80C20BDF80A300B4498B20F4983
:1077A40013469B0013449B000B440A3302461A8081
:1077B40008E0BDF80C300133ADF80C30BDF80C30E6
:1077C400012BBFD99DF80F30002B01D0002300E01E
:1077D4000723184605B05DF804FB00BF18340020E9
:1077E40082B003460A46ADF806301346ADF80430BD
:1077F400BDF804200D4913469B0013449B000B4421
:107804000A331A88BDF80630D31A9BB2BDF8042097
:10781400033B98B2054913469B0013449B000B4459
:107824000A3302461A8000BF02B0704718340020A1
:1078340008B501210248FFF7F7FC0346184608BDC6
:107844007833002000B585B003460091ADF80630CA
:10785400BDF80620234913469B0013449B000B44A8
:1078640004331B6803F580530293009B1B68039346
:10787400039B002B04D00398FFF7B5FD039024E08D
:10788400BDF80620174913469B0013449B000B4484
:1078940004331B680833039317E002990398FFF736
:1078A400ADFD0346012B09D0022B0CD0002B00D0D8
:1078B4000BE0009B039A1A6001230EE00398FFF784
:1078C40092FD039001E0002307E002990398FFF77B
:1078D40073FD0346002BE0D10023184605B05DF884
:1078E40004FB00BF1834002000B585B0019000915E
:1078F400019B5B681846FFF79FFD0346002B19D0D8
:10790400019B1A89244B1B899A4213D1019B1A6843
:10791400019B5B689B689A420CD1019B5B6819468A
:107924000098FFF71FFE0346002B0CBF0123002322
:10793400DBB22CE0009B00221A8023E00023029398
:1079440010E0029B0393039B9A68019B1B689A4275
:1079540008D1029A019B5A600F4B1A89019B1A8124
:10796400012314E0009B1B8802AA11461846FFF766
:1079740069FF0346002BE4D1009B1B8801339AB2B4
:10798400009B1A80009B1B88012BD7D90023184623
:1079940005B05DF804FB00BF4834002000B587B093
:1079A4000390029101920093304B1B78DBB283F079
:1079B4000103DBB2002B01D0022353E0019B002B17
:1079C40002D0009B002B48D105234BE0009B9B88F1
:1079D4001946274A0B469B000B449B0013441B7813
:1079E400002B33D124E0009B1B680593039B002BE1
:1079F40006D0059B9A88039B1B889A4200D017E007
:107A0400029B002B06D0059B1A88029B1B889A4276
:107A140000D00DE0059B9A68019B1A60009B1A68D0
:107A2400019B5A60134B1A89019B1A81002319E0A8
:107A3400009B9B88009A11461846FFF703FF0346F4
:107A4400002BD0D1009B00221A6000E000BF009BF5
:107A54009B8801339AB2009B9A80009B9B88012BE0
:107A6400B4D90A23184607B05DF804FB5833002044
:107A7400183400204834002000B585B00190084B2C
:107A840001991846FDF787FE03901C2200210398F4
:107A940010F017FD039B184605B05DF804FB00BF0A
:107AA4000834002000B583B00190044B01991846B6
:107AB400FDF788FE00BF03B05DF804FB0834002026
:107AC40000B583B00190054B01991846FDF78EFE71
:107AD4000346184603B05DF804FB00BF08340020D9
:107AE40000B583B00190044B01991846FDF795FE4B
:107AF40000BF03B05DF804FB0834002008B50A4B4E
:107B04001B68002B04D1094940F2712006F050F89B
:107B140001210548FFF7A0FB0346002B14BF0123F6
:107B24000023DBB2184608BD60330020209A03000E
:107B340000B587B0002305930023ADF8123003236A
:107B4400ADF8103000238DF80F300023ADF80C3061
:107B5400F0E0BDF80C301B031A467F4BDB6813447E
:107B640002930298FFF78CFC03468DF807309DF8CA
:107B74000730012B00F09C80032B02D0002B62D035
:107B8400D3E00298FFF7A0FC0346002B3BD0734BD5
:107B94001B68002B29D0BDF81220714913469B00A5
:107BA40013449B000B4402221A70BDF812206C4946
:107BB40013469B0013449B000B440433029A1A603F
:107BC400BDF81220664913469B0013449B000B44E6
:107BD400083302221A80634ABDF812305380BDF87C
:107BE40012300133ADF8123008E05C4A029B136096
:107BF4005A4B02229A8001238DF80F30059B43F0E3
:107C04000103059391E0BDF81030013BADF810304D
:107C1400BDF81220524913469B0013449B000B44A9
:107C24000433029A1A60BDF812204D4913469B0092
:107C340013449B000B4403221A70BDF81230013325
:107C4400ADF8123071E0BDF81220454913469B008F
:107C540013449B000B4400221A70BDF812204049C3
:107C640013469B0013449B000B440433029A1A608E
:107C7400BDF8122013469B0013449B000833384A76
:107C84009918BDF8122013469B0013449B0010332F
:107C9400334A13441A460298FFF7A0FC059B43F0AD
:107CA40002030593BDF812300133ADF812303CE005
:107CB4009DF80F30002B25D0BDF81220284913461B
:107CC4009B0013449B000B4402221A70BDF812203F
:107CD400224B1968224813469B0013449B0003441B
:107CE40004331960BDF812201D4913469B00134448
:107CF4009B000B44083302221A80BDF81230013372
:107D0400ADF81230154A029B1360002216490298FE
:107D1400FFF764FC114B9B88022B01D1042300E084
:107D24000823059A1343059300BFBDF80C300133B3
:107D3400ADF80C30BDF80C30022B7FF60AAFBDF85D
:107D44001030012B01D800230593059BDBB21846A4
:107D540007B05DF804FB00BF102B00204034002066
:107D640018340020483400204434002000B587B083
:107D740003900291039B02229A750299039B1A1D98
:107D84000023009304230748FEF7A1FA0590059BFE
:107D9400002B01D1002300E00E23184607B05DF844
:107DA40004FB00BF102B002000B587B003900291A4
:107DB400039B1B69002B01D0032200E00122039BDB
:107DC4009A75029B08331946039B03F10C020023A6
:107DD400009304230648FEF77AFA0590059B002BCE
:107DE40001D1002300E00E23184607B05DF804FB20
:107DF400102B002000B587B003900291039B1B78E1
:107E0400032B01D1052200E00622039B9A75029BF5
:107E140004331946039B03F108020023009304234F
:107E24000648FEF754FA0590059B002B01D1002368
:107E340000E00E23184607B05DF804FB102B002069
:107E440000B587B003900B46ADF80A3003990023C0
:107E5400009304230C4A0D48FEF739FA0590059B5C
:107E6400002B01D00E230BE0BDF80A20084913466D
:107E74009B0013449B000B44103301221A7000230F
:107E8400184607B05DF804FBA49A0300102B0020E9
:107E94001834002000B589B0019002AB00221A60AA
:107EA4005A609A60019BDB6802930DF1160202ABE3
:107EB40011461846FFF718FD0346002B12D0039B0A
:107EC4000693069B9A88019BDA80069B1A88019B7D
:107ED4001A81039BBDF8162011461846FFF7B0FF20
:107EE400079001E00A230793079B184609B05DF841
:107EF40004FB000000B587B00190019B981D02AA05
:107F04000D4B0021FFF74AFD0590059B002B08D17E
:107F1400039A094B9B8819461046FFF791FF059079
:107F240004E008220021044810F0CBFA059B18460F
:107F340007B05DF804FB00BF5834002000B587B0DB
:107F440003900291039B01229A75029B0C331846FD
:107F5400039B1A69039BDB889900002300930B465B
:107F640001460748FEF7B3F90590059B002B01D1A4
:107F7400002300E00E23184607B05DF804FB00BFA1
:107F8400102B002082B0184B1B8901339AB2164B78
:107F94001A81154B00225A80134B00221A730023B6
:107FA400ADF8063018E0BDF80620104913469B00D2
:107FB40013449B000B441A78BDF80630002A0CBF0A
:107FC40001220022D1B2084A13440A469A72BDF82B
:107FD40006300133ADF80630BDF80630012BE2D986
:107FE40000BF02B0704700BF48340020183400209E
:107FF40084B0019000238DF80F300023ADF80C30CD
:1080040031E0BDF80C301C4A13449B7A002B25D078
:10801400BDF80C30184A134400229A72BDF80C20A3
:10802400164913469B0013449B000B440C331B68F6
:10803400002B13D1BDF80C20104913469B001344A8
:108044009B000B4410331B78002B07D0019BBDF819
:108054000C201A8001238DF80F3008E0BDF80C3095
:108064000133ADF80C30BDF80C30012BC9D99DF8A3
:108074000F30184604B070474834002018340020EC
:1080840008B5084B05221A70074B02229A80064B4A
:108094001B681946002301220448FEF76AF90346C7
:1080A400184608BD4834002040340020102B00201E
:1080B40000B583B0164B5B88ADF80230BDF80220E2
:1080C400144913469B0013449B000B440C331B6858
:1080D400002B14D10E4B04221A70BDF802200D4956
:1080E40013469B0013449B000B4404331B6819463E
:1080F400002301220848FEF73CF9019002E0FFF753
:10810400BFFF0190019B184603B05DF804FB00BF5C
:108114004834002018340020102B002000B587B00C
:10812400114B5B680593114B1A68104B9B889B009D
:1081340013440493059B5B880333ADF80E300A4B5C
:1081440003221A700499084B5A68BDF80E3098003F
:108154000023009303460648FEF7B9F80346184681
:1081640007B05DF804FB00BF483400204034002011
:10817400102B002000B583B00A4B5B880A491846CF
:10818400FFF760FB0346002B03D0FFF7C7FF019006
:1081940002E0FFF78DFF0190019B184603B05DF8E4
:1081A40004FB00BF483400204C34002008B50A4BBF
:1081B40006221A70084B5B881946084A0B469B0036
:1081C4000B449B00134404331B681846FFF78CFAD6
:1081D4000346184608BD00BF483400201834002068
:1081E40008B5054B07221A70034B00225A60FFF7AB
:1081F40063FA0346184608BD4834002008B50D4804
:10820400FFF7F6FE034683F00103DBB2002B0BD02D
:10821400094B00221A70084B00225A80064B002298
:108224005A6041F61D5302E0FFF7A4FF03461846C7
:1082340008BD00BF4A3400204834002082B0094BF6
:108244005B680193019B5B880333ADF80230064BF6
:108254009A88BDF8023013449AB2034B9A8000BF47
:1082640002B07047483400204034002082B0184BDC
:108274001B680193174B5B881946174A0B469B00F2
:108284000B449B00134404331B68114A1360114BC5
:108294005B881946104A0B469B000B449B00134411
:1082A4000433019A1A600B4B5B881946084B988873
:1082B400094A0B469B000B449B00134408330246B7
:1082C4001A80034B02229A8000BF02B0704700BF9D
:1082D40040340020483400201834002008B51A4BDC
:1082E4001B78072B2CD801A252F823F0118302002B
:1082F40045830200458302001D8302002983020096
:1083040035830200358302003D830200FFF73AFE05
:108314000D4B01221A7014E0FFF790FF0A4B022262
:108324001A700EE0FFF7A2FF074B06221A7008E04E
:10833400054B07221A7004E0034B01221A7000E077
:1083440000BF00BF08BD00BF4834002000B587B09F
:10835400019000910F230593019B002B04D0624BE5
:1083640000225A600123BBE0009B1B79032B00F21F
:10837400AB8001A252F823F08D8302009B8302009C
:108384002984020049840200009B01221A71FFF72C
:1083940093F905909BE000238DF813300023ADF88A
:1083A40010302BE0BDF81020504913469B001344B5
:1083B4009B000B441B78022B1BD1BDF810204B49AA
:1083C40013469B0013449B000B4400221A700123A4
:1083D4008DF81330BDF81020444913469B00134414
:1083E4009B000B4404331B681846FFF77DF9059086
:1083F40008E0BDF810300133ADF81030BDF810308E
:10840400012BCFD99DF8133083F00103DBB2002B8D
:108414005CD0354B01221A70334B00225A6041F66E
:108424001D535DE0009B00221A71314B02229A8099
:108434002F4B1B681946002301222E48FDF799FF94
:10844400059044E0009B00221A71294B1B681846D2
:10845400FFF74AF90590284B5B88ADF80E30244BA2
:108464001B680293BDF80E20204913469B00134459
:108474009B000B4404331B681D4A1360BDF80E2097
:108484001A4913469B0013449B000B440433029A7D
:108494001A60BDF80E20164B9888144913469B00A9
:1084A40013449B000B44083302461A80104B0222EB
:1084B4009A80BDF80E200D4913469B0013449B007F
:1084C4000B4400221A7002E000BF00E000BF059BCD
:1084D400002B04D0044B00225A600E2300E000233A
:1084E400184607B05DF804FB583300201834002008
:1084F40040340020102B00204834002000B587B001
:1085040001900091009B9B8A1A4613469B001344DA
:108514009B003C4A13440493019B002B07D0009B0F
:10852400DB8819460498FFF7ABF8012365E0049B48
:108534005A68049B1B899B0013440393009B9B7DF7
:10854400062B4DD801A252F823F000BF93850200F8
:10855400B78502009F850200AB8502006D8502008D
:10856400C3850200DD850200274B00225A60009B70
:108574009B69254A136025492348FFF7B5F903464B
:1085840083F00103DBB2002B01D00A2335E0039909
:108594000098FFF7EBFB059025E003990098FFF79F
:1085A40003FC05901FE003990098FFF7C7FC0590B2
:1085B40019E003990098FFF71DFC059013E0009B58
:1085C40006229A75104B5A68104B1B8819461046A0
:1085D400FFF736FC059006E041F61D53059302E0D3
:1085E4000F23059300BF059B002B05D0009BDB8860
:1085F40019460498FFF744F8059B184607B05DF840
:1086040004FB00BF18340020603400206C340020C8
:1086140000B585B001900091019B002B01D001238E
:1086240023E0009B1B79012B0BD0022B14D0002BD1
:1086340016D1009B02221A710098FFF72BFC0390BD
:1086440012E00098FFF756FC0390039B0A2B0AD113
:1086540041F61D53039306E041F61D53039303E0D3
:108664000F23039300E000BF039B184605B05DF899
:1086740004FB000000B585B00190019B002B01D0E4
:1086840001233BE01F4B1B7B002B03D01D4B00221F
:108694001A7301E0FFF722FE1A4B1B78013B062BED
:1086A40028D801A252F823F0C9860200D18602001C
:1086B400D9860200E1860200F9860200E9860200FA
:1086C400F1860200FFF79AFD039016E0FFF752FDD2
:1086D400039012E0FFF722FD03900EE0FFF7E8FCA1
:1086E40003900AE0FFF762FD039006E0FFF778FDD0
:1086F400039002E00F23039300BF039B184605B0C9
:108704005DF804FB4834002000B589B001903F4B6C
:108714001B68002B05D13E48FFF7D2F902463B4BBC
:108724001A603A4B1B68002B04D13A4940F2795045
:1087340005F03EFA354B1B681B78013B052B2CD802
:1087440001A252F823F000BF65870200758702007A
:1087540075870200858702008587020095870200DD
:108764002A4B1B6819460198FFF7F0FD019017E0AA
:10877400264B1B6819460198FFF7C0FE01900FE0D5
:10878400224B1B6819460198FFF742FF019007E04E
:108794000198FFF76FFF019002E00F23019300BFE0
:1087A400019B002B2BD003AB1422002118460FF0A1
:1087B40088FE019B41F61D52934204D10023049389
:1087C4000023019301E0019B0493104B1B6803AA4F
:1087D40011461846FEF782FD03AB1846FEF760FD0E
:1087E4000A4B00221A600A48FFF77AF9FFF786F964
:1087F400034683F00103DBB2002B02D187E700BFFD
:1088040000E000BF00BF09B05DF804FB7034002035
:1088140074340020209A030008B501210548FEF7AE
:10882400EBFC0346002B02D10020FFF76DFF00BFD5
:1088340008BD00BF6033002000B583B00190019BE8
:108844005B681846FFF760FF00BF03B05DF804FBE8
:1088540000B58BB00390029101928DF80330002390
:10886400ADF824300023ADF82630514B1B78DBB231
:1088740083F00103DBB2002B01D0022393E0029BBF
:10888400002B01D105238EE0029B1B884FF6FF725B
:10889400934203D0029B5B88002B01D1042382E026
:1088A400029B5B681846FEF782FC034683F00103D3
:1088B400DBB2002B01D0032375E0019B002B11D107
:1088C400029B9B68ADF826300DF11A02BDF82630E4
:1088D40011461846FEF71CFF0890089B002B09D090
:1088E400089B60E0019B1B88ADF81A30019B5B88F4
:1088F400ADF8263005AB1846FFF7BEF80790079B86
:10890400002B09D1BDF81A20BDF8263011461846AF
:10891400FEF766FF082346E0079B9DF803201A70C4
:10892400079B00229A75BDF81A20079B9A82029B26
:108934005A68079B1A61FEF77BFF0246079BDA60C1
:10894400029B1A88079B1A81029B5A88079B9A806C
:10895400079BBDF82620DA809DF80330032B06D14F
:10896400079B04229A75039B1A68079B9A61079BCD
:10897400BDF824205A8105AB1846FFF793F8039BF2
:10898400002B0DD0039B00225A60079BDA68039BDF
:108994001A60039B00229A72064B1A89039B1A8160
:1089A400FFF73AFF002318460BB05DF804FB00BF45
:1089B400583300204834002000B585B001900C4B9A
:1089C4001B68042B02D10C2303930BE0084B1B6898
:1089D4000849019A41F8232001210548FEF724FCA7
:1089E40000230393039B184605B05DF804FB00BF06
:1089F400643300206833002084B04FF010235B6997
:108A040003934FF080531B6902934FF080535B69CB
:108A14000193039BB3F1FF3F04D1019B029A02FB34
:108A240003F300E0039B184604B0704700B583B01D
:108A34004FF440530193FFF7DFFF0246054B1A61E1
:108A4400044B1A69019BD31A024AD36000BF03B0D6
:108A54005DF804FB102B002008B5FFF7E7FF0022A8
:108A640003490448FDF718FC0346184608BD00BF37
:108A7400C0930300102B002008B504481C238C224B
:108A84000349FCF741FE00BF08BD00BF08340020C5
:108A94007C33002000B58BB002AB00221A605A6010
:108AA4009A60DA601A61404B1B78DBB2002B05D068
:108AB40002AB1846FEF7F4FB002371E03B48FEF7D7
:108AC400E3FB0346002B01D0002369E0FFF7C4FF5A
:108AD4000990099B002B01D0099B61E0FFF7CCFFB3
:108AE400FFF726F803468DF823309DF82330022B38
:108AF4000DD0062B0DD0002B09D000BF01AB1846BA
:108B0400FEF7BAFF0790079B002B10D10DE00B2353
:108B140046E0254B01221A70234B00225A6002AB17
:108B24001846FEF7BDFB00233AE0082338E0079B14
:108B340001221A709DF82330013B0A2B28D801A288
:108B440052F823F0758B0200958B0200758B02009E
:108B5400958B02008D8B0200958B02008D8B020099
:108B6400958B02007D8B0200858B02007D8B0200B9
:108B7400079B00221A710CE0079B03221A7108E07C
:108B8400079B02221A7104E0079B01221A7100E07C
:108B940000BF01AB1846FEF785FFFFF73DFE00233B
:108BA40018460BB05DF804FB583300205C330020FA
:108BB40000B585B001900091019B002B02D0009B71
:108BC400002B01D1052329E00DF10A031946019870
:108BD400FEF78AFE0346002B1FD0019B5B680393BC
:108BE400BDF80A301A4613469B0013449B00083311
:108BF4000C4A1344043301211846FEF715FB009B6D
:108C0400039A1A60019B5B6803F10C02009B5A6093
:108C1400019B01229A72002300E00A23184605B042
:108C24005DF804FB1834002000B585B00190019B69
:108C3400002B01D1052339E00DF10A0319460198EF
:108C4400FEF752FE0346002B2DD0BDF80A3019461C
:108C5400184A0B469B000B449B0013440C331B68BF
:108C6400002B1DD0019B9B7A002B19D0BDF80A3034
:108C74001A46104913469B0013449B000B440C33C3
:108C84001B68591E0B4813469B0013449B00034466
:108C94000C331960019B00229A720023039304E0B1
:108CA4000623039301E00A230393039B184605B0AC
:108CB4005DF804FB1834002000B585B001900B4624
:108CC400ADF80230134B1B78DBB283F00103DBB247
:108CD400002B01D0022319E0019B002B01D10523B5
:108CE40014E00DF10A02BDF8023011461846FEF7F1
:108CF4000FFD0390039B002B07D1BDF80A20019BB5
:108D04001A80019BBDF802205A80039B184605B0C7
:108D14005DF804FB5833002000B585B001901F4B6B
:108D24001B78DBB283F00103DBB2002B01D00223FA
:108D34002FE0019B002B01D105232AE0019B1B8816
:108D4400022B01D9042324E0019B1B881A461346F5
:108D54009B0013449B00124A13440293019B5B88BB
:108D64000333029A5289934210DC019B5A88019B77
:108D74001B8819461046FEF733FD019B00221A801A
:108D8400019B00225A800023039301E004230393F0
:108D9400039B184605B05DF804FB00BF5833002060
:108DA4001834002000B583B0019000910223002202
:108DB40000990198FFF74CFD0346184603B05DF88F
:108DC40004FB00B585B0039002910192019B002B36
:108DD40001D1052306E00223019A02990398FFF7C3
:108DE40037FD0346184605B05DF804FB00B583B0B3
:108DF40001900091019B002B01D1052306E0032380
:108E0400002200990198FFF723FD0346184603B09A
:108E14005DF804FB00B585B00346ADF80630184B89
:108E24001B78DBB283F00103DBB2002B01D00223F9
:108E340022E0BDF806304FF6FF72934201D10423BD
:108E44001AE002AB1846FEF717FE0390039B002BB3
:108E540001D1082310E0039B05221A70039B012211
:108E64001A71039BBDF80620DA8002AB1846FEF7A0
:108E740019FEFFF7D1FC0023184605B05DF804FB8A
:108E84005833002000B583B0144B1B78DBB283F059
:108E94000103DBB2002B01D002231AE06B46184613
:108EA400FEF7EAFD0190019B002B01D1082310E09D
:108EB400019B06221A706B461846FEF7F3FD084B19
:108EC4001B78002B02D0064B01221A73FFF7A4FC77
:108ED4000023184603B05DF804FB00BF583300209C
:108EE4004834002000B585B0029201930346ADF8E2
:108EF4000E300B46ADF80C3003A90DF10E00019BAA
:108F0400029AFEF74BFD0346184605B05DF804FBD4
:108F140000B585B0034602910192ADF80E300DF113
:108F24000E01019B029A0020FEF738FD0346184605
:108F340005B05DF804FB00B585B0034602910192CB
:108F4400ADF80E300DF10E00019B029A0021FEF7E0
:108F540025FD0346184605B05DF804FB82B0019078
:108F64000091019B002B02D0009B002B01D1052313
:108F740004E0019B1A68009B1A600023184602B0A3
:108F8400704784B00190019B9B680393019BDA684E
:108F9400039BD31A184604B0704782B001900B4665
:108FA4008DF80330019B1A68019BDB68019989885D
:108FB4000B4013449DF803201A70019BDB685A1C74
:108FC400019BDA6000BF02B0704784B003900B4687
:108FD4000192ADF80A30039B1A68039B9968BDF8A7
:108FE4000A300B44039989880B4013441A78019B77
:108FF4001A7000BF04B0704700B583B001900091AF
:10900400009A00210198FFF7E0FF019B9B685A1C1E
:10901400019B9A6000BF03B05DF804FB84B0039029
:1090240002911346ADF80630029B002B01D10E23AA
:109034001DE0BDF80630002B07D0BDF806305A1EDF
:10904400BDF806301340002B01D009230FE0039B29
:10905400029A1A60BDF80630013B9AB2039B9A80CB
:10906400039B00229A60039B0022DA6000231846C7
:1090740004B0704700B583B001900B468DF80330FF
:109084000198FFF77EFF0246019B9B889A4207D80E
:109094009DF8033019460198FFF77FFF002300E095
:1090A4000423184603B05DF804FB00B583B00190B7
:1090B40000910198FFF765FF0346002B05D0009946
:1090C4000198FFF799FF002300E00523184603B039
:1090D4005DF804FB84B00190019B9B680393019BA2
:1090E400DA68039BD31A184604B0704700B587B0FA
:1090F40001900091019B1B78012B04D0022B38D0E6
:10910400002B47D05CE0019B5B681B7819462E4816
:10911400FFF7B0FF0590059B002B0AD001238DF8C3
:109124000C30059B0493294B1B6803AA10469847EF
:109134000DE02548FFF7CEFF0346002B07D00023A0
:109144008DF80C30214B1B6803AA104698471E4823
:10915400FFF7C0FF02461C4B9B889A4205D80122A8
:109164001B491C4802F086FA2AE01B4B01221A70A4
:1091740026E002238DF80C30019BDB680493012266
:109184001349144802F076FA104B1B6803AA1046E0
:10919400984715E011491248FFF787FF0346002B53
:1091A40005D101220D490B4802F05AF807E00323C8
:1091B4008DF80C30054B1B6803AA1046984700BF76
:1091C40000BF07B05DF804FB84340020783400202D
:1091D40080340020682B0020813400207C3400205F
:1091E4009434002030B58FB00390029101928DF831
:1091F40003303E4A019B1360029B002B01D10723DD
:1092040071E0029B1968029B5B689BB21A4638485E
:10921400FFF704FF0D900D9B002B01D00D9B62E026
:10922400029B9968029BDB689BB21A463148FFF7A0
:10923400F5FE0D900D9B002B01D00D9B53E02E4BA2
:1092440005AC1D460FCD0FC495E80F0084E80F0050
:10925400039B5B690B93039B1B7C002B14BF0123B3
:109264000023DBB28DF828309DF803308DF83030C0
:10927400039B5B7C002B01D00E2300E000238DF8C0
:109284002930039BDB680793039B9B680893039B2C
:109294001B680693039B5B68059305AB174A194645
:1092A400174801F097FE0D900D9B002B01D00D9BEC
:1092B40019E0144B00221A70039B1B68B3F1FF3FA3
:1092C40010D09DF8313083F00103DBB2002B02D0C3
:1092D4000B4802F093FA01220B49094802F0CAF93B
:1092E400034600E0002318460FB030BD7834002058
:1092F4008434002094340020A89A0300F1900200E2
:10930400682B0020813400208034002000B585B013
:1093140003468DF807309DF8073019461048FFF7CB
:10932400A9FE0390039B002B15D10E4802F004F80C
:10933400034683F00103DBB2002B0CD00A49084832
:10934400FFF7B3FE0346002B05D101220649054869
:1093540001F086FF0390039B184605B05DF804FBFB
:1093640094340020682B00207C34002082B0034613
:109374008DF807300B468DF8063013468DF805300E
:109384000A499DF807309DF8052051331B010B4411
:1093940004331A6005499DF807309DF806205133BF
:1093A4001B010B441A6000BF02B0704700700040FC
:1093B40000B583B0034600918DF80730009B1B78FD
:1093C40003F00302009B5B781B0103F030031A4394
:1093D400009B9B781B0203F4E0631A43009BDB7839
:1093E4001B0303F480531A43009B1B791B0403F4EF
:1093F400E0231A43009B5B791B0503F4801342EAC4
:109404000301009B9B791B0603F080720A489DF8B8
:1094140007300A431B01034403F5A3631A60009B4E
:10942400D979009B1A7A9DF807301846FFF79EFFFA
:1094340000BF03B05DF804FB0070004000B583B0CA
:109444000190019B1B681F2B04D905494FF4E87058
:1094540004F0AEFB4FF0A043184603B05DF804FBE4
:10946400449B030000B585B00190084611461A4696
:1094740003468DF803300B468DF8023013468DF801
:10948400013001AB1846FFF7D9FF03909DF8032084
:109494009DF802305B001A439DF801309B001A438B
:1094A4009DF818301B0242EA03019DF81C301B048E
:1094B400019A1943039B02F5E07243F8221000BF9E
:1094C40005B05DF804FB00B585B00390002301935B
:1094D400002300930023012201210398FFF7C2FF18
:1094E40000BF05B05DF804FB00B585B0019001AB89
:1094F4001846FFF7A3FF0390019B012202FA03F32E
:109504001946039800F086F800BF05B05DF804FB27
:1095140000B585B0019001AB1846FFF78FFF0390AB
:10952400019B012202FA03F31946039800F07CF828
:1095340000BF05B05DF804FB00B585B0019001AB38
:109544001846FFF77BFF0390039BD3F8043502937F
:10955400029BDA43019B012101FA03F31A40039BA6
:10956400C3F80825019B01229A40029B1A40039BE1
:10957400C3F80C2500BF05B05DF804FB00B583B04B
:1095840001900091009B002B03D10198FFF7C0FFCD
:1095940002E00198FFF7A8FF00BF03B05DF804FBE9
:1095A40000B585B0019001AB1846FFF747FF039063
:1095B400039800F01FF80246019B22FA03F303F01C
:1095C4000103184605B05DF804FB00B585B00190B1
:1095D40001AB1846FFF732FF0390039800F012F82E
:1095E4000246019B22FA03F303F00103184605B077
:1095F4005DF804FB82B00190019BD3F81035184646
:1096040002B0704782B00190019BD3F8043518462C
:1096140002B0704782B001900091019B009AC3F898
:10962400082500BF02B0704782B001900091019BF1
:10963400009AC3F80C2500BF02B0704700B585B08E
:109644000190019B012B03D91149372004F0B0FA92
:10965400104A019B13441B781846FFF7B6FF0346D4
:10966400002B14BF012300238DF80F309DF80F3019
:10967400002B14BF01230023DBB283F00103DBB210
:1096840003F00103DBB2184605B05DF804FB00BF2C
:109694007C9B0300EC9B030000B583B00190019B0D
:1096A400012B03D907493E2004F082FA064A019BA4
:1096B40013441B7800211846FFF760FF00BF03B076
:1096C4005DF804FB7C9B0300EC9B030000B583B0B6
:1096D4000190019B012B03D90749442004F068FA47
:1096E400064A019B13441B7801211846FFF746FFE5
:1096F40000BF03B05DF804FB7C9B0300EC9B0300FC
:1097040000B583B00023019305E00198FFF7DEFF65
:10971400019B01330193019B012BF6D900BF03B0D8
:109724005DF804FB00B583B00023019305E00198C4
:10973400FFF7B2FF019B01330193019B012BF6D983
:1097440000BF03B05DF804FB00B583B00190019B3A
:10975400012B03D907495C2004F02AFA064A019B2D
:1097640013441B781846FFF7E7FE00BF03B05DF80B
:1097740004FB00BF7C9B0300EC9B030000B583B09B
:109784000023019309E0094A019B13441B781846FE
:10979400FFF799FE019B01330193019B012BF2D941
:1097A400FFF7AEFF00BF03B05DF804FBEC9B0300C2
:1097B40000B585B00190019B032B03D91149832087
:1097C40004F0F6F9104A019B13441B781846FFF77E
:1097D400E7FE0346002B14BF012300238DF80F304E
:1097E4009DF80F30002B14BF01230023DBB283F05C
:1097F4000103DBB203F00103DBB2184605B05DF8E8
:1098040004FB00BF7C9B0300F09B030084B0019029
:109814004FF0FF330293002303930DE00A4A039BA6
:1098240013441B781A46019B934202D1039B029373
:1098340005E0039B01330393039B032BEED9029BA7
:10984400184604B0704700BFF09B030000B583B016
:109854000190019B032B03D90549A22004F0A8F928
:10986400044A019B13441B78184603B05DF804FBBB
:109874007C9B0300F09B030082B003468DF8073005
:109884009DF8073003F01F0206499DF907305B0974
:10989400012000FA02F2203341F8232000BF02B075
:1098A400704700BF00E100E082B001904FF08042B9
:1098B400019BC2F8083300BF02B0704782B0034670
:1098C4008DF807309DF8073003F1804301221A60B8
:1098D40000BF02B0704784B00346ADF80630BDF84F
:1098E400063003F1804300221A60BDF8063003F10C
:1098F40080431B680393039B00BF04B0704782B08E
:109904000346ADF80630BDF8063003F180431B680A
:10991400002B14BF01230023DBB2184602B07047AA
:1099240082B003468DF807309DF807304FF080422F
:1099340003F00303C2F8183500BF02B070474FF0BC
:109944008043D3F818341B0C03F00103002B14BF1D
:1099540001230023DBB218467047000082B003469F
:109964008DF807300A4A9DF907305B0952F8232025
:109974009DF8073003F01F03012101FA03F313409C
:10998400002B14BF01230023DBB2184602B070473A
:1099940000E100E008B50020FFF7E0FF034683F094
:1099A4000103DBB2002B03D00721002000F096F95D
:1099B40000BF08BD08B50EF0CFF9034683F00103DC
:1099C400DBB2002B03D10949842004F0F1F80C2008
:1099D400FFF774FF00BFFFF7B2FF0346002BFAD175
:1099E400034B00229A7000BF08BD00BFFC9B03001C
:1099F400A434002000B583B000230193134B1B78DB
:109A0400002B02D0852301931BE0104B00229A60A7
:109A14000E4B00225A600D4B00221A610B4B0022A0
:109A2400DA60FFF7B7FF0EF097F9034683F00103FE
:109A3400DBB2002B02D00120FFF772FF034B01229F
:109A44001A70019B184603B05DF804FBA43400208F
:109A540084B00190019B1B680393039B002B03D0EC
:109A6400039B1A68019B1A60039B184604B0704755
:109A740000B583B0164B1B78002B04D115494FF465
:109A84008E7004F095F8124BDB68002B04D1114959
:109A940040F21D1004F08CF800238DF807300DF10E
:109AA40007031846FBF74AFD094BDB68013B084AEC
:109AB400D360074BDB68002B01D1FFF77BFF9DF8D8
:109AC40007301846FBF750FD00BF03B05DF804FBF8
:109AD400A4340020FC9B030000B585B003468DF838
:109AE40007309DF80730002B02D10C4B039301E0A3
:109AF4000B4B03930398FFF7ABFF0290029B002BE1
:109B040006D0029B5B689DF8072010469847F1E752
:109B140000BF00BF05B05DF804FB00BFAC340020FB
:109B2400B434002008B54FF48070FFF7E8FE034614
:109B3400002B0CD04FF48070FFF7CDFE0120FFF70F
:109B4400B3FE0E4B01225A700020FFF7C5FF4FF4FD
:109B54008270FFF7D4FE0346002B0CD04FF48270C2
:109B6400FFF7B9FE0220FFF79FFE044B01229A7013
:109B74000120FFF7B1FF00BF08BD00BFA4340020DF
:109B840000B583B001900091019B002B02D100200D
:109B9400FFF7A2FF00BF03B05DF804FB00B585B07A
:109BA400034600918DF807309DF80730012B08D04B
:109BB400032B25D0002B00D032E00020FFF75CFE01
:109BC4002EE000238DF80F300DF10F031846FBF73C
:109BD400B5FC154B1B7883F00103DBB2002B01D0DD
:109BE400FFF708FF104BDB6801330F4AD3600E4BBD
:109BF40001229A709DF80F301846FBF7B5FC0FE070
:109C0400094B1B78002B04D1084940F25B2003F078
:109C1400CFFF0721002000F061F8FFF729FF00BF04
:109C240000BF05B05DF804FBA4340020FC9B0300D6
:109C340082B003468DF807309DF8073003F01F0209
:109C440005499DF907305B09012000FA02F241F849
:109C5400232000BF02B0704700E100E082B0034659
:109C64008DF807309DF8073003F01F0206499DF96F
:109C740007305B09012000FA02F2603341F8232027
:109C840000BF02B0704700BF00E100E082B00346AD
:109C940000918DF807309DF90730002B0CDA009BFA
:109CA400DAB20C499DF8073003F00F03043B52016C
:109CB400D2B20B441A7609E0009BDAB206499DF948
:109CC40007305201D2B20B4483F8002300BF02B024
:109CD400704700BF00ED00E000E100E000B583B094
:109CE40003460A468DF8073013468DF806309DF872
:109CF4000630012B03D99DF80630032B0CD99DF8AF
:109D04000630042B03D99DF80630072B04D90D49DE
:109D14004FF4927003F04CFF9DF806209DF9073034
:109D240011461846FFF7B2FF9DF907301846FFF7B2
:109D340095FF9DF907301846FFF77AFF00BF03B07F
:109D44005DF804FB7C9C030000B583B00346ADF8CA
:109D54000630BDF80630184600F026F803461B68A6
:109D6400012B0CBF01230023DBB2184603B05DF8BE
:109D740004FB00B585B00346ADF80630BDF80630E7
:109D8400184600F011F803461A4600231360BDF884
:109D94000630184600F008F803461B680393039B3B
:109DA40000BF05B05DF804FB82B00346ADF8063091
:109DB400BDF8063003F1804303F5C043184602B0F2
:109DC4007047000082B00190034A019BC2F804333B
:109DD40000BF02B0704700BF0060004082B0019035
:109DE400034BD3F80423019B1340184602B0704779
:109DF4000060004082B00190084A019B03F5A27301
:109E040052F82330054943F00102019B03F5A27384
:109E140041F8232000BF02B0704700BF006000403B
:109E240084B00390029113468DF80730144A039BC3
:109E340003F5A27352F82330114923F4473323F472
:109E44004073039A02F5A27241F822300C4A039B34
:109E540003F5A27352F82320029B1B0203F4F8516A
:109E64009DF807301B0403F440330B4304491A43A1
:109E7400039B03F5A27341F8232000BF04B070478D
:109E84000060004082B00190054A019B03F5A27373
:109E940052F823301B0A03F01F03184602B0704720
:109EA4000060004082B00190064A019B03F5A27352
:109EB40052F823301B0C03F00303DBB2184602B044
:109EC400704700BF0060004000B583B00190019B63
:109ED4001B681F2B04D905494FF4E87003F068FE92
:109EE4004FF0A043184603B05DF804FB009D030047
:109EF40000B585B00190084611461A4603468DF810
:109F040003300B468DF8023013468DF8013001AB57
:109F14001846FFF7D9FF03909DF803209DF80230FF
:109F24005B001A439DF801309B001A439DF81830DA
:109F34001B0242EA03019DF81C301B04019A1943D9
:109F4400039B02F5E07243F8221000BF05B05DF8F0
:109F540004FB00B585B003900B468DF80B309DF8DB
:109F64000B200023019300230093134600220021B9
:109F74000398FFF7BDFF00BF05B05DF804FB00B513
:109F840085B0019001AB1846FFF79EFF0390019A3C
:109F9400039B02F5E07253F8223023F0020302938C
:109FA400019A039B02F5E072029943F8221000BF64
:109FB40005B05DF804FB00B585B001900B468DF843
:109FC400033001AB1846FFF77FFF0390019A039B10
:109FD40002F5E07253F82230019A23F44031039BD6
:109FE40002F5E07243F82210019A039B02F5E07235
:109FF40053F822309DF8032012041146019A1943A4
:10A00400039B02F5E07243F8221000BF05B05DF82F
:10A0140004FB00B585B0019001AB1846FFF754FF6F
:10A024000390039800F020F80246019B22FA03F300
:10A0340003F00103184605B05DF804FB00B585B0D4
:10A04400019001AB1846FFF73FFF0390019A039B71
:10A0540002F5E07253F822301B0C03F00303DBB269
:10A06400184605B05DF804FB82B00190019BD3F85B
:10A074001035184602B0704700B587B003900291BE
:10A0840001924FF0A0430493039A029B1344012BC3
:10A0940004D912494FF43A7003F08AFD039B0593E7
:10A0A40011E0059B9B0006AA134453F8083C18468C
:10A0B400FFF7DAFF0246019B1A60019B0433019308
:10A0C400059B01330593039A029B1344059A9A4214
:10A0D400E7D300BF07B05DF804FB00BF009D030099
:10A0E40084B001900091009B0393019BDB080293D1
:10A0F400019B03F0070301930122019B02FA03F37E
:10A104000399029A0A4412781340184604B070471F
:10A1140084B001900091009B0393019BDB080293A0
:10A12400019B03F007030193039A029B13441B78DA
:10A134005AB20121019B01FA03F35BB2134359B2F2
:10A14400039A029B1344CAB21A7000BF04B070474A
:10A1540082B001900C4A019B1344303393F90030D0
:10A16400002B09DB084A019B1344303393F9003078
:10A17400072B01DC012300E0002303F00103DBB221
:10A18400184602B0704700BFB834002082B0019076
:10A19400064A019B1344303393F90030072BCCBF9C
:10A1A40001230023DBB2184602B07047B834002004
:10A1B40082B00190064A019B1344303393F9003076
:10A1C400DB43DBB2DB09DBB2184602B0704700BFE9
:10A1D400B834002084B00390029101928DF80330CA
:10A1E400029B59B20E4A039B134430330A461A7039
:10A1F4000B49029B019A41F823209DF8033083F018
:10A204000103DBB2002B08D0029B083B039A51B236
:10A21400034A13440A4683F8502000BF04B0704731
:10A22400B834002082B00190044A019B13443033B7
:10A23400FF221A7000BF02B0704700BFB83400207C
:10A2440082B00190044A019B1344303393F90030E7
:10A25400184602B0704700BFB834002082B00190A5
:10A26400034A019B52F82330184602B0704700BFDE
:10A27400B834002000B589B00390029113468DF8DC
:10A284000730FF238DF81F309DF80730002B01D0D5
:10A29400002300E0082305939DF80730002B01D02C
:10A2A400082300E00C230493059B069314E00F4A53
:10A2B400069B52F82330B3F1FF3F0AD19DF80730D3
:10A2C400029A06990398FFF785FF069B8DF81F30C5
:10A2D40006E0069B01330693069A049B9A42E6D352
:10A2E4009DF91F30184609B05DF804FBB83400200E
:10A2F40082B003468DF807309DF80730094A4FF0C5
:10A30400FF3142F823109DF80730072B07D99DF839
:10A314000730083B034A1344FF2283F8502000BF50
:10A3240002B07047B834002000B583B0214B93F8D5
:10A334005430002B03D008230093009B36E0002305
:10A344008DF8073009E09DF807301846FFF76AFFDB
:10A354009DF8073001338DF807309DF807301F2B27
:10A36400F1D900238DF8073009E09DF8073018462D
:10A37400FFF7BEFF9DF8073001338DF807309DF8D5
:10A3840007300B2BF1D907210620FFF7A7FC4FF468
:10A39400BE70FFF7EEFC4FF00040FFF713FD054BD6
:10A3A400012283F8542000230093009B184603B035
:10A3B4005DF804FBB8340020044B93F85430002BB0
:10A3C40014BF01230023DBB218467047B8340020C1
:10A3D40000B587B0039002910192039B1F2B04D90F
:10A3E4002B4940F2F71003F0E3FB00230593039895
:10A3F400FFF7DEFE0346002B02D00823059341E05D
:10A40400029BDB781A4601990398FFF733FF034652
:10A414008DF813309DF91330B3F1FF3F30D0029B18
:10A424009B78002B03D00398FFF7A9FD05E0029B5E
:10A434005B7819460398FFF78CFD029BDB78002BB1
:10A4440008D09DF91300029B1B781A460399FFF765
:10A45400E7FC17E09DF91330083B0E4A134493F9C7
:10A464005010029B1B789B015AB29DF91330083B94
:10A474000A4351B2074A13440A4683F8502001E0C4
:10A4840004230593059B184607B05DF804FB00BF41
:10A49400409D0300B834002000B589B001900B46FC
:10A4A4008DF80330019B1F2B04D93D4940F2252030
:10A4B40003F07EFB0198FFF77BFE0346002B04D1DB
:10A4C400374940F2262003F073FB0198FFF75EFE44
:10A4D4000346002B2FD00198FFF7B2FE0346083B3A
:10A4E400304A134493F950308DF80F309DF80F30F3
:10A4F4009B098DF80E309DF80E30032B0BD101987B
:10A50400FFF787FD0346002B01D0032300E002235D
:10A514008DF81F3008E09DF80E30012B01D1022385
:10A5240000E003238DF81F309DF81F301946019871
:10A53400FFF741FD30E00198FFF70AFE0346002BC8
:10A544002AD00198FFF77CFE03460693069B9BB234
:10A5540040339BB29B00ADF81630069B1846FFF7BC
:10A5640049FCBDF816301846FFF703FC9DF803308C
:10A57400002B11D00198FFF763FE03461846FFF73E
:10A584006DFE0490049B002B06D00122069B02FA68
:10A5940003F31846FFF716FC00BF09B05DF804FB8F
:10A5A400409D0300B834002000B583B00190019BA6
:10A5B4001F2B04D9084940F2722003F0F9FA0198DC
:10A5C400FFF727FD0346002B14BF01230023DBB252
:10A5D400184603B05DF804FB409D030000B595B038
:10A5E40000231093002303934FF48073ADF84C3091
:10A5F4000123129300230F9321E0BDF84C30184639
:10A60400FFF7A2FB0346002B0ED01298FFF7E6FBE0
:10A614000346002B08D0BDF84C301846FFF7A9FBC1
:10A62400109A129B13431093129B5B001293BDF874
:10A634004C300433ADF84C300F9B01330F930F9B18
:10A64400072BDAD94FF4BE70FFF77EFB0346002BCD
:10A654000DD04FF4BE70FFF78CFB109B43F000430A
:10A66400109303AB1A4601210020FFF705FD109B50
:10A67400DBB2002B29D00123129300230F9321E096
:10A68400129A109B1340002B16D00F98FFF7FAFB79
:10A694000D900F98FFF706FC03468DF833300F98A2
:10A6A400FFF7DCFD0B900B9B002B05D09DF83320AE
:10A6B4000B9B11460D989847129B5B0012930F9BBE
:10A6C40001330F930F9B072BDAD9109B002B80F2D9
:10A6D400EE8000238DF84F30002302930023119362
:10A6E4000AE0119B9B0014AA13444FF0FF3243F875
:10A6F4004C2C119B01331193119B002BF1D000239F
:10A704008DF84F3000230F9378E06B4A0F9B13446E
:10A71400503393F900308DF82B309DF82B3023F013
:10A72400C0030993644A0F9B1344503393F90030D8
:10A73400B3F1FF3F5FD001AB19460998FFF7D0FC96
:10A744000346002B57D09DF82B309B098DF82330FE
:10A754000998FFF775FD03461846FFF77FFD07903C
:10A76400079B002B03D19DF82330032B43D19DF885
:10A774002330032B04D102AB19460998FFF7C8FC18
:10A784000998FFF75BFC03468DF81B3003AB1946B1
:10A794000998FFF7A5FC0590059B002B03D09DF8B5
:10A7A4001B30022B06D0059B002B24D19DF81B30B7
:10A7B400032B20D19DF82330032B13D19DF81B309C
:10A7C400022B01D1032300E002238DF813309DF8FE
:10A7D400133019460998FFF7EEFB9DF84F3001330B
:10A7E4008DF84F30079B002B05D09DF82320079B45
:10A7F4001146099898470F9B01330F930F9B032B26
:10A8040083D99DF84F30002B4CD001238DF83B3079
:10A814006B461A4601210020FFF72EFC00231193FA
:10A8240014E0119B9B0014AA134453F8502C119B61
:10A834009B0014A90B4453F8443C9A4203D00023D0
:10A844008DF83B3005E0119B01331193119B002BD4
:10A85400E7D09DF83B30002B03D000238DF84F3018
:10A8640020E0002311931AE0119B9B0014AA1344C7
:10A8740053F8502C119B9B0014A90B4443F8442C0F
:10A88400119B9B0014AA134453F8482C119B9B0062
:10A8940014A90B4443F84C2C119B01331193119BC5
:10A8A400002BE1D09DF84F30002B7FF428AF00BF80
:10A8B40015B05DF804FB00BFB834002084B00190EB
:10A8C4000B46ADF80230BDF80230019A1344002261
:10A8D4001A60BDF80230019A13441B680393039B6A
:10A8E40000BF04B0704782B001900B46ADF802304F
:10A8F400BDF80230019A13441B68002B14BF0123D6
:10A904000023DBB2184602B0704782B00190009178
:10A91400019B009AC3F8042300BF02B0704782B0C1
:10A9240001900091019BD3F80423009B1340002B5A
:10A9340014BF01230023DBB2184602B0704782B073
:10A9440001900091019B009AC3F8082300BF02B054
:10A95400704784B00190019BD3F880340393019B2A
:10A96400039AC3F88024039B184604B0704782B04E
:10A974000190019B0422C3F8002500BF02B0704778
:10A9840084B0039002910192039B019AC3F81425A9
:10A99400039B029AC3F80C2500BF04B0704784B02F
:10A9A400039002910192039B029AC3F80825039B2A
:10A9B400019AC3F8102500BF04B0704782B001901B
:10A9C400019BD3F81835DBB2184602B0704782B049
:10A9D40001900B468DF803309DF80320019BC3F8CA
:10A9E4001C2500BF02B0704782B001900B468DF861
:10A9F40003309DF80330019A134401221A6000BF0A
:10AA040002B0704782B001900B468DF803301346B4
:10AA14008DF802309DF803209DF802301343DBB219
:10AA24001A46019BC3F86C2500BF02B0704782B080
:10AA340001900091019B009AC3F8242500BF02B045
:10AA4400704784B001900B46ADF80230BDF8023077
:10AA5400019A134400221A60BDF80230019A13448B
:10AA64001B680393039B00BF04B0704782B001903E
:10AA74000B46ADF80230BDF80230019A13441B684E
:10AA8400002B14BF01230023DBB2184602B0704729
:10AA940082B001900091019BD3F80022009B1A43DD
:10AAA400019BC3F8002200BF02B0704782B001903E
:10AAB4000091019BD3F80022009BDB431A40019BC9
:10AAC400C3F8002200BF02B0704782B00190009129
:10AAD400019B009AC3F8042300BF02B0704782B000
:10AAE40001900091019B009AC3F8082300BF02B0B3
:10AAF400704784B00190019BD3F880340393019B89
:10AB0400039AC3F88024039B184604B0704782B0AC
:10AB14000190019B0822C3F8002500BF02B07047D2
:10AB240084B0039002910192039B029AC3F80C250E
:10AB3400039B019AC3F8142500BF04B0704784B086
:10AB4400039002910192039B029AC3F80825039B88
:10AB5400019AC3F8102500BF04B0704782B0019079
:10AB64000B468DF803309DF80330019A13440122FB
:10AB74001A6000BF02B0704782B001900B468DF896
:10AB8400033013468DF802309DF803209DF80230FF
:10AB94001343DBB21A46019BC3F86C2500BF02B015
:10ABA400704782B001900091019B009AC3F824255C
:10ABB40000BF02B0704784B00390029113468DF831
:10ABC4000730029A039BC3F844259DF80720039B92
:10ABD400C3F8482500BF04B0704782B00190019BC0
:10ABE400D3F84C35184602B0704784B003900291F4
:10ABF40013468DF80730029A039BC3F834259DF859
:10AC04000720039BC3F8382500BF04B0704782B007
:10AC14000190019BD3F83C35184602B0704784B0CC
:10AC24000190019B1B0B8DF80F309DF90F301846D6
:10AC340004B0704782B00190019B03F06043B3F10C
:10AC4400005F0CBF01230023DBB2184602B070473B
:10AC540000B583B00190019B1B681F2B04D90549E3
:10AC64004FF4E87002F0A4FF4FF0A043184603B07D
:10AC74005DF804FBC49D030000B585B0019008464F
:10AC840011461A4603468DF803300B468DF8023000
:10AC940013468DF8013001AB1846FFF7D9FF039036
:10ACA4009DF803209DF802305B001A439DF80130A3
:10ACB4009B001A439DF818301B0242EA03019DF8D9
:10ACC4001C301B04019A1943039B02F5E07243F8FC
:10ACD400221000BF05B05DF804FB00B585B00390F9
:10ACE40000230193002300930023012201210398F0
:10ACF400FFF7C2FF00BF05B05DF804FB00B585B0E7
:10AD040003900B468DF80B309DF80B200023019324
:10AD1400002300931346002200210398FFF7ACFFA1
:10AD240000BF05B05DF804FB00B585B0019001AB30
:10AD34001846FFF78DFF0390019B012202FA03F3EB
:10AD44001946039800F004F800BF05B05DF804FB51
:10AD540082B001900091019B009AC3F8082500BFBE
:10AD640002B0704700B583B001900091009B1B684E
:10AD7400B3F1FF3F09D0009B1B681846FFF7D4FFCF
:10AD8400009B1B681846FFF7A8FF009B5B68B3F1A4
:10AD9400FF3F05D0009B5B6800211846FFF7AEFF1C
:10ADA400019B1B79464A5B0113441C331B78002B1F
:10ADB40041D0019B1A68009B9B6919461046FFF716
:10ADC400F0FE019B1868009B597D009B1B7D1A4671
:10ADD400FFF7D2FE019B1868009B1968009B5B6813
:10ADE4001A46FFF79DFE009B1B7D012B64D1009B3F
:10ADF4009B68B3F1FF3F05D0009B9B680021184678
:10AE0400FFF77CFF009BDB68B3F1FF3F09D0009B99
:10AE1400DB681846FFF788FF009BDB681846FFF7DE
:10AE24005CFF019B1868009BD968009B9B681A46CD
:10AE3400FFF785FE40E0019B1A68009B9B69194659
:10AE44001046FFF7F4FD019B1868009B597D009B99
:10AE54001B7D1A46FFF7D6FD019B1868009B1968F5
:10AE6400009B5B681A46FFF78BFD009B1B7D012B43
:10AE740022D1009B9B68B3F1FF3F05D0009B9B68E8
:10AE840000211846FFF73AFF009BDB68B3F1FF3F50
:10AE940009D0009BDB681846FFF746FF009BDB6880
:10AEA4001846FFF71AFF019B1868009BD968009B9E
:10AEB4009B681A46FFF773FD00BF03B05DF804FBFF
:10AEC4001035002000B583B001900B468DF8033097
:10AED400019B1B792D4A5B0113441C331B78002B07
:10AEE4002FD0019B1B684FF488711846FFF7A9FD0A
:10AEF400019B1B684FF490711846FFF7A2FD019B5C
:10AF04001B684FF492711846FFF79BFD019B1B6869
:10AF14004FF4A2711846FFF794FD019B1B681C496E
:10AF24001846FFF7D2FD019B1B681846FFF777FE12
:10AF340003461A469DF8033019461046FEF7CEFE26
:10AF440020E0019B1B684FF48E711846FFF7B6FC96
:10AF5400019B1B684FF4A2711846FFF7AFFC019BDD
:10AF64001B680C491846FFF7D0FC019B1B68184668
:10AF7400FFF755FE03461A469DF80330194610465E
:10AF8400FEF7ACFE00BF03B05DF804FB10350020F3
:10AF9400100302008000020000B583B00190019B01
:10AFA4001B790B4A5B0113441C331B78002B05D01F
:10AFB400019B1B681846FFF7AAFD04E0019B1B6870
:10AFC4001846FFF7D4FC00BF03B05DF804FB00BFD4
:10AFD4001035002000B587B0039002910192029BC6
:10AFE400002B04D122494FF4887002F0E1FD039B49
:10AFF4001B795B011F4A1344059300230493059BAB
:10B00400DB7E002B03D008230493049B2BE0029BDC
:10B014005A7F059B1A7702990398FFF7A3FE059BB5
:10B02400019A5A60029B1A69059B1A60059B5B682A
:10B03400002B05D0029B1B7F19460398FFF742FFA4
:10B044000398FFF7A9FF059B0022DA75059B0022F0
:10B054001A76059B00229A75059B0122DA76059BD8
:10B0640000229A76049B184607B05DF804FB00BFE3
:10B07400049E03001035002000B585B001900091B6
:10B084004FF48E710198FFF719FC009B9B68009A9E
:10B09400928A92B213441B788DF80F30009B9B8ADE
:10B0A4009BB201339AB2009B9A829DF80F301946E5
:10B0B4000198FFF78CFC00BF05B05DF804FB0000AD
:10B0C40000B585B00190019B1B795B01344A1344A0
:10B0D400029300230393019B1B684FF48E7118465F
:10B0E400FFF7ECFB019B1B6808211846FFF77CFC6B
:10B0F400019B1B6802991846FFF7BEFF029B5B6821
:10B10400002B48D11FE000BF019B1B684FF48E71D8
:10B114001846FFF7E8FB034683F00103DBB2002B7C
:10B1240005D0029B9B8A9BB2B3F5807FECD1029B36
:10B134009B8A9BB2B3F5807F05D0019B1B68029963
:10B144001846FFF799FF029B9B8A9AB2029B9B7D4C
:10B154009BB29A42D7D3029B9B8A9BB2B3F5807F62
:10B1640002D10F23039313E000BF019B1B684FF42C
:10B174008E711846FFF7B7FB034683F00103DBB279
:10B18400002BF2D1019B1B680C211846FFF72CFC05
:10B19400029B00229A75039B184605B05DF804FBD8
:10B1A4001035002000B587B00190019B1B795B012D
:10B1B4002A4A1344049300230593019B1B684FF40C
:10B1C40090711846FFF73DFC019B1B684FF4AC716E
:10B1D4001846FFF736FC019B1868049B9968049B8A
:10B1E4009B7D1A46FFF7E7FC019B1B680821184664
:10B1F400FFF7B4FC049B5B68002B2AD1019B1B68FE
:10B204004FF490711846FFF731FC03468DF80F3068
:10B21400019B1B684FF4AC711846FFF727FC0346EB
:10B224008DF80E309DF80F3083F00103DBB2002B54
:10B2340006D09DF80E3083F00103DBB2002BDDD184
:10B244009DF80E30002B01D00F230593049B0022A0
:10B254009A75059B184607B05DF804FB103500206D
:10B2640000B587B00390029113468DF80730039B15
:10B274001B795B012E4A13440493049BDB7E012B50
:10B2840004D02C494FF4CC7002F092FC9DF80730A6
:10B29400002B04D1274940F2991002F089FC029B4B
:10B2A400002B04D123494FF4CD7002F081FC039BA1
:10B2B4001B791F4A5B0113441C331B78002B0CD0F1
:10B2C4000298FFF7B7FC034683F00103DBB2002BBF
:10B2D40003D010230593059B25E0039800F02CF878
:10B2E4000346002B03D011230593059B1BE0049B0D
:10B2F4009DF807209A75049B029A9A60049B002289
:10B304009A82039B1B790A4A5B0113441C331B7802
:10B31400002B04D00398FFF745FF034603E003988E
:10B32400FFF7CEFE0346184607B05DF804FB00BFE6
:10B3340010350020049E030082B00190019B1B790C
:10B34400064A5B01134416331B78002B14BF0123F8
:10B354000023DBB2184602B0704700BF103500204E
:10B3640000B583B00190019B1B684FF4927118469D
:10B37400FFF7A4FA019B1B684FF484711846FFF78A
:10B384009DFA019B1B6800211846FFF72DFB00BFA7
:10B3940003B05DF804FB10B582B001900091009BEE
:10B3A400DB7D002B08D14FF484710198FFF786FAF6
:10B3B4000198FFF703FB16E04FF484710198FFF73F
:10B3C4007DFA009BDB68009A527ED2B29C180198E9
:10B3D400FFF7F4FA03462370009B5B7EDBB2013374
:10B3E400DAB2009B5A7602B010BD000000B589B0F5
:10B3F4000390029111461A460B468DF80730134606
:10B404008DF80630039B1B795B014D4A1344079367
:10B41400079B9B7E83F00103DBB2002B09D09DF8D0
:10B42400063083F00103DBB2002B02D00398FFF750
:10B4340097FF079B5B68002B73D1039B1B684FF43A
:10B44400A2711846FFF73AFA039B1B684FF49271F6
:10B454001846FFF748FA03468DF81B30039B1B6818
:10B464004FF484711846FFF73EFA03468DF81A30FC
:10B47400039B1B684FF4A2711846FFF734FA034686
:10B484008DF819309DF81A3083F00103DBB2002BDC
:10B494000DD09DF8193083F00103DBB2002B06D0E8
:10B4A4009DF81B3083F00103DBB2002BCCD19DF857
:10B4B4001B30002B10D19DF81930002B0CD1039BAD
:10B4C4001B6807991846FFF766FF079BDA7D079B01
:10B4D4005B7EDBB29A42B7D8079B0022DA759DF8EF
:10B4E4001B30002B03D003230593059B23E09DF819
:10B4F4001930002B03D00F230593059B1BE0079BFA
:10B504009B7E002B06D0039B1B6800211846FFF787
:10B514006BFA0DE0039B1B6804211846FFF764FADD
:10B5240006E0039B1B684FF401711846FFF7EDF921
:10B5340000230593059B184609B05DF804FB00BF82
:10B544001035002000B587B00390029111461A46C9
:10B554000B468DF8073013468DF80630002305930B
:10B56400039B1B684FF488711846FFF76AFA039B24
:10B574001B684FF4A2711846FFF763FA039B1B681C
:10B584009DF8072002991846FFF72FFB9DF8063017
:10B5940083F00103DBB2002B06D0039B1B68002160
:10B5A4001846FFF7DBFA05E0039B1B6820211846C9
:10B5B400FFF76EFA039B1B792D4A5B011344043396
:10B5C4001B68002B47D1039B1B684FF488711846F6
:10B5D400FFF74CFA03468DF81330039B1B684FF4B6
:10B5E400A2711846FFF742FA03468DF81230039B06
:10B5F4001B684FF492711846FFF738FA03468DF82A
:10B6040011309DF8133083F00103DBB2002B0DD011
:10B614009DF8123083F00103DBB2002B06D09DF8B5
:10B62400113083F00103DBB2002BCCD1039B1B79D7
:10B634000F4A5B011344173300221A709DF811302E
:10B64400002B01D0032305939DF81230002B09D061
:10B654000F23059306E0039B1B684FF404711846FF
:10B66400FFF733FA059B184607B05DF804FB00BFEB
:10B674001035002000B589B00390029113468DF86F
:10B684000730039B1B795B015A4A13440593039BC0
:10B694001B79584A5B0113441B331B78012B04D0DC
:10B6A40055494FF4167002F083FA9DF80730002BC9
:10B6B40004D1514940F2592002F07AFA039B1B79D4
:10B6C4004C4A5B0113441C331B78002B0CD00298AA
:10B6D400FFF7B0FA034683F00103DBB2002B03D07B
:10B6E40010230793079B81E000238DF81B30059BF3
:10B6F4005B68002B17D0039B1B793E4A5B01134404
:10B704001C331B78002B07D0039B1B684FF4047178
:10B714001846FFF7E4F906E0039B1B684FF4017138
:10B724001846FFF70CF9059BDB7D002B26D0059B03
:10B734001B7E002B1FD0059B5B68002B17D0039B3F
:10B744001B792C4A5B0113441C331B78002B07D054
:10B75400039B1B684FF404711846FFF7B6F906E023
:10B76400039B1B684FF401711846FFF7CEF81123B1
:10B774000793079B3AE001238DF81B309DF81B309B
:10B7840083F00103DBB2002B0DD0059B9DF807204D
:10B79400DA75059B029ADA60059B00225A76059BAE
:10B7A40000221A7606E0059B029A1A61059B9DF811
:10B7B40007201A76039B1B790E4A5B0113441C3342
:10B7C4001B78002B09D09DF81B309DF807200299A7
:10B7D4000398FFF7B7FE034608E09DF81B309DF879
:10B7E400072002990398FFF701FE0346184609B0A3
:10B7F4005DF804FB10350020049E030000B583B0FF
:10B804000190019B1B79144A5B0113441C331B7880
:10B81400002B05D011494FF42E7002F0C9F916E03F
:10B82400019B1B790C4A5B0113441A331B7883F088
:10B834000103DBB2002B0AD00198FFF791FD019BB5
:10B844001B79054A5B0113441A3301221A7000BFA5
:10B8540003B05DF804FB00BF10350020049E030014
:10B8640000B589B003900B4601928DF80B3001238B
:10B874008DF810309DF80B308DF81830019B05932E
:10B88400039B5B68039A116804AA1046984700BF9B
:10B8940009B05DF804FB00B587B001900B468DF844
:10B8A400033000238DF808309DF803308DF81030F4
:10B8B400019B9B680393019B00229A75019B5B6823
:10B8C400019A116802AA1046984700BF07B05DF8B4
:10B8D40004FB00B589B0019000914FF40071019808
:10B8E400FFF71DF80346002B39D04FF492710198ED
:10B8F400FEF7F9FF0346002B31D04FF49271019803
:10B90400FEF7DCFF4FF401710198FFF718F8009B74
:10B914009B7E83F00103DBB2002B03D0042101984A
:10B92400FFF762F802238DF808300198FFF711F849
:10B9340003460593009BDB7D8DF81030009BDB688C
:10B944000393009B0022DA75009B00221A76009B69
:10B954005B68009A116802AA1046984756E00421D1
:10B964000198FEF7DCFF0346002B4FD04FF484719F
:10B974000198FEF7B8FF0346002B47D000990198C1
:10B98400FFF709FD009BDA7D009B5B7EDBB29A42E8
:10B994003CD1009B1B7E002B1CD0009BDB680793D3
:10B9A400009B5B7E8DF81B30009B1A7E009BDA7532
:10B9B400009B1A69009BDA60009B00221A76009BA8
:10B9C40000225A769DF81B30079A19460098FFF713
:10B9D40047FF1BE0009B9B7E83F00103DBB2002B3F
:10B9E40003D004210198FEF7FFFF4FF40171019881
:10B9F400FEF7A5FF009B0022DA75009B5B7ED9B29F
:10BA0400009BDB681A460098FFF72AFF4FF48E71FB
:10BA14000198FEF768FF0346002B1BD0009B9B8A0E
:10BA24009AB2009B9B7D9BB29A4204D200990198E2
:10BA3400FFF722FB0EE04FF48E710198FEF73EFFF4
:10BA4400009B9B7D002B05D0009B9B7D1946009895
:10BA5400FFF721FF4FF4A2710198FEF744FF03465C
:10BA6400002B1CD04FF4A2710198FEF727FF009B16
:10BA74009B7E002B03D000210198FEF7B5FF009BAD
:10BA8400DB7D002B0BD0009B0022DA75009B5B7ED4
:10BA9400D9B2009BDB681A460098FFF7E1FE00BFAD
:10BAA40009B05DF804FB00B589B0019000914FF432
:10BAB40092710198FEF7DAFF0346002B24D04FF46D
:10BAC40092710198FEF7BDFF02238DF808300198AA
:10BAD400FFF70FF8034605930198FFF798F803461C
:10BAE400DBB28DF81030009BDB680393009B0022CF
:10BAF400DA75009B00221A76009B5B68009A116835
:10BB040002AA1046984741E04FF488710198FEF765
:10BB1400ADFF0346002B39D04FF488710198FEF72E
:10BB240090FF0198FFF773F803468DF81F30009BD0
:10BB3400DB7D9DF81F209A4228D1009B1B7E002BA1
:10BB440019D0009BDB68069320210198FEF7AEFF15
:10BB5400009B1A7E009BDA75009B1A69009BDA60D1
:10BB6400009B00221A769DF81F30069A1946009809
:10BB7400FFF776FE0AE0009B0022DA75009BDA6884
:10BB84009DF81F3019460098FFF76AFE4FF4A27122
:10BB94000198FEF76BFF0346002B16D04FF4A271F9
:10BBA4000198FEF74EFF009BDB7D002B0DD0009B20
:10BBB4000022DA750198FFF72AF80346D9B2009BF0
:10BBC400DB681A460098FFF74BFE4FF4907101981A
:10BBD400FEF74CFF0346002B11D04FF490710198EF
:10BBE400FEF72FFF009B9B7D002B08D00198FEF7EA
:10BBF400F4FF0346DBB219460098FFF74CFE00BF82
:10BC040009B05DF804FB000008B5074B1B7F002B4F
:10BC140004D005490548FFF746FF03E002490348FD
:10BC2400FFF757FE00BF08BD10350020002000407C
:10BC340082B001900B468DF803309DF80330019AD1
:10BC4400134401221A6000BF02B0704784B001900F
:10BC54000B46ADF80230BDF80230019A13440022BD
:10BC64001A60BDF80230019A13441B680393039BC6
:10BC740000BF04B0704782B001900B46ADF80230AB
:10BC8400BDF80230019A13441B68002B14BF012332
:10BC94000023DBB2184602B0704782B001900091D5
:10BCA400019B009AC3F8042300BF02B0704782B01E
:10BCB40001900091019B009AC3F8082300BF02B0D1
:10BCC400704782B00190019B0722C3F8002500BF92
:10BCD40002B0704784B00390029101920093039BD9
:10BCE400029AC3F80825039B019AC3F80C25039B09
:10BCF400009AC3F8102500BF04B0704782B00190C9
:10BD04000091009A019BC3F8242500BF02B070473C
:10BD140084B00390029113468DF80730029A039B76
:10BD2400C3F844259DF80720039BC3F8482500BFAA
:10BD340004B0704784B00390029113468DF8073025
:10BD4400029A039BC3F834259DF80720039BC3F88C
:10BD5400382500BF04B0704784B001900B468DF8BD
:10BD6400033013468DF802309DF80230002B14BFC7
:10BD740001230023DBB203939DF80330022B09D087
:10BD8400032B0CD0012B00D00EE0039B43F00203E5
:10BD9400039309E0039B43F00403039304E0039B30
:10BDA40043F00603039300BF019B039AC3F8542591
:10BDB40000BF04B0704782B001900B468DF8033089
:10BDC4009DF80320019BC3F8C02500BF02B0704753
:10BDD40082B00190019B0122C3F8502500BF02B03C
:10BDE400704782B00190019B0022C3F8502500BF28
:10BDF40002B0704782B00190019B0122C3F8402534
:10BE040000BF02B0704782B00190019B0022C3F8CA
:10BE1400402500BF02B0704782B00190019B03F03F
:10BE24006043B3F1005F0CBF01230023DBB218466B
:10BE340002B0704700B583B00190019B1B681F2BB3
:10BE440004D905494FF4E87001F0B2FE4FF0A04365
:10BE5400184603B05DF804FB849E030000B585B06A
:10BE64000190084611461A4603468DF803300B46E6
:10BE74008DF8023013468DF8013001AB1846FFF7F8
:10BE8400D9FF03909DF803209DF802305B001A430C
:10BE94009DF801309B001A439DF818301B0242EABA
:10BEA40003019DF81C301B04019A1943039B02F5FE
:10BEB400E07243F8221000BF05B05DF804FB00B542
:10BEC40085B00390002301930023009300230122F3
:10BED40001210398FFF7C2FF00BF05B05DF804FB22
:10BEE40000B585B003900B468DF80B309DF80B2000
:10BEF400002301930023009313460022002103989A
:10BF0400FFF7ACFF00BF05B05DF804FB00B585B0DA
:10BF1400019001AB1846FFF78DFF0390019B0122AE
:10BF240002FA03F31946039800F018F800BF05B0AD
:10BF34005DF804FB00B585B0019001AB1846FFF72E
:10BF440079FF0390019B012202FA03F31946039837
:10BF540000F00EF800BF05B05DF804FB82B001905C
:10BF64000091019B009AC3F8082500BF02B07047F6
:10BF740082B001900091019B009AC3F80C2500BF88
:10BF840002B0704700B58DB00590049103920293FE
:10BF9400049B002B03D15B49A82001F009FE059BFB
:10BFA4005B791A461346DB0013449B00564A13443C
:10BFB4000B930B9B1B7F002B03D008230793079B3A
:10BFC4009CE00B9B039A1A600B9B029A5A60049B99
:10BFD4001B7B012B05D8049B1B781846FFF7AAFF8F
:10BFE40004E0049B1B781846FFF790FF049B1B7822
:10BFF400184600230193002300930023002201210B
:10C00400FFF72CFF049B5B78FF2B09D0049B5B7824
:10C014000A930A98FFF78EFF0A98FFF750FF02E091
:10C024004FF0FF330A93049B9B78FF2B07D0049BAC
:10C034009B78099301210998FFF752FF02E04FF022
:10C04400FF330993049BDB78FF2B09D0049BDB7837
:10C054001846FFF75BFF049BDB781846FFF72FFFBA
:10C06400059B5B791946049BD878274A0B46DB006D
:10C074000B449B0013441E3302461A70059B1B6835
:10C084000893049B1B781946099B0A9A0898FFF7A2
:10C0940021FE049B9B6819460898FFF72FFE049B1A
:10C0A400197B049B5B7B1A460898FFF755FE049B9B
:10C0B4005B7919460898FFF77EFE0B9B1B68002BE3
:10C0C40003D040210898FFF7E8FD0898FFF7F9FD31
:10C0D4000B9B1B68002B08D0059B93F90420049B41
:10C0E4001B7919461046FDF7F9FD0B9B00225A7780
:10C0F4000B9B01221A7700230793079B18460DB068
:10C104005DF804FBC09E03003035002000B589B003
:10C1140003900291009313468DF80730029B049319
:10C12400009B06939DF807308DF814309DF8283055
:10C134008DF81C3004AB00221946039800F0D8F89F
:10C144000346184609B05DF804FB00B583B00190BE
:10C15400019B9B7FFF2B04D0019B9B7F1846FFF71D
:10C16400D5FE019B00225A77019B00221A72019B83
:10C174001B68019A02F10800019A52681146984717
:10C1840000BF03B05DF804FB00B583B001900B461B
:10C194008DF803309DF8033083F00103DBB2002BEC
:10C1A40004D040210198FFF782FD03E0402101986B
:10C1B400FFF773FD00BF03B05DF804FB00B583B067
:10C1C40001900091009B03F00103002B03D0019820
:10C1D400FFF7FEFD02E00198FFF703FE009B03F06A
:10C1E4000203002B03D00198FFF704FE02E001983C
:10C1F400FFF709FE00BF03B05DF804FB00B587B08C
:10C204000390029101920093019B1B68002B0AD0BA
:10C21400019B1B681846FFF7FFFD034683F00103EB
:10C22400DBB2002B0ED1019B9B68002B11D0019B2C
:10C234009B681846FFF7F0FD034683F00103DBB269
:10C24400002B06D0029B00225A7710230593059BEE
:10C254004AE0019B1968019B1B791A460398FFF772
:10C2640057FD019B9968019B1B7B1A460398FFF7B6
:10C2740061FD4FF48C710398FFF7E8FC0099039873
:10C28400FFF79CFF009B03F00803002B03D1102150
:10C294000398FFF7CDFC029B1B68002B15D100BF50
:10C2A4004FF48C710398FFF7E6FC034683F0010317
:10C2B400DBB2002BF4D1029B9B7FFF2B11D0029B9E
:10C2C4009B7F1846FFF722FE0BE0009B03F004035C
:10C2D400002B0CBF01230023DBB219460398FFF7A0
:10C2E40053FF00230593059B184607B05DF804FB34
:10C2F40010B586B0039002910192039B5B791A46B4
:10C304001346DB0013449B00364A13440593059BF4
:10C314001B7F002B04D1344940F2572001F048FC24
:10C32400029B1B68002B08D1029B1B79002B04D0B5
:10C334002D494FF4167001F03BFC029B9B68002BC7
:10C3440008D1029B1B7B002B04D0274940F25920C3
:10C3540001F02EFC00230493059B5B7FDBB2002BD2
:10C3640003D011230493049B39E0059B1B68002B25
:10C3740007D0019B03F01403002B02D1059B01227B
:10C384005A77059B029A03F10C0413460FCB84E8F9
:10C394000F00059A92F821306FF3000382F82130E0
:10C3A400059A92F821306FF3410382F82130059AFF
:10C3B40092F821306FF3820382F82130059B9B7F32
:10C3C400FF2B04D0059B9B7F1846FFF7B3FD039B0F
:10C3D4001868019B029A0599FFF710FF0346184657
:10C3E40006B010BD30350020C09E030000B583B0F8
:10C3F400019000914FF48C710198FFF73CFC0346C7
:10C40400002B10D04FF48C710198FFF71FFC009B98
:10C414001B68002B04D1064940F2BE2001F0C8FB82
:10C424000098FFF792FE00BF03B05DF804FB00BF65
:10C43400C09E030000B583B0044B019301990448E6
:10C44400FFF7D4FF00BF03B05DF804FB30350020D4
:10C454000030024082B001900091019B009AC3F821
:10C46400082300BF02B0704782B001900091019B85
:10C47400D3F80423009B1340184602B0704782B0DF
:10C4840001900B46ADF80230BDF80230019A134416
:10C494001B68184602B0704784B001900B46ADF893
:10C4A4000230BDF80230019A134400221A60BDF82C
:10C4B4000230019A13441B680393039B00BF04B02A
:10C4C400704782B001900091019B009AC3F8482301
:10C4D40000BF02B07047000000B589B0039002911C
:10C4E40001924FF4803306934FF4A073ADF81E30DD
:10C4F4000023059330E006990398FFF7B5FF034640
:10C50400002B1ED0BDF81E3019460398FFF7B7FF65
:10C514000346002B15D006990398FFF7D2FF06991E
:10C524000398FFF797FFBDF81E3019460398FFF7ED
:10C53400B3FF2D4A029B52F82330059AD2B210461B
:10C544009847069B5B000693BDF81E300433ADF894
:10C554001E30059B01330593059A019B9A42CAD369
:10C564004FF48073ADF81E3001210398FFF77CFF70
:10C574000346002B14D0BDF81E3019460398FFF76C
:10C584007EFF0346002B0BD0BDF81E3019460398DE
:10C59400FFF782FF144A029B52F823300420984785
:10C5A4004FF48273ADF81E3002210398FFF75CFF4D
:10C5B4000346002B14D0BDF81E3019460398FFF72C
:10C5C4005EFF0346002B0BD0BDF81E3019460398BE
:10C5D400FFF762FF044A029B52F823300520984774
:10C5E40000BF09B05DF804FB5435002008B50422EF
:10C5F40000210248FFF770FF00BF08BD0040024061
:10C6040082B003468DF807309DF8073003F180436C
:10C6140003F5E04301221A6000BF02B0704782B004
:10C624000346ADF80630BDF8063003F1804303F548
:10C63400E0431B68002B14BF01230023DBB2184620
:10C6440002B0704784B00346ADF80630BDF806303A
:10C6540003F1804303F5E04300221A60BDF806307D
:10C6640003F1804303F5E0431B680393039B00BF7E
:10C6740004B0704782B003468DF807300B468DF83E
:10C68400063013468DF805300A499DF807309DF8A9
:10C69400052051331B010B4404331A6005499DF8EE
:10C6A40007309DF8062051331B010B441A6000BF6C
:10C6B40002B070470070004082B00190034A019BB1
:10C6C400C2F8043300BF02B0704700BF00700040DE
:10C6D40082B00190034A019BC2F8083300BF02B044
:10C6E400704700BF00700040024B0122C3F80025D0
:10C6F40000BF704700700040024B0022C3F80025C1
:10C7040000BF70470070004082B001900091054A5C
:10C71400019BC2F82C36034A009BC2F8303600BF96
:10C7240002B070470070004082B003468DF80730B5
:10C73400034A9DF80730C2F8F03500BF02B07047D5
:10C744000070004082B003468DF80730034A9DF81C
:10C754000730C2F8F43500BF02B0704700700040E3
:10C76400024BD3F8F435DBB2184670470070004032
:10C7740000B58DB04FF48270FFF751FF0346002BD4
:10C7840046D04FF48270FFF75DFF8C4B93F82E3048
:10C7940083F00103DBB2002B04D1884B93F82F30D4
:10C7A400002B35D000238DF81830844B5B68079339
:10C7B400824B1B899BB2ADF82030804BDB68002B89
:10C7C40003D17E4B00221A7419E07C4B1A8B7B4BED
:10C7D4005A837A4BDB68794A5360784B1A8B774BD0
:10C7E4001A81764B0022DA60744B93F82E3083F072
:10C7F4000103DBB2002B02D00020FFF701FF6F4BD7
:10C804001B6806AA104698476C4B002283F82F2019
:10C814006A4B93F82E30002B62D04FF48070FFF7F0
:10C82400FEFE0346002B5BD04FF48070FFF70AFF37
:10C83400624B5A8B614B93F82D309BB29A421CD9B0
:10C844005E4B5A8B5D4B93F82D309BB2D31A9AB240
:10C854005A4B5A83594B5A68584B1B899BB21946F9
:10C86400564B5B8BCB1A5B001A44544B93F82D3018
:10C8740019461046FFF748FF2BE0504B5A8B4F4B9D
:10C8840093F82D309BB29A4214D14C4BDB68002BA9
:10C8940010D04A4B012283F82F20484B00225A83A0
:10C8A400464BDA68454B93F82D3019461046FFF78E
:10C8B4002BFF0EE0414B5A8B404B93F82D309BB22B
:10C8C4009A4206D13D4B012283F82F203B4B002294
:10C8D4005A834FF48270FFF7B5FE0420FFF790FEF1
:10C8E4004FF48870FFF79BFE0346002B0ED04FF4E5
:10C8F4008870FFF7A7FE314B00221A7402238DF8CB
:10C904000C302E4B1B6803AA104698474FF48A70CC
:10C91400FFF785FE0346002B07D04FF48A70FFF71C
:10C9240091FE264B00221A7444E0244B5B690B935E
:10C934003DE00B9BB3FA83F30A934FF000420A9B4A
:10C9440022FA03F3DB430B9A13400B930A9B9BB22B
:10C9540046339BB29B00ADF82630BDF8263018460E
:10C96400FFF75DFE0346002B21D0BDF826301846A4
:10C97400FFF768FE01238DF80030BDF82630A3F5DB
:10C984008C73DB08DBB28DF80430BDF82630A3F5D8
:10C994008C7303F00403002B0CBF01230023DBB2D0
:10C9A4008DF80530054B1B686A46104698470B9B6B
:10C9B400002BBED100BF0DB05DF804FB583500203C
:10C9C40000B585B0019000912F4B93F82C30002BCB
:10C9D40003D008230393039B51E0009B002B03D156
:10C9E40007230393039B4AE0019B002B01D1274BB0
:10C9F4000193254A009B1360019B1B781846FFF79F
:10CA040093FE019B5B781846FFF79CFE019BDA7846
:10CA14001D4B83F82E201C4B012283F82C201A4B2B
:10CA240000221A74184B002283F82D20164B002282
:10CA34005A61154B002283F82F206FF00040FFF756
:10CA440047FE4FF48270FFF7FDFD4FF48070FFF74F
:10CA5400F9FD019B9B7819460720FDF73FF9022059
:10CA6400FFF72AFE084B93F82E30002B02D001204A
:10CA7400FFF722FEFFF738FE00230393039B1846BB
:10CA840005B05DF804FB00BF58350020C0A00300CA
:10CA940000B585B0034600918DF80730474B93F8F5
:10CAA4002C30002B04D146494FF49C7001F080F8DF
:10CAB4009DF80730072B04D9414940F2391001F0A1
:10CAC40077F8FFF74DFE0346002B09D03B4B93F854
:10CAD4002D30002B04D03A494FF49E7001F068F8D1
:10CAE400009BDB79092B03D8009BDB79002B04D155
:10CAF40033494FF49F7001F05BF8009B1B7A092BBC
:10CB040004D92F4940F23F1001F052F82B4B1B7C03
:10CB1400DBB2002B03D011230393039B4AE0009B59
:10CB24001B79002B03D0009B1B79012B01D1FFF74C
:10CB3400E3FD9DF80730214A0C335B0013441B7955
:10CB4400002B07D11D4B93F82D300133DAB21B4B68
:10CB540083F82D209DF80730009AD179174A0C33B9
:10CB64005B0013440A461A719DF80730009A117A43
:10CB7400124A0C335B0013440A465A719DF807307D
:10CB840000991846FCF714FC009BD979009B1A7A8B
:10CB94009DF807301846FFF76DFD009B1B79002BAD
:10CBA40003D0009B1B79012B01D1FFF79DFD0023CE
:10CBB4000393039B184605B05DF804FB5835002029
:10CBC40040A0030000B583B00190019B1B681F2B9C
:10CBD40004D905494FF4E87000F0EAFF4FF0A04390
:10CBE400184603B05DF804FBC4A0030000B585B08B
:10CBF40001900B468DF8033001AB1846FFF7E2FFB6
:10CC04000390019A039B02F5E07253F82230019AD3
:10CC140023F44031039B02F5E07243F82210019A99
:10CC2400039B02F5E07253F822309DF803201204AE
:10CC34001146019A1943039B02F5E07243F822104E
:10CC440000BF05B05DF804FB00B583B00190019806
:10CC5400FCF7AEFD0346184603B05DF804FB000084
:10CC640000B587B003460A468DF8073013468DF8A1
:10CC7400063000238DF81730002304939DF8073005
:10CC84001846FCF7C3FD0490049B032B61D89DF860
:10CC94000630012B04D0022B4FD0002B30D058E0AB
:10CCA4003549049A13465B0013440B441B788DF8F2
:10CCB40017303149049A13465B0013440B44013383
:10CCC4001B78002B0ED02D4B2D4A4FF400411846F3
:10CCD400F8F76EFB0390039B002B03D1284A9DF8C1
:10CCE400073013702449049A13465B0013440B4421
:10CCF40002331978234A049B13440A461A7028E025
:10CD04001E4B1846F8F786FB1E4A049B13441978F9
:10CD14001948049A13465B001344034402331B78F6
:10CD2400994215D11449049A13465B0013440B44E9
:10CD340002331B788DF817300AE00F49049A134622
:10CD44005B0013440B4401331B788DF8173000E06B
:10CD540000BF9DF81730002B09D00B4B1B68002B2C
:10CD640005D0094B1B689DF817201046984700BF53
:10CD740007B05DF804FB00BFD8350020E43500207F
:10CD84000436002008360020D435002000B583B0D6
:10CD94000190019B1B7802211846FFF761FF00BF39
:10CDA40003B05DF804FB000000B583B00C4B1B78A6
:10CDB400002B0FD00023019308E0019B022B02D02B
:10CDC4000198FCF783FC019B01330193019B012B28
:10CDD400F3D901E0FCF794FC00BF03B05DF804FB59
:10CDE400903500202DE9F04884B003468DF80730D3
:10CDF4000023039300230293D24B1B78002B04D00F
:10CE0400D04B00221A70FFF7CFFF9DF80730172B85
:10CE140000F2308201A252F823F000BF81CE02005A
:10CE24008FCE02008FCE020017CF02009FCF0200E8
:10CE34000DD0020093D00200B3D00200C3D0020090
:10CE4400E1D00200FFD002001DD102003BD102005C
:10CE540055D1020055D1020055D1020055D102002E
:10CE640055D102001BD2020029D202003DD2020099
:10CE740051D202006BD202006BD20200FFF794FF82
:10CE8400B14A9DF807301370F5E10020FCF7D6FB9A
:10CE94000346002B0DD00020FCF718FC9DF807304A
:10CEA400022B02D14FF4E16301E04FF47A63029361
:10CEB4000BE00020FCF7F0FB9DF80730022B01D1BA
:10CEC400C82301E04FF4C87302939F4A9DF80730CA
:10CED40013709E4D029B19464FF000024FF0000361
:10CEE4004FF00004D40344EA5144CB0313F5FA7021
:10CEF40044F100014FF47A724FF000030BF056F93D
:10CF040003460C46002219462846F8F751FA0390C6
:10CF1400B1E10020FCF792FB0346002B0DD000206A
:10CF2400FCF7D4FB9DF80730032B02D14FF4487370
:10CF340001E04FF47A6302930BE00020FCF7ACFBB2
:10CF44009DF80730032B01D1C82301E04FF4C873C7
:10CF540002937D4A9DF8073013707C4D029B19465D
:10CF64004FF000024FF000034FF00004D40344EAF2
:10CF74005144CB0313F5FA7044F100014FF47A7273
:10CF84004FF000030BF012F903460C460022194639
:10CF94002846F8F70DFA03906DE10020FCF74EFBEC
:10CFA4000346002B06D00020FCF790FB4FF47A6375
:10CFB400029305E00020FCF76FFB4FF4C873029363
:10CFC400614A9DF807301370604D029B19464FF07B
:10CFD40000024FF000034FF00004D40344EA51442C
:10CFE400CB0313F5FA7044F100014FF47A724FF059
:10CFF40000030BF0DBF803460C46002219462846D2
:10D00400F8F7D6F9039036E10020FCF717FB034646
:10D01400002B0CD00020FCF759FB9DF80730052BA2
:10D0240001D1C82301E04FF47A6302930BE000209E
:10D03400FCF732FB9DF80730052B01D1C82301E032
:10D044004FF4C8730293404A9DF8073013703F4D64
:10D05400029B19464FF000024FF000034FF000040A
:10D06400D40344EA5144CB0313F5FA7044F10001AC
:10D074004FF47A724FF000030BF098F803460C4615
:10D08400002219462846F8F793F90390F3E00020AC
:10D09400FCF75AFB2C4A9DF8073013702B4B0022E7
:10D0A40040F6CD411846F8F783F90390E3E00020F9
:10D0B400FCF7F2FA244A9DF807301370DBE0214BA9
:10D0C40001221A700120FCF73FFB204B002240F69E
:10D0D400CD411846F8F76CF90390CCE0194B0122C6
:10D0E4001A700120FCF730FB184B00224FF48041EA
:10D0F4001846F8F75DF90390BDE0124B01221A704F
:10D104000120FCF721FB114B002240F6CD411846CB
:10D11400F8F74EF90390AEE00A4B01221A70012091
:10D12400FCF712FB094B00224FF480411846F8F734
:10D134003FF903909FE0FCF7F5FA034A9DF80730A6
:10D14400137098E08935002088350020943500203C
:10D154004B4B1846F8F75EF903909DF80730C3F17E
:10D1640011030293029B002B4ED0039B002B4BD147
:10D17400029B012B41D9424F029B9BB29DB24FF0BF
:10D184000006AB46B4461BEB0B034CEB0C049B466E
:10D19400A4461BEB050B4CEB060C4FF000014FF0C3
:10D1A40000024FEACC0242EA5B724FEACB018B46A3
:10D1B40094461BEB050B4CEB060C4FF000014FF0B3
:10D1C40000024FEA8C4242EA9B324FEA8B418B4683
:10D1D40094465B46644613F5FA7044F100014FF43B
:10D1E4007A724FF000030AF0E1FF03460C46002276
:10D1F40019463846F8F7DCF803900220FCF74CFA9D
:10D20400204B01221A7036E00220FCF75FFA1D4B16
:10D2140000221A702FE0FFF7C7FD1B4A9DF8073064
:10D22400137028E0FFF7C0FD0020FCF735FA164A1A
:10D234009DF8073013701EE0FFF7B6FD0120FCF7E0
:10D244002BFA114A9DF80730137014E0FFF7ACFD78
:10D254000020FCF721FA0120FCF71EFA0A4A9DF887
:10D264000730137007E0FCF75DFA074A9DF80730B2
:10D27400137000E000BF039B184604B0BDE8F088BB
:10D28400B4350020903500208835002000B583B0E7
:10D294000190074B1B6803F00103002B04D0054BDE
:10D2A4001B781846FFF79EFD00BF03B05DF804FB32
:10D2B4008C3500208835002000B583B00190022011
:10D2C400FCF742FA00BF03B05DF804FB00B585B07B
:10D2D40003468DF8073000230393084B1B6803F0C3
:10D2E4000103002B05D09DF807301846FFF77AFD9F
:10D2F4000390039B184605B05DF804FB8C350020B1
:10D3040000B585B00190009100230393294A019B45
:10D314001360294A009B1360019B03F00203002B56
:10D324002AD00023029308E001220121029800F090
:10D3340053F80390029B01330293029B032B02D800
:10D34400039B002BF0D0039B002B06D140F26662B6
:10D3540004211A48F7F7DCF80390039B002B02D151
:10D36400F7F748F90390039B002B05D1144A0021D9
:10D374001448F7F7EDFF0390019B03F00103002B22
:10D3840001D0FCF7FBF9039B002B05D10E4A0021C9
:10D394000E48F7F7DDFF0390039B002B05D10C4AE1
:10D3A40001210C48F7F7D4FF0390039B184605B0FE
:10D3B4005DF804FB8C350020D435002008A103005F
:10D3C40091CD020004A1030091D20200FCA003004D
:10D3D400BDD2020000A1030084B001900B468DF879
:10D3E400033013468DF8023000230393019B032B73
:10D3F4003CD89DF80230012B0BD19DF80330012B52
:10D4040004D1019BDBB20E33DBB200E000238DF8C4
:10D4140002309DF80330012B04D0022B0CD0002BDA
:10D4240015D01FE01449019A13465B0013440B44C2
:10D434009DF802201A701BE00F49019A13465B0005
:10D4440013440B4401339DF802201A7010E00A497A
:10D45400019A13465B0013440B4402339DF80220E7
:10D464001A7005E00723039300BF01E00723039329
:10D47400039B184604B07047D835002000B583B02C
:10D4840001900198FCF7E2F9034603211846FFF7DF
:10D49400ADFB0023184603B05DF804FB00B583B070
:10D4A400012200210020FFF797FF0190019B002B30
:10D4B40004D0019B072B01D0019B1CE00722022111
:10D4C4000120FFF789FF0190019B002B04D0019BF1
:10D4D400072B01D0019B0EE0042202210020FFF75C
:10D4E4007BFF0190019B002B04D0019B072B01D0F3
:10D4F400019B00E00023184603B05DF804FB00B56F
:10D5040083B0012202210020FFF766FF0190019BF6
:10D51400002B04D0019B072B01D0019B1CE00722A8
:10D5240002210120FFF758FF0190019B002B04D03A
:10D53400019B072B01D0019B0EE00A220021002051
:10D54400FFF74AFF0190019B002B04D0019B072B9E
:10D5540001D0019B00E00023184603B05DF804FBF2
:10D5640000B583B001900120FFF76EFB0346002B4A
:10D5740003D0019B02221A700CE00020FFF764FB29
:10D584000346002B03D0019B0B221A7002E0019B7F
:10D5940000221A7000BF03B05DF804FB00B583B02D
:10D5A4000020FFF76BFF0190019B002B04D0019B2F
:10D5B400062B01D0019B0CE00120FFF75FFF0190D7
:10D5C400019B002B04D0019B062B01D0019B00E0A2
:10D5D4000023184603B05DF804FB000000B585B0D5
:10D5E40001900091019B1B88102B02D0112B18D0A5
:10D5F4002FE01A4B1B68002B0DD1FFF74FFF039050
:10D60400039B002B07D0164B1B68002B03D0144B35
:10D614001B6803989847114B1B6801330F4A13602A
:10D6240017E00E4B1B68013B0C4A13600B4B1B6845
:10D63400002B0DD1FFF763FF0390039B002B07D052
:10D64400074B1B68002B03D0054B1B6803989847B6
:10D6540000BF00BF05B05DF804FB00BF103600201A
:10D664000C36002000B585B001900091002303938F
:10D674000A4A019B1360009B002B02D00098FFF71D
:10D684006FFF074B1B68002B02D1FFF738FF039095
:10D69400039B184605B05DF804FB00BF0C36002060
:10D6A4001036002076DF704700BF18467ADF7047D7
:10D6B40000BF18467CDF704700BF18468FDF7047F5
:10D6C40000BF1846A8DF704700BF184666DF7047E2
:10D6D40000BF184632DF704700BF184682B00346C9
:10D6E4008DF807309DF8073003F1804303F5C043FC
:10D6F400184602B07047000082B003468DF8073028
:10D704009DF80730044A012101FA03F3C2F80435F5
:10D7140000BF02B0704700BF00F0014084B0034670
:10D72400029101928DF80F3008499DF80F30A23311
:10D73400029A41F83320054A9DF80F30A233DB00EA
:10D744001344019A5A6000BF04B0704700F00140CE
:10D7540084B00190244B0393019B002B40D0234BB6
:10D764001A680399019B00BF00BF00BF00BF00BF40
:10D7740000BF00BF00BF8A422FD000BF00BF00BF60
:10D7840000BF00BF00BF00BF00BF00BF00BF00BF9D
:10D7940000BF00BF00BF00BF00BF00BF00BF00BF8D
:10D7A40000BF00BF00BF00BF00BF00BF00BF00BF7D
:10D7B40000BF00BF00BF00BF00BF00BF00BF00BF6D
:10D7C40000BF00BF00BF00BF00BF00BF00BF00BF5D
:10D7D40000BF00BF00BF00BF00BF013BC3D1019326
:10D7E40000BF04B0704700BF0024F400D82B002011
:10D7F40000B583B00190019B4FF47A7202FB03F3EE
:10D804001846FFF7A5FF00BF03B05DF804FB82B024
:10D8140001900B46ADF80230BDF80230019A134472
:10D82400184602B0704782B0019000BF02B0704742
:10D8340000B587B0144A6B4607CA03C31A7013496C
:10D844000020FFF7BDF80590059B0493049B002B73
:10D8540005D00F4A40F237110498F6F7F7FE6B46ED
:10D8640019460020FFF714F90590059B0393039BC9
:10D87400002B05D0064A4FF49D710398F6F7E6FE97
:10D8840000BF07B05DF804FBB8A103002BD8020069
:10D8940034A1030082B001900B468DF80330034B92
:10D8A40001221A7000BF02B0704700BF6837002021
:10D8B40000B585B0FCF738FD0390039B0293029BEF
:10D8C400002B05D0104A40F285110298F6F7BEFEEF
:10D8D4000E4B1B68009303238DF801306B460C4AF2
:10D8E40019460B20FCF774FD0390039B0193019BE5
:10D8F400002B05D0044A4FF4C6710198F6F7A6FE32
:10D9040000BF05B05DF804FB34A10300CCA1030003
:10D9140099D8020010B586B0144B01AC0FCB84E843
:10D924000F000F238DF807300C238DF806300E23DB
:10D934008DF805300D238DF8043001238DF8103057
:10D944004FF00063039301A9002300220848FEF767
:10D9540019FB0590059B002B05D0064A40F2A71140
:10D964000598F6F773FE00BF06B010BDD0A1030002
:10D9740028A1030034A1030000B583B00190019BEA
:10D984001B78012B0DD0022B02D0002B12D012E0F9
:10D99400019B5B680A4A4FF4DD711846F6F756FEA0
:10D9A40009E0019B5B68064A4FF4DF711846F6F7FD
:10D9B4004DFE00E000BF00BF03B05DF804FB00BFF4
:10D9C40034A1030030B58DB0134B04AC1D460FCD0C
:10D9D4000FC495E8030084E80300104B00934FF450
:10D9E400807301930E4B02934FF480730393694643
:10D9F40004A807230B4AFBF7F5FB0B900B9B0A9338
:10DA04000A9B002B05D0084A40F2E9110A98F6F760
:10DA14001DFE00BF0DB030BDE0A10300983700200B
:10DA2400983800207DD9020034A1030010B58EB0CF
:10DA3400334A09AB92E803001860043319704FF4B9
:10DA4400A8713048FFF7E3FE03461C460C20FFF79D
:10DA540045FE03461A4621460020FFF75FFE0020DC
:10DA6400FFF74AFE274B0493274B0593274B069356
:10DA7400274B079317238DF8203000238DF80E30A1
:10DA840001238DF80A3002238DF80B3003238DF81F
:10DA94000C3004238DF80D307D238DF8043009A952
:10DAA40001AB0133052218460AF0E2FC01AB18462B
:10DAB40001F010FC0D900D9B0C930C9B002B05D0DA
:10DAC400144A40F20B210C98F6F7C0FD01F042FC19
:10DAD4000D900D9B0B930B9B002B05D00D4A40F230
:10DAE4000E210B98F6F7B2FD0B4B1B881B0443F079
:10DAF40003030A491846F6F70DF800BF0EB010BD2F
:10DB04001CA2030000A0014000A00040001001403E
:10DB14000070014034A10300682A0020F8A103002A
:10DB240000B583B00D4B1B881B0443F003030C4961
:10DB34001846F5F7EFFF07F0A3FB0190019B009354
:10DB4400009B002B05D0074A40F223210098F6F7EA
:10DB54007DFD00BF03B05DF804FB00BF682A002010
:10DB640024A2030034A1030000B585B003468DF858
:10DB740007309DF80730002B02D0FFF7D1FF0FE0EC
:10DB84000321094803F0B2FA0390039B0293029B1A
:10DB9400002B05D0054A4FF40D710298F6F756FD97
:10DBA40000BF05B05DF804FB4436002034A1030037
:10DBB40000B583B003460091ADF80630BDF80630D9
:10DBC400009A19460348F6F741FD00BF03B05DF81B
:10DBD40004FB00BFEFBEADDE10B58CB00390039B19
:10DBE4001B780F2B00F2A18001A252F823F000BF92
:10DBF40035DC02002FDD020049DC02002FDD0200CB
:10DC040079DC02002FDD02008FDC020015DD02004A
:10DC14002FDD0200C7DC02002FDD0200E1DC020080
:10DC2400B9DC0200FBDC02002FDD0200C1DC0200D3
:10DC3400454B1B881B0443F0030344491846F5F77E
:10DC440069FF7DE0404B1B881B0443F00304039BE6
:10DC54005B88184603F0C0FF03461A46039B5B88A3
:10DC64001946039B1B7A00930B4639492046F5F766
:10DC740084FF65E000238DF81430039B5B8805AABC
:10DC84001146184607F0BEFA5AE0FBF7FBF8079076
:10DC9400079B0E2B4BD0079B082B48D0079B069362
:10DCA400069B002B43D02B4A40F27E210698F6F7C0
:10DCB400CDFC3CE00020FFF757FF41E007F0B6FA47
:10DCC4003EE0039B1B690993099B002B31D0214A39
:10DCD4004FF424710998F6F7B9FC2AE0039B9B687A
:10DCE4000A930A9B002B26D01A4A40F296210A98DE
:10DCF400F6F7ACFC1FE0039B9B680B930B9B002B7C
:10DD04001BD0144A4FF427710B98F6F79FFC14E0CC
:10DD1400039B9B680893089B002B10D00D4A40F28C
:10DD2400A2210898F6F792FC09E000BF08E000BFC2
:10DD340006E000BF04E000BF02E000BF00E000BF57
:10DD440000BF0CB010BD00BF682A002034A203003D
:10DD540060A2030034A1030000B585B0019004491A
:10DD6400044801F075FF039000BF05B05DF804FBA3
:10DD7400742B00202836002000B585B0F7F7B4FADC
:10DD84000390039B0293029B002B05D00D4A40F2A3
:10DD94001A310298F6F75AFC0B4A01210B48F7F79F
:10DDA400D7FA0390039B0193019B002B05D0054AEE
:10DDB40040F21E310198F6F749FC00BF05B05DF84A
:10DDC40004FB00BF34A103005DDD020030A10300A9
:10DDD40000B587B09DF80030012262F303038DF88B
:10DDE40000309DF80030012262F307138DF80030F3
:10DDF4001E480AF0BBFB03469AB26B461B49184601
:10DE0400FFF758FC0590059B0493049B002B05D059
:10DE1400174A40F232310498F6F718FC01AB082295
:10DE2400002118460AF04DFB0C23ADF804300C23F6
:10DE3400ADF806300023ADF808304FF4C873ADF8E0
:10DE44000A3001AB1846FFF731FC0590059B03939C
:10DE5400039B002B05D0064A4FF44F710398F6F745
:10DE6400F5FB00BF07B05DF804FB00BFA0A20300F0
:10DE740034A1030000B583B00021094804F0C2F9BD
:10DE84000190019B0093009B002B05D0054A40F2B2
:10DE940046310098F6F7DAFB00BF03B05DF804FBE7
:10DEA4001436002034A1030000B587B0019000911E
:10DEB400009B1B78052B4FD801A252F823F000BF1A
:10DEC400DDDE02000BDF02005DDF02005DDF020029
:10DED4004BDF020033DF020024480AF099FA244B96
:10DEE40000224FF4F6711846F7F762FA0590059B85
:10DEF4000393039B002B31D01E4A40F25E310398FA
:10DF0400F6F7A4FB2AE01C480AF082FA184B1846DC
:10DF1400F7F780FA0590059B0493049B002B1FD010
:10DF2400144A4FF459710498F6F790FB18E013481B
:10DF34000AF06EFA0E4B00224FF4F6711846F7F70A
:10DF440037FA05900DE00E480AF062FA084B1846BD
:10DF5400F7F760FA059004E000BF02E000BF00E0BC
:10DF640000BF00BF07B05DF804FB00BFA4A203001C
:10DF74001C37002034A10300C0A20300DCA203006C
:10DF8400ECA2030000B587B001AB0C2200211846B7
:10DF94000AF097FA1E4B01939DF80930012262F3AF
:10DFA40003038DF809309DF80930012262F3071349
:10DFB4008DF809309DF80A306FF303038DF80A30A9
:10DFC4009DF80A306FF307138DF80A309DF80B3073
:10DFD4006FF303038DF80B309DF80B306FF30713C9
:10DFE4008DF80B3001AB19460A4801F0E6FD0590A7
:10DFF400059B0493049B002B05D0074A40F28B3108
:10E004000498F6F723FB00BF07B05DF804FB00BFDC
:10E01400ADDE02002836002034A1030000B585B02F
:10E024000190019B1B78002B11D10B4B1B883B21CA
:10E034001846FFF737FB0390039B0293029B002BC8
:10E0440005D0064A4FF468710298F6F7FFFA00BF4C
:10E0540005B05DF804FB00BF702B002034A1030061
:10E0640000B583B00190054A40F2AB310198F6F750
:10E07400EDFA00BF03B05DF804FB00BF34A1030058
:10E0840000B58BB001AB1C22002118460AF019FA26
:10E09400002301934FF4203302934FF4702303932E
:10E0A40003238DF810300023ADF8123000238DF8CF
:10E0B40014300C4B06930C4B079301AB184603F03A
:10E0C400CBFA0990099B0893089B002B05D0074ABB
:10E0D40040F2C3310898F6F7B9FA00BF0BB05DF807
:10E0E40004FB00BF21E0020065E0020034A103004C
:10E0F40000B585B00020FFF7E9F80390039B029375
:10E10400029B002B05D0134A40F2D9310298F6F74E
:10E114009DFAFFF743FA0390039B0193019B002BA5
:10E1240005D00C4A40F2DD310198F6F78FFAFFF77B
:10E13400D1FA0390039B0093009B002B05D0054A62
:10E1440040F2E1310098F6F781FA00BF05B05DF8BE
:10E1540004FB00BF34A1030000B585B003468DF86D
:10E1640007309DF80730002B1BD0032B00D01CE098
:10E17400104B1B881B0443F003030F491846F5F7A3
:10E18400C9FC0220FFF7A2F80390039B0293029BB1
:10E19400002B09D0094A4FF47D710298F6F756FA1C
:10E1A40002E0FFF7A5FF00E000BF00BF05B05DF887
:10E1B40004FB00BF682A0020FCA2030034A1030072
:10E1C40010B594B00190009100231393019B1B8818
:10E1D400212B34D0212B06DC102B1CD0112B09D081
:10E1E400012B6CD0C4E0512B7CD0562B54D03B2B4C
:10E1F4003FD0BDE00020FFF769F81390139B0E9306
:10E204000E9B002B00F0A9805B4A40F20E410E9851
:10E21400F6F71CFAA1E00720FFF758F81390139BB8
:10E224000D930D9B002B05D0534A40F213410D98DA
:10E23400F6F70CFA019B9A88504B1A8098E0002359
:10E244008DF82C3000238DF82D30019B9B880BAA70
:10E2540011461846FFF732FA1390139B0F930F9B46
:10E26400002B7CD0444A40F221410F98F6F7EEF996
:10E2740075E0019B9B8813211846FFF713FA13904E
:10E28400139B1093109B002B6BD03B4A40F22A4106
:10E294001098F6F7DBF964E0019B9B88132118467C
:10E2A400FFF700FA1390139B1293129B002B5AD082
:10E2B400314A40F232411298F6F7C8F953E0019B13
:10E2C4009B8800211846FFF701FA1390139B0C93C7
:10E2D4000C9B002B49D0284A40F237410C98F6F7A2
:10E2E400B5F942E0019B07AC0633186859689A688F
:10E2F400DB680FC49DF81C30002B38D09DF8243007
:10E30400042B07D09DF82430062B03D09DF824302D
:10E31400052B2CD19DF81C30022B03D102238DF840
:10E324000C3002E001238DF80C304FF4C173ADF8CA
:10E334001030019B9B8803AA11461846FFF7C2F9C7
:10E344001390139B1193119B002B10D00A4A40F297
:10E3540052411198F6F77AF909E000BF08E000BFCE
:10E3640006E000BF04E000BF02E000BF00E000BF21
:10E3740000BF14B010BD00BF34A10300702B0020F7
:10E3840000B587B009F052FC0590059B0493049BEB
:10E39400002B05D0164A40F267410498F6F756F967
:10E3A4000023019301AB1946012009F037FD0590C4
:10E3B400059B0393039B002B05D00D4A40F26D414E
:10E3C4000398F6F743F901AB184609F00FFE0590E0
:10E3D400059B0293029B002B05D0054A40F2714134
:10E3E4000298F6F733F900BF07B05DF804FB00BFED
:10E3F40034A1030000B587B006F06AFE0590059BC2
:10E404000493049B002B05D0384A4FF49061049880
:10E41400F6F71CF96B460522002118460AF051F85C
:10E424009DF8003043F001038DF800309DF8003072
:10E434006FF341038DF800309DF800306FF38203D1
:10E444008DF800309DF800306FF3C3038DF8003071
:10E454009DF80030032262F306138DF800309DF816
:10E4640000306FF3C7138DF8003007238DF80130A7
:10E4740010238DF802309DF8033043F001038DF82A
:10E4840003309DF8033043F002038DF803309DF808
:10E49400043043F001038DF804309DF8043043F058
:10E4A40002038DF804306B46184606F093FE05907F
:10E4B400059B0393039B002B05D00C4A40F2934128
:10E4C4000398F6F7C3F80A4806F05CFE0590059B2E
:10E4D4000293029B002B05D0044A40F29641029815
:10E4E400F6F7B4F800BF07B05DF804FB34A10300ED
:10E4F400DDDB020000B587B003468DF807309DF8D8
:10E504000730072B1DD00A2B02D0042B03D034E094
:10E51400FFF7EEFD31E01B4B1B8813211846FFF774
:10E52400C1F80590059B082B24D0059B0393039BFE
:10E53400002B1FD0144A40F2AC410398F6F786F83A
:10E5440018E0104B1B884FF6FF72934214D10F480A
:10E5540002F001FF0590059B082B0DD0059B049349
:10E56400049B002B08D0084A40F2B6410498F6F701
:10E574006DF801E000BF00E000BF00BF07B05DF828
:10E5840004FB00BF702B002034A10300443600209C
:10E5940000B5ABB06B46A0220021184609F091FFEC
:10E5A40002238DF8003001238DF8023006238DF804
:10E5B40003300223ADF81030124B059301238DF87C
:10E5C4007C304FF496732293B42323930E4B2693FB
:10E5D4006B4619460D4802F07AFC2990299B289332
:10E5E400289B002B05D00A4A40F2D7412898F6F719
:10E5F4002DF80121054802F05DFC00BF2BB05DF849
:10E6040004FB00BF882B00205DE10200443600209B
:10E6140034A1030000B587B0019017490320FEF729
:10E624006FFE0590059B0493049B002B05D0134AB1
:10E6340040F2E7410498F6F709F80DF10B03194687
:10E644000020FFF70FF80590059B0393039B002B15
:10E6540005D00A4A40F2EA410398F5F7F7FF9DF81E
:10E664000B30022B0CBF01230023DAB2019B1A707A
:10E6740000BF07B05DF804FBF9E4020034A1030015
:10E6840000B583B00020F4F7D5FF0190019B0093FF
:10E69400009B002B05D0064A40F2F5410098F5F79F
:10E6A400D5FFF4F725FF00BF03B05DF804FB00BFFE
:10E6B40034A1030000B583B0FFF7E2FFFFF782F94E
:10E6C400FFF7F6F8F6F710FEFFF756FB0DF1070318
:10E6D4001846FFF79FFFFFF753FEFFF779FBFFF79D
:10E6E400C9FBFFF74FFCFFF7CBFCFFF783FEFFF7F7
:10E6F4009DF9FFF79DF8FFF70DF91E4809F088FE14
:10E704001D4B1E4A1A601E4B93E8030000F088FF5D
:10E714000346002B03D11B4B01229A7002E0194BD4
:10E7240000229A70174B01225A704FF47A70FFF747
:10E734005FF8154809F06CFEFFF72AFF9DF80730D3
:10E744001846FFF711FA114B01221A70104B0122DF
:10E754001A700E4B01225A700D4B00225A7001217F
:10E764000B20FBF799FE074B00221A71094809F0A8
:10E774004FFEFEE710A30300643700203C3700205F
:10E7840028A103006837002020A30300703700206D
:10E794008437002034A3030082B003468DF8073089
:10E7A4009DF8073003F01F0205499DF907305B0906
:10E7B400012000FA02F241F8232000BF02B07047A2
:10E7C40000E100E082B003468DF807309DF8073081
:10E7D40003F01F0206499DF907305B09012000FA86
:10E7E40002F2603341F8232000BF02B0704700BF3B
:10E7F40000E100E082B0034600918DF807309DF9F6
:10E804000730002B0CDA009BDAB20C499DF8073074
:10E8140003F00F03043B5201D2B20B441A7609E011
:10E82400009BDAB206499DF907305201D2B20B447B
:10E8340083F8002300BF02B0704700BF00ED00E082
:10E8440000E100E031DF704700BF18463FDF70474A
:10E8540000BF184645DF704700BF184646DF7047C3
:10E8640000BF184647DF704700BF184600B585B0A3
:10E87400244BD3F80C31002B3FD0224B0022C3F899
:10E884000C21204BD3F80C311F4B1B78DBB2012B2E
:10E8940030D11C4BD3F8003403F00103012B29D1F0
:10E8A400184BD3F804350393039800F06DFB03462B
:10E8B4008DF80B309DF80B30002B16D01348F7F76A
:10E8C4004FF80390039B002B14BF01230023DBB2FA
:10E8D4000193019B002B04D10D4AC8210020F5F7B8
:10E8E400B5FE084A039BC2F804350A4B1B68013382
:10E8F400084A1360034B01229A6000BF05B05DF81B
:10E9040004FB00BF00100040643A002054A403003C
:10E9140054A303005C3A002000B583B003468DF88D
:10E9240007309DF80730042B00F2C48001A252F88E
:10E9340023F000BF4DE90200CDE9020065EA0200C0
:10E944006BEA02006FEA0200604B01225A605F4BDF
:10E954000122DA605D4B0022C3F804255B4B0022E0
:10E96400C3F84021594B0022C3F84421584B1B786B
:10E97400DBB2002B05D0554B4FF48032C3F804238F
:10E9840004E0524B4FF44032C3F804234F4B4FF48E
:10E99400FA72C3F840254D4B4FF49672C3F84425E0
:10E9A4004A4B0222C3F80825484B01221A60494BFE
:10E9B4000122C3F8FC2F0820FFF7EEFE464B00228D
:10E9C4001A6000F02BF97CE0404BD3F84031002B67
:10E9D40022D03E4BD3F8043303F48033002B1BD0F6
:10E9E4003A4B01225A60394B0022C3F84021374B7D
:10E9F400D3F8403100F0F0F8354B1B78DBB2002B34
:10EA040008D0354B1A68354B1B681344344A93605D
:10EA1400344B57E0344B55E02C4BD3F84431002BA6
:10EA24001ED02A4BD3F8043303F40033002B17D041
:10EA3400264B0022C3F84421244BD3F84431264BFF
:10EA44001B682A4A934209D8214B1B78DBB283F016
:10EA54000103DBB2002B01D0254B33E01C4B1B78A8
:10EA6400FFF704FF2DE0234B2CE0184B01225A60E2
:10EA7400164B0022C3F84021144B0022C3F8442152
:10EA8400124BD3F84035114A03F2CF33C2F8403564
:10EA94000E4BD3F844350D4A03F2CF33C2F8443554
:10EAA4000A4B01221A600C4B1B6803F57A730A4A5D
:10EAB400136006E0104A40F23D111048F5F7C6FD18
:10EAC40000BF0C4B184603B05DF804FB0080004007
:10EAD400543A0020001000402C3A0020303A002024
:10EAE400A02B0020B02B0020B82B00208F08A107FA
:10EAF400C02B0020683A002054A303007856341237
:10EB040000B583B00190304B0022C3F80C252E4B86
:10EB14000122C3F810252C4B0122C3F850262A4B9E
:10EB24000322C3F83425284B6FF07F42C3F83C25F9
:10EB3400254B264AC3F83825234B0022C3F8142555
:10EB4400214B234AC3F818251F4A019BC2F80435F8
:10EB5400204B5A781C4BC3F824251E4B9B781A066D
:10EB64001C4BDB781B041A431A4B1B791B021343FF
:10EB7400184A52791A43144BC3F81C25124B00222D
:10EB8400C3F82C25104B0122C3F83025114B1A78F9
:10EB94000D4BC3F808250C4B0422C3F80C250A4B73
:10EBA4000022C3F80C21084B4FF0FF32C3F80823AE
:10EBB400054B0822C3F804230120FFF7EDFD00BF35
:10EBC40003B05DF804FB00BF0010004021100100F9
:10EBD4000C0C0401343A002008B50C4B01221A61D4
:10EBE4000A4B4FF0FF32C3F8082300F045FB074BF4
:10EBF400D3F8043519460648F6F7FAFE054B002209
:10EC04001A60054B00221A7000BF08BD00100040B6
:10EC140054A403002C3A0020643A002000B585B0C7
:10EC2400454B1B78DBB283F00103DBB2002B2DD004
:10EC3400424B1B78DBB2012B04D1414BD3F8503546
:10EC4400032B75D03F48F6F78BFE0390039B002BF4
:10EC540014BF01230023DBB20193019B002B05D1D8
:10EC6400394A40F28F110020F5F7F0FC0398FFF7C2
:10EC740047FF334B0122C3F80022314B01225A6073
:10EC840000F072FA2D4B01221A7051E02B4B1B78C5
:10EC9400DBB2012B0DD12A4B0022C3F81021284BE3
:10ECA40001221A6100E000BF254BD3F81031002B7C
:10ECB400F9D02448F6F754FE0390039B002B14BFAD
:10ECC40001230023DBB20293029B002B05D11E4AD1
:10ECD40040F2A9110020F5F7B9FC00F073FA03988B
:10ECE400FFF70EFF164B0322C3F80022144B012238
:10ECF4001A6000E000BF124BD3F80031002BF9D0AA
:10ED0400124BDB68D3F844351A46039B1A600F4B49
:10ED14001B69D3F84425039B9A600C4B5B69D3F8B9
:10ED240004351A46039B5A60044B02221A7000E011
:10ED340000BF05B05DF804FB543A0020643A00209B
:10ED44000010004054A4030054A30300343A0020EC
:10ED540000B587B001900091019B023B062B5BD864
:10ED640001A252F823F000BF33EE020033EE02009A
:10ED740089ED020089ED0200B3ED0200EDED020021
:10ED8400D3ED02002D48FFF76DFD0390039B029322
:10ED9400029B002B05D02A4A4FF4E8710298F5F73C
:10EDA40055FC284B1B680133264A136042E0264B6E
:10EDB4001B881B0443F0010324491846F4F7AAFEF8
:10EDC4001F4A4FF4EC712248F5F740FC32E0214B26
:10EDD40000221A701C4B1B881B0443F003031E49BA
:10EDE4001846F4F797FE25E0174B1B881B0443F0E5
:10EDF40003031A491846F4F78DFEFFF72FFD05901B
:10EE0400059B0493049B002B13D00D4A40F2E71199
:10EE14000498F5F71BFC0CE00B4B1B881B0443F018
:10EE24000303019A0E491846F4F782FE02E000BF7C
:10EE340000E000BF00BF07B05DF804FB902B00208A
:10EE440054A30300283A0020F82A0020C4A3030096
:10EE540078563412243A0020F4A3030014A40300C7
:10EE640034A403000E4B1B6901225A600C4B1B692E
:10EE74000122DA600A4B1B690022C3F81025084BF3
:10EE84001B690122C3F80425054B1B690322C3F83F
:10EE94000825034B1B6901221A6000BF704700BF9D
:10EEA400343A0020224BDB6801225A60204BDB6895
:10EEB4000122DA601E4BDB680022C3F810251C4BCC
:10EEC400DB680322C3F80825194BDB6849F6404286
:10EED400C3F84025164BDB684FF0FF32C3F84425D6
:10EEE400134BDB684FF0FF32C3F84825104BDB6847
:10EEF4004FF0FF32C3F84C250D4BDB680D4A9342AB
:10EF040004D00B4BDB680C4A934205D1084BDB68F9
:10EF140044F62062C3F85025054BDB680122C3F890
:10EF24000022034BDB6801221A6000BF704700BF58
:10EF3400343A002000A0014000B0014008B50D4B58
:10EF4400D3F80031002B13D00A4B0022C3F8002160
:10EF540000F0B2F9084B1B689B68084A1360084B21
:10EF640000221A70044B1B6819460648F6F740FD48
:10EF740000BF08BD00700140603A0020583A0020EC
:10EF8400553A002054A4030000B589B00390374BD0
:10EF94001B78DBB2002B01D0002363E0039B1B68CA
:10EFA4000693069B03F2D5130693314BDB68D3F823
:10EFB40044350593059A069B9A4207D9069A059B00
:10EFC400D31A03F51C434033079303E0069A059BC9
:10EFD400D31A0793079B002B04D0079B49F64042A2
:10EFE400934201D100233DE0079B49F640429342FE
:10EFF40008D91F4BDA68079BA3F51C43403BC2F8B2
:10F00400483507E01A4BDA68079BC3F51C434033C5
:10F01400C2F84835164BDB68D3F8483549F6404208
:10F02400934216D9134B1B881B0443F00100079B22
:10F034000093059B069A1049F4F79FFD002304935F
:10F04400049B002B05D10D4A40F24E210020F5F718
:10F05400FDFA064B01221A70094A039B136000F063
:10F064001DF90123184609B05DF804FB553A002048
:10F07400343A0020F82A002044A4030054A30300D7
:10F08400603A002084B0364B9B790393344BDB7990
:10F094000293334B9B7A01930122039B9A40314B99
:10F0A400C3F808252E4BDB6803F5A4732D4A1946D3
:10F0B400039BA23342F83310294BDB680C33294AF3
:10F0C4001946039BA233DB0013445960244B1B698C
:10F0D4000C33244A1946039B03F5117342F8231099
:10F0E4000122029B9A401F4BC3F808251C4BDB6886
:10F0F40003F5A4731B4A1946029BA23342F833104A
:10F10400019BDB00043303F1804303F5F833154A14
:10F114001946029BA233DB0013445960104B9B69D0
:10F12400104A1946029B03F5117342F823100D4A45
:10F13400019BDB00134401225A600122039B9A4085
:10F144000121029B01FA03F31343064A1946019B6A
:10F1540003F5007342F8231000BF04B0704700BFEA
:10F16400343A002000F0014082B0134B1B7A019323
:10F17400124A019BA233124942F833100E4BDB684A
:10F1840044330E4A1946019BA233DB0013445960F1
:10F19400094B1B694433094A1946019B03F5117352
:10F1A40042F823100122019B9A40044BC3F8042522
:10F1B40000BF02B0704700BF343A002000F00140A5
:10F1C4000411004082B0134B9B790193124A019BB6
:10F1D400A233124942F833100E4BDB6844330E4A13
:10F1E4001946019BA233DB0013445960094B1B6988
:10F1F4004433094A1946019B03F5117342F823105D
:10F204000122019B9A40044BC3F8042500BF02B0BD
:10F21400704700BF343A002000F001400011004064
:10F2240082B0134B5B7A0193114BDB6803F5A07337
:10F23400104A1946019BA23342F833100C4B1B6948
:10F2440008330C4A1946019BA233DB00134459606E
:10F25400084A019B03F51173002142F8231001228F
:10F26400019B9A40034BC3F8042500BF02B07047CA
:10F27400343A002000F0014082B0064B1B7A01931F
:10F284000122019B9A40044BC3F8082500BF02B039
:10F29400704700BF343A002000F00140044B054A97
:10F2A400927A1146012243F8312000BF704700BF13
:10F2B40000F00140343A0020044A054B9B7ADB00FD
:10F2C400134401225A6000BF704700BF00F00140A0
:10F2D400343A002000B585B00190202201991948E4
:10F2E40009F0C6F8174BDB68002B07D0154B5B6998
:10F2F400002B03D0134B9B69002B01D107231CE087
:10F30400104B9B69104A934201D0072315E00D4B23
:10F314005B69D3F80835002B01D008230DE00B48B6
:10F32400F6F7C6FA0390039B002B05D0084A40F277
:10F334000A310398F5F78AF90023184605B05DF8F9
:10F3440004FB00BF343A00200070014054A40300C1
:10F3540054A3030000B583B0314B1B78DBB2002B00
:10F3640001D0082358E0FFF771FA0190019B002BAC
:10F3740001D0019B50E00020FFF764FA0246019B94
:10F3840013430193019B002B01D0019B44E02548CA
:10F39400FFF760FA0190019B002B01D0019B3BE039
:10F3A4002148FFF75FFA0190019B002B01D0019BDC
:10F3B40032E0FFF735FFFFF765FE1C4B93F91C3075
:10F3C4001846FFF7FFF9194B93F91C30072118462B
:10F3D400FFF710FA154B93F91C301846FFF7DCF9C8
:10F3E400124B9B694FF0FF32C3F808230F4B9B6904
:10F3F4000122C3F804230E4B00221A600D4B002295
:10F404001A700D4B00221A70FFF72CFDFFF74AFD0E
:10F41400034B01221A700023184603B05DF804FB65
:10F42400243A00201DE90200902B0020343A0020E9
:10F43400283A0020543A0020643A002000B583B0F2
:10F444000190019B1B681F2B04D905494FF4E870F8
:10F45400FEF7AEFB4FF0A043184603B05DF804FB83
:10F4640068A4030000B585B00190084611461A4609
:10F4740003468DF803300B468DF8023013468DF8A1
:10F48400013001AB1846FFF7D9FF03909DF8032024
:10F494009DF802305B001A439DF801309B001A432B
:10F4A4009DF818301B0242EA03019DF81C301B042E
:10F4B400019A1943039B02F5E07243F8221000BF3E
:10F4C40005B05DF804FB00B585B0039000230193FB
:10F4D400002300930023012201210398FFF7C2FFB8
:10F4E40000BF05B05DF804FB00B585B0019001AB29
:10F4F4001846FFF7A3FF0390019B012202FA03F3CE
:10F504001946039800F018F800BF05B05DF804FB35
:10F5140000B585B0019001AB1846FFF78FFF03904B
:10F52400019B012202FA03F31946039800F00EF836
:10F5340000BF05B05DF804FB82B001900091019B0F
:10F54400009AC3F8082500BF02B0704782B001904A
:10F554000091019B009AC3F80C2500BF02B07047CC
:10F5640084B00190244B0393019B002B40D0234B88
:10F574001A680399019B00BF00BF00BF00BF00BF12
:10F5840000BF00BF00BF8A422FD000BF00BF00BF32
:10F5940000BF00BF00BF00BF00BF00BF00BF00BF6F
:10F5A40000BF00BF00BF00BF00BF00BF00BF00BF5F
:10F5B40000BF00BF00BF00BF00BF00BF00BF00BF4F
:10F5C40000BF00BF00BF00BF00BF00BF00BF00BF3F
:10F5D40000BF00BF00BF00BF00BF00BF00BF00BF2F
:10F5E40000BF00BF00BF00BF00BF013BC3D10193F8
:10F5F40000BF04B0704700BF0024F400D82B0020E3
:10F6040000B583B00190019B4FF47A7202FB03F3BF
:10F614001846FFF7A5FF00BF03B05DF804FB000028
:10F6240010B59AB002AB83E803001320FFF74BFF39
:10F634001120FFF748FF1020FFF745FF1020FFF7C8
:10F6440067FF1120FFF750FF1320FFF74DFF4FF422
:10F654007A70FFF7D5FF1120FFF75AFF0023ADF8AA
:10F66400663004E0BDF866300133ADF86630BDF8AD
:10F6740066304CF250329342F4D91120FFF734FF34
:10F6840011238DF8583016A902A8002300930023F3
:10F694000122FCF73BFD17903F4A15AB1268114657
:10F6A40019800233120C1A7015A902A800230093C2
:10F6B40000230322FCF72AFD17900023ADF86430E1
:10F6C40004E0BDF864300133ADF86430BDF8643053
:10F6D4004CF250329342F4D911AB00221A605A60B2
:10F6E4009A601A732D4B0DAC0FCB07C4237011AA6B
:10F6F4000DA902A80D23009313460D22FCF706FD65
:10F70400179009AB00221A605A609A609A8105AB7F
:10F7140000221A605A609A609A8120238DF814306E
:10F724000B238DF8153009AA05A902A80E2300930E
:10F7340013460E22FCF7EAFC17901020FFF7D4FEC4
:10F744000023ADF8623013E00023ADF8603004E02C
:10F75400BDF860300133ADF86030BDF860304CF274
:10F7640050329342F4D9BDF862300133ADF86230BF
:10F77400BDF862300A2BE7D910238DF8583016A94A
:10F7840002A80023009300230122FCF7BFFC17907A
:10F79400179B18461AB010BDD0A40300D4A40300CC
:10F7A400A0DF704700BF1846A2DF704700BF1846AD
:10F7B400A4DF704700BF1846A6DF704700BF184695
:10F7C400A9DF704700BF184662DF704700BF1846C4
:10F7D40000B583B00190019B1B681F2B04D9054918
:10F7E4004FF4E870FEF7E4F94FF0A043184603B075
:10F7F4005DF804FBE4A4030000B585B0019001ABFF
:10F804001846FFF7E5FF0390019B012202FA03F378
:10F814001946039800F018F800BF05B05DF804FB22
:10F8240000B585B0019001AB1846FFF7D1FF0390F6
:10F83400019B012202FA03F31946039800F00EF823
:10F8440000BF05B05DF804FB82B001900091019BFC
:10F85400009AC3F8082500BF02B0704782B0019037
:10F864000091019B009AC3F80C2500BF02B07047B9
:10F8740000B587B001900091009B9A88019BDA82C1
:10F8840005238DF81430019B1B6805AA11460198C5
:10F8940098471023ADF80C300223ADF80E30012345
:10F8A400ADF810304CF6CD23ADF81230019BD88A58
:10F8B40003A900230822FFF783FF034619460548DE
:10F8C40008F0A6FD044808F0A3FD00BF07B05DF8EA
:10F8D40004FB00BF1CA5030024A5030000B587B0EA
:10F8E40001900091019B4FF6FF72DA8204238DF898
:10F8F4001430019B1B6805AA1146019898471023F0
:10F90400ADF80C300223ADF80E300023ADF8103002
:10F914004CF6CD23ADF81230019BD88A03A90023FD
:10F924000822FFF74DFF064B1B881B0443F003031B
:10F9340004491846F4F7EEF800BF07B05DF804FB7D
:10F94400682A00203CA5030000B585B00190009111
:10F95400009B06330393039B1A88019BDB889A421E
:10F964000ED1039B1B7B012B03D11420FFF758FFFF
:10F9740006E0039B1B7B022B02D11420FFF73CFF04
:10F98400039B1A88019B5B899A421CD1039B5B8968
:10F99400022B18D1019B1B68002B14D0039B0C3342
:10F9A400184602F01BFA0346002B03D000238DF8FF
:10F9B400083002E001238DF80830019B1B6802AA7D
:10F9C40011460198984700BF05B05DF804FB00009C
:10F9D40000B585B001900091009B03931C4B1B88DC
:10F9E4001B0443F00300019B1B881A461949F4F7D2
:10F9F4009FF8039B002B26D0019B002B23D0019B57
:10FA04001B88112B15D0502B18D0102B00D01BE0C5
:10FA1400039BD88A002300220021FFF7D1FE03466E
:10FA240019460D4808F0F4FC01990398FFF720FFEC
:10FA34000AE001990398FFF751FF05E00199039843
:10FA4400FFF782FF00E000BF05B05DF804FB00BFD4
:10FA5400682A002054A503001CA5030000B593B038
:10FA64000190009109AB03220021184608F029FDFA
:10FA74009DF82430012262F303038DF824309DF8AD
:10FA84002430012262F307138DF824309DF82530C9
:10FA9400012262F303038DF825309DF825300122FD
:10FAA40062F307138DF82530009B5B798DF82530C0
:10FAB4009DF82630012262F342038DF826300AAB0A
:10FAC4001C220021184608F0FCFC9DF8283043F065
:10FAD40002038DF828309DF8283043F008038DF890
:10FAE40028309DF8283043F010038DF82830002387
:10FAF4000B9300230D9300230E9309AB0F93002364
:10FB04001093019B1B7E8DF80E3041F60D03ADF86A
:10FB14000C3001238DF80E3042F63723ADF80C304B
:10FB240002AB03220021184608F0CBFC009B9B7912
:10FB34008DF80830009BDB798DF809309DF80A3088
:10FB4400012262F342038DF80A309DF80A306FF304
:10FB5400C3038DF80A309DF80A306FF304138DF84F
:10FB64000A309DF80A306FF300038DF80A3004ABB5
:10FB740014220021184608F0A4FC03AB049302AB42
:10FB840005931423ADF818300023ADF81A3014236C
:10FB9400ADF81C30019B9888019B063304AA0AA97E
:10FBA400FFF702FE1190119B002B01D0119B00E086
:10FBB4000023184613B05DF804FB00B589B001902A
:10FBC4000091019B002B02D0009B002B01D10E233E
:10FBD40039E0009B1A68019B1A60019B4FF6FF7283
:10FBE400DA8202AB00221A605A609A60DA600D234E
:10FBF4008DF80830019B03F1180202AB1146184638
:10FC0400FFF7E2FD0790079B002B01D0079B1AE04A
:10FC1400019B1B7E8DF81A3041F60D03ADF81830A8
:10FC2400019B1A1D06AB19460120FFF7B9FD079089
:10FC340000990198FFF712FF0790079B002B01D052
:10FC4400079B00E0079B184609B05DF804FB000021
:10FC540000B58BB001900091364B1B881B0443F018
:10FC6400030335491846F3F755FF019B002B01D1D7
:10FC74000E235BE00023099307AB082200211846FA
:10FC840008F01FFC1423ADF81C300023ADF81E301F
:10FC9400009B0893019BD88A019BDB8807AA19461D
:10FCA400FFF786FD0990099B002B01D0099B3DE0DD
:10FCB400019BDB8A4FF6FF7293422BD003AB1022D9
:10FCC4000021184608F0FDFB019BDB88ADF80C30E1
:10FCD40001238DF80E30BDF81E30ADF8103007AB9F
:10FCE4000593089B0693019BDB8A03AA11461846D9
:10FCF400FFF762FD09900F4B1B881B0443F00303BD
:10FD0400099A0E491846F3F713FF09990B4808F0AE
:10FD14007FFB0AE008230993064B1B881B0443F06E
:10FD2400030307491846F3F7F5FE099B18460BB081
:10FD34005DF804FB682A00207CA50300A0A503004D
:10FD4400C0A5030000B583B01F4B0193019B0222A1
:10FD54001A61019B02225A61019B1C4A9A61019B10
:10FD64001B4ADA61019B4FF400721A62019B002264
:10FD74009A62019B00225A62019B0022DA62019B73
:10FD8400124A9A64019B134ADA64019B10221A6591
:10FD9400019B00229A65019B00225A65019B002267
:10FDA400DA65019B07330C49184608F0BDFB019B3B
:10FDB4000A49184608F0B8FB019B20229A7100BF3B
:10FDC40003B05DF804FB00BF703A0020F8A50300FF
:10FDD400E83A0020E83C002004A6030008A603003B
:10FDE40000B589B003900291019200230693039B0E
:10FDF400DB680593039B1B690493049A059B9A4251
:10FE040005D9049A059BD31A013B079307E0039B8A
:10FE14009A680499059BCB1A1344013B0793039BEF
:10FE24009A68059BD31A079A934228BF13460793EF
:10FE3400079A019B934228BF13460793039B5A6872
:10FE4400059B1344079A0299184608F011FB069A79
:10FE5400079B13440693029A079B13440293019A47
:10FE6400079BD31A0193059A079B13440593039B9D
:10FE74009B68059A9A4201D100230593039B059A36
:10FE8400DA60019B002BB5D1069B184609B05DF8DA
:10FE940004FB00B589B0039002910192039BDB68D7
:10FEA4000793039B9A68079BD31A0693069A019BB0
:10FEB4009A420ED9039B5A68079B1344019A0299EC
:10FEC400184608F0D5FA079A019B1A44039BDA6096
:10FED4001AE0069B0593039B5A68079B1344059AF3
:10FEE4000299184608F0C4FA019A069BD31A05939E
:10FEF400039B5868029A069B1344059A194608F016
:10FF0400B7FA039B059ADA6000BF09B05DF804FBF9
:10FF140086B00190019B1B690493019BDB680393EA
:10FF2400049A039B9A4208D8019B9A68039BD21AAD
:10FF3400049B1344013B059304E0049A039BD31AE6
:10FF4400013B0593059B184606B0704700B589B080
:10FF5400039002910192029B0693039B5A1C134641
:10FF64005B001344DB001F4A13440593059B5B6944
:10FF7400012B17D0012B02D3022B23D029E00598A3
:10FF8400FFF7C6FF0490049A019B9A4202D2002311
:10FF9400079321E0019B0793019A06990598FFF7BF
:10FFA40078FF19E00598FFF7B3FF0490019A049BCA
:10FFB400934228BF13460793079A06990598FFF7BB
:10FFC40068FF09E0019A06990598FFF709FF079071
:10FFD40002E00023079300BF079B184609B05DF8B1
:10FFE40004FB00BF703A002008B5FFF7ABFE00BF6A
:0CFFF40008BD6DDF704700BF184672DFCB
:020000023000CC
:10000000704700BF184679DF704700BF18467DDF94
:10001000704700BF184664DF704700BF184682B0C3
:1000200003460091ADF80630BDF80630DAB2009B09
:100030001A70BDF806301B0A9AB2009B0133D2B287
:100040001A700223184602B0704700B589B00390B9
:1000500002911346ADF80630029B1B8803F109029A
:10006000BDF806309A4201D90C2351E005AB184681
:10007000FFF7C1FF0790079B002B01D0079B47E0CC
:10008000029B1B881A46039B134408221A70029B8A
:100090001B8801339AB2029B1A80029B1B881A4666
:1000A000039B13441B221A70029B1B8801339AB2D4
:1000B000029B1A80029B1B881A46039B981805AB6B
:1000C00001330622194608F0D5F9029B1B88063336
:1000D0009AB2029B1A809DF8143023F00103DBB220
:1000E000002B07D1029B1B881A46039B1344002256
:1000F0001A7006E0029B1B881A46039B13440122D8
:100100001A70029B1B8801339AB2029B1A8000234B
:10011000184609B05DF804FB00B589B00390029160
:100120000192ADF80230039B1B78012B05D1039B94
:100130005B78002B01D1072389E0019B1B889A1C67
:10014000BDF802309A420ED8039B1B78012B0CD1CC
:10015000019B1B881A46039B5B7813449A1CBDF8CD
:1001600002309A4201D90C2371E0019B1B88BDF833
:100170000220D31A9BB2023BADF81C30BDF81C30F4
:10018000ADF81630019B1B880233029A13440DF11F
:10019000160211461846FFF73AFF0690069B002B01
:1001A00001D0069B53E0039B1B78022B09D1BDF8BD
:1001B0001630BDF81C209A4203D309238DF81F3056
:1001C00017E008238DF81F30039B1B78012B0CD1FF
:1001D000039B5B789BB2BDF81C209A4205D3039B1E
:1001E0005B789BB2ADF8163003E0BDF81C30ADF87B
:1001F0001630BDF81630FE2B01D90C2327E0BDF8D0
:100200001630DAB2019B1B881946029B0B4401325F
:10021000D2B21A70019B1B8801339AB2019B1A80DB
:10022000019B1B881A46029B13449DF81F201A70DD
:10023000019B1B8801339AB2019B1A80019B1A888B
:10024000BDF8163013449AB2019B1A800023184659
:1002500009B05DF804FB00B587B003900291134626
:10026000ADF80630029B1B881A1DBDF806309A4275
:1002700001D90C2339E00DF112031846FFF7C3FE34
:100280000590059B002B01D0059B2EE0029B1B884F
:100290001A46039B134403221A70029B1B880133E6
:1002A0009AB2029B1A80029B1B881A46039B134436
:1002B00019221A70029B1B8801339AB2029B1A8082
:1002C000BDF81220029B1B881946039B0B4419465C
:1002D0001046FFF7A4FE03461946029B1A888BB20C
:1002E00013449AB2029B1A800023184607B05DF8A7
:1002F00004FB84B0029101921A4603468DF80F3038
:100300001346ADF80C30019B1B88DA1CBDF80C308D
:100310009A4201D90C2328E0019B1B881A46029BB4
:10032000134402221A70019B1B8801339AB2019B6D
:100330001A80019B1B881A46029B134401221A70E3
:10034000019B1B8801339AB2019B1A80019B1B8879
:100350001A46029B13449DF80F201A70019B1B88BC
:1003600001339AB2019B1A800023184604B07047EB
:1003700084B0029101921A4603468DF80F3013465D
:10038000ADF80C30019B1B88DA1CBDF80C309A428A
:1003900001D90C2328E0019B1B881A46029B1344B9
:1003A00002221A70019B1B8801339AB2019B1A80AA
:1003B000019B1B881A46029B13440A221A70019B58
:1003C0001B8801339AB2019B1A80019B1B881A4635
:1003D000029B13449DF80F201A70019B1B88013368
:1003E0009AB2019B1A800023184604B0704700B5EA
:1003F0008BB0039001930B468DF80B3013468DF8AC
:100400000A3000238DF823300C9B1B88ADF8203078
:10041000002309936DE0039B5A68099B9B001A44D3
:1004200004AB106818600DF1160104AB00221846E9
:10043000FFF7F1FD0690069B002B01D0069B7AE0AA
:100440009DF816309DF80A209A424FD19DF823302E
:10045000002B01D0002300E002238DF817300C9B05
:100460001B881A469DF816301A449DF817301A4416
:10047000BDF834309A4201DD0C235CE09DF8233056
:1004800083F00103DBB2002B16D00C9B1B880133D9
:100490009AB20C9B1A800C9B1B881A46019B134432
:1004A0009DF80B201A700C9B1B8801339AB20C9B91
:1004B0001A8001238DF823300C9B1B881A46019B60
:1004C0001A440DF1160104AB1846FFF7A4FD06907F
:1004D000069B002B01D0069B2DE00C9B1A889DF8F3
:1004E00016309BB213449AB20C9B1A80099B0133BD
:1004F0000993039B1B881A46099B93428BDB9DF84B
:100500002330002B16D00C9B1A88BDF82030D31A4C
:100510009BB2013BADF81E30BDF81E30FF2B01D958
:100520000C2308E0BDF82030019A1344BDF81E20CA
:10053000D2B21A70002318460BB05DF804FB00B568
:1005400089B0059003930B468DF8133013468DF850
:1005500012309DF81310BDF82C3001930A9B0093C4
:10056000039B02220598FFF742FF0790079B002B91
:1005700001D0079B12E09DF81210BDF82C300193BA
:100580000A9B0093039B10220598FFF730FF07900A
:10059000079B002B01D0079B00E00023184609B001
:1005A0005DF804FB82B00190019B1B88052B0AD9E2
:1005B000019B1B88B3F5486F07D9019B1B884FF639
:1005C000FF72934201D0072325E0019B5B88052B36
:1005D0000AD9019B5B88B3F5486F07D9019B5B88FB
:1005E0004FF6FF72934201D0072314E0019B1B8852
:1005F0004FF6FF7293420DD0019B5B884FF6FF725E
:10060000934207D0019B1A88019B5B889A4201D9CB
:10061000072300E00023184602B0704700B587B0FA
:10062000039002910192ADF80230019B1B889A1D44
:10063000BDF802309A4201D90C234BE00398FFF732
:10064000B1FF0590059B002B01D0059B42E0019B6B
:100650001B881A46029B134405221A70019B1B88B3
:1006600001339AB2019B1A80019B1B881A46029B98
:10067000134412221A70019B1B8801339AB2019B0A
:100680001A80039B1A88019B1B881946029B0B4406
:1006900019461046FFF7C3FC03461946019B1A880A
:1006A0008BB213449AB2019B1A80039B5A88019B18
:1006B0001B881946029B0B4419461046FFF7AFFCF6
:1006C00003461946019B1A888BB213449AB2019BC8
:1006D0001A800023184607B05DF804FB00B587B008
:1006E000039002910192ADF80230039B9B88023384
:1006F0000593019B1B881A46059B13449A1CBDF861
:1007000002309A4201D90C2354E0059BFE2B01D9FB
:100710000C234FE0059BDAB2019B1B881946029B14
:100720000B440132D2B21A70019B1B8801339AB27A
:10073000019B1A80019B1B881A46029B1344FF22CF
:100740001A70019B1B8801339AB2019B1A80039B8C
:100750001A88019B1B881946029B0B4419461046B8
:10076000FFF75DFC03461946019B1A888BB21344C0
:100770009AB2019B1A80039B9B88002B19D0039B84
:100780009B68002B01D1072314E0019B1B881A46AC
:10079000029B9818039B9968039B9B881A4607F055
:1007A00069FE019B1A88039B9B8813449AB2019BA4
:1007B0001A800023184607B05DF804FB00B589B025
:1007C000039002910192ADF80230039B9B6A002BCB
:1007D00001D1072372E000238DF81F3066E0039BF0
:1007E000996A9DF81F2013465B0013449B000B443D
:1007F0000693069B9B8802330593059BFE2B01D92C
:100800000C235BE0059BDAB2019B1B881946029B17
:100810000B440132D2B21A70019B1B8801339AB289
:10082000019B1A80019B1B881A46029B13441622C7
:100830001A70019B1B8801339AB2019B1A80069B98
:100840001A88019B1B881946029B0B4419461046C7
:10085000FFF7E5FB03461946019B1A888BB2134448
:100860009AB2019B1A80069B9B88002B19D0069B8D
:100870009B68002B01D1072320E0019B1B881A46AF
:10088000029B9818069B9968069B9B881A4607F05E
:10089000F1FD019B1A88069B9B8813449AB2019B29
:1008A0001A809DF81F3001338DF81F30039B93F899
:1008B0002C309DF81F209A4291D30023184609B08E
:1008C0005DF804FB00B589B0059004910392002304
:1008D0000793039B1B88ADF81A30039B00221A80F4
:1008E000059B93F82D30002B0CD0BDF81A301A461A
:1008F00003990498FFF7A9FB0790079B002B01D0F1
:10090000079BC4E0059B9B78002B0CD0BDF81A30E8
:100910001A4603990498FFF79EFC0790079B002B4B
:1009200001D0079BB3E0059BDB78002B0ED0059B25
:10093000DB7858B2BDF81A30039A0499FFF7D9FC56
:100940000790079B002B01D0079BA0E0059B5B68ED
:10095000002B0FD0059B5B6893F90000BDF81A309F
:10096000039A0499FFF704FD0790079B002B01D021
:10097000079B8CE0059B1B89002B12D0059B03F184
:100980000800BDF81A300193039B0093049B0622D4
:100990000221FFF7D4FD0790079B002B01D0079B96
:1009A00075E0059B1B8A002B12D0059B03F11000FC
:1009B000BDF81A300193039B0093049B0722032187
:1009C000FFF7BDFD0790079B002B01D0079B5EE062
:1009D000059B1B8B002B12D0059B03F11800BDF863
:1009E0001A300193039B0093049B15221421FFF7F7
:1009F000A6FD0790079B002B01D0079B47E0059BB6
:100A00001B6A002B0DD0059B186ABDF81A30039A9B
:100A10000499FFF703FE0790079B002B01D0079B6B
:100A200035E0059B5B6A002B0DD0059B586ABDF82D
:100A30001A30039A0499FFF751FE0790079B002B89
:100A400001D0079B23E0059B93F82C30002B0CD0A2
:100A5000BDF81A30039A04990598FFF7AFFE079086
:100A6000079B002B01D0079B11E0059B1B78002BF7
:100A70000CD0BDF81A30039A04990598FFF74CFB87
:100A80000790079B002B01D0079B00E0079B1846AF
:100A900009B05DF804FB82B00190019BDB7803F0A4
:100AA0000403002B01D1072300E00023184602B005
:100AB000704782B00190019BDB78002B01D00723A7
:100AC00000E00023184602B0704700B597B00190CF
:100AD00000911F23ADF84A301F23ADF84830019B29
:100AE000002B18D00198FFF7D6FF1390139B002B13
:100AF00001D0139B3FE00DF14A020AAB1946019861
:100B0000FFF7E0FE1390139B002B01D0139B32E004
:100B10000AAB159304E0002315930023ADF84A3087
:100B2000009B002B17D00098FFF7C3FF1390139B77
:100B3000002B01D0139B1EE012AA02AB19460098AD
:100B4000FFF7C0FE1390139B002B01D0139B12E004
:100B500002AB149304E0002314930023ADF8483053
:100B6000BDF84A30D9B2BDF84830DBB2149A1598B6
:100B7000FFF745FA0346184617B05DF804FB73DF2C
:100B8000704700BF184674DF704700BF184682B038
:100B90000190019B93F8D630184602B0704784B09C
:100BA0000190002303930AE0019A039B13441B78EE
:100BB000002B01D0012306E0039B01330393039B29
:100BC000052BF1D90023184604B0704782B00346C4
:100BD0008DF807309DF807305A1C074B83FB021332
:100BE0005910D317C91A0B469B000B44D11ACBB22C
:100BF000184602B0704700BF6766666682B0019013
:100C00000091009BDB7B012B04D1009B9A88019B08
:100C1000A3F8C82000BF02B0704700B585B00190AE
:100C20000091019B002283F8D420009B9A88019BAD
:100C3000B3F8C8309A4218D1019B1B7983F00103A5
:100C4000DBB2002B11D00121019800F051FA039082
:100C5000039B002B09D0019BD3F8D030002B04D08C
:100C6000019BD3F8D0300398984700BF05B05DF8DA
:100C700004FB00B585B001900091009B1B7A002B0E
:100C800018D1019BDB781846FFF7A0FF03461946F1
:100C9000019800F02DFA0390039B002B0BD0019BD1
:100CA000D3F8D030002B06D0019BD3F8D030039876
:100CB000984700E000BF05B05DF804FB08B50020D0
:100CC000F5F796FB0346184608BD000000B585B051
:100CD00001900B468DF80330019B26331846FFF731
:100CE0005EFF03468DF80F309DF80330013B032B68
:100CF0002AD801A252F823F0090D03001D0D0300AC
:100D0000310D03003D0D0300019B9B79002B05D0A5
:100D10009DF80F30002B01D0012316E0019BDB79F9
:100D2000002B05D09DF80F30002B01D002230CE0E2
:100D3000019B1B7A002B01D0032306E0019B5B7A09
:100D4000002B01D0042300E00023184605B05DF815
:100D500004FB00BF82B001900091019B01229A70B8
:100D6000019B03F12502009B5A60009B01221A702F
:100D7000009B00229A81009B00225A810023184682
:100D800002B0704782B001900091019B02229A70DC
:100D9000019B03F12502009B5A60009B01221A70FF
:100DA000019B1B699AB2009B9A81019BDB689AB2F6
:100DB000009B5A810023184602B0704700B585B0E9
:100DC00001900091019B5B699AB2009B5A81019B43
:100DD0009B699AB2009B9A81019B5B79002B24D07E
:100DE000019B93F8D43083F00103DBB2002B1CD0BD
:100DF0000198FFF7CCFE0346002B16D0009B022281
:100E00001A72019B042283F83320019B30330021A6
:100E10001846FFF75AFE0390039B002B01D0039B5B
:100E200007E0019B05229A7002E0019B03229A7061
:100E30000023184605B05DF804FB00B585B00190AD
:100E40000091019BDB699AB2009B5A81019B1B6A4E
:100E50009AB2009B9A81019B5B79002B24D0019B65
:100E600093F8D43083F00103DBB2002B1CD001983F
:100E7000FFF78DFE0346002B16D0009B02221A724C
:100E8000019B042283F83320019B30330021184654
:100E9000FFF71BFE0390039B002B01D0039B07E091
:100EA000019B06229A7002E0019B04229A700023A3
:100EB000184605B05DF804FB82B001900B468DF832
:100EC0000330019B9DF8032083F8242000BF02B06B
:100ED000704730B587B001900091009B002B02D085
:100EE000019B002B01D10E23FFE0019B01221A7010
:100EF000019B0022DA70019A009B141D03F1780512
:100F00000FCD0FC495E80F0084E80F00019B00226D
:100F100083F82420009BD3F89820019BC3F8CC20B1
:100F2000009BD3F89C20019BC3F8D020019B4FF677
:100F3000FF72A3F8C820019B253307220021184621
:100F400007F0C1FA019B30333C220021184607F01C
:100F5000BAFA009B1A78019B83F83020009B9A789C
:100F6000019B83F83220009BDA78019B83F83320C1
:100F7000009B5A78019B83F83120019B009A4033F3
:100F8000103292E8030083E80300019B009A383393
:100F9000083292E8030083E80300019B009A48337B
:100FA000183292E8030083E80300009B93F82D2099
:100FB000019B83F85D20009B5B6A002B2ED0019B78
:100FC00003F16C02019B5A65019B03F17802019BBE
:100FD0005A67009B5A6A019B5B6D12881A80009BBE
:100FE0005A6A019B5B6D92889A80002305930EE0FC
:100FF000009B5B6A9A68059B13441978019A059BCC
:10100000134478330A461A70059B01330593019BFC
:101010005B6D9B881A46059B9342E9D3009B9B6AB4
:10102000002B3AD0019B03F1A402019BC3F8A0203E
:10103000019B03F19802019B9A65019B9B6D019AAC
:10104000A4329A60009B9A6A019B9B6D92889A8059
:10105000009B9A6A019B9B6D12881A80002304935F
:101060000EE0009B9B6A9A68049B13441978019ACE
:10107000049B1344A4330A461A70049B013304935F
:10108000019B9B6D9B881A46049B9342E9D3009B6E
:1010900093F82C20019B83F85C20009B1B6A002B9B
:1010A00010D0019B03F1C402019B1A65009B1A6AD0
:1010B000019B1B6D52885A80009B1A6A019B1B6D15
:1010C00012881A80009B5B68002B03D0009B5A6833
:1010D000019B5A63019B03F13002009B3C3319468C
:1010E0001046FFF7F2FC0390039B184607B030BD93
:1010F00000B589B001900B468DF80330019B1B7839
:1011000083F00103DBB2002B01D00823D2E0019B66
:101110009DF80320DA70FFF7D1FD0346002B04D0C1
:10112000019B01225A700023C4E0019B2533072252
:101130000021184607F0C7F9019B9B79002B03D0CB
:10114000019BDB78012B0FD0019BDB79002B03D0B7
:10115000019BDB78012B07D0019BDB79002B16D09C
:10116000019BDB78022B12D1019BD3F8CC30002BF2
:1011700009D0019B012283F82C20019BD3F8CC30AD
:101180000820984703E0019B002283F82C209DF85B
:10119000033019460198FFF799FD03461A46019B53
:1011A000DA70019BD3F8CC30002B21D0019BDB7887
:1011B000032B03D0019BDB78042B19D1019B5B79B6
:1011C000002B15D0019B93F8D43083F00103DBB2E0
:1011D000002B0DD0019B002283F8D620019B012219
:1011E00083F8D520019BD3F8CC300720984703E043
:1011F000019B002283F8D52003AB10220021184662
:1012000007F061F900238DF80C3000238DF81430BD
:10121000019BDB78042B2DD801A252F823F000BFEC
:101220006D12030035120300431203005112030034
:101230005F12030003AB19460198FFF78BFD07907F
:1012400019E003AB19460198FFF79CFD079012E0E7
:1012500003AB19460198FFF7B1FD07900BE003AB14
:1012600019460198FFF7E9FD079004E0019B002271
:101270009A7000E000BF019BDB78002B0DD0019B32
:1012800093F8242003AB11461846FFF778FC07902B
:10129000079B002B01D0079B0CE0019BD3F8CC30BF
:1012A000002B06D0019BD3F8CC30019A92781046DF
:1012B00098470023184609B05DF804FB00B585B0D7
:1012C00001900091009B0393019B1B88112B09D077
:1012D0001B2B0CD0102B00D00EE001990398FFF7C8
:1012E0008DFC09E001990398FFF797FC04E0019950
:1012F0000398FFF7BEFC00BF00BF05B05DF804FB1C
:1013000000B585B001900091009B0393019B023BC7
:10131000012B1BD8039B5B78002B19D0039B002269
:101320005A70039BDB7819460398FFF7E1FE0290A1
:10133000029B002B0CD0039BD3F8D030002B07D09E
:10134000039BD3F8D0300298984701E000BF00E03B
:1013500000BF00BF05B05DF804FB00B585B001908B
:10136000FFF711FC019B012283F8D420019B00228E
:1013700083F8D620019B062283F83320019B30336B
:1013800000211846FFF7A1FB0390039B002B01D01F
:10139000039B14E0019BDB7819460198FFF7A8FE38
:1013A0000390039B002B09D0019BD3F8D030002B76
:1013B00004D0019BD3F8D0300398984700231846F7
:1013C00005B05DF804FB75DF704700BF184676DF97
:1013D000704700BF18467ADF704700BF18467BDFB2
:1013E000704700BF1846000084B00346ADF80630D1
:1013F0000023039316E00F49039A13469B001344FE
:101400009B000B441B88BDF806209A4207D1039A23
:1014100013469B0013449B00064A134406E0039BBB
:1014200001330393039B002BE5D00023184604B03F
:10143000704700BF183D002082B001900B46ADF808
:101440000230019BBDF802201A80019B00221A7213
:10145000019B054903F10A020B4603CB1060516062
:1014600000BF02B0704700BF483D002082B001902D
:10147000019B4FF6FF721A8000BF02B0704788B020
:101480000390029111461A460B46ADF806301346FA
:10149000ADF80430039B9B881A46BDF80630134410
:1014A0000793039B9B88BDF806209A4206D2039BB4
:1014B0009B881A46BDF80630D31A00E00023069335
:1014C000039BDB881A46BDF8043013440593039B45
:1014D000DB88BDF804209A4206D2039BDB881A46BB
:1014E000BDF80430D31A00E000230493029B5A880D
:1014F000039B1B889A4205D3029B5A88039B5B88F7
:101500009A4201D900231CE0029B9B881A46069B45
:10151000934205D8029B9B881A46079B934201D2AF
:1015200000230EE0029BDB881A46049B934205D8F9
:10153000029BDB881A46059B934201D2002300E000
:101540000123184608B0704700B583B00190064BE0
:101550009B69002B03D0044B9B690198984700BFFF
:1015600003B05DF804FB00BF2C3D002000B585B042
:1015700003460091ADF80630BDF8063000991846D4
:10158000FFF721FF0390039B002B05D0039B112B3A
:1015900002D00398FFF7D8FF039B002B0CBF012359
:1015A0000023DBB2184605B05DF804FB00B589B036
:1015B0000190019B0793079B9BB21846FFF714FF0E
:1015C0000690069B002B42D0069B1A7A224B1B7B6F
:1015D0009A4215D2079B9AB2069B0A3319461046C7
:1015E000FFF7C4FF03468DF813309DF81330002B2E
:1015F0002DD0069B1B7A0133DAB2069B1A7226E0C5
:10160000069B00221A72144B1B7C002B0FD0079BE9
:101610009BB23B211846FFF7DAFE0590059B002B95
:1016200005D0059B082B02D00598FFF78DFF0A4BCC
:101630005B69002B0BD000238DF80C30079B9BB20D
:10164000ADF80E30044B5B6903AA1046984700BF03
:1016500009B05DF804FB00BF2C3D002030B587B019
:101660000190019B002B01D10E2353E02B4A019BDB
:1016700014461D460FCD0FC495E8070084E8070007
:10168000264B274A1A60019B1B68002B11D0019B37
:101690001B681846FFF79FFE0490049B002B01D0A7
:1016A000049B37E0019B1A681D4B1068516803C307
:1016B00008E01B48FFF793FE0490049B002B01D029
:1016C000049B27E00023059320E0059A13469B0026
:1016D00013449B00134A134403930398FFF7C6FE79
:1016E000059B5B01104A1A44039B5A60039B043319
:1016F0000E4A00211846F3F72DFE0490049B002BA0
:1017000001D0032306E0059B01330593059B002BC5
:10171000DBD00023184607B030BD00BF2C3D0020B1
:10172000483D0020183D0020F83C0020AD15030086
:1017300000B587B003460091ADF80630009B5B7A98
:10174000002B1AD1009B1B7A002B03D1164B5B6830
:10175000059302E0144B9B680593009B5B68BDF802
:10176000062005991846F3F725FE0490049B002BEC
:1017700016D00498FFF7E8FE12E0009B00221A72D0
:10178000094B5B69002B0BD001238DF80C30BDF8A1
:101790000630ADF80E30044B5B6903AA104698473B
:1017A00000BF07B05DF804FB2C3D002000B585B0FC
:1017B0000190019BDB7B8DF80F30019B9B88ADF87E
:1017C0000C309DF80F30012B2CD14FF6FF70FFF736
:1017D0000BFE0290029B002B03D10420FFF7B4FE06
:1017E00021E0BDF80C3019460298FFF725FE029B58
:1017F00003F10A00019B03F110014FF6FF7340F261
:10180000F312FFF73CFE03461A46029B5A72074B3F
:10181000DB89002B07D1BDF80C3002991846FFF781
:1018200087FF00E000BF05B05DF804FB2C3D002001
:1018300000B587B00190019B9B88ADF81630BDF8CC
:1018400016301846FFF7D0FD0490049B002B0ED0F5
:10185000049B5B681846F3F7DFFD0390039B002BA6
:1018600002D00398FFF770FE0498FFF7FFFD00BF5A
:1018700007B05DF804FB000000B587B00190019B44
:1018800006330593059B1A88194BDB899A422BD1A5
:10189000059B5B89022B27D1019B9B88ADF81230F9
:1018A000BDF812301846FFF79FFD0390039B002BF5
:1018B0001AD0059B0C33184600F092FA0346002B11
:1018C00006D0BDF8123003991846FFF731FF0BE040
:1018D000039B5B681846F3F79FFD0290029B002B69
:1018E00002D00298FFF730FE00BF07B05DF804FB9E
:1018F0002C3D002000B585B00190019B9B88ADF880
:101900000E30BDF80E301846FFF76EFD0290029BB8
:10191000002B15D0029B03F10A00019B03F1080183
:101920004FF6FF7340F2F312FFF7A9FD03461A4684
:10193000029B5A72BDF80E3002991846FFF7F8FE66
:1019400000BF05B05DF804FB00B583B001900091C5
:10195000019B1B88112B0DD0112B02DC102B05D005
:1019600014E0122B0ED0502B08D00FE00198FFF797
:101970001DFF0BE00198FFF75BFF07E00198FFF701
:101980007BFF03E00198FFF7B5FF00BF00BF03B086
:101990005DF804FB00B585B00346ADF80630164B84
:1019A0005B6CDB431846F5F721FB0346ADF80E30C0
:1019B000BDF80E304FF6FF72934217D0BDF80E30CF
:1019C0000D4A5B001344BDF806209A80BDF806203E
:1019D00001230A490A48F5F72BFBBDF8062001232D
:1019E00008490748F5F724FB012300E000231846C7
:1019F00005B05DF804FB00BF503D0020983D00207D
:101A0000543D0020943D002000B585B00346ADF85C
:101A10000E30BDF80E200023009313461D2204490A
:101A20000448F5F720FB00BF05B05DF804FB00BFDC
:101A3000943D0020543D002000B583B00346ADF82E
:101A40000630BDF80620002303490448F5F7F0FAF4
:101A500000BF03B05DF804FB983D0020543D00201A
:101A600000B5A5B0134B9B6CDA43124B5B6C1A406C
:101A70006B4611491846F5F768FB12AB69464422DC
:101A8000184606F0F7FC002323930BE0239B5B0032
:101A900024AA134433F8443C1846FFF7B5FF239BB0
:101AA00001332393129B239A9A42EFD300BF25B0B0
:101AB0005DF804FB503D0020543D002082B00346F9
:101AC0008DF80730074B1B689DF80720012101FAAC
:101AD00002F21340002B14BF01230023DBB218468F
:101AE00002B07047503D002082B003468DF80730A9
:101AF000064B1B689DF80720012101FA02F21343EF
:101B0000024A136000BF02B0704700BF503D002082
:101B100000B585B001900091019B1B88112B28D046
:101B20001A2B2CD0102B00D04AE0FFF799FF019B15
:101B30009B881846FFF72EFF034683F00103DBB2B4
:101B4000002B05D0204AE5210420F2F781FD37E083
:101B5000019BDB7B022B0CBF012300238DF80F3090
:101B6000019B9A889DF80F3018491948F5F760FADB
:101B700026E0019B9B881846FFF75EFF20E0019B53
:101B80009A88019B1B7AC3F30313DBB2012B8CBF32
:101B900001230023DBB20F490D48F5F749FA019BF9
:101BA0009A88019B1B7AC3F30313DBB2022B8CBF11
:101BB00001230023DBB208490548F5F739FA00BFD5
:101BC00000BF05B05DF804FB10A603009C3D00209B
:101BD000543D0020A03D0020A43D002000B585B06C
:101BE0000346ADF8063000238DF80F30124B5B6CC6
:101BF000BDF8062019461148F5F77EFA0346002B7A
:101C000013D00D4BDB6CBDF8062019460B48F5F7D9
:101C100073FA03468DF80E309DF80E30002B01D07C
:101C2000022300E001238DF80F309DF80F30184695
:101C300005B05DF804FB00BF503D0020543D00207E
:101C400000B583B00346ADF80630064B1B6DBDF8FA
:101C5000062019460448F5F74FFA0346184603B024
:101C60005DF804FB503D0020543D002000B583B0DA
:101C70000190054B5A6C019B04491846F5F765FA2B
:101C8000019803B05DF804FB503D0020543D002056
:101C900000B583B000238DF8073017E09DF80730BA
:101CA0001846FFF70BFF034683F00103DBB2002B5E
:101CB00007D09DF807301846FFF716FF9DF807304C
:101CC00009E09DF8073001338DF807309DF80730A3
:101CD000172BE3D91823184603B05DF804FB000066
:101CE00000B583B003460A46ADF8063013468DF8BA
:101CF00005309DF805301846FFF7E0FE0346002B3F
:101D00000ED09DF80530094A14339B0013449B689C
:101D1000BDF8062019460648F5F7EEF9034600E03F
:101D20000023184603B05DF804FB00BF503D0020BF
:101D3000543D002000B583B00346ADF806300B4695
:101D40008DF8053013468DF804309DF8053018469F
:101D5000FFF7B4FE0346002B0ED09DF80530143378
:101D60009B00074A134403F108019DF80430BDF8B5
:101D700006200448F5F75CF900BF03B05DF804FBEA
:101D8000503D0020543D002000B583B003468DF83F
:101D900007309DF807301846FFF790FE0346002BEA
:101DA00007D09DF80730054A14339B0013449B6805
:101DB00000E00023184603B05DF804FB503D00200E
:101DC00082B00190019B1B781AB2019B01331B78F2
:101DD0001B021BB213431BB29BB2184602B07047E2
:101DE00000B585B001900198FFF7EAFF0346ADF812
:101DF0000E30BDF80E3003F00103002B14BF012399
:101E00000023DBB2184605B05DF804FB90DF704795
:101E100000BF18469EDF704700BF1846ADDF704711
:101E200000BF184682B00190019B17221A80019BC7
:101E300017225A80019B00221A71019B00225A71BD
:101E4000019B1B229A71019B1B22DA7100BF02B019
:101E50007047000000B587B003460091ADF806302A
:101E6000BDF80630009ADB0013441B7B9BB2ADF833
:101E70000C30BDF80630009ADB0013441B7B9BB28C
:101E8000ADF80E300023ADF810300023ADF812305D
:101E900003A9BDF8063000221846FFF7B7FF0590EA
:101EA000059B002B0AD0074B1B881B0443F0010045
:101EB000BDF80620059B0449F1F74DFE00BF07B0B1
:101EC0005DF804FB802A002098A6030000B587B0C7
:101ED00001900091009B9B88ADF80E30BDF80E304C
:101EE000DB00019A134406330593019B1A79059B85
:101EF0009A71009BDB7B012B02D0022B05D009E0FD
:101F0000019B1A88059B1A8004E0019B5A88059B57
:101F10001A8000BF059B1A88059B5B889A4220D9CE
:101F2000059B1A88BDF80E3011461846FFF772FF60
:101F30000490049B002B03D1059B01225A7110E0F1
:101F4000049B112B03D1059B01221A7109E00D4B53
:101F50001B881B0443F00103049A0B491846F1F750
:101F6000E9FD059B9A79059BDB799A4205D9BDF875
:101F70000E3001991846FFF76DFF00BF07B05DF8FE
:101F800004FB00BF802A0020F8A6030000B583B040
:101F900001900091009B9B88DB00019A134406335B
:101FA0001846FFF73FFF00BF03B05DF804FB00B524
:101FB00087B001900091009B9B88ADF81630009B84
:101FC0005B89ADF81430BDF81630DB00019A13447C
:101FD00006330493049B1B88BDF81420934228BF4A
:101FE00013469AB2049B5A80049B5B88172B38BF18
:101FF00017239AB2049B5A80019B1B69002B15D0B2
:10200000049B5B79002B11D040F67723ADF80830A4
:10201000BDF81630ADF80A30049B5B88ADF80C3083
:10202000019B1B6902AA114601989847049B002254
:102030005A71049B00221A7100BF07B05DF804FBBF
:1020400000B589B001900091009B9B88ADF81A30D3
:10205000009BDB88ADF81830BDF81A30DB00019A20
:10206000134406330593BDF81830172B38BF1723D8
:10207000ADF81830059B1B88BDF81820934228BF87
:1020800013469AB2059B5A80059B00221A71059B44
:102090001A88BDF81A3011461846FFF7BFFE0790A0
:1020A000079B002B09D0144B1B881B0443F0010332
:1020B000079A12491846F1F73DFD059B5B79002B05
:1020C00016D1019B1B69002B13D040F67723ADF886
:1020D0000C30BDF81A30ADF80E30059B5B88ADF8BA
:1020E0001030019B1B6903AA11460198984700E034
:1020F00000BF09B05DF804FB802A00203CA7030064
:1021000030B593B001900091009B04AC1D1D0FCD24
:102110000FC40FCD0FC40FCD0FC42B682360BDF8C3
:102120001030ADF84630BDF81420BDF84630D1B2BD
:10213000019ADB0013440A465A73019B1B69002B6A
:1021400019D002AB00221A609A804DF67A23ADF8BE
:102150000830BDF84630ADF80A30BDF84630019A77
:10216000DB0013445B7B8DF80C30019B1B6902AADA
:1021700011460198984700BF13B030BD00B589B033
:1021800001900091009B04330693069B1B88DB00A3
:10219000019A134406330593069B9B888DF81330F0
:1021A000059B9B799DF81320934228BF13468DF819
:1021B000123002AB00221A605A609DF812309BB2B6
:1021C000ADF808309DF812309BB2ADF80A30069B8E
:1021D0001B8802A900221846FFF718FE0790079BEC
:1021E000002B09D0064B1B881B0443F00103079A00
:1021F00004491846F1F79EFC00BF09B05DF804FBE6
:10220000802A002080A7030000B585B001900091CE
:10221000019B002B01D10E231DE0019B009A1A6146
:10222000019B17221A80019B17225A80019B1B22B7
:102230001A71002303930AE0039BDB00019A134405
:1022400006331846FFF7EEFD039B01330393039B10
:10225000002BF1D00023184605B05DF804FB000008
:1022600000B587B001900091009B0593019B9B886E
:10227000ADF81230BDF81230002B64D1019B1B88E1
:10228000232B26D0232B04DC102B09D0112B0CD0B0
:1022900024E03A2B0ED0552B11D0242B14D01DE066
:1022A00001990598FFF712FE18E001990598FFF7CC
:1022B0006DFE13E001990598FFF779FE0EE0019994
:1022C0000598FFF7BDFE09E001990598FFF718FF93
:1022D00004E001990598FFF751FF00BFBDF81230E7
:1022E000059ADB0013449B7A002B2DD0BDF81230E9
:1022F000059ADB001344DA88BDF8123011461846FF
:10230000FFF788FD0390039B002B0ED1BDF8123020
:10231000059ADB00134400229A72BDF81230059A28
:10232000DB0013440122DA720EE0039B112B0BD069
:10233000074B1B881B0443F00103039A0549184609
:10234000F1F7F8FB00E000BF07B05DF804FB00BF49
:10235000802A0020F8A6030082B00190019B002B88
:1023600014BF01230023DBB2184602B070470000FF
:10237000024B00221A7000BF704700BF083E0020C9
:1023800000B585B00190019B5B88184601F000F80C
:1023900003461A46019B9A800023039308E0084AEB
:1023A000039B52F8233001989847039B0133039312
:1023B000039B002BF3D000BF05B05DF804FB00BF0A
:1023C000C82B002082B00190019B9B79012B0BD17F
:1023D000019B1B79012B07D1019B5B8842F60212FE
:1023E000934201D1012300E0002303F00103DBB29B
:1023F000184602B0704700B589B003460091ADF8A9
:10240000063003AB00221A605A609A60DA601A61E3
:1024100007238DF80C30BDF80630ADF80E30009B68
:10242000059303AB1846FFF7ABFF00BF09B05DF89B
:1024300004FB000000B58BB00346ADF80630002366
:102440008DF8273003AB00221A605A609A60DA6078
:102450001A61BDF80630ADF80E30BDF806304FF603
:10246000FF7293423AD0BDF80630184600F009FCDE
:102470000890089B0B2B17D00B2B02D8002B07D0F2
:102480001AE0112B0CD043F2020293421BD013E04E
:102490000E238DF80C3003AB1846FFF771FF13E0E5
:1024A00001238DF827300FE00F238DF80C3003AB9C
:1024B0001846FFF765FF07E0BDF806300899184693
:1024C000FFF799FF00E000BF064B19789DF8272021
:1024D000BDF806301846FFF72DFC00E000BF0BB03A
:1024E0005DF804FB0B3E002000B583B003460A46AE
:1024F000ADF8063013468DF80530064B19789DF877
:102500000520BDF806301846FFF714FC00BF03B0E5
:102510005DF804FB0A3E002000B58BB00346ADF821
:10252000063000238DF8273000238DF82630BDF8C3
:102530000630184600F032FB0890089B112B0FD094
:10254000112B02D8002B07D022E0862B0CD043F2AF
:102550000202934223D01BE001238DF826301FE0B6
:1025600001238DF827301BE003AB00221A605A606C
:102570009A60DA601A6106238DF80C30BDF80630D7
:10258000ADF80E3003AB1846FFF7FAFE00BF07E0C8
:10259000BDF8063008991846FFF72DFF00E000BF90
:1025A0009DF82720BDF8063011461846FFF79CFF1E
:1025B0009DF8263018460BB05DF804FB00B58BB0D3
:1025C0000346ADF8063001238DF8273000238DF83F
:1025D0002630BDF80630184600F000FC0890089B35
:1025E000082B28D0082B04D8002B0DD0062B22D086
:1025F00034E043F20202934237D043F20142934265
:1026000026D0112B33D029E003AB00221A605A6088
:102610009A60DA601A6110238DF80C30BDF806302C
:10262000ADF80E3001238DF8263003AB1846FFF7C6
:10263000A7FE00BF1CE000238DF82730BDF8063050
:10264000184600F0A5FE0346184600F0FBFB0FE01D
:10265000BDF806301846FFF7EDFE09E0BDF806307C
:1026600008991846FFF7C7FE02E000BF00E000BF70
:102670000A4B19789DF82720BDF806301846FFF759
:1026800059FB074B19789DF82620BDF806301846EF
:10269000FFF750FB00BF0BB05DF804FB0C3E0020C1
:1026A0000D3E002000B597B003468DF807309DF829
:1026B00007301846FFF768FB03461846FFF74CFE45
:1026C0000346002B61D003AB1846FFF7CFFA002377
:1026D000159354E0159B5B0016AA134433F8483C4D
:1026E000ADF852309DF80720BDF85230114618461B
:1026F000FFF7F6FA0346002B3ED0254B1B789DF8DA
:1027000007209A4205D1BDF852301846FFF792FED5
:1027100032E0204B1B789DF807209A4213D100210C
:102720001D4802F0EBFF0346002B25D0BDF85230C8
:102730001846FFF7F1FE0346002B25D1002116486D
:1027400002F0FEFF18E0154B1B789DF807209A4217
:1027500012D1134B1A78BDF8523011461846FFF7C4
:10276000BFFA034683F00103DBB2002B04D0BDF8AF
:1027700052301846FFF722FF159B01331593039B38
:10278000159A9A42A6D300E000BF17B05DF804FB8B
:102790000B3E00200A3E0020093E00200C3E002097
:1027A0000D3E002008B5034B1B781846FFF77AFF53
:1027B00000BF08BD0B3E002008B5034B1B78184630
:1027C000FFF770FF00BF08BD0A3E002008B5034BAD
:1027D0001B781846FFF766FF00BF08BD0C3E0020BF
:1027E00000B583B00190019B1B78002B00D015E051
:1027F000019B5B881846FFF71DFE019B5B8818460E
:1028000000F0C8FA0346002B07D0019B5888054BFF
:102810001B7801221946FFF78DFA00BF00BF03B0F5
:102820005DF804FB0C3E002000B589B00190019BCF
:102830001B78082B4FD1019B5B7A002B4BD1019B5E
:102840001B7A072B04D0082B40D0012B15D047E072
:10285000019B9B88184600F03FFE0346ADF81E30F2
:10286000BDF81E304FF6FF72934236D0BDF81E30D1
:1028700001211846FFF738FE2FE0019B9B8803AA31
:102880000121184601F0F6FE0690069B002B26D18A
:10289000049B1B78002B22D0019B9B88184600F0DC
:1028A0001BFE0346ADF81630BDF816304FF6FF722A
:1028B000934214D00D4B1978BDF8163001221846FA
:1028C000FFF738FAFFF782FF00BF08E00021084851
:1028D00002F036FF04E000BF02E000BF00E000BFEE
:1028E000FFF76AFF00BF09B05DF804FB0C3E002053
:1028F000093E002008B5FFF73BFDFFF7C9F9034685
:102900001A46184B1A70FFF7C3F903461A46164BBE
:102910001A70FFF7BDF903461A46144B1A70FFF7F9
:10292000B7F903461A46124B1A700E4B1B78182B38
:102930000BD00D4B1B78182B07D00C4B1B78182B8A
:1029400003D00B4B1B78182B01D1032307E0012187
:10295000084802F0BDFE084B01221A7000231846F9
:1029600008BD00BF0A3E00200B3E00200C3E0020A8
:102970000D3E0020093E0020083E002000B589B031
:102980000190019B9B88ADF81E30019B1B88522B48
:1029900004D0542B08D0502B37D047E0BDF81E3060
:1029A0001846FFF747FD41E002AB00221A605A606B
:1029B0009A60DA601A6111238DF80830BDF81E3074
:1029C000ADF80A30BDF81E30184600F0E1FC0346B1
:1029D000ADF80C30BDF80C30184600F033FA174B48
:1029E0001978BDF81E3000221846FFF7A3F9144BE2
:1029F0001978BDF81E3000221846FFF79BF902AB8C
:102A00001846FFF7BDFC00BF10E0019B06331846D7
:102A1000FFF7D8FC0346002B07D0BDF81E3001217C
:102A20001846FFF761FDFFF7C7FE00BFFFF7BAFECC
:102A3000FFF7CCFE00BF09B05DF804FB0D3E00209F
:102A40000C3E002000B593B000F094F96B46184698
:102A5000FFF70CF90023ADF8463021E0BDF8463011
:102A60005B0012AA134433F8443C184600F090FC73
:102A700003461A464FF6FF739A420CD1BDF8463012
:102A80005B0012AA134433F8440C0B4B1B78012251
:102A90001946FFF74FF9BDF846300133ADF846301F
:102AA000BDF84620009B9A42D8D3FFF78FFE00BFA7
:102AB00013B05DF804FB00BF0C3E0020A7DF704799
:102AC00000BF1846A9DF704700BF1846AADF70474D
:102AD00000BF1846ABDF704700BF1846044B00220A
:102AE0001A70044B4FF6FF721A8000BF704700BF88
:102AF0000E3E0020103E002000B585B0164A01AB06
:102B000092E8030083E80300144B1B8801A900220C
:102B1000184601F09EFF039010E0104B1B881846EA
:102B200001F05FFF03461A460C4B1A800B4B1B88C3
:102B300001A90022184601F08CFF0390074B1B8867
:102B40004FF6FF72934202D0039B112BE5D100BFD9
:102B500005B05DF804FB00BFC8A70300103E0020CD
:102B600000B583B00190064B1B884FF6FF7293426D
:102B700001D0FFF7C1FF00BF03B05DF804FB00BF49
:102B8000103E002008B5FFF7A9FF034B01221A7081
:102B90000023184608BD00BF0E3E002000B58BB0D4
:102BA0000346ADF80630BDF80630184600F0F0FBDD
:102BB0000346ADF81E30BDF81E304FF6FF7293424B
:102BC00002D143F2020358E00123ADF82230002382
:102BD0008DF8213000238DF82130BDF822305A1CA9
:102BE000ADF822201A4603ABBDF81E00082101F003
:102BF00057FD0990099B002B35D1049B0693069B3A
:102C000003221A60069B991D069B1A1D069B1B68D2
:102C1000BDF80600FFF75AFF0990099B002B09D168
:102C2000BDF81E20BDF81E300821184601F0A6FE92
:102C300009901DE0099B0C2B03D101238DF8213055
:102C400004E0099B052B01D100230993BDF81E3038
:102C50000821184601F006FE0590059B002B07D0C1
:102C60000323099304E0099B072B01D10C2309934B
:102C70009DF82130002BADD1099B18460BB05DF8B3
:102C800004FB00B58BB00346ADF80630BDF8063046
:102C9000184600F07DFB0346ADF81430002308937E
:102CA0000023ADF81E300323069301238DF817305F
:102CB000BDF814304FF6FF72934216D002AABDF849
:102CC00014300821184601F0D5FC0990099B002B0F
:102CD0000BD1039B0493049B06330893049B9B88AE
:102CE000ADF81E30049B1B680693BDF81E20BDF88E
:102CF0000600069B0899FFF7E5FE0990099B042B47
:102D000002D11123099324E0099B082B02D100234F
:102D100009931EE0099B0B2B1BD100238DF8173064
:102D2000069B03F00203002B02D00123069310E060
:102D3000089B002B03D1BDF81E30002B07D00023C9
:102D400008930023ADF81E300323069301E003230C
:102D50000993099B0B2BC8D09DF8173083F0010312
:102D6000DBB2002B01D00B230993099B18460BB053
:102D70005DF804FB08B54FF6FF7001F032FE034624
:102D80001A46034B1A80FFF7B7FE00BF08BD00BF0D
:102D9000103E002000B589B00346ADF806300DF1B5
:102DA00017030493BDF80630184600F0F1FA034605
:102DB000ADF81E3003AABDF81E300121184601F0FF
:102DC00059FC0690069B002B01D0002301E0049BD8
:102DD0001B78184609B05DF804FB000000B585B00B
:102DE0000346ADF806304FF6FF73ADF80E301448C9
:102DF000FFF770FE0290029B002B01D003231AE024
:102E00000F4B1988BDF80E20BDF806301846FFF7A5
:102E100055FE0290029B43F20302934205D1084BF8
:102E20001B8801339AB2064B1A80029B43F20302BD
:102E30009342E5D0029B184605B05DF804FB00BF45
:102E4000123E002000B585B00346ADF80630084AB2
:102E500002AB92E8030083E8030002A9BDF8063044
:102E60000022184601F0F5FD00BF05B05DF804FB37
:102E7000D0A7030043DF704700BF184682B00D4B58
:102E800018221A70002301930DE00B49019A134692
:102E90005B0013449B000B4402334FF6FF721A8011
:102EA000019B01330193019B132BEED900BF02B0AC
:102EB000704700BF083F0020183E002000B585B0D5
:102EC00001900023039308E0074A039B52F8233044
:102ED00001989847039B01330393039B012BF3D97C
:102EE00000BF05B05DF804FBE0A7030000B583B0A8
:102EF000002301931AE01149019A13465B00134421
:102F00009B000B4402331A880D4B1B781946104660
:102F1000FEF7E6FE034683F00103DBB2002B02D08E
:102F2000019BDBB206E0019B01330193019B132B54
:102F3000E1D9FF23184603B05DF804FB183E0020DA
:102F4000083F002000B585B00346ADF80630144BAD
:102F50001A78BDF8063011461846FEF7C1FE034642
:102F6000002B18D00023039312E00E49039A134656
:102F70005B0013449B000B4402331B88BDF8062002
:102F80009A4202D1039BDBB206E0039B0133039319
:102F9000039B132BE9D9FF23184605B05DF804FB0A
:102FA000083F0020183E002000B585B00346009180
:102FB000ADF80630FF238DF80F30009B002B49D071
:102FC000BDF806304FF6FF72934243D0244B197878
:102FD000BDF8063001221846FEF7ACFEBDF80630FB
:102FE0001846FFF7AFFF03468DF80F309DF80F30FE
:102FF000FF2B04D1FFF77AFF03468DF80F309DF8C1
:103000000F30FF2B26D09DF80F20164913465B008A
:1030100013449B000B440233BDF806201A809DF830
:103020000F20104913465B0013449B000B444FF6DE
:10303000FF721A809DF80F200A4913465B00134463
:103040009B000B44009A04331068186091889279B1
:1030500099809A719DF80F30184605B05DF804FB11
:10306000083F0020183E002084B001900023039305
:103070000AE0019A039B13441B78002B01D0012323
:1030800006E0039B01330393039B0F2BF1D900232D
:10309000184604B0704700B583B001900091019BC1
:1030A000002B02D0009B002B01D100231BE0019BD1
:1030B0001B78C3F34603DAB2009B1B78C3F34603C5
:1030C000DBB29A4201D000230DE0019B581C009B0B
:1030D00001330622194605F066F90346002B0CBFA2
:1030E00001230023DBB2184603B05DF804FB30B5C2
:1030F00099B00190019B1B88102B40F08780019BA9
:103100000AAC1D1D0FCD0FC40FCD0FC40FCD0FC4C2
:103110002B6823604FF6FF73ADF85E309DF82C30BE
:1031200023F00103DBB2062B47D000F0C7FD9DF86A
:103130002C30C3F34603DBB2002B3DDB012B14DD47
:10314000022B2ED038E0089B03F111020AAB0433A6
:1031500011461846FFF79FFF0346002B05D0BDF828
:103160002630ADF85E3000BF27E007AA0DF1260338
:103170001946072000F0ACFD0346002BE3D11CE00C
:10318000089B5A1C0AAB04331146184600F09FFAFC
:103190000346002B05D0BDF82630ADF85E3000BFE9
:1031A0000BE007AA0DF126031946072000F090FD59
:1031B0000346002BE4D100E000BFBDF828200AAB95
:1031C000043319461046FFF7EFFE03468DF85D30D5
:1031D000BDF85E304FF6FF72934218D0BDF828302C
:1031E000BDF85E201146184600F0E4F9BDF828301D
:1031F000ADF80A30BDF85E30ADF80C3000238DF824
:10320000083002AB1846FFF759FE00E000BF19B0C6
:1032100030BD00B587B001900091019B113305933B
:10322000009B11330493019B581C009B0133102217
:10323000194605F0B8F80346002B11D1019B013364
:103240001846FFF711FF0346002B09D0009B0133FE
:103250001846FFF709FF0346002B01D0012300E0C9
:1032600000238DF80F309DF80F3003F001038DF827
:103270000F3004990598FFF70EFF03468DF80E30C6
:10328000059B1B7823F00103DBB2042B16D0059BB2
:103290001B7823F00103DBB2062B0FD0049B1B78B5
:1032A00023F00103DBB2042B08D0049B1B7823F02E
:1032B0000103DBB2062B01D0012300E000238DF8CF
:1032C0000D309DF80D3003F001038DF80D309DF8A1
:1032D0000E30002B03D09DF80D30002B0AD19DF845
:1032E0000F30002B08D09DF80D3083F00103DBB2C6
:1032F000002B01D0012300E0002303F00103DBB227
:10330000184607B05DF804FB00B587B001900B4686
:10331000ADF8023000F0D2FC10E0BDF81630BDF878
:1033200002209A420AD0049B19460198FFF771FFC8
:103330000346002B02D0BDF816300BE003AA0DF1B6
:1033400016031946072000F0C3FC0346002BE4D106
:103350004FF6FF73184607B05DF804FB08B5FFF79A
:103360008DFDFEF795FC03461A46074B1A70064B77
:103370001B78182B01D1032303E0044B01221A70A0
:103380000023184608BD00BF083F0020143E00205F
:1033900000B585B00346ADF80630BDF806301846D6
:1033A000FFF7D0FD03468DF80F309DF80F30FF2B4F
:1033B00009D09DF80F20074913465B0013449B007A
:1033C0000B441B8801E04FF6FF73184605B05DF80B
:1033D00004FB00BF183E002000B585B003460091F5
:1033E000ADF80630BDF806301846FFF7ABFD0346D2
:1033F0008DF80F309DF80F30FF2B12D09DF80F2065
:1034000000980A4913465B0013449B000B44024694
:1034100004331868106099889B7991809371002318
:1034200000E00523184605B05DF804FB183E0020B7
:1034300000B583B001900091019800F077F8034641
:1034400083F00103DBB2002B01D0002315E0019BC8
:103450001A88009B1B889A4201D000230DE0019B33
:10346000981C009B02330822194604F09CFF034677
:10347000002B0CBF01230023DBB2184603B05DF81C
:1034800004FB00B587B0019000F018FC14E0049B29
:10349000463319460198FFF7CBFF0346002B08D1AE
:1034A000049B2A3319460198FFF7C2FF0346002BFD
:1034B00002D0BDF816300BE003AA0DF11603194631
:1034C000072000F005FC0346002BE0D14FF6FF7308
:1034D000184607B05DF804FB84B00346ADF806302B
:1034E0000023039318E01049039A13465B0013442A
:1034F0009B000B441B88BDF806209A4209D10A495B
:10350000039A13465B0013449B000B4402331B8851
:1035100007E0039B01330393039B132BE3D94FF67F
:10352000FF73184604B07047183E002084B0019025
:10353000019B1B88002B01D0012312E00023039381
:103540000BE0019A039B134402331B78002B01D03C
:10355000012306E0039B01330393039B072BF0D960
:103560000023184604B0704700B585B003460A46EC
:10357000ADF806301346ADF80430BDF806301846F5
:10358000FFF7E0FC03468DF80F309DF80F30FF2B5E
:103590000AD09DF80F20064913465B0013449B0098
:1035A0000B44BDF804201A8000BF05B05DF804FB91
:1035B000183E002000B583B003460A46ADF8063039
:1035C0001346ADF80430BDF80420BDF806301146AE
:1035D0001846FFF7C9FF00BF03B05DF804FB00B554
:1035E00085B00346ADF80630BDF806301846FFF743
:1035F00073FF0346ADF80E30BDF80630184600F0F4
:10360000EDFF0290BDF80E304FF6FF72934209D0E5
:10361000029B002B06D1BDF80E304FF6FF71184605
:10362000FFF7A2FF029B184605B05DF804FB00B54A
:1036300095B0039002910192002313930DE0139B28
:10364000C3F10F03039A1344197805AA139B13447B
:103650000A461A70139B01331393139B0F2BEED959
:1036600005AB10330D220021184604F02CFF002377
:1036700012930DE0029A129B1A44129BC3F10F039E
:10368000127814A90B4403F82C2C129B01331293CB
:10369000129B022BEED905AB1846FFF7EBFB00237C
:1036A00011930DE0119BC3F10F020199119B0B4483
:1036B00014A90A4412F81C2C1A70119B013311939F
:1036C000119B022BEED900BF15B05DF804FB00B5CD
:1036D00087B001900091019B1B7823F00103DBB2BE
:1036E000042B01D000231FE0019B591C05AB0322D2
:1036F000184604F0BFFE019B191D03AB03221846B8
:1037000004F0B8FE009B04AA03A91846FFF78FFF38
:1037100004A905AB0322184604F045FE0346002B1E
:103720000CBF01230023DBB2184607B05DF804FB91
:1037300000B585B00190019B4FF6FF725A800023BF
:10374000039305E0064B01989847039B01330393CD
:10375000039B002BF6D000BF05B05DF804FB00BF53
:10376000D944030082B00346ADF80630BDF80630F8
:10377000A3F580439BB2184602B0704782B003465F
:10378000ADF80630BDF8063003F580439BB218460D
:1037900002B0704782B003468DF807309DF80730BD
:1037A0009BB2A3F580439BB2184602B0704782B02B
:1037B0000346ADF80630BDF80630DBB2184602B05D
:1037C000704782B00346ADF80630BDF80630B3F559
:1037D000404F07D3BDF806304FF6FF72934201D039
:1037E000012300E0002303F00103DBB2184602B01E
:1037F000704782B00346ADF80630BDF80630B3F529
:10380000404F07D3BDF806304FF6FF72934201D008
:10381000012300E0002303F00103DBB2184602B0ED
:10382000704782B003468DF807309DF80730072BAC
:1038300013D09DF80730012B0FD09DF80730082BCF
:103840000BD09DF80730052B07D09DF80730062BCD
:1038500003D09DF80730042B01D1012300E00023A1
:1038600003F00103DBB2184602B0704700B589B01F
:1038700003460091ADF8063003AB00221A605A608F
:103880009A60DA601A6107238DF80C30BDF80630B3
:10389000ADF81030009B059303AB1846FFF748FFC7
:1038A00000BF09B05DF804FB00B589B001AB082288
:1038B0000021184604F007FE4FF6FF7001F036FABB
:1038C0000346ADF81E300CE0BDF81E30184601F07E
:1038D0007FF9BDF81E30184601F028FA0346ADF80E
:1038E0001E30BDF81E304FF6FF7293420ED0BDF869
:1038F0001E301846FFF736FF0346184601AA03ABF1
:103900001946F5F71AFB03460A2BDDD01A4B1B7834
:1039100083F00103DBB2002B29D0BDF81E304FF637
:10392000FF72934223D0144B01221A70BDF81E304F
:103930001846FFF717FF0346ADF81C30BDF81C30E2
:103940001846F5F769FA0690069B082B03D10B4B36
:1039500001221A700BE0069B002B08D0064B0022B8
:103960001A70BDF81E3006991846FFF77FFF00BF9A
:1039700009B05DF804FB00BF0B3F00200A3F0020A8
:1039800000B587B003460092ADF806300B468DF8BF
:1039900005309DF805301846FFF743FF02AB0822BB
:1039A0000021184604F08FFDBDF806301846FFF7D9
:1039B000D9FE0346ADF816309DF805301846FFF7DE
:1039C000E9FE0346ADF8143002ABBDF81410BDF8A3
:1039D0001600009AF5F788FA0490049B002B01D09A
:1039E000052300E00023184607B05DF804FB00B58E
:1039F00089B06B4608220021184604F064FD0720B8
:103A0000FFF7C8FE0346ADF81E3016E002AA04AB6D
:103A100011461846F5F7CEF8029B9B881846FFF72B
:103A2000ADFE0346ADF81C3004AB1846F5F7FEF8C2
:103A3000BDF81C30184601F093F86A4604A9BDF899
:103A40001E301846F5F766FA0346002BDED000BF9D
:103A500009B05DF804FB000000B589B0019003AB2C
:103A600000221A605A609A60DA601A61019B9B8991
:103A70001846FFF783FE0346ADF81030019B1B7814
:103A8000013B042B7ED801A252F823F0A13A030097
:103A9000A13A0300A13A03001B3B03006D3B030066
:103AA000019B9B891846FFF78CFE0346002B07D12C
:103AB000019BDB891846FFF79CFE0346002B63D071
:103AC000019BDB891846FFF772FE03468DF8143020
:103AD000019B1B78032B0CBF01230023DBB28DF865
:103AE0001530019B9B680693019B5B68002B09D1F5
:103AF00008238DF80C309DF81C3043F001038DF83D
:103B00001C3005E009238DF80C30019B5B6807939E
:103B100003AB1846FFF70CFE36E0019B9B89184665
:103B2000FFF74FFE0346002B30D0019BDB89002BB3
:103B30002CD1019B5B68002B08D10A238DF80C3037
:103B4000BDF81030184601F043F802E00B238DF861
:103B50000C30154B00221A70144B00221A70FFF71C
:103B6000A3FE03AB1846FFF7E3FD0FE013238DF828
:103B70000C304FF6FF73ADF8103003AB1846FFF76B
:103B8000D7FD04E000BF02E000BF00E000BF064B2D
:103B90001B78002B04D0044B00221A70FFF784FE20
:103BA00000BF09B05DF804FB0A3F00200B3F002076
:103BB00000B583B00E48F4F701FF0190019B002B84
:103BC00001D003230FE0F4F767FF0190019B002B66
:103BD00001D0862307E000F05BFFFFF708FF054BED
:103BE00001221A700023184603B05DF804FB00BFE1
:103BF000593A0300093F002000B58DB002920193AD
:103C00000346ADF80E300B468DF80D30BDF80E3082
:103C1000FF2B01D907234DE09DF80D301846FFF723
:103C200000FE034683F00103DBB2002B01D0072323
:103C300040E007AA9DF80D10BDF80E301846FFF7BA
:103C40009FFE0B900B9B002B01D0052332E005AAB1
:103C500007AB11461846F4F7ADFF0B900B9B002BFA
:103C600001D0052326E0029B9DF80D209A70059B4C
:103C70005A88029B1A80019B002B03D1069A029B53
:103C80005A6012E0029B1B889B000A93019B1B68F1
:103C90000A9A9A4207D8029B5B6806990A9A1846C4
:103CA00004F0E8FB01E0042304E007AB1846F4F756
:103CB000BDFF002318460DB05DF804FB08B50822CF
:103CC0000021024804F0FFFB00BF08BD0C3F0020AC
:103CD00000B58DB00346029101928DF80F309DF82A
:103CE0000F301846FFF79DFD034683F00103DBB25A
:103CF000002B01D0012338E09DF80F301846FFF764
:103D000049FD0346ADF82E3007A9BDF82E30194AFB
:103D10001846F5F7FFF80346002B01D0002324E0F6
:103D200005AA07AB11461846F4F744FF0A900A9B10
:103D3000002B01D0002318E0019B9DF80F209A7002
:103D4000059B5A88019B1A80069A019B5A60059B25
:103D50009B881846FFF712FD03461A46029B1A80FD
:103D600007AB1846F4F762FF012318460DB05DF863
:103D700004FB00BF0C3F002000B585B0019000910E
:103D8000019B9B781846FFF74CFD034683F0010327
:103D9000DBB2002B01D0072314E0019B1B881946DE
:103DA0000098F4F78BFF0390039B072B07D0092B98
:103DB00003D0002B05D1002304E0092302E0862371
:103DC00000E00323184605B05DF804FB00B585B09C
:103DD000019001AB1846F4F7A1FF0390039B002B61
:103DE00001D0032300E00023184605B05DF804FB72
:103DF00000B58DB00291019200930346ADF80E30EC
:103E0000BDF80E30FF2B01D9072382E0029B9B787F
:103E10001846FFF706FD034683F00103DBB2002BD3
:103E200001D0072375E0BDF80E301846FFF79AFC65
:103E30000346ADF82030029B9B781846FFF7AAFC9A
:103E40000346ADF82230029B5B680993029B1B88F6
:103E50000A93029B997805AABDF80E301846FFF721
:103E60008FFD0B900B9B052B12D1019B002B07D1D3
:103E700008AA05AB11461846F4F796FF0B9015E01B
:103E800001AA08A905AB1846F4F79DFF0B900DE0B9
:103E9000019B002B03D001AB1846F4F73FFF08AAA3
:103EA00005AB11461846F4F7A3FF0B900B9B0E2BA6
:103EB0002ED801A252F823F0F53E0300113F030073
:103EC000113F0300113F0300113F0300113F0300A6
:103ED000113F03000D3F0300093F0300113F0300A2
:103EE000113F0300113F0300113F0300113F030086
:103EF000093F0300009B002B04D005AB0099184636
:103F0000F5F72EF8002304E0112302E0862300E0F9
:103F1000032318460DB05DF804FB00BF08B54FF64B
:103F2000FF7000F01DFE0346184608BD00B583B0C3
:103F30000346ADF80630BDF80630FF2B01D9072344
:103F400007E0BDF80630184600F01CFEFFF7ACFC99
:103F50000023184603B05DF804FB00B583B00346A8
:103F6000ADF80630BDF80630184600F04BFE0346AB
:103F7000184603B05DF804FB00B583B00346ADF806
:103F80000630BDF80630184600F09CFE0346184681
:103F900003B05DF804FB00B583B00346ADF806300E
:103FA000BDF80630184600F0C1FE0346184603B0BF
:103FB0005DF804FB82B00190019B4FF6FF721A80FE
:103FC000019BFF229A70019BFF225A73019A937BF7
:103FD0006FF341039373019A937B6FF30003937321
:103FE000019B00221A73019B00225A60019B002250
:103FF0009A6000BF02B0704784B003460091ADF8EC
:104000000630009B1B68039313E00D4A039B1B01C2
:1040100013441B88BDF806209A4207D1009B039ADF
:104020001A60039B1B01064A134406E0039B0133FD
:104030000393039B072BE8D90023184604B070476D
:10404000283F002000B585B003460A46ADF806308B
:1040500013468DF805300023029302AABDF80630FE
:1040600011461846FFF7C8FF03900AE0029B013390
:10407000029302AABDF8063011461846FFF7BCFFAE
:104080000390039B002B17D0039B9B789DF8052082
:104090009A42EBD1039B9B7B03F00203DBB2002B24
:1040A000E4D1039B9B7B03F00103DBB2002BDDD14A
:1040B000039B9B68002BD9D1039B184605B05DF884
:1040C00004FB000084B001900023039310E00C4A2D
:1040D000039B1B01134408331B68019A9A4204D1C5
:1040E000039B1B01064A134406E0039B0133039321
:1040F000039B072BEBDD0023184604B0704700BF7D
:10410000283F002008B5FF214FF6FF70FFF79AFF08
:104110000346184608BD000000B585B00190002395
:1041200003930CE0019B5A7B039BDBB21344DBB28D
:104130001946094801F067FA039B01330393019B79
:104140001B7B1A46039B9342ECD30198FFF732FF87
:1041500000BF05B05DF804FB183F002000B583B038
:1041600001900B46ADF8023013468DF80130019BEB
:10417000002B13D0FFF7C6FF0246019B1A60019B7C
:104180001B68002B0CD0019B1B68BDF802201A8015
:10419000019B1B689DF801209A7002E000BF00E0BF
:1041A00000BF03B05DF804FB00B585B001900023AB
:1041B000039308E0074A039B52F82330019898477D
:1041C000039B01330393039B032BF3D900BF05B07B
:1041D0005DF804FBE8A7030000B583B0002301935A
:1041E00009E0019B1B01074A13441846FFF7E2FE52
:1041F000019B01330193019B072BF2D900BF03B050
:104200005DF804FB283F002086B0039001921A4617
:104210000B468DF80B301346ADF80830BDF808306A
:104220001A46920013441B01ADF81630039B9DF80B
:104230000B209A70039B019A5A60BDF81630033325
:104240009B109AB2039B1A8000BF06B0704700B55E
:1042500085B00390019200930B468DF80B30009BC4
:104260009BB29DF80B10019A0398FFF7CDFF00BF9A
:1042700005B05DF804FB000082B00190019B9B78C3
:10428000013B072B27D801A252F823F0B5420300C7
:10429000D7420300D7420300D7420300D7420300AE
:1042A000BD420300AD420300C5420300019B14223E
:1042B0001A8011E0019B01221A800DE0019B01226E
:1042C0001A8009E0019B5B689B8809339B089AB2BE
:1042D000019B1A8000E000BF00BF02B0704700BF22
:1042E00000B587B001900023059302AB00221A604D
:1042F0005A60019B9B788DF80A30019B5B7B1946C5
:104300003A4801F04EF90490049B002B01D103239D
:1043100067E0019B9978019B1B7B02A8049AFFF739
:1043200096FF02AB1846FFF7A7FF019B1888019B79
:104330005A68019B083302A9FFF75AFD0590019BBB
:104340009B7B03F00203DBB2002B0BD0019B9B7B1A
:1043500003F00103DBB2002B04D0254B1B68013BAB
:10436000234A1360059B072B39D0072B02D8002B5B
:1043700005D031E0112B0DD0862B1DD02CE0019AF9
:10438000937B6FF341039373019A937B6FF3000365
:10439000937325E0164B1B680133154A1360019A8D
:1043A000937B43F002039373019A937B6FF30003B3
:1043B00093730023059313E00D4B1B6801330C4AE4
:1043C0001360019A937B6FF341039373019A937B7C
:1043D00043F00103937303E00323059300E000BF60
:1043E000059B184607B05DF804FB00BF183F00208E
:1043F000A83F002000B589B001900198FFF770FF39
:104400000790079B002B19D04FF6FF73ADF80A30C9
:10441000019B1B88ADF80C30079B862B03D106232C
:104420008DF8083004E007238DF80830079B0493CB
:1044300002AB1846FFF7B8FE002300E00123184640
:1044400009B05DF804FB000000B585B003468DF8A7
:1044500007301F4B1B68002B34D0002303932DE043
:104460001C4A039B1B01134408339B79C3F340038D
:10447000DBB2002B0ED1174A039B1B0113440833F8
:104480009B79C3F30003DBB2002B14D09DF80730F7
:10449000002B10D0039B1B010E4A13441846FFF754
:1044A000A9FF03468DF80B309DF80B3083F0010314
:1044B000DBB2002B08D1039B01330393039B072B33
:1044C000CED902E000BF00E000BF05B05DF804FBFC
:1044D000A83F0020283F002000B585B001900123AF
:1044E0008DF80F3000238DF80E30019BDB681846E5
:1044F000FFF7E8FD0290019B1B78092B0FD0132BCF
:1045000025D0082B00D029E0019B5B7A002B22D11B
:10451000029B002B1FD00298FFF7FEFD1BE0019BC2
:104520005B7A002B19D1029B002B16D0134B1B6812
:104530000133124A1360029B00229A60029A937B15
:1045400043F00203937300238DF80F3005E001233D
:104550008DF80E3002E000BF00E000BF9DF80F3084
:10456000002B02D00198FFF71FFE9DF80E30184671
:10457000FFF76AFF00BF05B05DF804FBA83F00200D
:1045800000B587B0FFF728FE50230293082301935C
:10459000012300930A4B4FF420720A490A4800F0A5
:1045A0005DFF0590059B002B01D0032303E0074B23
:1045B00001221A700023184607B05DF804FB00BF03
:1045C0002C420020AC3F0020183F0020143F002068
:1045D00008B5FFF7A3FC0346184608BD00B587B031
:1045E0000346ADF806300023039300230593002310
:1045F000029302AABDF8063011461846FFF7FCFCEC
:1046000004901BE0049B9A78BDF8063011461846CA
:1046100000F028F90390039B002B04D0039B052B8B
:1046200001D003230593029B0133029302AABDF834
:10463000063011461846FFF7DFFC0490049B002B60
:10464000E0D1059B002B10D1BDF806301846FFF7CE
:104650006DFC0390039B002B07D0039B072B02D11B
:104660000723059301E003230593059B184607B034
:104670005DF804FB00B583B003460092ADF8063048
:104680000B468DF805309DF80510BDF80600002397
:10469000009AFFF7B1FA0346184603B05DF804FB31
:1046A00010B588B0029201930346ADF80E300B4668
:1046B0008DF80D30019B002B01D10E23CCE09DF82D
:1046C0000D30072B05D09DF80D30082B01D00723A6
:1046D000C2E0029B002B0DD0029B082B0AD8BDF82C
:1046E0000E301846FFF739FC034683F00103DBB2B6
:1046F000002B01D00723AFE000238DF81F300023EB
:104700008DF81E309DF80D20BDF80E30114618466C
:10471000FFF798FC03460593059B002B03D101236B
:104720008DF81E3045E0059B1B7B1A46029B934289
:1047300020D900238DF81D300EE0059B5A7B9DF893
:104740001D301344DBB21946454800F05CFF9DF86C
:104750001D3001338DF81D30059B1B7B9DF81D20FE
:104760009A42EAD3059B1846FFF724FC01238DF8F3
:104770001E301EE0059B1B7B1A46029B934218D2FB
:10478000029B8DF81C300EE0059B5A7B9DF81C3077
:104790001344DBB21946324800F035FF9DF81C3057
:1047A00001338DF81C30059B1B7B9DF81C209A4221
:1047B000EAD39DF81E30002B0CD09DF80D20BDF8DB
:1047C0000E1005AB1846FFF7C9FC059B002B01D165
:1047D000112341E0059B5B7BFF2B13D1059C0299C4
:1047E0001F4800F078FE03466373059B5B7BFF2B3D
:1047F00005D1059B1846FFF7DDFB11232CE00123B3
:104800008DF81F30059B029AD2B21A73059B5B7B11
:104810001946134800F0C5FE0690069B002B01D1F7
:10482000032319E0029B9BB29DF80D10069A019894
:10483000FFF7EAFC9DF81F30002B0CD09DF80D30DF
:10484000082B08D1019B1B889B009AB2019B5B68D7
:10485000063A92B29A800023184608B010BD00BFF5
:10486000183F002000B585B003460A46ADF8063073
:1048700013468DF80530002303939DF80520BDF8FD
:10488000063011461846FFF7DDFB0290029B002B15
:1048900001D1052312E0029B5B68002B0AD0029B2A
:1048A0005B681846FFF792FA0390039B002B01D038
:1048B000032303930298FFF72FFC039B184605B0D0
:1048C0005DF804FB00B589B003460A46ADF8063032
:1048D00013468DF805309DF80530072B05D09DF85F
:1048E0000530082B01D0072341E0002307939DF8F2
:1048F0000520BDF8063011461846FFF7A3FB0690C9
:10490000069B002B01D1052331E0069B5B68002B41
:104910002CD1069B5B7B1946174800F042FE0590A0
:1049200003AB00221A605A609DF805308DF80E30F6
:10493000059B002B01D1032319E0069B1B7B9DF8EF
:10494000051003A8059AFFF782FC03AB1846FFF792
:1049500093FC069B1A1D03AB11461846FFF70CFA91
:104960000790079B092B01D1032300E0079B184602
:1049700009B05DF804FB00BF183F002000B585B00A
:104980000346ADF806300B468DF805301346ADF8FA
:1049900002309DF80530072B05D09DF80530082B17
:1049A00001D0072319E09DF80520BDF80630114617
:1049B0001846FFF747FB0390039B002B01D105230B
:1049C0000BE0039BBDF802201A80039B9DF8052095
:1049D0009A700398FFF784FC0346184605B05DF80B
:1049E00004FB00B583B00346ADF80630BDF80630D1
:1049F0001846FFF7C1FA0346184603B05DF804FBFA
:104A000000B583B00346ADF80630BDF80630184651
:104A1000FFF7C1FA0346184603B05DF804FB00B582
:104A200085B003460092ADF806300B468DF8053090
:104A3000009B1B889B00039303AB9DF80510BDF8FA
:104A40000600009AFFF7D8F80346184605B05DF84F
:104A500004FB00B585B0034602910192ADF80E301B
:104A6000BDF80E00019B00220299FFF7C1F9034631
:104A7000184605B05DF804FB00B583B001904022F4
:104A80000021019803F01FFD00BF03B05DF804FB97
:104A900008B50748FFF7F0FF4FF48071044800F0B5
:104AA00017FE4FF48071034800F012FE00BF08BDEE
:104AB000304200205042002000B585B003460091EE
:104AC000ADF806304FF6FF73ADF80E30BDF8063086
:104AD0004FF6FF72934211D14FF48071009800F0AD
:104AE00075FE0346ADF80E30BDF80E30B3F5807F8D
:104AF0001CD14FF6FF73ADF80E3017E0BDF806304D
:104B0000FF2B13D8BDF806301946009800F0F6FDCB
:104B100003468DF80D309DF80D30002B02D0BDF806
:104B2000063001E04FF6FF73ADF80E30BDF80E30E1
:104B3000184605B05DF804FB00B583B0034600914C
:104B4000ADF80630BDF80630FF2B05D8BDF80630AD
:104B50001946009800F0F4FD00BF03B05DF804FBB7
:104B600000B583B00346ADF80630BDF80630044901
:104B70001846FFF7A1FF0346184603B05DF804FB93
:104B80003042002000B585B00346ADF80630BDF8D0
:104B900006304FF6FF72934201D1002311E0BDF8B9
:104BA00006300A491846FFF787FF0346ADF80E3076
:104BB000BDF80E20BDF806309A420CBF0123002339
:104BC000DBB2184605B05DF804FB00BF5042002080
:104BD00000B583B00346ADF80630BDF8063007498E
:104BE0001846FFF7A9FFBDF8063005491846FFF73C
:104BF000A3FF00BF03B05DF804FB00BF30420020FC
