:020000022000DC
:1030000000000120393202009132020093320200A6
:10301000953202009732020099320200000000004F
:103020000000000000000000000000009B320200D1
:103030009D320200000000009F320200A132020017
:10304000ED9D0200A7320200D1BE0200AB320200A9
:10305000AD320200AF320200A5A80200B332020076
:10306000B5320200B7320200B9320200BB320200B0
:10307000BD320200BF320200C1320200C332020080
:10308000C5320200A5520200C9320200CB32020052
:10309000E5520200CF320200115A0300D33202007F
:1030A000D5320200D7320200D9320200DB320200F0
:1030B000DD320200DF320200A3320200A33202003E
:1030C000E1320200E3320200E5320200E7320200A0
:0C30D000E9320200EB320200ED32020097
:1030DC00354936480A1A02D0072291438D463449A5
:1030EC0034480A1A06D00722914381F30988022238
:1030FC0082F3148830483149314A00F044F83148A1
:10310C003149324A00F03FF831483249324A00F036
:10311C003AF832483249334A00F035F832483349EC
:10312C00334A00F030F833483349344A00F02BF876
:10313C0033483449344A00F026F8344834490022E4
:10314C0000F02CF833483449002200F027F83348BB
:10315C003349091A082902DB002202604160314A16
:10316C0090471F481F49884205D00268043003B4B9
:10317C00904703BCF7E700208646EC460020002170
:10318C00294A9047FEE7884207D0521A05D00378A7
:10319C0001300B700131013AF9D17047884202D0ED
:1031AC0002700130FAE770470000012000F800209F
:1031BC00000001200000012094870300442A002015
:1031CC00842D0020F0320200F0320200D869030096
:1031DC0094870300442A0020442A0020586B0300E3
:1031EC00586B0300586B0300586B0300586B0300BB
:1031FC00586B0300586B0300586B03009487030053
:10320C00D48A0300842D0020842D0020842D0020DE
:10321C006C4300206C4300206C4300206C43002066
:10322C006C4500205D32020051DA02000F484FF06D
:10323C000701884385460E4880470E48016841F4D3
:10324C0070010160BFF34F8FBFF36F8FFFF740BF6B
:10325C0009480A490A4A884207D0521A05D003780D
:10326C0001300B700131013AF9D170470000012097
:10327C00B14E030088ED00E0B46A0300A0290020E1
:10328C00442A0020FEE7FEE7FEE7FEE7FEE7FEE746
:10329C00FEE7FEE7FEE7FEE7FEE7FEE7FEE7FEE7FA
:1032AC00FEE7FEE7FEE7FEE7FEE7FEE7FEE7FEE7EA
:1032BC00FEE7FEE7FEE7FEE7FEE7FEE7FEE7FEE7DA
:1032CC00FEE7FEE7FEE7FEE7FEE7FEE7FEE7FEE7CA
:1032DC00FEE7FEE7FEE7FEE7FEE7FEE7FEE7FEE7BA
:0432EC00FEE700BF3A
:1032F00008B50BF057F800BF08BD00B589B00390C2
:1033000002910192019B002B22D0002307930A23F4
:103310000693029A079B1344019A194600200AF06B
:10332000F3FF0590079A059B13440793019A059BA9
:10333000D31A0193059B002B05D1069B013B0693F5
:10334000069B002B03D0019B002BE2D100E000BFC5
:1033500000BF09B05DF804FB00B585B00390029191
:10336000054B00934023054A0299039800F012F898
:1033700000BF05B05DF804FBFB320200842D002085
:1033800082B0019000BF02B0704782B0019000BFD0
:1033900002B0704700B5A1B005900491039202936A
:1033A000049805F056FB039B1593029B169300238C
:1033B000179300238DF8603000231993229B1A93F2
:1033C00000231F930FA91F9B0822049805F0FCFB04
:1033D00008231F93119B1293109B9BB2ADF84C30A6
:1033E00000238DF850309DF83C3003F00303DBB22E
:1033F000012B32D10F9BC3F395231D939DF83C30D5
:10340000C3F3C203DBB28DF84E309DF83C30C3F3FA
:103410008003DBB2002B14BF01230023DBB28DF845
:103420004F30BDF83C30C3F38313DBB21C931C9BBD
:103430009A0009A91F9B049805F0C6FB1C9B9B00E2
:103440001F9A13441F9312AA09A915AB00931346A0
:103450001C9A1D9800F08AFE3BE09DF83C3003F07A
:103460000303DBB2022B34D1BDF83E30C3F3891322
:103470009BB21E939DF83C30C3F3C203DBB28DF8C0
:103480004E309DF83C30C3F38003DBB2002B14BFF9
:1034900001230023DBB28DF84F301E9B082B28BF81
:1034A00008231B9307A91F9B1B9A049805F08CFB0C
:1034B0001F9A1B9B13441F931E9A1B9BD31A1E9388
:1034C00015AB12AA07A81B9900F0F2FE1E9B002B59
:1034D000E3D1049805F0CCFA00BF21B05DF804FBFD
:1034E00082B00190019B01225A7200BF02B0704766
:1034F00000B583B04FF0FF330193FFF7F9FE0421CD
:10350000084800F06DFD0190019B002B03DA06498D
:10351000412009F06FFA0348FFF7E2FF00BF03B054
:103520005DF804FB442A0020646B030000B583B0FF
:1035300001900091019B1B681B68009901989847B6
:1035400000BF03B05DF804FB00B583B00190019BA0
:103550001B685B680198984700BF03B05DF804FBE7
:1035600082B001900B468DF80330019B9DF803203B
:103570001A7200BF02B0704782B00190019B1B7AA3
:10358000184602B0704782B00190019B01225A7226
:1035900000BF02B0704782B00190019B5B7A184671
:1035A00002B0704710B487B001900091019B009A5F
:1035B00053E8004F44EA020043E8000191F0000F95
:1035C000F6D1059404900391049B184607B05DF86A
:1035D000044B704710B487B001900091019B009A92
:1035E00053E8004F04EA020043E8000191F0000FA5
:1035F000F6D1059404900391059B184607B05DF839
:10360000044B704700B583B0019001210198FFF78A
:10361000C9FF0346184603B05DF804FB00B583B04C
:10362000019000210198FFF7D5FF0346184603B02B
:103630005DF804FB00B587B001901F4BFF229A6034
:103640001D4B00221A601C4B00225A601A4B0022AC
:10365000C3F81824184B0022C3F81424164B002278
:1036600083F81C24154805F059F90490049B002B9D
:1036700001D0049B1CE0124A124BD31ADB080393BF
:10368000002305930FE0059A13465B0013449B004B
:103690001A460D4B13440293059B9AB2029B1A8063
:1036A000059B01330593059A039B9A42EBD30023B4
:1036B000184607B05DF804FB942E0020F46B03005D
:1036C0008C6A03002C6A0300A0290020024A034BE5
:1036D000D31ADB08184670478C6A03002C6A030073
:1036E00000B587B001900B468DF803309DF803308C
:1036F000002B23D0FFF7EAFF04900023059317E087
:10370000059A13465B0013449B001A460E4B134464
:103710000393039B5B881A46019B1B689A4204D162
:10372000019B059A1A60002309E0059B013305936C
:10373000059A049B9A42E3D3052300E00023184630
:1037400007B05DF804FB00BFA029002000B585B0DC
:1037500001900B468DF803309DF8032001AB114614
:103760001846FFF7BDFF0346002B07D1019BDB0086
:10377000054A13440393039B1B6800E0002318468B
:1037800005B05DF804FB00BF2C6A030084B0019013
:103790000B468DF80330019BDB00174A134402935C
:1037A0009DF80330013B032B1CD801A252F823F0F3
:1037B000C1370200C9370200D1370200DB370200EF
:1037C00002238DF80F3011E004238DF80F300DE047
:1037D000029B1B798DF80F3008E0029B5B798DF816
:1037E0000F3003E000238DF80F3000BF9DF80F303D
:1037F000184604B0704700BF2C6A030000B589B0BA
:103800004148FFF7FFFE4148FFF7FCFE404B5B6875
:1038100007933F4B9B680493079A049B1340023322
:103820009B003B4A1344043306931BE0079B013380
:103830000793069B5B88C3F389139BB21A46069BCA
:103840001B88C3F389139BB213441A46079B134486
:103850000793079A049B134002339B002C4A13449E
:1038600004330693069B1B7803F00303DBB2002BA3
:10387000DCD00023059311E0079B5A1C0792049AA1
:103880001340059A920069460A44214902339B007D
:103890000B445B681360059B01330593059B012B6B
:1038A000EAD99DF80030C3F30103DBB2012B0CD041
:1038B000022B14D1BDF80230C3F389139BB203333A
:1038C0009B08079A134407930FE0BDF80030C3F339
:1038D0008313DBB21A46079B1344079305E00D4997
:1038E00040F24D1009F086F800BF0848FFF796FE39
:1038F0000390039B002B02D0054A079B536000BF37
:1039000009B05DF804FB00BFAC320020A8320020F3
:10391000942E0020186C030010B586B0039002911D
:1039200001920093039B1B0CADF81630BDF81640B6
:10393000FFF7CCFE03469C4204D323494FF4B270F8
:1039400009F058F8009B5A1C089B1340BDF816203C
:103950001E4902339B000B445A60009A089B134097
:1039600002339B00194A134404330493039B1B093D
:1039700003F00103D9B2049A137861F38203137040
:10398000039B03F00703D9B2049A137861F3C503CC
:103990001370019B03F00F03D9B2049A138861F3EB
:1039A00089131380029BC3F31501049A136861F312
:1039B0009F231360049A1378012161F301031370AC
:1039C00000BF06B010BD00BF186C0300942E00208D
:1039D00000B58BB001900091019B02330893022344
:1039E000079301238DF81B3000238DF80F300DF164
:1039F0000F03184601F0A6FD214B1A68009B1A60C0
:103A00001F4B9A681E4B59681D4B1B68CB1A1344F9
:103A100001330993089A079B134405930BE0FFF7C2
:103A2000EDFE174B9A68164B5968154B1B68CB1A5D
:103A3000134401330993059A099B9A42EFD8104B1E
:103A40001A680F4B9B68134002339B000C4A1344C7
:103A500004330493049A137843F003031370084B60
:103A60001A68089B1344064A13609DF80F301846E5
:103A700001F07EFD9DF81B3018460BB05DF804FB8D
:103A8000942E002000B58BB0059004910392029310
:103A90001F4B9B68079306AB19460298FFF798FFE8
:103AA0000346002B24D0069B02330993002308937E
:103AB00011E0089B9B00039A1A44099B591C099129
:103AC00007990B401268124902339B000B445A605D
:103AD000089B01330893089A029B9A42E9D3069AFD
:103AE000079B00931346029A04990598FFF714FF69
:103AF000074B93F81C34002B05D000BF00F07AF878
:103B00000346002BFAD100BF0BB05DF804FB00BFE9
:103B1000942E002000B583B0019000910023002274
:103B200000990198FFF7AEFF00BF03B05DF804FBFA
:103B300000B587B0039002910192019B059305AAFD
:103B4000012302990398FFF79DFF00BF07B05DF8BE
:103B500004FB00B587B00390029101920093019B92
:103B60000493009B059304AA022302990398FFF78C
:103B700089FF00BF07B05DF804FB00B589B0039072
:103B8000029101920093019B0593009B06930A9B6F
:103B9000079305AA032302990398FFF773FF00BF59
:103BA00009B05DF804FB00B589B003900291019261
:103BB0000093019B0493009B05930A9B06930B9B28
:103BC000079304AA042302990398FFF75BFF00BF41
:103BD00009B05DF804FB0000054B5A68044B1B68F4
:103BE0009A420CBF01230023DBB21846704700BF86
:103BF000942E002000B599B0FFF7EEFF0346002B8E
:103C000001D00023B2E1AB4B0022C3F81824BFF36C
:103C10004F8FA84B5B681793A64B9B681093179A1E
:103C2000109B134002339B00A24A134404331693A3
:103C3000002315930023149300230F931BE0179B7D
:103C400001331793169B5B88C3F389139BB21A4603
:103C5000169B1B88C3F389139BB213441A46179B08
:103C600013441793179A109B134002339B00914AF9
:103C7000134404331693169B1B7803F00303DBB243
:103C8000002BDCD00023139311E0179B5A1C1792D2
:103C9000109A1340139A920002A90A4485490233EC
:103CA0009B000B445B681360139B01331393139BBE
:103CB000012BEAD99DF8083003F00303DBB2022B95
:103CC00040F09C80BDF80A30C3F389139BB20E9379
:103CD000BDF80A30C3F389139BB2502B28BF502381
:103CE0009BB20D930D9BC3F309039AB2BDF80A3042
:103CF00062F38F13ADF80A300D9B08330C939DF8D7
:103D00000830C3F3C203DBB20F930C996A4804F086
:103D100010FE1590159B002B00F0E080159804F024
:103D200098FE02A9149B0822159804F03BFF149BEF
:103D300008331493179BDA43109B134001339B0005
:103D40000B930D9A0B9B9A4242D90B9B002B08D0E8
:103D5000179A109B134002339B00564A13440433B6
:103D600000E0564B0A930B9B002B02D00B9BDBB25F
:103D700001E00D9BDBB28DF827300B9B002B01D0AF
:103D80004E4B00E0002308930B9B002B06D00D9BAD
:103D9000DAB20B9BDBB2D31ADBB200E000238DF862
:103DA0001F309DF82720149B0A99159804F0FAFEFD
:103DB0009DF82730149A13441493089B002B16D0B7
:103DC0009DF81F20149B0899159804F0EBFE0EE057
:103DD000179A109B134002339B00364A1344043356
:103DE0000693149B0D9A0699159804F0DBFE0E9B22
:103DF00003339B08179A134417936FE09DF808301C
:103E000003F00303DBB2012B5AD1BDF80830C3F332
:103E10008313DBB2062B28BF0623DAB2BDF80830C5
:103E200062F38913ADF80830BDF80830C3F383138B
:103E3000DBB2023305939DF80830C3F3C203DBB253
:103E40000F93059B9B0019461B4804F072FD1590CB
:103E5000159B002B42D0159804F0FBFD02A9149B82
:103E60000822159804F09EFE149B08331493002337
:103E7000139314E0179B5A1C1792109A13400233A5
:103E80009B000C4A1344191D149B0422159804F03E
:103E900089FE149B04331493139B01331393BDF8D1
:103EA0000830C3F38313DBB21A46139B9342E1D36A
:103EB00014E000BF942E0020F46B0300A02E00201D
:103EC0009DF8083003F00303DBB2032B06D1294B26
:103ED000D3F81834002B01D1002347E0159B002BA9
:103EE0003ED0244BD3F810341293224BD3F818341D
:103EF000002B1AD0159804F0BBFD31E000238DF89B
:103F000047301298FFF747FB0346002B02D00123EE
:103F10008DF847309DF84730002B03D01599129843
:103F2000FFF704FB129B5B681293129B002BE5D1F9
:103F3000159804F09DFD00238DF807300DF107035F
:103F4000184601F0FFFA0B4BD3F81834002B02D1BE
:103F5000084A179B53609DF80730184601F008FB8C
:103F6000FFF73AFE034683F00103DBB2184619B0AF
:103F70005DF804FB942E002000B585B00023039368
:103F800022E0164BD3F81034029301238DF807304A
:103F90000EE00298FFF7F0FA03461A46039B93429D
:103FA00003D100238DF8073005E0029B5B68029384
:103FB000029B002BEDD19DF80730002B01D0039B15
:103FC00007E0039B01330393039B092BD9DD4FF0DB
:103FD000FF33184605B05DF804FB00BF942E0020A7
:103FE00000B585B001900B468DF80330FFF7C4FF94
:103FF0000390039BB3F1FF3F01D1039B1EE0039BA2
:10400000DBB219460198FFF7ABFA0E4BD3F8103428
:10401000002B07D10B4A019BC2F81034019B0022F0
:104020005A600AE0074BD3F810345A68019B5A6073
:10403000044BD3F81034019A5A60039B184605B01C
:104040005DF804FB942E002000B583B00C4BD3F830
:10405000103401930A4B012283F81C2408E00198D4
:10406000FFF791FA0198FFF76FFA019B5B680193E4
:10407000019B002BF3D100BF03B05DF804FB00BF30
:10408000942E002010B582B001900091019BDB7945
:1040900083F00103DBB2002B28D0019B1B7A002B9D
:1040A00012D0019B9B881A46019B9B7919461046AA
:1040B000FFF76CFB03461A460E4B53F822301A46A4
:1040C0000D49009803F0D4FB019B9B791A460B4BDA
:1040D00053F82240019B9B8800211846FFF736FBCE
:1040E000034622460649009803F0C2FB00BF02B017
:1040F00010BD00BF642A0020086D0300502A002074
:104100000C6D030000B585B00390029113468DF845
:104110000730039BDB7983F00103DBB2002B0FD068
:10412000039B1B7A002B06D00D4B1B681A460D49CA
:10413000029803F09DFB0C49029803F099FB07E0FD
:104140009DF80730002B03D00749029803F090FB3D
:10415000029803F06BFB00BF05B05DF804FB00BFE5
:10416000642A0020086D0300186D030030B58BB081
:1041700007900691059204930E9B1B7B8DF82730C8
:104180000E9B00221A730E990498FFF77BFF059B84
:10419000062B7FD801A252F823F000BFB9410200DC
:1041A000C3410200D3410200E74102000542020080
:1041B0002D4202005D42020007990E9803F058FB61
:1041C00069E0069B1B681A4607990E9803F050FB9E
:1041D00061E0069B1A68069B04331B6807990E98DA
:1041E00003F046FB57E0069B1A68069B04331968E8
:1041F000069B08331B6800930B4607990E9803F043
:1042000037FB48E0069B1968069B04331868069B39
:1042100008331B68069A0C32126801920093034619
:104220000A4607990E9803F023FB34E0069B1868B2
:10423000069B04331C68069B08331B68069A0C32E5
:104240001268069910310968029101920093234681
:10425000024607990E9803F00BFB1CE0069B1C68B6
:10426000069B04331D68069B08331B68069A0C32B4
:104270001268069910310968069814300068039096
:104280000291019200932B46224607990E9803F063
:10429000EFFA00E000BF00220E990498FFF732FF0A
:1042A0000E9B9DF827201A7300BF0BB030BD00BFD6
:1042B00000B587B00390029101920093029B082BF6
:1042C0005CD8009B1B7B8DF81330009B00221A7377
:1042D00000990198FFF7D6FE0023059314E0059A94
:1042E000029B9A4209D2039A059B13441B781A46F3
:1042F0002449009803F0BCFA03E02349009803F036
:10430000B7FA059B01330593059B072BE7D91F4996
:10431000009803F0ADFA0023059322E0059A029B72
:104320009A4217D2039A059B13441B788DF81230DA
:104330009DF81230184611F087FE0346002B02D07C
:104340009DF8123000E02E231A461149009803F020
:104350008FFA03E00F49009803F08AFA059B0133B6
:104360000593059B072BD9D9012200990198FFF7E6
:10437000C9FE009B9DF813201A7300E000BF07B030
:104380005DF804FB1C6D0300246D0300286D030021
:104390002C6D0300306D030000B589B0019000233F
:1043A0008DF81F3051E02E4B1A689DF81F30DB004E
:1043B00013440693069B1B781A46012393400593EA
:1043C000284B1A68059B1340002B39D0059BDA4314
:1043D000244B1B681340234A1360069B1B78184626
:1043E00006F046FA03468DF81330069B1B781A46F2
:1043F000012393401A461C4B1B6813409DF8132061
:10440000069909788A4093421AD19DF81330069A8A
:104410005278012A0CBF01220022D2B293420CBF73
:1044200001230023DBB20393069B5B68002B07D0BC
:10443000069B5B68069A12780399C9B210469847A2
:104440009DF81F3001338DF81F30084B1B789DF805
:104450001F209A42A7D300BF09B05DF804FB00BF3C
:10446000B4320020E4320020E0320020B8320020D4
:1044700000B585B001900B468DF803300122019BF9
:1044800002FA03F303931E4B184600F0C7FF029095
:10449000029B002B30D11B4B1A68039B1340002B4F
:1044A00022D1019806F0E4F90346002B06D0164B02
:1044B0001A68039B1343144A136006E0039BDA4314
:1044C000114B1B681340104A13600E4B1A68039B74
:1044D00013430C4A13600A480C4B1B680022194610
:1044E00000F06AFF029008E0039BDA43054B1B686B
:1044F0001340044A136000E000BF05B05DF804FB00
:10450000C0320020E4320020E0320020BC32002023
:1045100000B589B003900B4601928DF80B30019BDA
:10452000042B01D8072351E006F0AAF8034683F0D4
:104530000103DBB2002B07D006F05AF80790079B67
:10454000002B01D0079B41E0224A039B1360224AC3
:104550009DF80B301370214A019B1360204B002201
:104560001A60204B00221A6023E09DF80B30DB001C
:10457000039A1344069303238DF8143000238DF817
:10458000153000238DF8163000238DF81730069B68
:104590009B788DF81530069B1B78184605AB124AA0
:1045A000194606F079F80790079B002B01D0079B6E
:1045B0000CE09DF80B305A1E8DF80B20002BD4D147
:1045C0000A4A00210A4800F0C7FE0346184609B00F
:1045D0005DF804FBB4320020B8320020BC32002069
:1045E000E0320020E43200207144020099430200CE
:1045F000346D030000B583B0114B1B68002B03D151
:104600001049B62008F0F6F9002301930CE00C4B9A
:104610001A68019BDB0013441B780121184606F041
:104620009FF8019B01330193074B1B781A46019BAE
:104630009342ECD30023184603B05DF804FB00BF9F
:10464000B4320020386D0300B832002000B589B0C4
:10465000039002910192029B9BB2ADF81430019B32
:104660000693039B079305AB1A46002144F2010011
:1046700000F050F800BF09B05DF804FB86B003906D
:104680000291019201238DF817309DF81730204ACE
:10469000039B13601E4A029B53601D4A019B93605B
:1046A000039B44F20102934213D0039B44F20202A3
:1046B000934222D1019B164AD360154BDB681B88BD
:1046C0001A46134B9A61124BDB685B68104AD36140
:1046D00013E0019B0E4A13610D4B1B699B680C4A4A
:1046E00053610B4B1B691B881A46094B9A61084B97
:1046F0001B695B68064AD36100BF72B600BF9DF8B4
:104700001730DBB2002BFAD162B600BF06B070479B
:10471000E832002030B589B0059004910392FFF78C
:1047200093FC00BFFFF766FA0346002BFAD1059B06
:1047300041F2010293421DD0059B41F201029342D6
:1047400003D8059B012B0BD04CE0059B44F20102E2
:10475000934229D0059B44F20202934214D041E0D7
:104760002D4B1B881B0443F001032C491846FFF70F
:10477000D1F942E0284B1B881B0443F00103284970
:104780001846FFF7C7F938E0039B0793224B1B88B5
:104790001B0443F00100079B5B681A46079B1B88BC
:1047A0002049FFF7D6F928E0039B06931A4B1B8894
:1047B0001B0443F00104069B9D68069B9B681846FA
:1047C00004F018FC03461946069B5B681A46069BD4
:1047D0001B88019300920B462A4613492046FFF797
:1047E000E2F90AE00C4B1B881B0443F00103049A16
:1047F0000E491846FFF79CF900BF0D4B1B6803F0EC
:104800000103002B00D0FFDE039A04990598FFF7FF
:1048100035FF00BF09B030BDA0290020AC6D0300FA
:10482000CC6D0300F06D03000C6E0300246E0300DA
:10483000F0ED00E082B003468DF807309DF80730B8
:1048400003F01F0205499DF907305B09012000FABA
:1048500002F241F8232000BF02B0704700E100E0FF
:1048600082B003468DF807309DF8073003F01F0231
:1048700006499DF907305B09012000FA02F2203356
:1048800041F8232000BF02B0704700BF00E100E004
:1048900082B003468DF807309DF8073003F01F0201
:1048A00006499DF907305B09012000FA02F2403306
:1048B00041F8232000BF02B0704700BF00E100E0D4
:1048C00082B003468DF807309DF8073003F01F02D1
:1048D00006499DF907305B09012000FA02F26033B6
:1048E00041F8232000BF02B0704700BF00E100E0A4
:1048F00082B0034600918DF807309DF90730002BF8
:104900000CDA009BDAB20C499DF8073003F00F0374
:10491000043B5201D2B20B441A7609E0009BDAB292
:1049200006499DF907305201D2B20B4483F80023A7
:1049300000BF02B0704700BF00ED00E000E100E002
:1049400084B00190244B0393019B002B40D0234B58
:104950001A680399019B00BF00BF00BF00BF00BFE2
:1049600000BF00BF00BF8A422FD000BF00BF00BF02
:1049700000BF00BF00BF00BF00BF00BF00BF00BF3F
:1049800000BF00BF00BF00BF00BF00BF00BF00BF2F
:1049900000BF00BF00BF00BF00BF00BF00BF00BF1F
:1049A00000BF00BF00BF00BF00BF00BF00BF00BF0F
:1049B00000BF00BF00BF00BF00BF00BF00BF00BFFF
:1049C00000BF00BF00BF00BF00BF013BC3D10193C8
:1049D00000BF04B0704700BF0024F4006C2D00201D
:1049E00000B583B00190064A019BC2F80835072143
:1049F0001120FFF77DFF00BF03B05DF804FB00BF8F
:104A00000010014008B50D4B4FF48032C3F8442329
:104A10000A4B4FF48032C3F804231120FFF750FFF4
:104A20001120FFF707FF054B01221A602F20FFF727
:104A300087FF034B01221A7000BF08BD0010014020
:104A40002634002008B51120FFF70AFF0E4B4FF463
:104A50008032C3F848230C4B4FF48032C3F808234C
:104A6000094B01225A602F20FFF76AFF064B0122F3
:104A70009A60064B00221A602F20FFF761FF044B5B
:104A800000221A7000BF08BD001001401834002039
:104A900026340020024BD3F804351846704700BF77
:104AA0000010014082B001900091019A009BD31A3E
:104AB00023F07F43184602B07047000082B0019097
:104AC000034A019BC2F8403500BF02B0704700BFE7
:104AD0000010014086B00190284B1B68002B03D1C9
:104AE000264A019B136045E0019B1A68234B1B6813
:104AF0001B689A4210D8214B1B681968019B1A68E1
:104B00001E4B1B688A1A1A601C4B1A68019BDA61DB
:104B10001A4A019B13602DE0019B1B680393174BFE
:104B20001B680593154B1B68049309E0049B1B68E5
:104B3000039AD31A0393049B0593049BDB690493A4
:104B4000049B002B04D0049B1B68039A9A42EDD867
:104B5000049B002B05D0049B1A68039BD21A049B6C
:104B60001A60019B039A1A60019B049ADA61059B03
:104B7000019ADA6100BF06B0704700BF143400200C
:104B800000B587B001902A4B1B680393284B1B6824
:104B90000593059B049308E0049A019B9A4208D070
:104BA000049B0593049BDB690493049B002BF3D1C6
:104BB00000E000BF049B002B01D1002333E0059AE5
:104BC000049B9A4214D11A4B1B68DB69184A136084
:104BD000174B1B68002B0BD1164B01229A60164B0A
:104BE00000221A60154B01221A702F20FFF7A8FE31
:104BF000049B1B680293049BDA69059BDA61059BA1
:104C0000DB690493049B002B05D0049B1A68029B6C
:104C10001A44049B1A60064B1B68039A9A4214BFFD
:104C200001230023DBB2184607B05DF804FB00BF88
:104C300014340020001001401834002027340020D4
:104C400008B51120FFF724FE00BF08BD08B51420E9
:104C5000FFF71EFE00BF08BD00B583B00190019BA9
:104C60005B69019A92691046984700BF03B05DF8EE
:104C700004FB000000B585B02B4B1B68002B4ED009
:104C800000230193FFF706FF0246284B1B681946D5
:104C90001046FFF707FF0290234B1B6803931DE0AC
:104CA000039B1B68029A9A421CD3039B1B68029ABF
:104CB000D31A0293039B1B68019A13440193039B2D
:104CC0000093039BDB690393009B1B7C002B05D0A7
:104CD000009B00221A740098FFF7BEFF039B002B75
:104CE000DED100E000BF124B1A78124B1B789A42BB
:104CF0000CD1104B1B780133DAB20E4B1A700D4BEE
:104D00001B78022B02D10B4B00221A70094B1B7827
:104D10001946094A019B42F82130FFF797FF00BF6F
:104D200005B05DF804FB00BF1434002018340020E7
:104D300024340020253400201C34002082B001904F
:104D4000184B1A78184B1B789A4223D0154B1B78B6
:104D50000133DAB2134B1A70124B1B78022B02D1BB
:104D6000104B00221A700F4B1B781A460F4B53F84A
:104D70002220019B1A60019B1A680D4B1B6813448B
:104D80000B4A13600A4B1B6823F07F43084A1360E9
:104D9000012303E0019B00221A600023184602B0A1
:104DA000704700BF24340020253400201C3400202C
:104DB0001834002088B003900291019200230793D9
:104DC00038E0204B1B680693069B1B68039A9A42A7
:104DD00006D2069B1A68039BD21A069B1A602DE026
:104DE000069B1B68039AD31A0393069B1B68079ABA
:104DF00013440793069B00221A60124B1B6805930D
:104E0000069BDB690F4A1360069BDB68002B11D001
:104E1000029A079B134423F07F42069B5A60069B2D
:104E2000DA68069B9A60019B1A68069BDA61019B0F
:104E3000059A1A60034B1B68002BC2D100BF08B053
:104E4000704700BF1434002000B589B001900023E2
:104E50008DF81F30664B1B680593AAE0019B002B61
:104E600005D0019B0693069BDB69019361E0614BD2
:104E70001B781A4613465B001344DB005D4A13445B
:104E8000043304935B4B1B780133DAB2594B1A702D
:104E9000584B1A78574B9B789A4202D1554B0022B7
:104EA0001A70049B5B680693049B1B78022B04D04A
:104EB000032B1BD0012B1FD01DE0049B5B68184601
:104EC000FFF75EFE0346002B02D001238DF81F3052
:104ED000069B00221A746CE0454B1B680393039BEE
:104EE00000221A74039BDB69414A1360404B1B6824
:104EF000002BF1D15DE05CE000BF069B1B7C002B2A
:104F000000D056E0049B9A68069B5A60049BDA68BE
:104F1000069B9A60049B1A69069BDA60049B5A6997
:104F2000069B9A61344B1B78002B02D0069B002213
:104F30005A60069B5A68314B1B68D31A23F07F4393
:104F40002F4A93420ED8069B5A682C4B1B68194671
:104F50001046FFF7A7FD0246069B9B681A44069B76
:104F60001A6017E0254B1A68069B5B6819461046C5
:104F7000FFF798FD0290069B9B68029A9A4206D220
:104F8000069B9A68029BD21A069B1A6002E0069B57
:104F900000221A60069B00225A60069B00229A603B
:104FA000069B01221A74069B0022DA610698FFF71D
:104FB00091FD019B002B7FF451AF0E4B1A780D4BE6
:104FC0005B789A427FF44AAF9DF81F30002B04D1E2
:104FD000074B1B68059A9A4201D0012300E0002389
:104FE00003F00103DBB2184609B05DF804FB00BF13
:104FF0001434002008330020273400201834002007
:10500000FEFF7F0010B588B00190274B1B68002B76
:1050100044D0254B1B681B680793FFF73BFD0690A8
:10502000224B1B68059305990698FFF73BFD034645
:10503000033304931E4B1B7883F00103DBB2002B78
:1050400001D0FFF7DFFC049A079B934238BF134659
:10505000059A13440593059B23F07F430593059818
:10506000FFF72CFDFFF716FD039006990398FFF755
:1050700019FD0346DC1C06990598FFF713FD03464E
:105080009C420DD9FFF706FD03461846FFF716FDB3
:105090002F20FFF755FCFFF7D3FD01E0FFF7D2FC0F
:1050A00000BF08B010BD00BF143400201834002029
:1050B0002634002000B587B00023019300238DF82B
:1050C0001730194B1B680493184B1B6803936B46EE
:1050D0001846FFF733FE03468DF80B309DF80B3072
:1050E000002B08D0009B01AA04991846FFF762FE26
:1050F00001238DF81730019B1846FFF7A5FE0346E4
:10510000002B02D001238DF817309DF81730002BAB
:1051100002D00398FFF776FF054B00221A7000BFFC
:1051200007B05DF804FB00BF1834002014340020E1
:105130002734002082B003468DF80730034A9DF8DB
:105140000730537000BF02B0704700BF0833002023
:1051500084B00190144B5B7801338DF80F30124B03
:105160009B789DF80F209A4202D100238DF80F30D2
:105170000D4B1B789DF80F209A4201D100230FE0C0
:10518000019B9DF80F201A70074B5B781A46134657
:105190005B001344DB00044A134404330293029B74
:1051A000184604B0704700BF0833002000B589B02E
:1051B00003900291019200930023079300238DF83E
:1051C00016300DF11603184600F0BCF90DF1170367
:1051D0001846FFF7BDFF0690069B002B02D1042363
:1051E000079318E0069B01221A70069B039A5A60E7
:1051F000FFF750FC0246069B9A60069B029ADA6013
:10520000069B019A1A61069B009A5A619DF8173015
:105210001846FFF78FFF9DF81630184600F0A8F9E2
:10522000079B002B01D1FFF711FD079B184609B022
:105230005DF804FB00B587B001900B468DF8033094
:105240000023059300238DF80E300DF10E03184650
:1052500000F078F90DF10F031846FFF779FF04907D
:10526000049B002B02D1042305930BE0049B9DF8C3
:1052700003201A70049B019A5A609DF80F3018465B
:10528000FFF758FF9DF80E30184600F071F9059BA6
:10529000002B01D1FFF7DAFC059B184607B05DF83B
:1052A00004FB000008B50E4B0022C3F840210C4B54
:1052B0000022C3F844210A4B0022C3F84821084BBE
:1052C0000022C3F84C21064B0022C3F80021044BF6
:1052D0000022C3F80421FFF7CDFC00BF08BD00BFCA
:1052E0000010014008B5FFF7E5FE00BF08BD000053
:1052F00008B5FFF7A7FB134B00221A70114B0022D1
:105300005A70104B0B229A700F4B00221A600F4BF1
:1053100000221A700E4B00221A701420FFF7D0FAE8
:1053200007211420FFF7E4FA1420FFF783FA002086
:10533000FFF756FBFFF7AEFB0246064B1A60002351
:10534000184608BD083300201434002024340020FF
:10535000253400201834002086B003900B460192BB
:105360008DF80B30134B9B78002B01D108231EE0E6
:10537000019B002B01D1072319E0039B002B01D1D6
:10538000072314E0039B1B681B7C002B01D0082320
:105390000DE0039B1B680593059B00221A74059B77
:1053A0009DF80B205A74059B019A5A6100231846F8
:1053B00006B070470833002000B587B00390029113
:1053C0000192039B0593144B9B78002B01D108237A
:1053D0001EE0039B002B01D1082319E0029B042B44
:1053E00001D8072314E0059B5B69002B01D108233A
:1053F0000EE0059B5B7C012B01D1029B00E00023AA
:105400000493019B049A02990598FFF7CFFE034687
:10541000184607B05DF804FB0833002000B585B0DE
:105420000190019B03930D4B9B78002B01D1082326
:1054300010E0019B002B03D0039B5B69002B01D183
:10544000082307E0039B00221A7402210398FFF748
:10545000F1FE0346184605B05DF804FB0833002052
:1054600082B0EFF310830093009B019372B6019B0F
:10547000184602B0704762B600BF704700B585B0ED
:105480000190FFF7EDFF0390164B9B68002B1BD19B
:10549000144B01229A60144BD3F88020134B134015
:1054A000104A1360104B114AC3F880200E4BD3F8FA
:1054B00084300C4A53600C4B4FF0FF32C3F8842009
:1054C000019B00221A7002E0019B01221A70039BCB
:1054D000002B01D1FFF7CFFF0023184605B05DF880
:1054E00004FB00BF2834002000E100E0FC06FFBD03
:1054F00000B585B003468DF80730104B9B68002B34
:1055000016D09DF80730002B12D1FFF7A9FF0390AA
:105510000B4A0A4B1B681360094A084B5B685360CF
:10552000064B00229A60039B002B01D1FFF7A3FFDB
:105530000023184605B05DF804FB00BF28340020A6
:1055400000E100E000B583B0019000F02BF80346C5
:10555000012B03D00549432007F04CFA0198FFF7CF
:105560008DFF00BF03B05DF804FB00BF3C6E03007D
:1055700000B583B003468DF8073000F013F80346FA
:10558000012B03D00649512007F034FA9DF807306B
:105590001846FFF7ADFF00BF03B05DF804FB00BF86
:1055A0003C6E030084B0EFF305830193019BC3F3CA
:1055B00008030393039B002B0DD1EFF31483009397
:1055C000009B0293029B03F00103002B0CBF0123FD
:1055D0000023DBB200E00123184604B0704782B01C
:1055E0000190019B03F00303002B0CBF0123002358
:1055F000DBB2184602B0704710B487B0019000913A
:10560000019B009A53E8004F44EA020043E800017E
:1056100091F0000FF6D1059404900391059B184674
:1056200007B05DF8044B704710B487B0019000914B
:10563000019B009A53E8004F04EB020043E800018D
:1056400091F0000FF6D1059404900391059B184644
:1056500007B05DF8044B704710B487B0019000911B
:10566000019B009A53E8004F04EB020043E800015D
:1056700091F0000FF6D1059404900391049B184615
:1056800007B05DF8044B704710B487B001900091EB
:10569000019B009A53E8004FA4EB020043E800018D
:1056A00091F0000FF6D1059404900391049B1846E5
:1056B00007B05DF8044B704700B583B0019001213D
:1056C0000198FFF799FF0346184603B05DF804FB05
:1056D00000B585B00190002303930EE00A4A039BB6
:1056E00052F82330002B05D0074A039B52F8233091
:1056F00001989847039B01330393039B032BEDD938
:1057000000BF05B05DF804FB4434002082B0019076
:105710000091019B1B78013B052B61D801A252F837
:1057200023F000BF3D570200455702006B570200AF
:105730009D570200BD570200D9570200009B00226E
:105740001A704EE0009B01221A70019B1A89009B7F
:105750009A81019B9A88009BDA81019BDA68009B01
:105760009A60009B00221A743BE0009B02221A7090
:10577000019B1A89009B9A81019B9A88009BDA8180
:10578000019BDA68009B9A60019B9B7D062B0CBFF6
:1057900001230023DAB2009B1A7422E0009B03224B
:1057A0001A70019BDA88009B9A81019B1A89009BE1
:1057B000DA81019BDA68009B9A6012E0009B042268
:1057C0001A70019BDA88009B9A81009B0022DA8183
:1057D000009B00229A6004E0009B05221A7000E002
:1057E00000BF00BF02B0704784B001900091019BE0
:1057F0000393039A009B9A4206D2039B1B68B3F162
:10580000FF3F01D0012300E0002303F00103DBB2DE
:10581000184604B0704782B00190019B5B88033347
:105820009B00019A1344184602B0704700B583B03C
:10583000019000910198FFF7EEFF0246009B934212
:1058400001D202230CE0019B9B884FF6FF7293422A
:1058500003D0019B1B88002B01D1012300E0002312
:10586000184603B05DF804FB00B583B00190019BBE
:10587000002B13D00D4BDB681A46019B93420DD3CE
:105880000A4B1B691A46019B934207D80198FFF700
:10589000A6FE0346002B01D0012300E0002303F005
:1058A0000103DBB2184603B05DF804FB302A002088
:1058B00082B00190019B002B04D0019B1B680B4A16
:1058C000934201D003230DE0019B04331B68084A77
:1058D000934204D0074A934203D1012302E00023FC
:1058E00000E00323184602B0704700BFDEC0ADDE03
:1058F000FE011EF1FF011EF184B00190002303930D
:105900000CE0039B9B00019A13441B68B3F1FF3F1B
:1059100001D0002307E0039B01330393039BB3F5FE
:10592000806FEED30123184604B0704782B003465F
:105930000A46ADF806301346ADF80430BDF806202F
:10594000134913469B0013449B000B4408331A88E9
:10595000BDF804301344ADF80430BDF806200C49FE
:1059600013469B0013449B000B440A331A88BDF86E
:1059700004301344ADF80430BDF8043040F2FF3277
:10598000934294BF01230023DBB2184602B0704754
:10599000F434002084B0019000910A230393002383
:1059A000ADF80A3027E0BDF80A20174913469B00DE
:1059B00013449B000B4404331B68009A9A4215D988
:1059C000BDF80A20104913469B0013449B000B446A
:1059D00004331B6803F58053009A9A4206D20023D1
:1059E0000393019BBDF80A201A8008E0BDF80A3035
:1059F0000133ADF80A30BDF80A30012BD3D9039B2F
:105A0000184604B0704700BFF434002000B589B0D8
:105A1000039002910192039B03F580530693039B2D
:105A200008330393029B02221A80039B079332E000
:105A300006990798FFF7FAFE03468DF817309DF890
:105A40001730002B0AD1079B9A68184B1B689A42A3
:105A500013D9079B9B68154A13600EE0019B002B2E
:105A600002D0019B01221A709DF81730022B04D13D
:105A7000029B4FF480621A8014E0029B1A88079BF5
:105A80005B8813449BB203339AB2029B1A80079837
:105A9000FFF7C1FE079006990798FFF7A5FE03469A
:105AA000002BC5D109B05DF804FB00BF54340020C1
:105AB00082B001900B46ADF80230019B1A89BDF807
:105AC000023013449BB203339AB2019B1A81019BAB
:105AD0005A89BDF80230D31A9BB2033B9AB2019B9C
:105AE0005A8100BF02B0704700B583B0074B1B68F6
:105AF0001946002300930823054A064802F0D1FA0C
:105B00000346184603B05DF804FB00BF1C350020B7
:105B10001C6F0300302A002000B585B00390039964
:105B2000002300930823044A044802F0BAFA03460B
:105B3000184605B05DF804FB246F0300302A0020EE
:105B400000B585B003460091ADF8063000238DF80E
:105B50000F30BDF806300333ADF80A30BDF80A3017
:105B600040F2FD32934201D909234AE00023ADF807
:105B70000C303BE0BDF80C20244913469B00134435
:105B80009B000B441B78002B2BD1BDF80A20BDF8DD
:105B90000C3011461846FFF7C9FE0346002B20D0F3
:105BA00001238DF80F30009BBDF80C201A80BDF842
:105BB0000C20164913469B0013449B000B440A33E8
:105BC0001988BDF80C20BDF80A300B4498B20F4973
:105BD00013469B0013449B000B440A3302461A8071
:105BE00008E0BDF80C300133ADF80C30BDF80C30D6
:105BF000012BBFD99DF80F30002B01D0002300E00E
:105C00000723184605B05DF804FB00BFF4340020FC
:105C100082B003460A46ADF806301346ADF80430AC
:105C2000BDF804200D4913469B0013449B000B4410
:105C30000A331A88BDF80630D31A9BB2BDF8042087
:105C4000033B98B2054913469B0013449B000B4449
:105C50000A3302461A8000BF02B07047F4340020B5
:105C600008B501210248FFF7F7FC0346184608BDB6
:105C70005434002000B585B003460091ADF80630DD
:105C8000BDF80620224913469B0013449B000B4499
:105C900004331B6803F580530293009B1B68039336
:105CA000039B002B04D00398FFF7B5FD039023E07E
:105CB000BDF80620164913469B0013449B000B4475
:105CC00004331B680833039316E002990398FFF727
:105CD000ADFD0346012B08D0022B0BD0002B0BD1BE
:105CE000009B039A1A6001230EE00398FFF793FDCF
:105CF000039001E0002307E002990398FFF774FD89
:105D00000346002BE1D10023184605B05DF804FBE3
:105D1000F434002000B585B001900091019B5B68D0
:105D20001846FFF7A1FD0346002B19D0019B1A89E5
:105D3000244B1B899A4213D1019B1A68019B5B6813
:105D40009B689A420CD1019B5B6819460098FFF74B
:105D500021FE0346002B0CBF01230023DBB22CE005
:105D6000009B00221A8023E00023029310E0029B94
:105D70000393039B9A68019B1B689A4208D1029A7D
:105D8000019B5A600F4B1A89019B1A81012314E071
:105D9000009B1B8802AA11461846FFF76BFF0346BB
:105DA000002BE4D1009B1B8801339AB2009B1A8020
:105DB000009B1B88012BD7D90023184605B05DF83E
:105DC00004FB00BF2435002000B587B0039002918A
:105DD00001920093304B1B78DBB283F00103DBB2FE
:105DE000002B01D0022353E0019B002B02D0009B2B
:105DF000002B48D105234BE0009B9B881946274A7E
:105E00000B469B000B449B0013441B78002B33D1A3
:105E100024E0009B1B680593039B002B06D0059B89
:105E20009A88039B1B889A4200D017E0029B002BA4
:105E300006D0059B1A88029B1B889A4200D00DE071
:105E4000059B9A68019B1A60009B1A68019B5A6027
:105E5000134B1A89019B1A81002319E0009B9B8830
:105E6000009A11461846FFF705FF0346002BD0D1D4
:105E7000009B00221A6000E000BF009B9B8801335A
:105E80009AB2009B9A80009B9B88012BB4D90A236D
:105E9000184607B05DF804FB34340020F4340020C9
:105EA0002435002000B585B00190084B01991846B3
:105EB00001F05BFB03901C220021039810F05EF9B7
:105EC000039B184605B05DF804FB00BFE4340020D6
:105ED00000B583B00190044B0199184601F05CFBBA
:105EE00000BF03B05DF804FBE434002000B583B0CC
:105EF0000190054B0199184601F062FB03461846D4
:105F000003B05DF804FB00BFE434002000B583B0AB
:105F10000190044B0199184601F069FB00BF03B0E2
:105F20005DF804FBE434002008B50A4B1B68002B25
:105F300004D1094940F2712006F05CFD01210548B9
:105F4000FFF7A2FB0346002B14BF01230023DBB2A3
:105F5000184608BD3C340020B46E030000B587B07D
:105F6000002305930023ADF812300323ADF8103061
:105F700000238DF80F300023ADF80C30EFE0BDF8B2
:105F80000C301A037E4BDB68134402930298FFF730
:105F90008FFC03468DF807309DF80730012B00F089
:105FA0009C80032B02D0002B62D0D3E00298FFF735
:105FB000A3FC0346002B3BD0724B1B68002B29D05F
:105FC000BDF81220704913469B0013449B000B44FC
:105FD00002221A70BDF812206B4913469B0013442D
:105FE0009B000B440433029A1A60BDF812206649E4
:105FF00013469B0013449B000B44083302221A8073
:10600000624ABDF812305380BDF812300133ADF84A
:10601000123008E05B4A029B13605A4B02229A80BE
:1060200001238DF80F30059B43F00103059391E0A8
:10603000BDF81030013BADF81030BDF812205249C8
:1060400013469B0013449B000B440433029A1A60CE
:10605000BDF812204C4913469B0013449B000B448F
:1060600003221A70BDF812300133ADF8123071E01E
:10607000BDF81220444913469B0013449B000B4477
:1060800000221A70BDF812203F4913469B001344AA
:106090009B000B440433029A1A60BDF81220134689
:1060A0009B0013449B000833374A9918BDF812200F
:1060B00013469B0013449B001033334A13441A4683
:1060C0000298FFF7A3FC059B43F002030593BDF87C
:1060D00012300133ADF812303CE09DF80F30002B48
:1060E00025D0BDF81220284913469B0013449B007D
:1060F0000B4402221A70BDF81220224B1968224864
:1061000013469B0013449B00034404331960BDF8FD
:1061100012201D4913469B0013449B000B44083377
:1061200002221A80BDF812300133ADF81230154A40
:10613000029B1360002216490298FFF767FC114B7F
:106140009B88022B01D1042300E00823059A134306
:10615000059300BFBDF80C300133ADF80C30BDF82D
:106160000C30022B7FF60BAFBDF81030012B01D89D
:1061700000230593059BDBB2184607B05DF804FBCE
:10618000302A00201C350020F43400202435002063
:106190002035002000B587B003900291039B0222B6
:1061A0009A750299039B1A1D002300930423074844
:1061B00001F077FF0590059B002B01D1002300E043
:1061C0000E23184607B05DF804FB00BF302A0020FC
:1061D00000B587B003900291039B1B69002B01D08F
:1061E000032200E00122039B9A75029B08331946A3
:1061F000039B03F10C02002300930423064801F0E3
:1062000050FF0590059B002B01D1002300E00E23D9
:10621000184607B05DF804FB302A002000B587B0AF
:1062200003900291039B1B78032B01D1052200E010
:106230000622039B9A75029B04331946039B03F1C4
:106240000802002300930423064801F02AFF05906A
:10625000059B002B01D1002300E00E23184607B058
:106260005DF804FB302A002000B587B003900B4690
:10627000ADF80A3003990023009304230C4A0D481B
:1062800001F00FFF0590059B002B01D00E230BE0C2
:10629000BDF80A20084913469B0013449B000B4499
:1062A000103301221A700023184607B05DF804FB72
:1062B0002C6F0300302A0020F434002000B589B090
:1062C000019002AB00221A605A609A60019BDB6861
:1062D00002930DF1160202AB11461846FFF71AFDA4
:1062E0000346002B12D0039B0693069B9A88019BC2
:1062F000DA80069B1A88019B1A81039BBDF8162041
:1063000011461846FFF7B0FF079001E00A230793F4
:10631000079B184609B05DF804FB000000B587B084
:106320000190019B981D02AA0D4B0021FFF74CFD27
:106330000590059B002B08D1039A094B9B881946B1
:106340001046FFF791FF059004E008220021044861
:106350000FF014FF059B184607B05DF804FB00BF63
:106360003435002000B587B003900291039B0122D1
:106370009A75029B0C331846039B1A69039BDB88B2
:106380009900002300930B460146074801F089FE5F
:106390000590059B002B01D1002300E00E23184639
:1063A00007B05DF804FB00BF302A002082B0184B14
:1063B0001B8901339AB2164B1A81154B00225A8061
:1063C000134B00221A730023ADF8063018E0BDF815
:1063D0000620104913469B0013449B000B441A7877
:1063E000BDF80630002A0CBF01220022D1B2084AB3
:1063F00013440A469A72BDF806300133ADF80630F0
:10640000BDF80630012BE2D900BF02B0704700BFD3
:1064100024350020F434002084B0019000238DF84E
:106420000F300023ADF80C3031E0BDF80C301C4AC1
:1064300013449B7A002B25D0BDF80C30184A134426
:1064400000229A72BDF80C20164913469B00134493
:106450009B000B440C331B68002B13D1BDF80C20A0
:10646000104913469B0013449B000B4410331B78C8
:10647000002B07D0019BBDF80C201A8001238DF85A
:106480000F3008E0BDF80C300133ADF80C30BDF82A
:106490000C30012BC9D99DF80F30184604B0704755
:1064A00024350020F434002008B5084B05221A706A
:1064B000074B02229A80064B1B68194600230122D3
:1064C000044801F040FE0346184608BD243500206C
:1064D0001C350020302A002000B583B0164B5B88A5
:1064E000ADF80230BDF80220144913469B00134456
:1064F0009B000B440C331B68002B14D10E4B042261
:106500001A70BDF802200D4913469B0013449B00EE
:106510000B4404331B68194600230122084801F08C
:1065200012FE019002E0FFF7BFFF0190019B1846A9
:1065300003B05DF804FB00BF24350020F4340020D4
:10654000302A002000B587B0114B5B680593114BD2
:106550001A68104B9B889B0013440493059B5B882F
:106560000333ADF80E300A4B03221A700499084B1E
:106570005A68BDF80E309800002300930346064881
:1065800001F08FFD0346184607B05DF804FB00BF1D
:10659000243500201C350020302A002000B583B0AF
:1065A0000A4B5B880A491846FFF764FB0346002B39
:1065B00003D0FFF7C7FF019002E0FFF78DFF0190C6
:1065C000019B184603B05DF804FB00BF2435002092
:1065D0002835002008B50A4B06221A70084B5B8844
:1065E0001946084A0B469B000B449B001344043396
:1065F0001B681846FFF790FA0346184608BD00BF0F
:1066000024350020F434002008B5054B07221A7009
:10661000034B00225A60FFF767FA0346184608BD8D
:106620002435002008B50D48FFF7F6FE034683F039
:106630000103DBB2002B0BD0094B00221A70084B70
:1066400000225A80064B00225A6041F61D5302E098
:10665000FFF7A4FF0346184608BD00BF26350020FB
:106660002435002082B0094B5B680193019B5B8855
:106670000333ADF80230064B9A88BDF8023013445C
:106680009AB2034B9A8000BF02B0704724350020B5
:106690001C35002082B0184B1B680193174B5B8898
:1066A0001946174A0B469B000B449B0013440433C6
:1066B0001B68114A1360114B5B881946104A0B4640
:1066C0009B000B449B0013440433019A1A600B4B4C
:1066D0005B881946084B9888094A0B469B000B4477
:1066E0009B001344083302461A80034B02229A800F
:1066F00000BF02B0704700BF1C35002024350020C9
:10670000F434002008B51A4B1B78072B2CD801A2B3
:1067100052F823F0356702006967020069670200DA
:10672000416702004D670200596702005967020085
:1067300061670200FFF73AFE0D4B01221A7014E068
:10674000FFF790FF0A4B02221A700EE0FFF7A2FF3C
:10675000074B06221A7008E0054B07221A7004E066
:10676000034B01221A7000E000BF00BF08BD00BF4C
:106770002435002000B587B0019000910F230593C8
:10678000019B002B04D0624B00225A600123BBE026
:10679000009B1B79032B00F2AB8001A252F823F07F
:1067A000B1670200BF6702004D6802006D68020019
:1067B000009B01221A71FFF797F905909BE00023D7
:1067C0008DF813300023ADF810302BE0BDF8102009
:1067D000504913469B0013449B000B441B78022B2B
:1067E0001BD1BDF810204B4913469B0013449B005E
:1067F0000B4400221A7001238DF81330BDF81020CD
:10680000444913469B0013449B000B4404331B680C
:106810001846FFF781F9059008E0BDF81030013304
:10682000ADF81030BDF81030012BCFD99DF81330E2
:1068300083F00103DBB2002B5CD0354B01221A70D0
:10684000334B00225A6041F61D535DE0009B00224D
:106850001A71314B02229A802F4B1B681946002374
:1068600001222E4801F06FFC059044E0009B0022BD
:106870001A71294B1B681846FFF74EF90590284BF3
:106880005B88ADF80E30244B1B680293BDF80E20D8
:10689000204913469B0013449B000B4404331B68A0
:1068A0001D4A1360BDF80E201A4913469B0013447D
:1068B0009B000B440433029A1A60BDF80E20164B5D
:1068C0009888144913469B0013449B000B440833DB
:1068D00002461A80104B02229A80BDF80E200D4904
:1068E00013469B0013449B000B4400221A7002E0E5
:1068F00000BF00E000BF059B002B04D0044B00222A
:106900005A600E2300E00023184607B05DF804FB30
:1069100034340020F43400201C350020302A0020BC
:106920002435002000B587B001900091009B9B8A20
:106930001A4613469B0013449B003C4A134404939D
:10694000019B002B07D0009BDB8819460498FFF7BA
:10695000AFF8012365E0049B5A68049B1B899B00E8
:1069600013440393009B9B7D062B4DD801A252F844
:1069700023F000BFB7690200DB690200C3690200AF
:10698000CF69020091690200E7690200016A020012
:10699000274B00225A60009B9B69254A13602549BA
:1069A0002348FFF7B7F9034683F00103DBB2002B5E
:1069B00001D00A2335E003990098FFF7EBFB05901F
:1069C00025E003990098FFF703FC05901FE0039969
:1069D0000098FFF7C7FC059019E003990098FFF7AE
:1069E0001DFC059013E0009B06229A75104B5A6817
:1069F000104B1B8819461046FFF736FC059006E041
:106A000041F61D53059302E00F23059300BF059B3C
:106A1000002B05D0009BDB8819460498FFF748F847
:106A2000059B184607B05DF804FB00BFF434002056
:106A30003C3500204835002000B585B0019000911C
:106A4000019B002B01D0012323E0009B1B79012B2C
:106A50000BD0022B14D0002B16D1009B02221A71EE
:106A60000098FFF72BFC039012E00098FFF756FC0C
:106A70000390039B0A2B0AD141F61D53039306E0B2
:106A800041F61D53039303E00F23039300E000BF7F
:106A9000039B184605B05DF804FB000000B585B007
:106AA0000190019B002B01D001233BE01F4B1B7B7E
:106AB000002B03D01D4B00221A7301E0FFF722FECA
:106AC0001A4B1B78013B062B28D801A252F823F061
:106AD000ED6A0200F56A0200FD6A0200056B020021
:106AE0001D6B02000D6B0200156B0200FFF79AFD93
:106AF000039016E0FFF752FD039012E0FFF722FD2E
:106B000003900EE0FFF7E8FC03900AE0FFF762FD58
:106B1000039006E0FFF778FD039002E00F23039354
:106B200000BF039B184605B05DF804FB2435002028
:106B300000B589B001903F4B1B68002B05D13E4842
:106B4000FFF7D4F902463B4B1A603A4B1B68002B07
:106B500004D13A4940F2795005F04CFF354B1B689F
:106B60001B78013B052B2CD801A252F823F000BF63
:106B7000896B0200996B0200996B0200A96B0200FD
:106B8000A96B0200B96B02002A4B1B6819460198D9
:106B9000FFF7F0FD019017E0264B1B68194601989E
:106BA000FFF7C0FE01900FE0224B1B6819460198C9
:106BB000FFF742FF019007E00198FFF76FFF019098
:106BC00002E00F23019300BF019B002B2BD003ABEE
:106BD0001422002118460FF0D1FA019B41F61D52F4
:106BE000934204D1002304930023019301E0019B0D
:106BF0000493104B1B6803AA11461846FEF786FD46
:106C000003AB1846FEF764FD0A4B00221A600A48DF
:106C1000FFF77CF9FFF788F9034683F00103DBB245
:106C2000002B02D187E700BF00E000BF00BF09B022
:106C30005DF804FB4C35002050350020B46E030095
:106C400008B501210548FEF7EFFC0346002B02D1F1
:106C50000020FFF76DFF00BF08BD00BF3C340020DF
:106C600000B583B00190019B5B681846FFF760FF99
:106C700000BF03B05DF804FB00B58BB00390029138
:106C800001928DF803300023ADF824300023ADF8D5
:106C90002630514B1B78DBB283F00103DBB2002BB3
:106CA00001D0022393E0029B002B01D105238EE04B
:106CB000029B1B884FF6FF72934203D0029B5B88B6
:106CC000002B01D1042382E0029B5B681846FEF78B
:106CD00086FC034683F00103DBB2002B01D00323C3
:106CE00075E0019B002B11D1029B9B68ADF826300B
:106CF0000DF11A02BDF8263011461846FEF720FFA6
:106D00000890089B002B09D0089B60E0019B1B8822
:106D1000ADF81A30019B5B88ADF8263005AB1846FC
:106D2000FFF7C0F80790079B002B09D1BDF81A2088
:106D3000BDF8263011461846FEF76AFF082346E0E4
:106D4000079B9DF803201A70079B00229A75BDF8D7
:106D50001A20079B9A82029B5A68079B1A61FEF7CA
:106D60007FFF0246079BDA60029B1A88079B1A8105
:106D7000029B5A88079B9A80079BBDF82620DA80E1
:106D80009DF80330032B06D1079B04229A75039BC1
:106D90001A68079B9A61079BBDF824205A8105ABAE
:106DA0001846FFF795F8039B002B0DD0039B00229C
:106DB0005A60079BDA68039B1A60039B00229A7251
:106DC000064B1A89039B1A81FFF73AFF00231846E6
:106DD0000BB05DF804FB00BF3434002024350020E4
:106DE00000B585B001900C4B1B68042B02D10C231D
:106DF00003930BE0084B1B680849019A41F82320D4
:106E000001210548FEF728FC00230393039B184645
:106E100005B05DF804FB00BF40340020443400207E
:106E200084B04FF010235B6903934FF080531B69CC
:106E300002934FF080535B690193039BB3F1FF3FD3
:106E400004D1019B029A02FB03F300E0039B184666
:106E500004B0704700B583B04FF440530193FFF77F
:106E6000DFFF0246054B1A61044B1A69019BD31AD6
:106E7000024AD36000BF03B05DF804FB302A002053
:106E800008B5FFF7E7FF00220349044801F0EEF8D8
:106E90000346184608BD00BFA0700300302A00203A
:106EA00008B504481C238C22034900F017FB00BFDF
:106EB00008BD00BFE43400205834002000B58BB07A
:106EC00002AB00221A605A609A60DA601A61404B85
:106ED0001B78DBB2002B05D002AB1846FEF7F8FB9F
:106EE000002371E03B48FEF7E7FB0346002B01D08F
:106EF000002369E0FFF7C4FF0990099B002B01D034
:106F0000099B61E0FFF7CCFFFFF728F803468DF8F7
:106F100023309DF82330022B03D0062B03D0002B07
:106F20000DD10B2350E02A4B01221A70284B00226E
:106F30005A6002AB1846FEF7CBFB002344E000BFCB
:106F400001AB1846FEF7AEFF0790079B002B01D15F
:106F5000082339E0079B01221A709DF82330013B7A
:106F60000A2B29D801A252F823F000BF996F020022
:106F7000B96F0200996F0200B96F0200B16F020091
:106F8000B96F0200B16F0200B96F0200A16F020079
:106F9000A96F0200A16F0200079B00221A710CE08A
:106FA000079B03221A7108E0079B02221A7104E072
:106FB000079B01221A7100E000BF01AB1846FEF7E3
:106FC00087FFFFF73DFE002318460BB05DF804FB7A
:106FD000343400203834002000B585B00190009191
:106FE000019B002B02D0009B002B01D1052329E03F
:106FF0000DF10A0319460198FEF78CFE0346002B9B
:107000001FD0019B5B680393BDF80A301A461346F4
:107010009B0013449B0008330C4A134404330121A2
:107020001846FEF719FB009B039A1A60019B5B68E8
:1070300003F10C02009B5A60019B01229A7200230B
:1070400000E00A23184605B05DF804FBF434002084
:1070500000B585B00190019B002B01D1052339E0DB
:107060000DF10A0319460198FEF754FE0346002B62
:107070002DD0BDF80A301946184A0B469B000B4428
:107080009B0013440C331B68002B1DD0019B9B7A83
:10709000002B19D0BDF80A301A46104913469B0040
:1070A00013449B000B440C331B68591E0B481346BA
:1070B0009B0013449B0003440C331960019B002286
:1070C0009A720023039304E00623039301E00A234A
:1070D0000393039B184605B05DF804FBF4340020CD
:1070E00000B585B001900B46ADF80230134B1B780C
:1070F000DBB283F00103DBB2002B01D0022319E0E5
:10710000019B002B01D1052314E00DF10A02BDF80B
:10711000023011461846FEF713FD0390039B002B27
:1071200007D1BDF80A20019B1A80019BBDF80220FF
:107130005A80039B184605B05DF804FB34340020E8
:1071400000B585B001901F4B1B78DBB283F00103C3
:10715000DBB2002B01D002232FE0019B002B01D1D9
:1071600005232AE0019B1B88022B01D9042324E07C
:10717000019B1B881A4613469B0013449B00124A2E
:1071800013440293019B5B880233029A5289934213
:1071900010DA019B5A88019B1B8819461046FEF79E
:1071A00037FD019B00221A80019B00225A80002398
:1071B000039301E004230393039B184605B05DF895
:1071C00004FB00BF34340020F434002000B583B049
:1071D000019000910223002200990198FFF74CFDD5
:1071E0000346184603B05DF804FB00B585B0039074
:1071F00002910192019B002B01D1052306E002239D
:10720000019A02990398FFF737FD0346184605B027
:107210005DF804FB00B583B001900091019B002B49
:1072200001D1052306E00323002200990198FFF70E
:1072300023FD0346184603B05DF804FB00B585B096
:107240000346ADF80630184B1B78DBB283F0010320
:10725000DBB2002B01D0022322E0BDF806304FF64E
:10726000FF72934201D104231AE002AB1846FEF7E5
:1072700019FE0390039B002B01D1082310E0039B10
:1072800005221A70039B01221A71039BBDF8062088
:10729000DA8002AB1846FEF71BFEFFF7D1FC002395
:1072A000184605B05DF804FB3434002000B583B007
:1072B000144B1B78DBB283F00103DBB2002B01D04F
:1072C00002231AE06B461846FEF7ECFD0190019B85
:1072D000002B01D1082310E0019B06221A706B4697
:1072E0001846FEF7F5FD084B1B78002B02D0064B25
:1072F00001221A73FFF7A4FC0023184603B05DF8BF
:1073000004FB00BF343400202435002000B585B0D4
:10731000029201930346ADF80E300B46ADF80C30E7
:1073200003A90DF10E00019B029AFEF74DFD0346E5
:10733000184605B05DF804FB00B585B00346029120
:107340000192ADF80E300DF10E01019B029A002062
:10735000FEF73AFD0346184605B05DF804FB00B59C
:1073600085B0034602910192ADF80E300DF10E008A
:10737000019B029A0021FEF727FD0346184605B03F
:107380005DF804FB82B001900091019B002B02D0BC
:10739000009B002B01D1052304E0019B1A68009B90
:1073A0001A600023184602B0704786B00190009121
:1073B000019B53E8011F8AB2D8890244988982420E
:1073C00028BF121A1889824202BFBFF32F8F0023F1
:1073D00007E0C2EA010243E801200028E9D14FF0AA
:1073E00001038DF80F30059002910492029A009BE0
:1073F0001A609DF80F30DBB2184606B0704784B0B3
:107400000190019951E8013FC3EA034341E8013289
:10741000002AF7D10392029300BF04B0704786B0F0
:1074200001900091019B53E8021F1FFAA1F2D88836
:10743000824202BFBFF32F8F00230DE0D8890244A0
:107440009889824228BF121AC1EA024243E8022008
:107450000028E8D14FF001038DF80F30059002911C
:107460000492029A009B1A609DF80F30DBB2184616
:1074700006B0704784B00190019951E8023FC3EA19
:10748000234341E80232002AF7D10392029300BF5E
:1074900004B0704786B00190019B53E8021FDA8860
:1074A000B1EB314F4FF0000017BF89B242EA024200
:1074B00041EA024204E05968B1EB314F08BF0120B4
:1074C00043E802210029E8D18DF80F0005910492CC
:1074D0009DF80F30DBB2184606B0704784B00390B9
:1074E000029111461A460B46ADF806301346ADF828
:1074F0000430029B002B01D10E231FE0BDF80630A3
:10750000BDF80420B3FBF2F102FB01F29B1A9BB21F
:10751000002B01D0092311E0039B029A1A60039B00
:1075200000225A60039B00229A60039BBDF806204C
:107530009A81039BBDF80420DA810023184604B029
:10754000704700B585B001900198FFF7A3FF03468F
:107550008DF80F309DF80F30002B01D0002300E094
:107560001123184605B05DF804FB00B583B0019007
:107570000091009B19460198FFF717FF0346002B67
:1075800005D0019B1B68009A1288134400E0002379
:10759000184603B05DF804FB00B583B0019000917C
:1075A000009B1A88009B5B889A4204D10198FFF7E0
:1075B00026FF012300E00023184603B05DF804FB1A
:1075C00000B583B001900091009B19460198FFF728
:1075D00026FF0346002B05D0019B1B68009A5288AA
:1075E000134400E00023184603B05DF804FB00B527
:1075F00083B001900091009B1A88009B5B889A429F
:1076000004D10198FFF736FF012300E0002318465C
:1076100003B05DF804FB000000B583B001900B4699
:107620008DF80330019B002B03D10849AF2005F0F2
:10763000E1F9019BDA689DF803300199098A01FBA1
:1076400003F31344184603B05DF804FB386F0300DE
:1076500000B583B001900091019B002B03D1084934
:10766000BC2005F0C7F9009B019AD2689B1A019AC9
:10767000128AB3FBF2F3DBB2184603B05DF804FBE9
:10768000386F030000B585B00190019B002B01D13C
:107690000E2348E0019B1B68002B03D12449C62020
:1076A00005F0A8F9019B5B68002B03D12049C72096
:1076B00005F0A0F9019B9B68002B03D11C49C82051
:1076C00005F098F9019BDB68002B03D11849C9200C
:1076D00005F090F9019B1B8A002B03D11449CA20A5
:1076E00005F088F9019B9A68019B5B68D31A8DF8B5
:1076F0000F30019B1B68019A52681A6007E0019BDA
:107700001A681368591C11609DF80F201A709DF8B3
:107710000F305A1E8DF80F20002BF0D1019B1B68F3
:1077200000221A710023184605B05DF804FB00BF63
:10773000386F030000B585B00190019B002B03D189
:107740001F49EC2005F056F90023039300238DF820
:107750000A300DF10A031846FDF7F4FE019B1B6881
:107760001A68019B5B689A421FD9019B1B681A68C3
:10777000013A1A601B681B7819460198FFF74CFF05
:107780000390019B9A68019B1B681B68D31A8DF8B4
:107790000B30019B1B681B799DF80B209A4204D982
:1077A000019B1B689DF80B201A719DF80A30184642
:1077B000FDF7DEFE039B184605B05DF804FB00BF35
:1077C000386F030010B584B001900091019B002B2D
:1077D00004D115494FF4887005F00CF9009B002B7B
:1077E00004D1114940F2111005F004F9009B0393F4
:1077F00000238DF80B300DF10B031846FDF7A2FEA8
:10780000019B1B681C68621C1A6003990198FFF7B2
:107810001FFF034623709DF80B301846FDF7A8FEA6
:1078200000BF04B010BD00BF386F030000B583B0C7
:107830000190019B002B03D10C49312005F0DAF8AF
:10784000019B9B68002B0CD0019B5B69019A10691E
:10785000019A1168019A92689847019B00229A60E8
:1078600000E000BF03B05DF804FB00BFAC6F030095
:107870000EB400B584B00190019B002B03D11849D0
:10788000422005F0B7F8019B5B69002B03D1144936
:10789000432005F0AFF8019B1B68002B03D1104972
:1078A000442005F0A7F8019B5B68002B03D10C492D
:1078B000452005F09FF8059B002B0AD00023039379
:1078C00006AB039303AB1A460599019800F0B0F993
:1078D00000E000BF04B05DF804EB03B0704700BFE8
:1078E000AC6F030000B583B001900B468DF80330F8
:1078F000019B1A68019B9B68581C0199886013447E
:107900009DF803201A70019B9A68019B5B689A425C
:1079100002D30198FFF78AFF00BF03B05DF804FBB4
:1079200000B587B003900291019200930023059364
:10793000009B03F00103002B24D00BE0029B0133DA
:107940000293059B013305939DF813301946039864
:10795000FFF7C8FF029B1B788DF813309DF813309A
:10796000002BEBD106E0019B013B01932021039802
:10797000FFF7B8FF019A059B9A422ED9019B002B75
:10798000F1D12AE0029B002B0BD002980EF04BFCA9
:10799000059006E0019B013B019320210398FFF72E
:1079A000A1FF019A059B9A420FD9019B002BF1D1AF
:1079B0000BE0029B01330293059B013305939DF875
:1079C000133019460398FFF78DFF029B1B788DF843
:1079D00013309DF81330002BEBD100BF07B05DF8DA
:1079E00004FB000000B589B003900291019200935E
:1079F000029B07930123069307E0079A019BB2FBC2
:107A0000F3F30793069B01330693079A019B9A426F
:107A1000F3D2009A069B9A4201D9009B06930B9BD6
:107A200003F00103002B22D10A9B002B1FD00B9BDC
:107A300003F00203002B06D0009B002B03D1302360
:107A40008DF8173002E020238DF8173008E00A9BEC
:107A5000013B0A939DF8173019460398FFF742FF40
:107A60000A9B002B03D0069A0A9B9A42EFD301236C
:107A70000793009B012B03D9009B013B009309E076
:107A8000029A079BB2FBF3F30493049A019B9A4278
:107A900000D205E0079B019A02FB03F30793E8E796
:107AA000029A079BB2FBF3F30493049B079A02FB31
:107AB00003F3029AD31A0293154A049B13441B78CA
:107AC00019460398FFF70EFF079A019BB2FBF3F3E9
:107AD0000793079B002BE3D10B9B03F00103002BC3
:107AE00011D00A9B002B0ED006E00A9B013B0A93A3
:107AF00020210398FFF7F6FE0A9B002B03D0069A7D
:107B00000A9B9A42F1D300BF09B05DF804FB00BFA5
:107B10008470030000B589B005900491039202932C
:107B2000049B002BB8BF5B4206930123079307E039
:107B3000039B069A92FBF3F30693079B013307938B
:107B4000039B069A9A42F3DA029A079B9A4201D95A
:107B5000029B07930A9B002B0AD0049B002B04DB9B
:107B60000B9B03F00403002B02D00A9B013B0A93FA
:107B70000B9B03F00203002B02D0029B002B16D0BC
:107B80000B9B03F00103002B11D10A9B002B0ED09D
:107B900006E00A9B013B0A9320210598FFF7A2FE0D
:107BA0000A9B002B03D0079A0A9B9A42F1D3049BAD
:107BB000002B07DA049B5B4204932D210598FFF705
:107BC00091FE08E00B9B03F00403002B03D02B2154
:107BD0000598FFF787FE0B9B03F00203002B19D0DB
:107BE0000B9B03F00103002B14D1029B002B11D13E
:107BF0000A9B002B0ED006E00A9B013B0A93302122
:107C00000598FFF76FFE0A9B002B03D0079A0A9B8B
:107C10009A42F1D304990B9B01930A9B0093029B18
:107C2000039A0598FFF7DEFE00BF09B05DF804FB7C
:107C300000B58FB0059004910392059B002B04D1F1
:107C4000C8494FF49F7004F0D5FE059B5B69002B7B
:107C500004D1C4494FF4A07004F0CCFE059B1B680E
:107C6000002B04D1BF4940F2411004F0C3FE059B34
:107C70005B68002B04D1BB494FF4A17004F0BAFE3D
:107C8000049B002B00F0ED81049B1B788DF83730AE
:107C9000049B013304939DF83730002B00F0D8810A
:107CA0009DF83730252B40F0C78100230A9301232C
:107CB0000C93049B1B788DF837309DF837302D2BB3
:107CC00004D0302B0AD02B2B10D017E00A9B43F0A6
:107CD00001030A93049B0133049312E00A9B43F0CF
:107CE00002030A93049B013304930AE00A9B43F0C6
:107CF00004030A93049B0133049302E000230C93D2
:107D000000BF0C9B002BD4D1002309939DF8373082
:107D10002A2B0CD1039B1B68191D039A11601B6849
:107D2000099A13440993049B013304931AE0049BBA
:107D30001B788DF837309DF837302F2B12D99DF8EE
:107D40003730392B0ED8049B01330493099A13461C
:107D50009B0013445B001A469DF837301344303BB8
:107D60000993D3E700230B93049B1B788DF83730DE
:107D70009DF837302E2B1DD1049B01330493049BB7
:107D80001B788DF837309DF837302F2B12D99DF89E
:107D90003730392B0ED8049B013304930B9A1346CA
:107DA0009B0013445B001A469DF837301344303B68
:107DB0000B93E4E7049B1B788DF837309DF8373040
:107DC0006C2B03D09DF83730682B07D1049B01330F
:107DD0000493049B1B788DF83730EFE79DF837301C
:107DE000253B532B00F2238101A252F823F000BF60
:107DF000258002002F8002002F8002002F800200C9
:107E00002F8002002F8002002F8002002F800200AE
:107E10002F8002002F8002002F8002002F8002009E
:107E20002F8002002F8002002F8002002F8002008E
:107E30002F8002002F8002002F8002002F8002007E
:107E40002F8002002F8002002F8002002F8002006E
:107E50002F8002002F8002002F8002002F8002005E
:107E60002F8002002F8002002F8002002F8002004E
:107E70002F8002002F8002002F8002002F8002003E
:107E80002F8002002F8002002F8002002F8002002E
:107E90002F8002002F8002002F8002002F8002001E
:107EA0002F8002002F8002002F8002002F8002000E
:107EB0002F8002002F8002002F800200B17F02007D
:107EC0002F8002002F8002002F8002002F800200EE
:107ED0002F8002002F8002002F8002002F800200DE
:107EE0002F8002002F800200417F0200697F020084
:107EF0002F8002002F8002002F8002002F800200BE
:107F0000697F02002F8002002F8002002F80020074
:107F10002F8002002F8002002F800200F17F0200DC
:107F20002F8002002F800200D57F02002F800200E8
:107F30008D7F02002F8002002F800200B17F02009F
:107F4000039B1B68191D039A11601B680C930C9B03
:107F50008DF823309DF8233019460598FFF7C2FCB1
:107F600066E000BF14700300039B1B68191D039A91
:107F700011601B680C930A9B0193099B00930B9B58
:107F80000A220C990598FFF7C5FD51E0039B1B6879
:107F9000191D039A11601B680C930C990A9B01939D
:107FA000099B00930B9B0A220598FFF71BFD3FE0FE
:107FB000039B1B68191D039A11601B680C930C9995
:107FC0000A9B0193099B00930B9B10220598FFF7D6
:107FD00009FD2DE0039B1B68191D039A11601B68A6
:107FE00007930A9B099A07990598FFF799FC1FE0E8
:107FF000039B1B68191D039A11601B680C933021A9
:108000000598FFF76FFC78210598FFF76BFC0C993A
:108010000023019308230093082310220598FFF7FB
:10802000E1FC05E025210598FFF75CFC00E000BFBE
:10803000049B0133049305E09DF8373019460598F9
:10804000FFF750FC049B1B78002B7FF41DAE00E073
:1080500000BF059B1B7B002B04D00598FFF7E6FBB8
:1080600000E000BF0FB05DF804FB00BF00B585B0B5
:10807000039002910192039B002B02D0029B002BE4
:1080800001D10E2309E0039B029A1A60039B1B682F
:108090001B680199039898470346184605B05DF898
:1080A00004FB10B586B00590049103920293059BE2
:1080B000002B02D0039B002B01D10E2340E0059B37
:1080C0001B68002B01D108233AE0029B002B0AD049
:1080D000059B5B685A68029BB3FBF2F102FB01F25D
:1080E0009B1A002B01D009232AE0049800F0C6F85F
:1080F000034683F00103DBB2002B14D1039B184627
:1081000000F0BCF8034683F00103DBB2002B0AD178
:10811000029A0499059800F097F8034683F001034A
:10812000DBB2002B01D010230AE0059B1B68DC6842
:10813000089B0093029B039A04990598A047034665
:10814000184606B010BD10B584B00390029101929C
:108150000093039B002B01D10E232EE0039B1B6891
:10816000002B01D1082328E0019B002B01D109231A
:1081700023E0039B5B681B685A1E029B1340002B85
:1081800010D1039B5B681B68019A02FB03F31A463C
:108190000299039800F058F8034683F00103DBB21C
:1081A000002B01D0102308E0039B1B681C69009B77
:1081B000019A02990398A0470346184604B010BDDF
:1081C00000B585B00190019B002B03D0019B1B687B
:1081D000002B28D10023039319E0039A13469B0038
:1081E00013449B001A46154B13440193019B1B68D3
:1081F000002B09D0019B1B68DB6901989847034657
:10820000002B01D0012314E0039B013303930C4A9C
:108210000A4BD31A0B4AA2FB03231B09039A9A4267
:10822000DBD3002305E0019B1B68DB6901989847BD
:108230000346184605B05DF804FB00BF302A002055
:10824000442A0020CDCCCCCC84B003900291019282
:10825000039BDB68029A9A4209D3029A019B13445A
:108260005A1E039B1B699A4201D8012300E0002398
:1082700003F00103DBB2184604B0704782B00190EE
:10828000019B03F00303002B0CBF01230023DBB28F
:10829000184602B0704729DF704700BF184628DF34
:1082A000704700BF184610B487B001900091019B41
:1082B000009A53E8004F104643E8000191F0000F88
:1082C000F7D1059404900391059B184607B05DF81B
:1082D000044B704710B487B001900091019B009A45
:1082E00053E8004F44EA020043E8000191F0000F18
:1082F000F6D1059404900391059B184607B05DF8EC
:10830000044B704700B583B0019001210198FFF73D
:10831000E1FF0346184603B05DF804FB00B589B0E1
:1083200001900091019B1B689B68002B31D003AB2F
:1083300000221A605A609A60DA601A61009B049306
:10834000019B9B680793019B1B79002B02D0012B9B
:108350000AD017E001238DF80C30019B1B690593AF
:10836000019B5B6906930DE002238DF80C30019BA5
:10837000DB684FF4805202FB03F30593019B5B69BA
:10838000069300BF019B1B689B6803AA1046984791
:1083900000E000BF09B05DF804FB00B587B00190B4
:1083A000019B5A69019B9B69D31AB3F5805F28BF73
:1083B0004FF4805305930422059BB3FBF2F3012B8A
:1083C00038BF01230593019B1A69019B9B691344E4
:1083D0000493019BDB681A46019B9B69134403933A
:1083E000059A03990498FFF756FF0346184607B00D
:1083F0005DF804FB00B583B00190019BDA68019B36
:108400001B6913441846FFF74AFF0346184603B09A
:108410005DF804FB08B5034B03491846FFF7E7F87E
:1084200000BF08BDE03500200836002008B5084B25
:1084300008491846FFF7C4F80246074B1A60064B76
:108440001B68002B14BF01230023DBB2184608BDB4
:10845000E0350020083600200436002000B583B047
:108460002A4B1B7A002B0BD1FFF7E0FF034683F06A
:108470000103DBB2002B03D0244B00225A6041E001
:10848000224B02221A72224B1B681B79002B02D04E
:10849000012B07D00DE01E4B1B681846FFF77DFF30
:1084A000019009E01A4B1B681846FFF7A3FF0190E3
:1084B00002E00323019300BF019B002B03D0019B2B
:1084C000112B0CD00FE0114B1B7C83F00103DBB2AE
:1084D000002B16D00021022000F066F911E00B4BB2
:1084E00001221A720EE00A4B1B6803211846FFF79F
:1084F00015FF064B00221A72044B00225A6000BF7F
:1085000000E000BF03B05DF804FB00BFF0350020C1
:108510000436002000B583B001210A48FFF7C3FEEE
:1085200003460193019B002B08D1074B5B7C83F032
:108530000103DBB2002B01D0FFF790FF00BF03B0B7
:108540005DF804FBF4350020F035002084B0019084
:108550001B4B0022DA60019B1B79002B02D0012B00
:1085600019D028E0019B5A69019B9B69D31AB3F586
:10857000805F28BF4FF480530393019B9A69039B4C
:108580001A44019B9A61019B9A69019B5B699A421B
:108590000ED1012310E0019B1B695A1C019B1A613B
:1085A000019B1A69019B5B699A4203D1012303E095
:1085B00000BF00E000BF0023184604B0704700BFB2
:1085C000F035002082B00190084BDB680133074A88
:1085D000D360064BDB68082B04D9044B0022DA6019
:1085E000012300E00023184602B07047F035002058
:1085F00000B583B0019000910C48FFF783FE03465D
:10860000002B0ED1019B0A4A5A600DF0D5F90346A2
:108610001A46064B1A7407481C238C220649FEF79B
:108620005DFF0023184603B05DF804FBF035002021
:1086300094700300E03500205435002000B583B06D
:10864000019000911422002105480DF097FD054B83
:108650001846FEF776FF0023184603B05DF804FBCA
:10866000F0350020E035002000B587B0039002917E
:1086700001920093174A04AB19461046FEF775FFA6
:108680000590059B002B01D104231FE01C22002133
:1086900005980DF073FD059B00221A71059B039A46
:1086A0001A60059B089A9A60059B029A1A61059BBD
:1086B000019ADA60059B009A5A61064A04AB194692
:1086C0001046FEF769FFFFF725FF0023184607B0A5
:1086D0005DF804FBE035002000B585B00390029101
:1086E00001920093029B009A194601980DF01DFD1E
:1086F0000023184605B05DF804FB000000B587B004
:108700000390029101920093184A04AB1946104657
:10871000FEF72BFF0590059B002B01D1042320E0E1
:108720001C22002105980DF029FD059B01221A71DC
:10873000059B039A1A60059B009A9A604FF4805239
:10874000029BB3FBF2F2059BDA60059B019A5A612A
:10875000064A04AB19461046FEF71EFFFFF7DAFE85
:108760000023184607B05DF804FB00BFE035002089
:1087700082B001900091009B184602B0704782B011
:10878000019000910023184602B0704782B001901A
:10879000044B1B7A002B14BF01230023DBB21846C5
:1087A00002B07047F035002000B585B0019000910F
:1087B000254B1B7A012B33D0022B41D100238DF89E
:1087C0000F30019B022B03D0019B032B09D011E03A
:1087D0001E4B1B681846FFF7B9FE03468DF80F3095
:1087E00008E01A4B1B681846FFF7ECFE03468DF8AD
:1087F0000F3000BF9DF80F30002B13D0124B00221A
:108800001A72124B1A68019B022B01D1002300E05F
:108810000D2319461046FFF781FDFFF7FBFD01E030
:1088200000BF00E000BF084B5B7C83F00103DBB2BC
:10883000002B02D0FFF712FE03E00DF0A1F800E0DC
:1088400000BF05B05DF804FBF035002004360020C1
:1088500082B0034600918DF80730064B01225A740E
:10886000044B1B7A002B0CBF01230023DBB21846FC
:1088700002B07047F035002000B583B00346009188
:108880008DF807309DF80730012B03D09DF8073095
:10889000032B0DD1084B00225A749DF80730012B91
:1088A0000CBF01230023DAB2034B1A74FFF7D6FD85
:1088B00000BF03B05DF804FBF035002010B487B0B2
:1088C00001900091019B009A53E8004F04EB0200D5
:1088D00043E8000191F0000FF6D105940490039154
:1088E000049B184607B05DF8044B704710B487B07E
:1088F00001900091019B009A53E8004FA4EB020005
:1089000043E8000191F0000FF6D105940490039123
:10891000049B184607B05DF8044B704700B583B060
:1089200001900198FEF7AEFE0346184603B05DF8CD
:1089300004FB00B58BB001900091019B1B8A043BA6
:108940000793009A079B1344DA1C079BB2FBF3F3CF
:108950008DF81B300198FEF7EDFE0590059B002B6E
:1089600001D1002338E0059B00221A71059B0122EA
:108970005A71079B9AB2059BDA80059B09939DF873
:108980001B30013B0493099B019A1A600023089352
:108990001DE00198FEF7CEFE0390039B002B0ED046
:1089A000059B5B790133DAB2059B5A71099B039AE7
:1089B0001A60039B019A1A60039B099304E00598CF
:1089C00000F00EF8002307E0089B01330893089A93
:1089D000049B9A42DDD3059B18460BB05DF804FB5F
:1089E00000B58BB00190019B0793079B5B798DF8D5
:1089F0001B30019B08939DF81B30013B059300231E
:108A0000099305E0089B1B680893099B01330993B0
:108A1000099A059B9A42F5D3089B1B680493019B16
:108A20000893002309930BE0089B1B6803930899A4
:108A30000498FEF7C7FE039B0893099B0133099333
:108A40009DF81B30099A9A42EED300BF0BB05DF837
:108A500004FB00B585B00190019B0393039B043395
:108A600001211846FFF72AFF00BF05B05DF804FB9F
:108A700000B587B00190019B0593059B043301214C
:108A80001846FFF733FF0346039303AB0493049B9D
:108A90001B78002B02D10198FFF7A2FF00BF07B09F
:108AA0005DF804FB00B58DB0039002910192009334
:108AB000039B0693069BDB880593039B0B93009B0C
:108AC0001A1D059BB2FBF3F30A93009B0433059A2E
:108AD000B3FBF2F2059901FB02F29B1A0993009A8B
:108AE000019B1A44059B1344DA1C059BB2FBF3F36C
:108AF0008DF81330069B5B799DF813209A420AD9B2
:108B00002749BA2003F076FF05E00B9B1B680B9307
:108B10000A9B013B0A930A9B002BF6D10023089382
:108B2000059A099BD31A0793079A019B934228BF82
:108B3000134607932DE09DF83830002B0BD0029A96
:108B4000089BD0180B9A099B13440433079A1946C3
:108B50000DF0EBFA0AE00B9A099B1344181D029AD8
:108B6000089B1344079A19460DF0DFFA0023099376
:108B70000B9B1B680B93019A079BD31A0193089ACE
:108B8000079B13440893059A019B934228BF134601
:108B90000793019B002BCED100BF0DB05DF804FB05
:108BA000C070030000B587B0059004910392029352
:108BB00000230093029B039A04990598FFF772FF24
:108BC00000BF07B05DF804FB00B587B005900491C5
:108BD0000392029301230093029B039A0499059840
:108BE000FFF760FF00BF07B05DF804FB82B00346EB
:108BF0008DF807309DF8073003F01F0206499DF9F4
:108C000007305B09012000FA02F2603341F82320AB
:108C100000BF02B0704700BF00E100E0BFF34F8F1C
:108C2000054BDB6803F4E0620349044B1343CB605C
:108C3000BFF34F8F00BFFDE700ED00E00400FA0531
:108C400000B583B00190019B002B03D10449C420DF
:108C500003F0D0FE019B5B68184603B05DF804FB8F
:108C60004071030010B487B001900091019B009AFD
:108C700053E8004F104643E8000191F0000FF7D190
:108C8000059404900391059B184607B05DF8044BCA
:108C90007047000000B583B00190019B002B03D109
:108CA0000649722003F0A6FE019B00221A60BFF362
:108CB0005F8F00BF03B05DF804FB00BF9471030039
:108CC00000B585B00190019B002B03D10A49852096
:108CD00003F090FE01210198FFF7C4FF0390BFF35A
:108CE0005F8F039B002B0CBF01230023DBB21846D0
:108CF00005B05DF804FB00BF9471030000B583B0BC
:108D00000190019B002B03D10A49922003F072FECF
:108D1000019B1B68012B03D00649932003F06AFED8
:108D2000BFF35F8F019B00221A6000BF03B05DF8A4
:108D300004FB00BF947103004FF080430122C3F88D
:108D40000025BFF34F8F20BFFDE732DF704700BF24
:108D500018463EDF704700BF1846000000B585B0DA
:108D600000238DF803300DF103031846FCF7EAFBEE
:108D7000F1EE103A0193019B0393039B23F09F03B1
:108D80000293029BE1EE103ABFF35F8F2620FFF7BC
:108D90002DFF9DF803301846FCF7EAFB039B03F018
:108DA0000703002B03D00449762003F023FE00BF05
:108DB00005B05DF804FB00BFD871030008B5064B91
:108DC00000221A700548FFF765FF0549054800F0C5
:108DD000B5F80023184608BD1436002010360020D0
:108DE000507203001836002000B583B0FFF7B6FFBD
:108DF0000CF0E2FD0346002B0ED0FFF7AAFF019016
:108E0000019B002B0BD0019B022B08D0064940F29E
:108E1000591003F0EFFD02E020BF40BF20BF00BFAC
:108E200003B05DF804FB00BFD871030000B583B048
:108E30000FE02148FFF704FF0090009B1B681F4ACA
:108E40001278104698470346002B31D01A4800F09C
:108E50009FF81948FFF7F4FE0346002BE9D1FBF712
:108E6000F3F800BFFAF7C6FE0346002BFAD1134B06
:108E70001B78032B03D0114B1B78022B02D1FFF779
:108E8000CDFE16E00CF098FD0346002B0DD0FFF749
:108E90005CFF0190019B002B07D0019B022B04D0AB
:108EA000074940F29B1003F0A5FDFFF745FF00E0E6
:108EB00000BF03B05DF804FB183600200C3600201C
:108EC000D871030000B583B003468DF8073017480A
:108ED000FFF7F6FE034683F00103DBB2002B21D13E
:108EE0009DF80730042B0ED0114B1B78002B03D0BC
:108EF0000E48FFF703FF16E00E4A9DF80730137087
:108F00000B4B01221A700A4B1B78002B04D10A4923
:108F10004FF4E27003F06EFDFFF788FF0348FFF7A0
:108F2000EDFE00E000BF03B05DF804FB103600204A
:108F3000143600200C360020D871030000B583B031
:108F400001900091019B002B03D11049502003F0A8
:108F500051FD009B002B03D10C49512003F04AFD29
:108F6000019B009A1A60019B1B681A68019B5A605A
:108F7000019B5A68019B1B685B689A4202D1019B66
:108F800000225A6000BF03B05DF804FB5C7203006E
:108F900000B583B00190019B002B03D114496320DD
:108FA00003F028FD019B1B68002B03D110496420AE
:108FB00003F020FD019B5B68002B14D0019B5B68D4
:108FC0001A46019B1B689B6813441A46019B5A6012
:108FD000019B5A68019B1B685B689A4204D1019B04
:108FE00000225A6000E000BF03B05DF804FB00BF40
:108FF0005C72030000B585B00190019800F00EF896
:109000000390039B002B01D0039B00E0024B18460A
:1090100005B05DF804FB00BFE872030086B0019064
:10902000164B0593164B04931FE0049A059BD31A25
:10903000DB10DA0F13445B10DB00059A1344039333
:10904000039B1B680293029A019B9A4202D9039BDD
:1090500004930AE0029A019B9A4203D2039B0833CD
:10906000059302E0039B5B6804E0059A049B9A4227
:10907000DBD30023184606B0704700BF0476030018
:10908000F476030082B001900B46ADF80230019BEC
:109090001A68BDF80230012101FA03F31A43019B5B
:1090A0001A6000BF02B0704782B001900B46ADF865
:1090B0000230019B1A68BDF80230012101FA03F366
:1090C000DB431A40019B1A6000BF02B0704782B0B8
:1090D00001900B46ADF80230BDF80230012202FAD1
:1090E00003F31A46019B1340002B14BF01230023F6
:1090F000DBB2184602B0704700B585B0019000237E
:10910000ADF80E3010E0BDF80E3019460198FFF7AB
:10911000DEFF0346002B02D0BDF80E300AE0BDF89A
:109120000E300133ADF80E30BDF80E301F2BEAD9EA
:109130004FF6FF73184605B05DF804FB00B587B025
:109140000590049111461A460B46ADF80E301346B1
:109150008DF80D30BDF80E209DF80D3000931346AC
:1091600001220499059800F004F800BF07B05DF8EB
:1091700004FB00B587B0039002910192ADF8023074
:10918000039B002B3BD0029B002B38D0019B002B74
:1091900035D0002305932FE0059B5B00039A134411
:1091A0001B88BDF802209A4223D1002304931BE0C0
:1091B0009DF82030002B0AD0049B9B00029A134498
:1091C000059A92B211461846FFF75CFF09E0049B2E
:1091D0009B00029A1344059A92B211461846FFF773
:1091E00063FF049B01330493049A019B9A42DFD3EB
:1091F00005E0059B01330593059B1F2BCCD907B0D8
:109200005DF804FB00B587B0039002911346ADF8FA
:109210000630039B002B19D00023059313E0059B18
:109220005B00039A13441B88BDF806209A4207D1BD
:10923000059B9BB219460298FFF749FF034606E0DB
:10924000059B01330593059B1F2BE8D90023184686
:1092500007B05DF804FB00B597B00390029101924E
:1092600000230493029B002B1ED00023159318E0CB
:10927000159B9BB219460198FFF729FF0346002B67
:109280000CD0159B5B00029A1A44049B591C049154
:1092900012885B0016A90B4423F8442C159B01335C
:1092A0001593159B1F2BE3D9039B184604AB44224F
:1092B00019460CF03AFF039817B05DF804FB00B5AF
:1092C00085B0019000230393002302930EE0029BDC
:1092D0009BB219460198FFF7FAFE0346002B02D015
:1092E000039B01330393029B01330293029B1F2BC9
:1092F000EDD9039B184605B05DF804FB84B00190DE
:10930000019B9B680393019BDA68039BD31A184661
:1093100004B0704700B587B001900091019B1B78A5
:10932000012B04D0022B38D0002B47D05CE0019BEE
:109330005B681B7819462E4800F0B3F90590059B31
:10934000002B0AD001238DF80C30059B0493294B88
:109350001B6803AA104698470DE02548FFF7CEFF8B
:109360000346002B07D000238DF80C30214B1B68DF
:1093700003AA104698471E48FFF7C0FF02461C4B41
:109380009B889A4205D801221B491C4802F0D6FA54
:109390002AE01B4B01221A7026E002238DF80C30C4
:1093A000019BDB68049301221349144802F0C6FABA
:1093B000104B1B6803AA1046984715E01149124844
:1093C00000F08AF90346002B05D101220D490B4814
:1093D00002F0AAF807E003238DF80C30054B1B6858
:1093E00003AA1046984700BF00BF07B05DF804FB12
:1093F0002C3600202036002028360020882A002025
:1094000029360020243600203C36002030B58FB0AD
:109410000390029101928DF803303E4A019B136044
:10942000029B002B01D1072371E0029B1968029B6C
:109430005B689BB21A46384800F007F90D900D9B07
:10944000002B01D00D9B62E0029B9968029BDB68B8
:109450009BB21A46314800F0F8F80D900D9B002B96
:1094600001D00D9B53E02E4B05AC1D460FCD0FC414
:1094700095E80F0084E80F00039B5B690B93039B47
:109480001B7C002B14BF01230023DBB28DF8283096
:109490009DF803308DF83030039B5B7C002B01D0AE
:1094A0000E2300E000238DF82930039BDB6807932F
:1094B000039B9B680893039B1B680693039B5B6855
:1094C000059305AB174A1946174801F0E7FE0D90C2
:1094D0000D9B002B01D00D9B19E0144B00221A703C
:1094E000039B1B68B3F1FF3F10D09DF8313083F030
:1094F0000103DBB2002B02D00B4802F0E3FA012299
:109500000B49094802F01AFA034600E00023184606
:109510000FB030BD203600202C3600203C36002015
:10952000F476030015930200882A002029360020D3
:109530002836002000B585B003468DF807309DF829
:1095400007301946104800F0ACF80390039B002B3D
:1095500015D10E4802F054F8034683F00103DBB244
:10956000002B0CD00A49084800F0B6F80346002B3F
:1095700005D101220649054801F0D6FF0390039B5F
:10958000184605B05DF804FB3C360020882A002010
:109590002436002000B583B001900091019BDBB21E
:1095A0001846FFF7C7FF019B184603B05DF804FBA0
:1095B00084B00190019B9B680393019BDA68039B35
:1095C000D31A184604B0704782B001900B468DF84C
:1095D0000330019B1A68019BDB68019989880B4065
:1095E00013449DF803201A70019BDB685A1C019BF1
:1095F000DA6000BF02B0704784B003900B4601925E
:10960000ADF80A30039B1A68039B9968BDF80A30CD
:109610000B44039989880B4013441A78019B1A70F4
:1096200000BF04B0704700B583B001900091009A6C
:1096300000210198FFF7E0FF019B9B685A1C019BEA
:109640009A6000BF03B05DF804FB84B00390029100
:109650001346ADF80630029B002B01D10E231DE00E
:10966000BDF80630002B07D0BDF806305A1EBDF8F5
:1096700006301340002B01D009230FE0039B029A10
:109680001A60BDF80630013B9AB2039B9A80039B97
:1096900000229A60039B0022DA600023184604B07F
:1096A000704700B583B001900B468DF803300198E8
:1096B000FFF77EFF0246019B9B889A4207D89DF8E0
:1096C000033019460198FFF77FFF002300E00423D1
:1096D000184603B05DF804FB00B583B0019000911B
:1096E0000198FFF765FF0346002B05D0009901980C
:1096F000FFF799FF002300E00523184603B05DF84B
:1097000004FB000000B583B00190019B1B681F2B78
:1097100004D905494FF4E87003F06CF94FF0A04309
:10972000184603B05DF804FB8877030000B585B0E8
:109730000190084611461A4603468DF803300B4641
:109740008DF8023013468DF8013001AB1846FFF753
:10975000D9FF03909DF803209DF802305B001A4367
:109760009DF801309B001A439DF818301B0242EA15
:1097700003019DF81C301B04019A1943039B02F559
:10978000E07243F8221000BF05B05DF804FB00B59D
:1097900085B003900023019300230093002301224E
:1097A00001210398FFF7C2FF00BF05B05DF804FB7D
:1097B00000B585B0019001AB1846FFF7A3FF0390F9
:1097C000019B012202FA03F31946039800F086F880
:1097D00000BF05B05DF804FB00B585B0019001AB9A
:1097E0001846FFF78FFF0390019B012202FA03F353
:1097F0001946039800F07CF800BF05B05DF804FB43
:1098000000B585B0019001AB1846FFF77BFF0390D0
:10981000039BD3F804350293029BDA43019B012199
:1098200001FA03F31A40039BC3F80825019B0122A8
:109830009A40029B1A40039BC3F80C2500BF05B059
:109840005DF804FB00B583B001900091009B002BF4
:1098500003D10198FFF7C0FF02E00198FFF7A8FFCE
:1098600000BF03B05DF804FB00B585B0019001AB0B
:109870001846FFF747FF0390039800F01FF80246D1
:10988000019B22FA03F303F00103184605B05DF8CB
:1098900004FB00B585B0019001AB1846FFF732FF1D
:1098A0000390039800F012F80246019B22FA03F39A
:1098B00003F00103184605B05DF804FB82B0019087
:1098C000019BD3F81035184602B0704782B0019062
:1098D000019BD3F80435184602B0704782B001905E
:1098E0000091019B009AC3F8082500BF02B07047A1
:1098F00082B001900091019B009AC3F80C2500BF33
:1099000002B0704700B585B00190019B012B03D9CF
:109910001149372003F06EF8104A019B13441B785D
:109920001846FFF7B6FF0346002B14BF01230023A0
:109930008DF80F309DF80F30002B14BF012300234A
:10994000DBB283F00103DBB203F00103DBB21846A4
:1099500005B05DF804FB00BFC07703002478030066
:1099600000B583B00190019B012B03D907493E202C
:1099700003F040F8064A019B13441B780021184667
:10998000FFF760FF00BF03B05DF804FBC077030082
:109990002478030000B583B00190019B012B03D90B
:1099A0000749442003F026F8064A019B13441B781C
:1099B00001211846FFF746FF00BF03B05DF804FB26
:1099C000C07703002478030000B583B0002301931F
:1099D00005E00198FFF7DEFF019B01330193019B36
:1099E000012BF6D900BF03B05DF804FB00B583B0CE
:1099F0000023019305E00198FFF7B2FF019B0133BB
:109A00000193019B012BF6D900BF03B05DF804FB65
:109A100000B583B00190019B012B03D907495C205D
:109A200002F0E8FF064A019B13441B781846FFF733
:109A3000E7FE00BF03B05DF804FB00BFC077030082
:109A40002478030000B583B00023019309E0094A9C
:109A5000019B13441B781846FFF799FE019B0133C5
:109A60000193019B012BF2D9FFF7AEFF00BF03B0BA
:109A70005DF804FB2478030000B585B00190019BDC
:109A8000032B03D91149832002F0B4FF104A019B34
:109A900013441B781846FFF7E7FE0346002B14BF5C
:109AA000012300238DF80F309DF80F30002B14BFD9
:109AB00001230023DBB283F00103DBB203F00103D7
:109AC000DBB2184605B05DF804FB00BFC0770300A9
:109AD0002878030084B001904FF0FF3302930023F5
:109AE00003930DE00A4A039B13441B781A46019B1B
:109AF000934202D1039B029305E0039B013303933E
:109B0000039B032BEED9029B184604B0704700BF9D
:109B10002878030000B583B00190019B032B03D983
:109B20000549A22002F066FF044A019B13441B78FA
:109B3000184603B05DF804FBC077030028780300E3
:109B400082B003468DF807309DF8073003F01F02FE
:109B500006499DF907305B09012000FA02F2203323
:109B600041F8232000BF02B0704700BF00E100E0D1
:109B700082B001904FF08042019BC2F8083300BFD1
:109B800002B0704782B003468DF807309DF8073069
:109B900003F1804301221A6000BF02B0704784B015
:109BA0000346ADF80630BDF8063003F180430022CD
:109BB0001A60BDF8063003F180431B680393039BD2
:109BC00000BF04B0704782B00346ADF80630BDF860
:109BD000063003F180431B68002B14BF01230023D0
:109BE000DBB2184602B0704782B003468DF80730EA
:109BF0009DF807304FF0804203F00303C2F8183598
:109C000000BF02B070474FF08043D3F818341B0CEC
:109C100003F00103002B14BF01230023DBB218461D
:109C20007047000082B003468DF807300A4A9DF95C
:109C300007305B0952F823209DF8073003F01F031B
:109C4000012101FA03F31340002B14BF0123002369
:109C5000DBB2184602B0704700E100E008B5002012
:109C6000FFF7E0FF034683F00103DBB2002B03D0D4
:109C70000721002000F096F900BF08BD08B50BF0E1
:109C80009BFE034683F00103DBB2002B03D109499D
:109C9000842002F0AFFE0C20FFF774FF00BFFFF737
:109CA000B2FF0346002BFAD1034B00229A7000BF8B
:109CB00008BD00BF347803004C36002000B583B0E7
:109CC00000230193134B1B78002B02D085230193B3
:109CD0001BE0104B00229A600E4B00225A600D4B85
:109CE00000221A610B4B0022DA60FFF7B7FF0BF07E
:109CF00063FE034683F00103DBB2002B02D0012098
:109D0000FFF772FF034B01221A70019B184603B044
:109D10005DF804FB4C36002084B00190019B1B6869
:109D20000393039B002B03D0039B1A68019B1A60CB
:109D3000039B184604B0704700B583B0164B1B78E0
:109D4000002B04D115494FF48E7002F053FE124BD4
:109D5000DB68002B04D1114940F21D1002F04AFECD
:109D600000238DF807300DF107031846FBF7EAFBD7
:109D7000094BDB68013B084AD360074BDB68002BCB
:109D800001D1FFF77BFF9DF807301846FBF7F0FB8A
:109D900000BF03B05DF804FB4C36002034780300AC
:109DA00000B585B003468DF807309DF80730002BCD
:109DB00002D10C4B039301E00B4B03930398FFF785
:109DC000ABFF0290029B002B06D0029B5B689DF8C4
:109DD000072010469847F1E700BF00BF05B05DF8C7
:109DE00004FB00BF543600205C36002008B54FF459
:109DF0008070FFF7E8FE0346002B0CD04FF4807014
:109E0000FFF7CDFE0120FFF7B3FE0E4B01225A7083
:109E10000020FFF7C5FF4FF48270FFF7D4FE034622
:109E2000002B0CD04FF48270FFF7B9FE0220FFF731
:109E30009FFE044B01229A700120FFF7B1FF00BF83
:109E400008BD00BF4C36002000B583B001900091E2
:109E5000019B002B02D10020FFF7A2FF00BF03B03F
:109E60005DF804FB00B585B0034600918DF807301E
:109E70009DF80730012B07D0032B24D0002B32D1C3
:109E80000020FFF75DFE2FE000238DF80F300DF16D
:109E90000F031846FBF756FB154B1B7883F00103A5
:109EA000DBB2002B01D0FFF709FF114BDB68013358
:109EB0000F4AD3600E4B01229A709DF80F3018465E
:109EC000FBF756FB10E00A4B1B78002B04D1094925
:109ED00040F25B2002F08EFD0721002000F062F8C6
:109EE000FFF72AFF00E000BF00BF05B05DF804FBEC
:109EF0004C3600203478030082B003468DF80730DA
:109F00009DF8073003F01F0205499DF907305B09F2
:109F1000012000FA02F241F8232000BF02B070478E
:109F200000E100E082B003468DF807309DF807306D
:109F300003F01F0206499DF907305B09012000FA72
:109F400002F2603341F8232000BF02B0704700BF27
:109F500000E100E082B0034600918DF807309DF9E2
:109F60000730002B0CDA009BDAB20C499DF8073061
:109F700003F00F03043B5201D2B20B441A7609E0FE
:109F8000009BDAB206499DF907305201D2B20B4468
:109F900083F8002300BF02B0704700BF00ED00E06F
:109FA00000E100E000B583B003460A468DF80730B3
:109FB00013468DF806309DF80630012B03D99DF825
:109FC0000630032B0CD99DF80630042B03D99DF8DD
:109FD0000630072B04D90D494FF4927002F00AFDA8
:109FE0009DF806209DF9073011461846FFF7B2FF8D
:109FF0009DF907301846FFF795FF9DF90730184681
:10A00000FFF77AFF00BF03B05DF804FBAC780300F4
:10A0100000B583B00346ADF80630BDF806301846EB
:10A0200000F026F803461B68012B0CBF0123002318
:10A03000DBB2184603B05DF804FB00B585B00346FB
:10A04000ADF80630BDF80630184600F011F80346AA
:10A050001A4600231360BDF80630184600F008F8D1
:10A0600003461B680393039B00BF05B05DF804FB28
:10A0700082B00346ADF80630BDF8063003F18043E8
:10A0800003F5C043184602B07047000082B001904B
:10A09000034A019BC2F8043300BF02B0704700BFFF
:10A0A0000060004082B00190034BD3F80423019B71
:10A0B0001340184602B070470060004082B0019023
:10A0C000084A019B03F5A27352F82330054943F077
:10A0D0000102019B03F5A27341F8232000BF02B0E7
:10A0E000704700BF0060004084B0039002911346A7
:10A0F0008DF80730144A039B03F5A27352F82330FE
:10A10000114923F4473323F44073039A02F5A272F2
:10A1100041F822300C4A039B03F5A27352F8232026
:10A12000029B1B0203F4F8519DF807301B0403F453
:10A1300040330B4304491A43039B03F5A27341F8D0
:10A14000232000BF04B070470060004082B001903F
:10A15000054A019B03F5A27352F823301B0A03F052
:10A160001F03184602B070470060004082B00190A3
:10A17000064A019B03F5A27352F823301B0C03F02F
:10A180000303DBB2184602B0704700BF0060004016
:10A1900000B583B00190019B1B681F2B04D90549B2
:10A1A0004FF4E87002F026FC4FF0A043184603B0CD
:10A1B0005DF804FB2479030000B585B001900846E2
:10A1C00011461A4603468DF803300B468DF80230CF
:10A1D00013468DF8013001AB1846FFF7D9FF039005
:10A1E0009DF803209DF802305B001A439DF8013072
:10A1F0009B001A439DF818301B0242EA03019DF8A8
:10A200001C301B04019A1943039B02F5E07243F8CA
:10A21000221000BF05B05DF804FB00B585B00390C7
:10A220000B468DF80B309DF80B2000230193002383
:10A2300000931346002200210398FFF7BDFF00BFE3
:10A2400005B05DF804FB00B585B0019001AB184680
:10A25000FFF79EFF0390019A039B02F5E07253F80B
:10A26000223023F002030293019A039B02F5E0726D
:10A27000029943F8221000BF05B05DF804FB00B559
:10A2800085B001900B468DF8033001AB1846FFF7FF
:10A290007FFF0390019A039B02F5E07253F822308E
:10A2A000019A23F44031039B02F5E07243F8221037
:10A2B000019A039B02F5E07253F822309DF80320C7
:10A2C00012041146019A1943039B02F5E07243F808
:10A2D000221000BF05B05DF804FB00B585B0019009
:10A2E00001AB1846FFF754FF0390039800F020F8E5
:10A2F0000246019B22FA03F303F00103184605B05E
:10A300005DF804FB00B585B0019001AB1846FFF77E
:10A310003FFF0390019A039B02F5E07253F822304D
:10A320001B0C03F00303DBB2184605B05DF804FB19
:10A3300082B00190019BD3F81035184602B07047E7
:10A3400000B587B00390029101924FF0A0430493AF
:10A35000039A029B1344012B04D912494FF43A701B
:10A3600002F048FB039B059311E0059B9B0006AAA6
:10A37000134453F8083C1846FFF7DAFF0246019BE6
:10A380001A60019B04330193059B01330593039AE3
:10A39000029B1344059A9A42E7D300BF07B05DF8C9
:10A3A00004FB00BF2479030084B001900091009B5E
:10A3B0000393019BDB080293019B03F007030193C6
:10A3C0000122019B02FA03F30399029A0A441278CC
:10A3D0001340184604B0704784B001900091009B70
:10A3E0000393019BDB080293019B03F00703019396
:10A3F000039A029B13441B785AB20121019B01FA74
:10A4000003F35BB2134359B2039A029B1344CAB2DB
:10A410001A7000BF04B0704782B001900C4A019BD3
:10A420001344303393F90030002B09DB084A019BB9
:10A430001344303393F90030072B01DC012300E093
:10A44000002303F00103DBB2184602B0704700BFDF
:10A450006036002082B00190064A019B13443033DD
:10A4600093F90030072BCCBF01230023DBB2184641
:10A4700002B070476036002082B00190064A019B0E
:10A480001344303393F90030DB43DBB2DB09DBB23A
:10A49000184602B0704700BF6036002084B00390B9
:10A4A000029101928DF80330029B59B20E4A039B30
:10A4B000134430330A461A700B49029B019A41F843
:10A4C00023209DF8033083F00103DBB2002B08D07A
:10A4D000029B083B039A51B2034A13440A4683F88D
:10A4E000502000BF04B070476036002082B0019059
:10A4F000044A019B13443033FF221A7000BF02B09C
:10A50000704700BF6036002082B00190044A019B72
:10A510001344303393F90030184602B0704700BF3F
:10A520006036002082B00190034A019B52F823302C
:10A53000184602B0704700BF6036002000B589B0F1
:10A540000390029113468DF80730FF238DF81F30DA
:10A550009DF80730002B01D0002300E0082305936D
:10A560009DF80730002B01D0082300E00C23049352
:10A57000059B069314E00F4A069B52F82330B3F173
:10A58000FF3F0AD19DF80730029A06990398FFF71A
:10A5900085FF069B8DF81F3006E0069B013306936E
:10A5A000069A049B9A42E6D39DF91F30184609B0DB
:10A5B0005DF804FB6036002082B003468DF807305A
:10A5C0009DF80730094A4FF0FF3142F823109DF8FB
:10A5D0000730072B07D99DF80730083B034A13447F
:10A5E000FF2283F8502000BF02B070476036002081
:10A5F00000B583B0214B93F85430002B03D00823CF
:10A600000093009B36E000238DF8073009E09DF8A9
:10A6100007301846FFF76AFF9DF8073001338DF8C1
:10A6200007309DF807301F2BF1D900238DF8073034
:10A6300009E09DF807301846FFF7BEFF9DF8073088
:10A6400001338DF807309DF807300B2BF1D9072126
:10A650000620FFF7A7FC4FF4BE70FFF7EEFC4FF0AB
:10A660000040FFF713FD054B012283F8542000231F
:10A670000093009B184603B05DF804FB6036002091
:10A68000044B93F85430002B14BF01230023DBB29A
:10A69000184670476036002000B587B003900291DD
:10A6A0000192039B1F2B04D92B4940F2F71002F0B3
:10A6B000A1F9002305930398FFF7DEFE0346002B64
:10A6C00002D00823059341E0029BDB781A460199EA
:10A6D0000398FFF733FF03468DF813309DF91330CD
:10A6E000B3F1FF3F30D0029B9B78002B03D003983F
:10A6F000FFF7A9FD05E0029B5B7819460398FFF779
:10A700008CFD029BDB78002B08D09DF91300029B87
:10A710001B781A460399FFF7E7FC17E09DF9133001
:10A72000083B0E4A134493F95010029B1B789B017F
:10A730005AB29DF91330083B0A4351B2074A1344F9
:10A740000A4683F8502001E004230593059B184630
:10A7500007B05DF804FB00BF647903006036002099
:10A7600000B587B001900B468DF80330019B1F2B7D
:10A7700004D93D4940F2252002F03CF90198FFF749
:10A780007BFE0346002B04D1374940F2262002F01D
:10A7900031F90198FFF75EFE0346002B2FD0019898
:10A7A000FFF7B2FE0346083B304A134493F950309A
:10A7B0008DF816309DF816309B098DF815309DF8F0
:10A7C0001530032B0BD10198FFF787FD0346002BB3
:10A7D00001D0032300E002238DF8173008E09DF834
:10A7E0001530012B01D1022300E003238DF817302F
:10A7F0009DF8173019460198FFF741FD30E00198A8
:10A80000FFF70AFE0346002B2AD00198FFF77CFED3
:10A8100003460493049B9BB240339BB29B00ADF86C
:10A820000E30049B1846FFF749FCBDF80E30184661
:10A83000FFF703FC9DF80330002B11D00198FFF7C0
:10A8400063FE03461846FFF76DFE0290029B002B45
:10A8500006D00122049B02FA03F31846FFF716FC08
:10A8600000BF07B05DF804FB647903006036002088
:10A8700000B583B00190019B1F2B04D9084940F219
:10A88000722002F0B7F80198FFF727FD0346002B6E
:10A8900014BF01230023DBB2184603B05DF804FBAC
:10A8A0006479030000B595B000231093002303934F
:10A8B0004FF48073ADF84C300123129300230F93B3
:10A8C00021E0BDF84C301846FFF7A2FB0346002BF1
:10A8D0000ED01298FFF7E6FB0346002B08D0BDF818
:10A8E0004C301846FFF7A9FB109A129B13431093A4
:10A8F000129B5B001293BDF84C300433ADF84C3022
:10A900000F9B01330F930F9B072BDAD94FF4BE70C7
:10A91000FFF77EFB0346002B0DD04FF4BE70FFF710
:10A920008CFB109B43F00043109303AB1A460121AC
:10A930000020FFF705FD109BDBB2002B29D001237F
:10A94000129300230F9321E0129A109B1340002BC7
:10A9500016D00F98FFF7FAFB0D900F98FFF706FC43
:10A9600003468DF833300F98FFF7DCFD0B900B9BFF
:10A97000002B05D09DF833200B9B11460D9898476E
:10A98000129B5B0012930F9B01330F930F9B072BBE
:10A99000DAD9109B002B80F2EE8000238DF84F3027
:10A9A00000230293002311930AE0119B9B0014AA39
:10A9B00013444FF0FF3243F84C2C119B0133119399
:10A9C000119B002BF1D000238DF84F3000230F9303
:10A9D00078E06B4A0F9B1344503393F900308DF8A5
:10A9E0002B309DF82B3023F0C0030993644A0F9B52
:10A9F0001344503393F90030B3F1FF3F5FD001AB04
:10AA000019460998FFF7D0FC0346002B57D09DF854
:10AA10002B309B098DF823300998FFF775FD03460D
:10AA20001846FFF77FFD0790079B002B03D19DF889
:10AA30002330032B43D19DF82330032B04D102ABE9
:10AA400019460998FFF7C8FC0998FFF75BFC034615
:10AA50008DF81B3003AB19460998FFF7A5FC05904C
:10AA6000059B002B03D09DF81B30022B06D0059BC5
:10AA7000002B24D19DF81B30032B20D19DF82330CF
:10AA8000032B13D19DF81B30022B01D1032300E0CF
:10AA900002238DF813309DF8133019460998FFF7FB
:10AAA000EEFB9DF84F3001338DF84F30079B002BA4
:10AAB00005D09DF82320079B1146099898470F9BC6
:10AAC00001330F930F9B032B83D99DF84F30002B3D
:10AAD0004CD001238DF83B306B461A4601210020F3
:10AAE000FFF72EFC0023119314E0119B9B0014AA86
:10AAF000134453F8502C119B9B0014A90B4453F89A
:10AB0000443C9A4203D000238DF83B3005E0119B72
:10AB100001331193119B002BE7D09DF83B30002BA4
:10AB200003D000238DF84F3020E0002311931AE06A
:10AB3000119B9B0014AA134453F8502C119B9B00AB
:10AB400014A90B4443F8442C119B9B0014AA1344F2
:10AB500053F8482C119B9B0014A90B4443F84C2C30
:10AB6000119B01331193119B002BE1D09DF84F30C5
:10AB7000002B7FF428AF00BF15B05DF804FB00BFC9
:10AB80006036002084B001900B46ADF80230BDF86D
:10AB90000230019A134400221A60BDF80230019A73
:10ABA00013441B680393039B00BF04B0704782B03B
:10ABB00001900B46ADF80230BDF80230019A134403
:10ABC0001B68002B14BF01230023DBB2184602B020
:10ABD000704782B001900091019B009AC3F8042352
:10ABE00000BF02B0704782B001900091019BD3F882
:10ABF0000423009B1340002B14BF01230023DBB26E
:10AC0000184602B0704782B001900091019B009AF3
:10AC1000C3F8082300BF02B0704784B00190019BC5
:10AC2000D3F880340393019B039AC3F88024039BD9
:10AC3000184604B0704782B00190019B0422C3F80B
:10AC4000002500BF02B0704784B0039002910192CA
:10AC5000039B019AC3F81425039B029AC3F80C25A1
:10AC600000BF04B0704784B0039002910192039B2F
:10AC7000029AC3F80825039B019AC3F8102500BF68
:10AC800004B0704782B00190019BD3F81835DBB255
:10AC9000184602B0704782B001900B468DF8033021
:10ACA0009DF80320019BC3F81C2500BF02B070472C
:10ACB00082B001900B468DF803309DF80330019A65
:10ACC000134401221A6000BF02B0704782B00190A5
:10ACD0000B468DF8033013468DF802309DF80320A3
:10ACE0009DF802301343DBB21A46019BC3F86C2572
:10ACF00000BF02B0704782B001900091019B009AA2
:10AD0000C3F8242500BF02B0704784B001900B4601
:10AD1000ADF80230BDF80230019A134400221A60E7
:10AD2000BDF80230019A13441B680393039B00BFD4
:10AD300004B0704782B001900B46ADF80230BDF808
:10AD40000230019A13441B68002B14BF0123002317
:10AD5000DBB2184602B0704782B001900091019BAF
:10AD6000D3F80022009B1A43019BC3F8002200BFC6
:10AD700002B0704782B001900091019BD3F800228D
:10AD8000009BDB431A40019BC3F8002200BF02B0C6
:10AD9000704782B001900091019B009AC3F8042390
:10ADA00000BF02B0704782B001900091019B009AF1
:10ADB000C3F8082300BF02B0704784B00190019B24
:10ADC000D3F880340393019B039AC3F88024039B38
:10ADD000184604B0704782B00190019B0822C3F866
:10ADE000002500BF02B0704784B003900291019229
:10ADF000039B029AC3F80C25039B019AC3F8142500
:10AE000000BF04B0704784B0039002910192039B8D
:10AE1000029AC3F80825039B019AC3F8102500BFC6
:10AE200004B0704782B001900B468DF803309DF856
:10AE30000330019A134401221A6000BF02B0704728
:10AE400082B001900B468DF8033013468DF8023026
:10AE50009DF803209DF802301343DBB21A46019B94
:10AE6000C3F86C2500BF02B0704782B0019000911A
:10AE7000019B009AC3F8242500BF02B0704784B03C
:10AE80000390029113468DF80730029A039BC3F892
:10AE900044259DF80720039BC3F8482500BF04B054
:10AEA000704782B00190019BD3F84C35184602B030
:10AEB000704784B00390029113468DF80730029AD0
:10AEC000039BC3F834259DF80720039BC3F838255E
:10AED00000BF04B0704782B00190019BD3F83C35AD
:10AEE000184602B0704784B00190019B1B0B8DF88F
:10AEF0000F309DF90F30184604B0704782B00190B2
:10AF0000019B03F06043B3F1005F0CBF01230023FA
:10AF1000DBB2184602B0704700B583B00190019BC8
:10AF20001B681F2B04D905494FF4E87001F062FD3E
:10AF30004FF0A043184603B05DF804FBDC79030032
:10AF400000B585B00190084611461A4603468DF8B3
:10AF500003300B468DF8023013468DF8013001ABFB
:10AF60001846FFF7D9FF03909DF803209DF80230A3
:10AF70005B001A439DF801309B001A439DF818307E
:10AF80001B0242EA03019DF81C301B04019A19437D
:10AF9000039B02F5E07243F8221000BF05B05DF894
:10AFA00004FB00B585B003900023019300230093B8
:10AFB0000023012201210398FFF7C2FF00BF05B063
:10AFC0005DF804FB00B585B003900B468DF80B309F
:10AFD0009DF80B20002301930023009313460022C9
:10AFE00000210398FFF7ACFF00BF05B05DF804FB3C
:10AFF00000B585B0019001AB1846FFF78DFF0390B7
:10B00000019B012202FA03F31946039800F004F8A9
:10B0100000BF05B05DF804FB82B001900091019B78
:10B02000009AC3F8082500BF02B0704700B583B08E
:10B0300001900091009B1B68B3F1FF3F09D0009B7A
:10B040001B681846FFF7D4FF009B1B681846FFF7E4
:10B05000A8FF009B5B68B3F1FF3F05D0009B5B68D6
:10B0600000211846FFF7AEFF019B1B79464A5B01A2
:10B0700013441C331B78002B41D0019B1A68009BA2
:10B080009B6919461046FFF7F0FE019B1868009B6C
:10B09000597D009B1B7D1A46FFF7D2FE019B186865
:10B0A000009B1968009B5B681A46FFF79DFE009B9A
:10B0B0001B7D012B64D1009B9B68B3F1FF3F05D042
:10B0C000009B9B6800211846FFF77CFF009BDB6814
:10B0D000B3F1FF3F09D0009BDB681846FFF788FFFC
:10B0E000009BDB681846FFF75CFF019B1868009B1C
:10B0F000D968009B9B681A46FFF785FE40E0019BDC
:10B100001A68009B9B6919461046FFF7F4FD019BE6
:10B110001868009B597D009B1B7D1A46FFF7D6FDE2
:10B12000019B1868009B1968009B5B681A46FFF733
:10B130008BFD009B1B7D012B22D1009B9B68B3F1F3
:10B14000FF3F05D0009B9B6800211846FFF73AFFA0
:10B15000009BDB68B3F1FF3F09D0009BDB6818461A
:10B16000FFF746FF009BDB681846FFF71AFF019BBD
:10B170001868009BD968009B9B681A46FFF773FD0F
:10B1800000BF03B05DF804FBB836002000B583B003
:10B1900001900B468DF80330019B1B792D4A5B0112
:10B1A00013441C331B78002B2FD0019B1B684FF4DA
:10B1B00088711846FFF7A9FD019B1B684FF4907139
:10B1C0001846FFF7A2FD019B1B684FF492711846C9
:10B1D000FFF79BFD019B1B684FF4A2711846FFF718
:10B1E00094FD019B1B681C491846FFF7D2FD019B8B
:10B1F0001B681846FFF777FE03461A469DF8033092
:10B2000019461046FEF7CEFE20E0019B1B684FF466
:10B210008E711846FFF7B6FC019B1B684FF4A271B4
:10B220001846FFF7AFFC019B1B680C491846FFF757
:10B23000D0FC019B1B681846FFF755FE03461A46D3
:10B240009DF8033019461046FEF7ACFE00BF03B070
:10B250005DF804FBB83600201003020080000200F5
:10B2600000B583B00190019B1B790B4A5B0113442D
:10B270001C331B78002B05D0019B1B681846FFF779
:10B28000AAFD04E0019B1B681846FFF7D4FC00BF31
:10B2900003B05DF804FB00BFB836002000B587B0EE
:10B2A000039002910192029B002B04D122494FF49A
:10B2B000887001F09FFB039B1B795B011F4A1344BD
:10B2C000059300230493059BDB7E002B03D008230A
:10B2D0000493049B2BE0029B5A7F059B1A770299EB
:10B2E0000398FFF7A3FE059B019A5A60029B1A6917
:10B2F000059B1A60059B5B68002B05D0029B1B7F9A
:10B3000019460398FFF742FF0398FFF7A9FF059B33
:10B310000022DA75059B00221A76059B00229A7599
:10B32000059B0122DA76059B00229A76049B18463B
:10B3300007B05DF804FB00BF1C7A0300B83600209C
:10B3400000B585B0019000914FF48E710198FFF720
:10B3500019FC009B9B68009A928A92B213441B7856
:10B360008DF80F30009B9B8A9BB201339AB2009BF1
:10B370009A829DF80F3019460198FFF78CFC00BFA8
:10B3800005B05DF804FB000000B585B00190019B9D
:10B390001B795B01344A1344029300230393019BFE
:10B3A0001B684FF48E711846FFF7ECFB019B1B687E
:10B3B00008211846FFF77CFC019B1B680299184680
:10B3C000FFF7BEFF029B5B68002B48D11FE000BF68
:10B3D000019B1B684FF48E711846FFF7E8FB03468C
:10B3E00083F00103DBB2002B05D0029B9B8A9BB24A
:10B3F000B3F5807FECD1029B9B8A9BB2B3F5807F33
:10B4000005D0019B1B6802991846FFF799FF029B24
:10B410009B8A9AB2029B9B7D9BB29A42D7D3029B96
:10B420009B8A9BB2B3F5807F02D10F23039313E075
:10B4300000BF019B1B684FF48E711846FFF7B7FBE6
:10B44000034683F00103DBB2002BF2D1019B1B68A2
:10B450000C211846FFF72CFC029B00229A75039BD7
:10B46000184605B05DF804FBB836002000B587B07B
:10B470000190019B1B795B012A4A1344049300232A
:10B480000593019B1B684FF490711846FFF73DFC34
:10B49000019B1B684FF4AC711846FFF736FC019B0B
:10B4A0001868049B9968049B9B7D1A46FFF7E7FC8C
:10B4B000019B1B6808211846FFF7B4FC049B5B68DE
:10B4C000002B2AD1019B1B684FF490711846FFF79F
:10B4D00031FC03468DF80F30019B1B684FF4AC71B3
:10B4E0001846FFF727FC03468DF80E309DF80F3005
:10B4F00083F00103DBB2002B06D09DF80E3083F001
:10B500000103DBB2002BDDD19DF80E30002B01D002
:10B510000F230593049B00229A75059B184607B0DC
:10B520005DF804FBB836002000B587B003900291A7
:10B5300013468DF80730039B1B795B012E4A134499
:10B540000493049BDB7E012B04D02C494FF4CC7078
:10B5500001F050FA9DF80730002B04D1274940F242
:10B56000991001F047FA029B002B04D123494FF4B4
:10B57000CD7001F03FFA039B1B791F4A5B01134416
:10B580001C331B78002B0CD00298FFF7B7FC034646
:10B5900083F00103DBB2002B03D010230593059B3E
:10B5A00025E0039800F02CF80346002B03D011236C
:10B5B0000593059B1BE0049B9DF807209A75049B4F
:10B5C000029A9A60049B00229A82039B1B790A4A82
:10B5D0005B0113441C331B78002B04D00398FFF746
:10B5E00045FF034603E00398FFF7CEFE03461846E7
:10B5F00007B05DF804FB00BFB83600201C7A0300DA
:10B6000082B00190019B1B79064A5B0113441633FB
:10B610001B78002B14BF01230023DBB2184602B0B5
:10B62000704700BFB836002000B583B00190019B81
:10B630001B684FF492711846FFF7A4FA019B1B6830
:10B640004FF484711846FFF79DFA019B1B68002197
:10B650001846FFF72DFB00BF03B05DF804FB10B5E3
:10B6600082B001900091009BDB7D002B08D14FF44C
:10B6700084710198FFF786FA0198FFF703FB16E043
:10B680004FF484710198FFF77DFA009BDB68009A04
:10B69000527ED2B29C180198FFF7F4FA0346237049
:10B6A000009B5B7EDBB20133DAB2009B5A7602B0BC
:10B6B00010BD000000B589B00390029111461A46F2
:10B6C0000B468DF8073013468DF80630039B1B7927
:10B6D0005B014D4A13440793079B9B7E83F0010354
:10B6E000DBB2002B09D09DF8063083F00103DBB2FA
:10B6F000002B02D00398FFF797FF079B5B68002B96
:10B7000073D1039B1B684FF4A2711846FFF73AFAF6
:10B71000039B1B684FF492711846FFF748FA0346E3
:10B720008DF81B30039B1B684FF484711846FFF79C
:10B730003EFA03468DF81A30039B1B684FF4A27142
:10B740001846FFF734FA03468DF819309DF81A3081
:10B7500083F00103DBB2002B0DD09DF8193083F08C
:10B760000103DBB2002B06D09DF81B3083F00103F0
:10B77000DBB2002BCCD19DF81B30002B10D19DF8F3
:10B780001930002B0CD1039B1B6807991846FFF753
:10B7900066FF079BDA7D079B5B7EDBB29A42B7D8D8
:10B7A000079B0022DA759DF81B30002B03D0032382
:10B7B0000593059B23E09DF81930002B03D00F2340
:10B7C0000593059B1BE0079B9B7E002B06D0039BEC
:10B7D0001B6800211846FFF76BFA0DE0039B1B68FE
:10B7E00004211846FFF764FA06E0039B1B684FF438
:10B7F00001711846FFF7EDF900230593059B1846E4
:10B8000009B05DF804FB00BFB836002000B587B072
:10B810000390029111461A460B468DF807301346E5
:10B820008DF8063000230593039B1B684FF4887145
:10B830001846FFF76AFA039B1B684FF4A27118467B
:10B84000FFF763FA039B1B689DF8072002991846CF
:10B85000FFF72FFB9DF8063083F00103DBB2002BCE
:10B8600006D0039B1B6800211846FFF7DBFA05E0B2
:10B87000039B1B6820211846FFF76EFA039B1B7978
:10B880002D4A5B01134404331B68002B47D1039BF3
:10B890001B684FF488711846FFF74CFA03468DF881
:10B8A0001330039B1B684FF4A2711846FFF742FA4E
:10B8B00003468DF81230039B1B684FF492711846B3
:10B8C000FFF738FA03468DF811309DF8133083F0F6
:10B8D0000103DBB2002B0DD09DF8123083F0010381
:10B8E000DBB2002B06D09DF8113083F00103DBB2F0
:10B8F000002BCCD1039B1B790F4A5B0113441733F8
:10B9000000221A709DF81130002B01D003230593FB
:10B910009DF81230002B09D00F23059306E0039BFE
:10B920001B684FF404711846FFF733FA059B18465D
:10B9300007B05DF804FB00BFB836002000B589B041
:10B940000390029113468DF80730039B1B795B012E
:10B950005A4A13440593039B1B79584A5B011344CD
:10B960001B331B78012B04D055494FF4167001F09E
:10B9700041F89DF80730002B04D1514940F259207D
:10B9800001F038F8039B1B794C4A5B0113441C33CC
:10B990001B78002B0CD00298FFF7B0FA034683F017
:10B9A0000103DBB2002B03D010230793079B81E038
:10B9B00000238DF81B30059B5B68002B17D0039B81
:10B9C0001B793E4A5B0113441C331B78002B07D0C4
:10B9D000039B1B684FF404711846FFF7E4F906E077
:10B9E000039B1B684FF401711846FFF70CF9059B88
:10B9F000DB7D002B26D0059B1B7E002B1FD0059BDB
:10BA00005B68002B17D0039B1B792C4A5B01134406
:10BA10001C331B78002B07D0039B1B684FF4047169
:10BA20001846FFF7B6F906E0039B1B684FF4017157
:10BA30001846FFF7CEF811230793079B3AE001233E
:10BA40008DF81B309DF81B3083F00103DBB2002B17
:10BA50000DD0059B9DF80720DA75059B029ADA60E8
:10BA6000059B00225A76059B00221A7606E0059B6C
:10BA7000029A1A61059B9DF807201A76039B1B7991
:10BA80000E4A5B0113441C331B78002B09D09DF830
:10BA90001B309DF8072002990398FFF7B7FE034675
:10BAA00008E09DF81B309DF8072002990398FFF7E6
:10BAB00001FE0346184609B05DF804FBB8360020C5
:10BAC0001C7A030000B583B00190019B1B79144AD6
:10BAD0005B0113441C331B78002B05D011494FF434
:10BAE0002E7000F087FF16E0019B1B790C4A5B016A
:10BAF00013441A331B7883F00103DBB2002B0AD006
:10BB00000198FFF791FD019B1B79054A5B011344E6
:10BB10001A3301221A7000BF03B05DF804FB00BFA6
:10BB2000B83600201C7A030000B589B003900B469C
:10BB300001928DF80B3001238DF810309DF80B30F9
:10BB40008DF81830019B0593039B5B68039A11687D
:10BB500004AA1046984700BF09B05DF804FB00B581
:10BB600087B001900B468DF8033000238DF8083024
:10BB70009DF803308DF81030019B9B680393019B67
:10BB800000229A75019B5B68019A116802AA10460F
:10BB9000984700BF07B05DF804FB00B589B001907D
:10BBA00000914FF400710198FFF71DF80346002B38
:10BBB00039D04FF492710198FEF7F9FF0346002B3C
:10BBC00031D04FF492710198FEF7DCFF4FF4017110
:10BBD0000198FFF718F8009B9B7E83F00103DBB20E
:10BBE000002B03D004210198FFF762F802238DF89F
:10BBF00008300198FFF711F803460593009BDB7DA1
:10BC00008DF81030009BDB680393009B0022DA75EF
:10BC1000009B00221A76009B5B68009A116802AABA
:10BC20001046984756E004210198FEF7DCFF0346D2
:10BC3000002B4FD04FF484710198FEF7B8FF0346F4
:10BC4000002B47D000990198FFF709FD009BDA7D92
:10BC5000009B5B7EDBB29A423CD1009B1B7E002B9B
:10BC60001CD0009BDB680793009B5B7E8DF81B302C
:10BC7000009B1A7E009BDA75009B1A69009BDA60B4
:10BC8000009B00221A76009B00225A769DF81B30FA
:10BC9000079A19460098FFF747FF1BE0009B9B7E21
:10BCA00083F00103DBB2002B03D004210198FEF7DF
:10BCB000FFFF4FF401710198FEF7A5FF009B0022E2
:10BCC000DA75009B5B7ED9B2009BDB681A46009850
:10BCD000FFF72AFF4FF48E710198FEF768FF0346C5
:10BCE000002B1BD0009B9B8A9AB2009B9B7D9BB232
:10BCF0009A4204D200990198FFF722FB0EE04FF41C
:10BD00008E710198FEF73EFF009B9B7D002B05D0B6
:10BD1000009B9B7D19460098FFF721FF4FF4A2710D
:10BD20000198FEF744FF0346002B1CD04FF4A2718C
:10BD30000198FEF727FF009B9B7E002B03D000217C
:10BD40000198FEF7B5FF009BDB7D002B0BD0009B1D
:10BD50000022DA75009B5B7ED9B2009BDB681A4635
:10BD60000098FFF7E1FE00BF09B05DF804FB00B5E5
:10BD700089B0019000914FF492710198FEF7DAFFBB
:10BD80000346002B24D04FF492710198FEF7BDFFBB
:10BD900002238DF808300198FFF70FF8034605934A
:10BDA0000198FFF798F80346DBB28DF81030009B3E
:10BDB000DB680393009B0022DA75009B00221A7651
:10BDC000009B5B68009A116802AA1046984741E000
:10BDD0004FF488710198FEF7ADFF0346002B39D070
:10BDE0004FF488710198FEF790FF0198FFF773F800
:10BDF00003468DF81F30009BDB7D9DF81F209A4283
:10BE000028D1009B1B7E002B19D0009BDB6806937A
:10BE100020210198FEF7AEFF009B1A7E009BDA7589
:10BE2000009B1A69009BDA60009B00221A769DF83D
:10BE30001F30069A19460098FFF776FE0AE0009B2D
:10BE40000022DA75009BDA689DF81F3019460098C9
:10BE5000FFF76AFE4FF4A2710198FEF76BFF0346ED
:10BE6000002B16D04FF4A2710198FEF74EFF009BF5
:10BE7000DB7D002B0DD0009B0022DA750198FFF7C7
:10BE80002AF80346D9B2009BDB681A460098FFF7F0
:10BE90004BFE4FF490710198FEF74CFF0346002BC8
:10BEA00011D04FF490710198FEF72FFF009B9B7DFE
:10BEB000002B08D00198FEF7F4FF0346DBB21946C9
:10BEC0000098FFF74CFE00BF09B05DF804FB0000CE
:10BED00008B5074B1B7F002B04D005490548FFF729
:10BEE00046FF03E002490348FFF757FE00BF08BDC5
:10BEF000B83600200020004000B583B00190019BBF
:10BF00001B681F2B04D905494FF4E87000F072FD3F
:10BF10004FF0A043184603B05DF804FB907A03008D
:10BF200000B585B001900B468DF8033001AB184683
:10BF3000FFF7E2FF0390019A039B02F5E07253F8CA
:10BF40002230019A23F44031039B02F5E07243F85A
:10BF50002210019A039B02F5E07253F822309DF8FB
:10BF6000032012041146019A1943039B02F5E07263
:10BF700043F8221000BF05B05DF804FB00B583B0A4
:10BF800001900198FDF778FD0346184603B05DF86F
:10BF900004FB000000B587B003460A468DF8073061
:10BFA00013468DF8063000238DF8173000230493D4
:10BFB0009DF807301846FDF78DFD0490049B032B78
:10BFC00060D89DF80630012B04D0022B4FD0002BF7
:10BFD00030D05AE03649049A13465B0013440B44B0
:10BFE0001B788DF817303249049A13465B001344CE
:10BFF0000B4401331B78002B0ED02E4B2E4A4FF4EE
:10C0000000411846F9F7D8F90390039B002B03D1A0
:10C01000294A9DF8073013702549049A13465B009E
:10C0200013440B4402331978244A049B13440A46F0
:10C030001A702AE01F4B1846F9F7F0F91F4A049BC3
:10C04000134419781A48049A13465B0013440344B6
:10C0500002331B78994217D11549049A13465B00A5
:10C0600013440B4402331B788DF817300CE0104951
:10C07000049A13465B0013440B4401331B788DF87C
:10C08000173002E000BF00E000BF9DF81730002B22
:10C0900009D00B4B1B68002B05D0094B1B689DF882
:10C0A00017201046984700BF07B05DF804FB00BF9B
:10C0B000283700203437002054370020583700201C
:10C0C0002437002000B583B00190019B1B7802212A
:10C0D0001846FFF75FFF00BF03B05DF804FB0000E8
:10C0E00000B583B00C4B1B78002B0FD000230193BD
:10C0F00008E0019B022B02D00198FDF74BFC019B4D
:10C1000001330193019B012BF3D901E0FDF75CFCA6
:10C1100000BF03B05DF804FBE03600202DE9F047D6
:10C1200088B003468DF81730002307930023069349
:10C13000CD4B1B78002B04D0CB4B00221A70FFF79D
:10C14000CFFF9DF81730172B00F2208201A252F882
:10C1500023F000BFB5C10200C3C10200C3C1020089
:10C1600053C20200E3C2020055C30200DFC3020053
:10C17000FFC302000FC402002DC402004BC4020022
:10C1800075C4020093C40200A1C40200A1C402004D
:10C19000A1C40200A1C40200A1C402002FC5020074
:10C1A0003DC5020051C5020065C502007FC5020001
:10C1B0007FC50200FFF794FFAC4A9DF8173013705B
:10C1C000E5E10020FDF79EFB0346002B0DD000208B
:10C1D000FDF7E0FB9DF81730022B02D14FF4E1632D
:10C1E00001E04FF47A6306930BE00020FDF7B8FB03
:10C1F0009DF81730022B01D1C82301E04FF4C8731A
:10C2000006939A4A9DF817301370994D069B19466C
:10C210004FF000024FF000034FF00004D40344EA53
:10C220005144CB0313F5FA72009244F100030193D9
:10C230004FF47A724FF00003DDE9000109F00EFEC1
:10C2400003460C46002219462846F9F7B5F8079030
:10C250009DE10020FDF756FB0346002B0DD000208A
:10C26000FDF798FB9DF81730032B02D14FF448736C
:10C2700001E04FF47A6306930BE00020FDF770FBBA
:10C280009DF81730032B01D1C82301E04FF4C87388
:10C290000693764A9DF817301370754D069B194624
:10C2A0004FF000024FF000034FF00004D40344EAC3
:10C2B0005144CB0313F5FA72029244F10003039345
:10C2C0004FF47A724FF00003DDE9020109F0C6FD78
:10C2D00003460C46002219462846F9F76DF80790E8
:10C2E00055E10020FDF70EFB0346002B06D0002091
:10C2F000FDF750FB4FF47A63069305E00020FDF74D
:10C300002FFB4FF4C8730693584A9DF817301370EB
:10C31000574D069B19464FF000024FF000034FF0B7
:10C320000004D40344EA5144CB0313F5FA7944F1F1
:10C33000000A4FF47A724FF000034846514609F064
:10C340008DFD03460C46002219462846F9F734F8BD
:10C3500007901CE10020FDF7D5FA0346002B0CD016
:10C360000020FDF717FB9DF81730052B01D1C823DE
:10C3700001E04FF47A6306930BE00020FDF7F0FA3A
:10C380009DF81730052B01D1C82301E04FF4C87385
:10C390000693364A9DF817301370354D069B1946A3
:10C3A0004FF000024FF000034FF00004D40344EAC2
:10C3B0005144CB0313F5FA7744F100084FF47A7235
:10C3C0004FF000033846414609F048FD03460C464D
:10C3D000002219462846F8F7EFFF0790D7E0002023
:10C3E000FDF716FB214A9DF817301370204B0022F1
:10C3F00040F6CD411846F8F7DFFF0790C7E0002070
:10C40000FDF7AEFA194A9DF817301370BFE0164BCE
:10C4100001221A700120FDF7FBFA154B002240F6AD
:10C42000CD411846F8F7C8FF0790B0E00E4B012247
:10C430001A700120FDF7ECFA0D4B00224FF48041F9
:10C440001846F8F7B9FF0790A1E0074B01221A70D0
:10C450000120FDF7DDFA064B002240F6CD411846DB
:10C46000F8F7AAFF079092E0D9360020D8360020CE
:10C47000E4360020484B01221A700120FDF7C8FA6B
:10C48000464B00224FF480411846F8F795FF07907D
:10C490007DE0FDF7ABFA424A9DF81730137076E065
:10C4A000404B1846F8F7BAFF07909DF81730C3F1D4
:10C4B00011030693069B002B32D0079B002B2FD134
:10C4C000069B012B25D9374F069B9BB21A46C823E2
:10C4D00003FB02F319464FEAE1724FF000034FF0FD
:10C4E0000004D40344EA5144CB0313F5FA7544F134
:10C4F00000064FF47A724FF000032846314609F0E7
:10C50000ADFC03460C46002219463846F8F754FFA6
:10C5100007900220FDF724FA234B01221A7036E01F
:10C520000220FDF737FA204B00221A702FE0FFF7A8
:10C53000D7FD1B4A9DF81730137028E0FFF7D0FD98
:10C540000020FDF70DFA164A9DF8173013701EE013
:10C55000FFF7C6FD0120FDF703FA114A9DF81730D9
:10C56000137014E0FFF7BCFD0020FDF7F9F901207E
:10C57000FDF7F6F90A4A9DF81730137007E0FDF74A
:10C5800035FA074A9DF81730137000E000BF079B8B
:10C59000184608B0BDE8F087D9360020E436002000
:10C5A000D836002004370020E036002000B583B0E4
:10C5B0000190074B1B6803F00103002B04D0054BCF
:10C5C0001B781846FFF7AAFD00BF03B05DF804FB17
:10C5D000DC360020D836002000B583B00190022060
:10C5E000FDF716FA00BF03B05DF804FB00B585B097
:10C5F00003468DF8073000230393084B1B6803F0B4
:10C600000103002B05D09DF807301846FFF786FD83
:10C610000390039B184605B05DF804FBDC36002050
:10C6200000B585B00190009100230393294A019B36
:10C630001360294A009B1360019B03F00203002B47
:10C640002AD00023029308E001220121029800F081
:10C6500053F80390029B01330293029B032B02D8F1
:10C66000039B002BF0D0039B002B06D140F26662A7
:10C6700004211A48F7F74CFF0390039B002B02D1CB
:10C68000F7F7B8FF0390039B002B05D1144A002154
:10C690001448F8F761FE0390019B03F00103002B9F
:10C6A00001D0FDF7CFF9039B002B05D10E4A0021E5
:10C6B0000E48F8F751FE0390039B002B05D10C4A5E
:10C6C00001210C48F8F748FE0390039B184605B07B
:10C6D0005DF804FBDC36002024370020D47A030008
:10C6E000C5C00200D07A0300ADC50200C87A0300BD
:10C6F000D9C50200CC7A030084B001900B468DF8B6
:10C70000033013468DF8023000230393019B032B63
:10C710003CD89DF80230012B0BD19DF80330012B42
:10C7200004D1019BDBB20E33DBB200E000238DF8B5
:10C7300002309DF80330012B04D0022B0CD0002BCB
:10C7400015D01FE01449019A13465B0013440B44B3
:10C750009DF802201A701BE00F49019A13465B00F6
:10C7600013440B4401339DF802201A7010E00A496B
:10C77000019A13465B0013440B4402339DF80220D8
:10C780001A7005E00723039300BF01E0072303931A
:10C79000039B184604B070472837002000B583B0CB
:10C7A00001900198FDF7B6F9034603211846FFF7FB
:10C7B000B7FB0023184603B05DF804FB00B583B057
:10C7C000012200210020FFF797FF0190019B002B21
:10C7D00004D0019B072B01D0019B1CE00722022102
:10C7E0000120FFF789FF0190019B002B04D0019BE2
:10C7F000072B01D0019B0EE0042202210020FFF74D
:10C800007BFF0190019B002B04D0019B072B01D0E3
:10C81000019B00E00023184603B05DF804FB00B55F
:10C8200083B0012202210020FFF766FF0190019BE7
:10C83000002B04D0019B072B01D0019B1CE0072299
:10C8400002210120FFF758FF0190019B002B04D02B
:10C85000019B072B01D0019B0EE00A220021002042
:10C86000FFF74AFF0190019B002B04D0019B072B8F
:10C8700001D0019B00E00023184603B05DF804FBE3
:10C8800000B583B001900120FFF778FB0346002B31
:10C8900003D0019B02221A700CE00020FFF76EFB10
:10C8A0000346002B03D0019B0B221A7002E0019B70
:10C8B00000221A7000BF03B05DF804FB00B583B01E
:10C8C0000020FFF76BFF0190019B002B04D0019B20
:10C8D000062B01D0019B0CE00120FFF75FFF0190C8
:10C8E000019B002B04D0019B062B01D0019B00E093
:10C8F0000023184603B05DF804FB000000B585B0C6
:10C9000001900091019B1B88102B02D0112B18D095
:10C910002FE01A4B1B68002B0DD1FFF74FFF039040
:10C92000039B002B07D0164B1B68002B03D0144B26
:10C930001B6803989847114B1B6801330F4A13601B
:10C9400017E00E4B1B68013B0C4A13600B4B1B6836
:10C95000002B0DD1FFF763FF0390039B002B07D043
:10C96000074B1B68002B03D0054B1B6803989847A7
:10C9700000BF00BF05B05DF804FB00BF60370020BA
:10C980005C37002000B585B001900091002303932F
:10C990000A4A019B1360009B002B02D00098FFF70E
:10C9A0006FFF074B1B68002B02D1FFF738FF039086
:10C9B000039B184605B05DF804FB00BF5C37002000
:10C9C0006037002075DF704700BF184676DF70477C
:10C9D00000BF18468ADF704700BF18468BDF7047DC
:10C9E00000BF18468CDF704700BF18468FDF7047C6
:10C9F00000BF184600B583B003460091ADF806307D
:10CA0000BDF80630009A19460348F7F71FFE00BF2D
:10CA100003B05DF804FB00BFEFBEADDE00B583B030
:10CA200001900199034801F031FA00BF03B05DF8AD
:10CA300004FB00BF6437002010B58CB00390039B4B
:10CA40001B780F2B00F2A38001A252F823F000BF45
:10CA500091CA02008FCB0200A5CA02008FCB020050
:10CA6000DBCA02008FCB0200F1CA020075CB0200C4
:10CA70008FCB020027CB02008FCB020041CB0200FC
:10CA80001BCB02005BCB02008FCB020021CB02004C
:10CA9000464B1B881B0443F0030345491846F7F730
:10CAA00039F87FE0434809F00FFB404B1B881B041B
:10CAB00043F00304039B5B88184601F09DFD034689
:10CAC0001A46039B5B881946039B1B7A00930B460F
:10CAD00039492046F7F751F864E000238DF8143007
:10CAE000039B5B8805AA1146184606F021F959E018
:10CAF000FAF7DCFB0B900B9B0E2B4AD00B9B082B01
:10CB000047D00B9B0A930A9B002B42D02B4A40F242
:10CB100009110A98F7F79AFD3BE000F0E3FD41E0C8
:10CB200006F01AF93EE0039B1B690993099B002B51
:10CB300031D0224A4FF48E710998F7F787FD2AE029
:10CB4000039B9B680893089B002B26D01B4A4FF43D
:10CB500091710898F7F77AFD1FE0039B9B68079394
:10CB6000079B002B1BD0154A4FF494710798F7F7D9
:10CB70006DFD14E0039B9B680693069B002B10D071
:10CB80000E4A4FF497710698F7F760FD09E000BF71
:10CB900008E000BF06E000BF04E000BF02E000BF05
:10CBA00000E000BF00BF0CB010BD00BFA0290020F6
:10CBB000087B0300347B03004C7B03008C7B030069
:10CBC00088B00346029101928DF80F30002307933D
:10CBD000029B1B68069327E0069A079B13441B7869
:10CBE0008DF81730079B0133069A13441B788DF894
:10CBF00016309DF816209DF80F309A420ED1079BF3
:10CC00000233069A1A44019B1A609DF817309BB2B2
:10CC1000013B9AB2019B9A8000230CE09DF81720FB
:10CC2000079B134401330793029B9B881A46079B7B
:10CC30009342D1D30523184608B0704700B587B09A
:10CC400003468DF807300020FFF7D0FC0590059BC8
:10CC50000493049B002B05D0104A40F26B110498FA
:10CC6000F7F7F4FC9DF80730002B0ED1FFF726FEF6
:10CC70000590059B0393039B002B08D0074A4FF4B4
:10CC8000B9710398F7F7E2FC01E000BF00E000BFD4
:10CC90000123184607B05DF804FB00BF8C7B03003E
:10CCA00000B589B001900091019B10330593019B61
:10CCB000DB7BC3F3C403DBB29BB2ADF8183003AA2D
:10CCC00005AB19460920FFF77BFF0790079B002B58
:10CCD0000BD1039BBDF810201946009809F0B9F953
:10CCE0000346002B19D1012318E003AA05AB19460E
:10CCF0000820FFF765FF0790079B002B01D000235A
:10CD00000CE0039BBDF810201946064809F0A1F974
:10CD10000346002B01D1012300E00023184609B08F
:10CD20005DF804FBFC7A030000B583B0019000912C
:10CD3000009B1B78C3F34603DAB2019B1B78C3F355
:10CD40004603DBB29A420CD1009B581C019B013375
:10CD50000622194609F07DF90346002B01D1012373
:10CD600000E00023184603B05DF804FB00B58BB06B
:10CD700001900B46ADF80230019B10330693019BE6
:10CD8000DB7BC3F3C403DBB29BB2ADF81C3004AA57
:10CD900006AB19460220FFF713FF0890089B002BF3
:10CDA0000BD004AA06AB19460320FFF709FF089031
:10CDB000089B002B01D0002331E00023099325E0DC
:10CDC000049A099B5B00013313441B789BB2ADF8B6
:10CDD0000E30BDF80E301B029BB2ADF80E30049A37
:10CDE000099B5B0013441B789AB2BDF80E301343C5
:10CDF0009BB2ADF80E30BDF80E30BDF802209A425D
:10CE000001D101230BE0099B01330993BDF81430D4
:10CE10005B089BB21A46099B9342D1D30023184664
:10CE20000BB05DF804FB000000B58FB001900091DD
:10CE3000019B04330D93019B1B88103B462B00F292
:10CE4000CB8101A252F823F065CF0200BBD00200D3
:10CE5000D9D10200D9D10200D9D10200D9D1020022
:10CE6000D9D10200D9D10200D9D10200D9D1020012
:10CE7000D9D1020005D10200D9D10200D1CF0200E0
:10CE8000D9D102002FD10200D9D1020059D102001C
:10CE9000D9D10200D9D10200D9D10200D9D10200E2
:10CEA000D9D10200D9D10200D9D10200D9D10200D2
:10CEB000D9D10200D9D10200D9D10200D9D10200C2
:10CEC000D9D10200D9D10200D9D10200D9D10200B2
:10CED000D9D10200D9D10200D9D10200D9D10200A2
:10CEE000D9D10200D9D10200D9D10200D9D1020092
:10CEF000D9D102008DD10200D9D10200D9D10200CE
:10CF0000D9D10200D9D10200D9D10200D9D1020071
:10CF1000D9D10200D9D10200D9D10200D9D1020061
:10CF2000D9D10200D9D10200D9D10200D9D1020051
:10CF3000D9D10200D9D10200D9D10200D9D1020041
:10CF4000D9D10200D9D10200D9D10200D9D1020031
:10CF5000D9D10200D9D10200D9D10200D9D1020021
:10CF6000B3D10200A74B1B881B0443F00303A6495F
:10CF70001846F6F7CFFDA54809F0A6F8019B9B8857
:10CF80001946A34802F0E8F90B900B9B0A930A9B01
:10CF9000002B05D09F4A40F209210A98F7F756FB6B
:10CFA0000720FFF723FB0B900B9B0993099B002B9A
:10CFB00005D0984A4FF403710998F7F747FB01F041
:10CFC00063FB0346012B00F2098100F08BFB05E1B6
:10CFD00000238DF83330904B1B78002B15D00D9B20
:10CFE00004338E491846FFF79FFE0346002B3ED0C0
:10CFF000844B1B881B0443F0030389491846F6F74A
:10D0000089FD01238DF8333031E0864809F00BF9B2
:10D010000346002B15D00D9B043382491846FFF7B9
:10D020003FFE0346002B22D001238DF83330754B91
:10D030001B881B0443F003037B491846F6F76AFD7F
:10D0400015E00D9B043341F60D011846FFF78EFEE7
:10D050000346002B0BD001238DF83330694B1B881E
:10D060001B0443F0030371491846F6F753FD9DF87E
:10D070003330002B00F0B480FFF7B0FC6C4A13781B
:10D080006FF3410313700D9B181D0123694A684912
:10D09000FFF7A8FC0B90684B00221A700B9B002B2B
:10D0A00000F09E80574B1B881B0443F001030B9A32
:10D0B00062491846F6F73CFD92E0614809F004F831
:10D0C000504B1B881B0443F00300019B1B7A1A463C
:10D0D0005C49F6F72DFD0020FFF788FA0B900B9BBB
:10D0E0000893089B002B05D04A4A40F2512108982A
:10D0F000F7F7ACFA01F0C8FA0346012B72D800F03A
:10D10000F1FA6FE00D9B1B79012B02D100F0EAFAD6
:10D110006AE00D9B1B79022B66D13A4B1B881B04DE
:10D1200043F0030348491846F6F7F4FC5CE00D9B16
:10D130001A880D9B043319461046FFF743FC0B90E9
:10D140000B9B0793079B002B50D0324A40F26A2179
:10D150000798F7F77BFA49E000238DF80C3000239D
:10D160008DF80D30019B9B8803AA11461846FFF7E6
:10D170003DFC0B900B9B0693069B002B38D0254A59
:10D1800040F277210698F7F761FA31E0019B9B881E
:10D1900013211846FFF71AFC0B900B9B0593059B78
:10D1A000002B27D01B4A4FF420710598F7F74EFA51
:10D1B00020E0019B9B8813211846FFF707FC0B908A
:10D1C0000B9B0493049B002B16D0124A4FF4227140
:10D1D0000498F7F73BFA0FE000BF0EE000BF0CE049
:10D1E00000BF0AE000BF08E000BF06E000BF04E0A7
:10D1F00000BF02E000BF00E000BF00BF0FB05DF85D
:10D2000004FB00BFA0290020087C0300147C03005D
:10D21000902A00208C7B030098370020007B0300BD
:10D22000247C0300FC7A0300487C03006C7C030030
:10D2300090370020F47A03008E370020907C0300A2
:10D24000B87C0300CC7C0300E87C030000B583B00D
:10D2500001900091019B023B012B09D8084B1B78E0
:10D26000002B07D0064B00221A7000F03BFA01E0B9
:10D2700000BF00E000BF00BF03B05DF804FB00BFCB
:10D280008F37002000B587B008F000FB0590059BA4
:10D290000493049B002B05D0164A40F2B521049854
:10D2A000F7F7D4F90023019301AB1946012008F0E8
:10D2B000E5FB0590059B0393039B002B05D00D4ACE
:10D2C00040F2BB210398F7F7C1F901AB184608F00B
:10D2D000E5FC0590059B0293029B002B05D0054AB7
:10D2E00040F2BF210298F7F7B1F900BF07B05DF82F
:10D2F00004FB00BF8C7B030000B587B005F05CFC2D
:10D300000590059B0493049B002B05D0384A4FF4ED
:10D3100034710498F7F79AF96B46052200211846F4
:10D3200008F02CFF9DF8003043F001038DF8003029
:10D330009DF800306FF341038DF800309DF8003008
:10D340006FF382038DF800309DF800306FF3C30354
:10D350008DF800309DF80030032262F306138DF83B
:10D3600000309DF800306FF3C7138DF800300723AD
:10D370008DF8013010238DF802309DF8033043F012
:10D3800001038DF803309DF8033043F002038DF85C
:10D3900003309DF8043043F001038DF804309DF80C
:10D3A000043043F002038DF804306B46184605F054
:10D3B00085FC0590059B0393039B002B05D00C4A2D
:10D3C00040F2E3210398F7F741F90A4805F04EFCD3
:10D3D0000590059B0293029B002B05D0044A40F266
:10D3E000E6210298F7F732F900BF07B05DF804FBB9
:10D3F0008C7B030039CA020000B583B00D4B1B883B
:10D400001B0443F003030C491846F6F783FB05F0B1
:10D4100049FD0190019B0093009B002B05D0074A1A
:10D4200040F2F3210098F7F711F900BF03B05DF85F
:10D4300004FB00BFA0290020087D03008C7B0300B3
:10D4400008B50C4B1B7883F00103DBB2002B0FD027
:10D45000094B1B881B0443F0030308491846F6F7E1
:10D4600059FB044B01221A70FFF7B8FA00F03AF9A1
:10D4700000BF08BD8E370020A0290020187D0300C2
:10D4800000B585B003468DF807309DF80730072BAF
:10D490001ED00A2B02D0042B04D01DE00020FBF785
:10D4A00011FD19E00E4B1B8813211846FFF78EFA69
:10D4B0000390039B082B0ED0039B0293029B002B2F
:10D4C00009D0084A40F217310298F7F7BFF802E096
:10D4D000FFF7B6FF00E000BF00BF05B05DF804FB3A
:10D4E0008C3700208C7B030000B587B00190009141
:10D4F000009B1B78012B02D0022B39D03BE0009B14
:10D500005988009B04331A46019800F0DEFD05900F
:10D51000059B0493049B002B05D0194A4FF44D71D1
:10D520000498F7F793F8009B5B880021184605F0F4
:10D53000DDFB0590059B082B0AD0059B0393039BFD
:10D54000002B05D00E4A40F23A310398F7F77EF8E7
:10D55000019800F0A5FD0590059B0293029B002B0E
:10D5600008D0074A40F23F310298F7F76FF801E020
:10D5700000BF00E000BF00BF07B05DF804FB00BFC4
:10D580008C7B030000B585B00B4B019301AB1946B2
:10D590000A4800F0E1FC0390039B0293029B002BDE
:10D5A00005D0074A40F257310298F7F74FF800BF0D
:10D5B00005B05DF804FB00BFE9D402006437002029
:10D5C0008C7B030000B583B0094801F025FE019073
:10D5D000019B0093009B002B05D0064A40F262316C
:10D5E0000098F7F733F800BF03B05DF804FB00BF05
:10D5F0001DCA02008C7B030000B585B0019000912C
:10D60000009B1B68082B28BF082302934FF6FF706E
:10D6100005F012FC0346ADF80E30009B00221A60A4
:10D6200012E0009B1B68591C009A11605B00019A74
:10D630001344BDF80E201A80BDF80E30184605F0D0
:10D64000FBFB0346ADF80E30BDF80E304FF6FF720F
:10D65000934204D0029B5A1E0292002BE1D100BFDC
:10D6600005B05DF804FB000000B589B001AB1022E5
:10D670004FF6FF71184608F081FD082300936A46B3
:10D6800001AB11461846FFF7B7FF009A01AB1146F0
:10D69000184605F071FB0790079B0693069B002B2D
:10D6A00005D00F4A4FF463710698F6F7CFFF009A42
:10D6B00001AB1146184605F0A7FB0790079B062B08
:10D6C0000AD0079B0593059B002B05D0044A40F226
:10D6D00093310598F6F7BAFF00BF09B05DF804FB77
:10D6E0008C7B030000B5B5B00020FAF769FD034656
:10D6F000002B03D03C4B01221A7072E023AB38227E
:10D700000021184608F03AFD03AB8022002118469C
:10D7100008F034FD0823029308230193FFF7A4FFC8
:10D7200001AB03AA02A923A805F03EFB33902F4AC0
:10D7300013786FF3000313702C4BA0225A802B4BED
:10D7400050229A80029B002B02D1019B002B03D018
:10D75000274B1B78002B0DD0244A13786FF341031D
:10D760001370224A13786FF3820313701F4B002249
:10D77000DA800CE01D4A137843F0020313701B4A51
:10D7800013786FF382031370184B1E22DA80194B43
:10D790001B881B0443F0030317491846F6F7BAF930
:10D7A000164808F091FC1148FFF714F93390339BA9
:10D7B0003293329B002B05D0114A40F2EE31329861
:10D7C000F6F744FF0120FEF711FF3390339B3193AE
:10D7D000319B002B05D00A4A40F2F1313198F6F71F
:10D7E00035FF35B05DF804FB8F37002090370020FF
:10D7F0008E370020A0290020387D0300487D0300DB
:10D800008C7B030000B587B0019017490320FEF719
:10D8100007FF0590059B0493049B002B05D0134A3A
:10D8200040F2FF310498F6F711FF0DF10B03194692
:10D830000020FFF7A7F80590059B0393039B002B9F
:10D8400005D00A4A40F202410398F6F7FFFE9DF820
:10D850000B30022B0CBF01230023DAB2019B1A709C
:10D8600000BF07B05DF804FB81D402008C7B03008D
:10D8700000B583B00020F5F7DDFE0190019B009319
:10D88000009B002B05D0064A40F20D410098F6F7A8
:10D89000DDFEF5F72DFE00BF03B05DF804FB00BF11
:10D8A0008C7B030000B583B0FBF788FA0190019BE5
:10D8B0000093009B002B05D0044A40F217410098CA
:10D8C000F6F7C4FE00BF03B05DF804FB8C7B0300D9
:10D8D00000B583B001900091009B1B8840F6772231
:10D8E000934204D04DF67A2293420ED01BE0104BA7
:10D8F0001B881B0443F00300009B5B881A46009BB7
:10D900009B880C49F6F725F90DE0094B1B881B0491
:10D9100043F00300009B5B881A46009B1B79064975
:10D92000F6F717F900BF00BF03B05DF804FB00BFB6
:10D93000A02900205C7D03008C7D030000B583B02E
:10D94000F7F7D6FC0190019B0093009B002B05D0BC
:10D95000044A40F23A410098F6F778FE00BF03B05F
:10D960005DF804FB8C7B030000B583B009490A48CD
:10D9700003F0A2FB0190019B0093009B002B05D0BC
:10D98000064A40F243410098F6F760FE00BF03B03C
:10D990005DF804FBD1D80200703700208C7B0300B7
:10D9A00000B583B00190019B1B78012B0CD0022B9A
:10D9B00001D0002B11E0019B5B680A4A40F2534101
:10D9C0001846F6F743FE08E0019B5B68054A40F203
:10D9D00057411846F6F73AFE00BF00BF03B05DF8A6
:10D9E00004FB00BF8C7B030030B58DB0134B04AC3F
:10D9F0001D460FCD0FC495E8030084E80300104BCB
:10DA000000934FF4807301930E4B02934FF4807395
:10DA10000393694604A807230B4AFBF7F7FC0B9016
:10DA20000B9B0A930A9B002B05D0084A4FF48F6189
:10DA30000A98F6F70BFE00BF0DB030BDBC7D0300A9
:10DA40009C3700209C380020A1D902008C7B030069
:10DA500000B583B0FFF772FFFFF724FF0DF1070356
:10DA60001846FFF7CFFEFFF703FFFFF7BDFFFFF7F5
:10DA700009FCFFF779FFFFF73FFCFFF7A3FDFFF776
:10DA800081FD0F4B1B881B0443F003030D4918460F
:10DA9000F6F740F80C4808F017FB9DF80730002B0C
:10DAA00002D0FFF7A9FC02E0FFF71CFE00BF00BF99
:10DAB000F6F7A0F80346002BFAD1FBF795F9F6E745
:10DAC000A0290020D47D0300FC7D03009ADF70476D
:10DAD00000BF18469CDF704700BF184600B583B0F2
:10DAE000294B1A68294B1B689A4248D0264B1A6862
:10DAF000274913469B0013449B000B4402331B78B9
:10DB0000002B18D1204B1A68214913469B0013445F
:10DB10009B000B4418881C4B1A681D4913469B0038
:10DB200013449B000B4404331B8800221946FFF763
:10DB3000CDFF019015E0144B1A68154913469B0060
:10DB400013449B000B4418880F4B1A6813469B0024
:10DB500013449B000E4A134408331946FFF7BAFFDB
:10DB60000190019B002B0AD1074B1B680133064A29
:10DB70001360054B1B6803F00703034A136000BFE3
:10DB800003B05DF804FB00BF403A00203C3A00209F
:10DB90009C39002000B583B001900091019B1A8848
:10DBA000009B9B889A4202D1FFF798FF00E000BFDC
:10DBB00003B05DF804FB000000B591B00190009146
:10DBC000009B1B7C8DF83F30009B5A7C9A4B1A704F
:10DBD000009B9A7C994B1A70009BDA7C984B1A70C8
:10DBE000009B1A7D974B1A70009B5A7D964B1A70BA
:10DBF000009B9A7D954B1A70009BDA7D944B1A70AE
:10DC00009DF83F108C4B1B781A068C4B1B781B041D
:10DC10001A438B4B1B781B0213438A4A127843EA40
:10DC20000200894B1B781A04884B1B781B02134394
:10DC3000874A127813430246864808F045FA009B4B
:10DC40001A7E7D4B1A70009B5A7E7C4B1A70009B8B
:10DC50009A7E7B4B1A70009BDA7E7A4B1A70009B7F
:10DC60001A7F794B1A70009B5A7F784B1A70009B71
:10DC70009A7F774B1A70704B1B781A066F4B1B7884
:10DC80001B041A436E4B1B781B0213436D4A127818
:10DC900043EA02016C4B1B781A046C4B1B781B0285
:10DCA00013436B4A127813431A466B4808F00CFA78
:10DCB000009BDA7F604B1A70009B93F820205F4B2B
:10DCC0001A70009B93F821205D4B1A70009B93F80B
:10DCD00022205C4B1A70009B93F823205A4B1A7039
:10DCE000009B93F82420594B1A70009B93F8252031
:10DCF000574B1A70504B1B781A06504B1B781B045D
:10DD00001A434F4B1B781B0213434E4A127843EAC7
:10DD100002014D4B1B781A044C4B1B781B0213431A
:10DD20004B4A127813431A464B4808F0CDF9009B32
:10DD300093F82620404B1A70009B93F827203F4B06
:10DD40001A70009B93F828203D4B1A70009B93F8A3
:10DD500029203C4B1A70009B93F82A203A4B1A70EA
:10DD6000009B93F82B20394B1A70009B93F82C20C2
:10DD7000374B1A70304B1B781A06304B1B781B043C
:10DD80001A432F4B1B781B0213432E4A127843EA87
:10DD900002012D4B1B781A042C4B1B781B021343DA
:10DDA0002B4A127813431A462B4808F08DF9009B32
:10DDB00093F82D20204B1A70009B93F82E201F4BB8
:10DDC0001A70009B93F82F201D4B1A70009B93F83C
:10DDD00030201C4B1A70009B93F831201A4B1A709C
:10DDE000009B93F83220194B1A70009B93F8332054
:10DDF000174B1A70104B1B781A06104B1B781B041C
:10DE00001A430F4B1B781B0213430E4A127843EA46
:10DE100002010D4B1B781A040C4B1B781B02134399
:10DE20000B4A127813431A460C4808F04DF900BF0C
:10DE300011B05DF804FB00BF473A0020483A0020CB
:10DE4000493A00204A3A0020443A0020453A00204E
:10DE5000463A0020187E0300247E03002C7E030037
:10DE600082B001900091019B1A88009B9B889A4286
:10DE700009D1019B4FF6FF721A80019B00225A8044
:10DE8000019B00229A8000BF02B0704700B591B09C
:10DE900001900091009B1B78002B59D1009B9B881F
:10DEA00041F60D02934253D1009B9B79012B4FD138
:10DEB00001238DF80C30009B5B88ADF80E300023F9
:10DEC0000F9326E000990F9A1346DB0013445B0082
:10DED0000B440E331B8842F63722934216D1009929
:10DEE0000F9A1346DB0013445B000B4418331B8866
:10DEF000ADF8103000990F9A1346DB0013445B0015
:10DF00000B4416331B88ADF8123008E00F9B013329
:10DF10000F93009B1B7A1A460F9B9342D2D3019B0F
:10DF20001B884FF6FF7293420CD0019B5B88002B3D
:10DF300008D1019B9B88002B04D1019B023304AACA
:10DF400010681860019B9B6803AA114601989847C6
:10DF500000BF11B05DF804FB00B585B001900091E1
:10DF6000019B002B01D10E231EE0009B002B01D151
:10DF70000E2319E001238DF80E3041F60D03ADF8A4
:10DF80000C30009B1A68019B9A60019B4FF6FF7250
:10DF90001A80019B00225A80019B00229A8003ABC9
:10DFA000184601F05BF90346184605B05DF804FB1E
:10DFB00000B585B001900091009B0393039B002B5B
:10DFC0001AD0019B002B17D0019B1B88382B09D03E
:10DFD000392B02D0112B0AD00FE001990398FFF7DB
:10DFE000EBFD0AE001990398FFF7D4FD05E00199E4
:10DFF0000398FFF735FF00E000BF05B05DF804FBB4
:10E0000000B585B00346ADF806300B46ADF80430D8
:10E0100013468DF803309DF80330ADF80E301E4BDB
:10E020001A68531C1C490B6013469B0013449B0049
:10E030001A4A13440293184B1B6803F00703164A4D
:10E040001360029BBDF804205A81029B0222DA81F0
:10E05000029B1A1D029B1A61029B00229A81029B5D
:10E0600001221A72BDF80E30DAB2029B1A71BDF8A5
:10E070000E301B0A9BB2DAB2029B5A71029BBDF8AA
:10E0800006201A80029B01229A70FFF727FD0023C9
:10E09000184605B05DF804FB3C3A00209C3900208E
:10E0A00000B583B00190019B002B01D10E2308E045
:10E0B000019B1888019B5B8801221946FFF7A0FF8E
:10E0C0000346184603B05DF804FB84B003900B468A
:10E0D0000192ADF80A30039B002B01D10E230CE016
:10E0E000039BBDF80A201A80019B002B04D0039BE0
:10E0F000019A023312681A600023184604B0704770
:10E1000000B583B01F4B0193019B02221A61019B52
:10E1100002225A61019B1C4A9A61019B1B4ADA61E7
:10E12000019B4FF400721A62019B00229A62019BCC
:10E1300000225A62019B0022DA62019B124A9A6411
:10E14000019B134ADA64019B10221A65019B00228D
:10E150009A65019B00225A65019B0022DA65019BAA
:10E1600007330C49184608F03CF8019B0A49184649
:10E1700008F037F8019B20229A7100BF03B05DF8C8
:10E1800004FB00BF4C3A0020347E0300C43A002058
:10E19000C43C0020407E0300447E030000B589B0EB
:10E1A00003900291019200230693039BDB68059381
:10E1B000039B1B690493049A059B9A4205D9049A10
:10E1C000059BD31A013B079307E0039B9A680499C8
:10E1D000059BCB1A1344013B0793039B9A68059B4D
:10E1E000D31A079A934228BF13460793079A019BB5
:10E1F000934228BF13460793039B5A68059B134419
:10E20000079A0299184607F090FF069A079B134455
:10E210000693029A079B13440293019A079BD31A11
:10E220000193059A079B13440593039B9B68059AEA
:10E230009A4201D100230593039B059ADA60019B62
:10E24000002BB5D1069B184609B05DF804FB00B55C
:10E2500089B0039002910192039BDB680793039BB3
:10E260009A68079BD31A0693069A019B9A420ED985
:10E27000039B5A68079B1344019A0299184607F0BA
:10E2800054FF079A019B1A44039BDA601AE0069B2D
:10E290000593039B5A68079B1344059A02991846F5
:10E2A00007F043FF019A069BD31A0593039B586816
:10E2B000029A069B1344059A194607F036FF039B02
:10E2C000059ADA6000BF09B05DF804FB86B00190E2
:10E2D000019B1B690493019BDB680393049A039BD6
:10E2E0009A4208D8019B9A68039BD21A049B134454
:10E2F000013B059304E0049A039BD31A013B059369
:10E30000059B184606B0704700B589B0039002918E
:10E310000192029B0693039B5A1C13465B00134415
:10E32000DB001F4A13440593059B5B69012B17D043
:10E33000002B02D0022B23D029E00598FFF7C6FF5F
:10E340000490049A019B9A4202D20023079321E091
:10E35000019B0793019A06990598FFF778FF19E04A
:10E360000598FFF7B3FF0490019A049B934228BFDE
:10E3700013460793079A06990598FFF768FF09E087
:10E38000019A06990598FFF709FF079002E000231C
:10E39000079300BF079B184609B05DF804FB00BF58
:10E3A0004C3A002008B5FFF7ABFE00BF08BD0000E7
:10E3B00000B585B00346ADF80630164B5B6CDB4309
:10E3C0001846FAF799FE0346ADF80E30BDF80E3048
:10E3D0004FF6FF72934217D0BDF80E300D4A5B0026
:10E3E0001344BDF806209A80BDF8062001230A498F
:10E3F0000A48FAF7A3FEBDF806200123084907489A
:10E40000FAF79CFE012300E00023184605B05DF8F2
:10E4100004FB00BFD43C00201C3D0020D83C002061
:10E42000183D002000B585B00346ADF80E30BDF8AC
:10E430000E200023009313461D2204490448FAF7D6
:10E4400098FE00BF05B05DF804FB00BF183D00203A
:10E45000D83C002000B583B00346ADF80630BDF8C7
:10E460000620002303490448FAF768FE00BF03B002
:10E470005DF804FB1C3D0020D83C002000B5A5B091
:10E48000134B9B6CDA43124B5B6C1A406B46114981
:10E490001846FAF7E0FE12AB69464422184607F028
:10E4A00044FE002323930BE0239B5B0024AA134428
:10E4B00033F8443C1846FFF7B5FF239B0133239301
:10E4C000129B239A9A42EFD300BF25B05DF804FB5C
:10E4D000D43C0020D83C002082B003468DF80730A1
:10E4E000074B1B689DF80720012101FA02F2134037
:10E4F000002B14BF01230023DBB2184602B0704783
:10E50000D43C002082B003468DF80730064B1B68D0
:10E510009DF80720012101FA02F21343024A136019
:10E5200000BF02B0704700BFD43C002000B585B0EA
:10E5300001900091019B1B88112B27D01A2B2BD007
:10E54000102B4AD1FFF79AFF019B9B881846FFF7D3
:10E550002FFF034683F00103DBB2002B05D0214AD5
:10E56000E5210420F6F772F837E0019BDB7B022BF4
:10E570000CBF012300238DF80F30019B9A889DF872
:10E580000F3019491948FAF7D9FD26E0019B9B88FD
:10E590001846FFF75FFF20E0019B9A88019B1B7ADA
:10E5A000C3F30313DBB2012B8CBF01230023DBB2C7
:10E5B0000F490E48FAF7C2FD019B9A88019B1B7A0E
:10E5C000C3F30313DBB2022B8CBF01230023DBB2A6
:10E5D00008490648FAF7B2FD00BF00BF05B05DF874
:10E5E00004FB00BF4C7E0300203D0020D83C0020EF
:10E5F000243D0020283D002000B585B00346ADF83D
:10E60000063000238DF80F30124B5B6CBDF80620EE
:10E6100019461148FAF7F6FD0346002B13D00D4BAF
:10E62000DB6CBDF8062019460B48FAF7EBFD0346F4
:10E630008DF80E309DF80E30002B01D0022300E043
:10E6400001238DF80F309DF80F30184605B05DF8A6
:10E6500004FB00BFD43C0020D83C002000B583B0B0
:10E660000346ADF80630064B1B6DBDF80620194673
:10E670000448FAF7C7FD0346184603B05DF804FBEB
:10E68000D43C0020D83C002008B5054BDA6C044B84
:10E690009B6C13401846FAF712FE0346184608BD55
:10E6A000D43C002000B583B00190054B5A6C019B0F
:10E6B00004491846FAF7CFFD019803B05DF804FB52
:10E6C000D43C0020D83C002000B583B000238DF856
:10E6D000073017E09DF807301846FFF7FDFE0346A8
:10E6E00083F00103DBB2002B07D09DF807301846FA
:10E6F000FFF708FF9DF8073009E09DF80730013368
:10E700008DF807309DF80730172BE3D918231846EA
:10E7100003B05DF804FB000000B583B003460A4671
:10E72000ADF8063013468DF805309DF805301846D3
:10E73000FFF7D2FE0346002B0ED09DF80530094AA4
:10E7400014339B0013449B68BDF806201946064805
:10E75000FAF758FD034600E00023184603B05DF8C1
:10E7600004FB00BFD43C0020D83C002000B583B09F
:10E770000346ADF806300B468DF8053013468DF88C
:10E7800004309DF805301846FFF7A6FE0346002B1F
:10E790000ED09DF8053014339B00074A134403F153
:10E7A00008019DF80430BDF806200448FAF7C6FCBD
:10E7B00000BF03B05DF804FBD43C0020D83C00202F
:10E7C00000B583B003468DF807309DF80730184632
:10E7D000FFF782FE0346002B07D09DF80730054A5D
:10E7E00014339B0013449B6800E00023184603B0D9
:10E7F0005DF804FBD43C002094DF704700BF18464E
:10E8000096DF704700BF184697DF704700BF184675
:10E8100084B001900023039316E0104A039B9B00F1
:10E8200013449A78019B9B789A420AD10B4A039B26
:10E8300032F82320019B1B889A4202D1084B1B68A7
:10E8400008E0039B01330393064B1B68039A9A422B
:10E85000E3D30023184604B0704700BF8C3D00206E
:10E86000A4400020AC40002000B583B0019000918E
:10E870000198FFF7CDFF0346002B01D0002314E0E1
:10E880000C4B1B68052B0FD80A4B1B680A4A0199D1
:10E890009B0013440A4610681860064B1B6801333E
:10E8A000044A1360002300E00423184603B05DF817
:10E8B00004FB00BFAC4000208C3D002000B583B0BD
:10E8C000002301930EE00D4A019BDB0113447C33CE
:10E8D0001B68019AD20109490A4410469847019BD6
:10E8E00001330193064B1B68019A9A42EBD3054B07
:10E8F00000221A6000BF03B05DF804FBA43D0020B5
:10E90000AC400020A840002000B5A7B003900291C1
:10E910001346ADF80630039B93F8C6321A467623A9
:10E9200003FB02F3039A13442593259B1846FFF734
:10E930006FFF2490249B002B12D005AB7C2200217A
:10E94000184607F01BFC01238DF81430BDF8063083
:10E95000ADF81630029B069305AA249B10469847F3
:10E9600000BF27B05DF804FB00B585B001900B46F1
:10E970008DF803301346ADF80030019B93F8C63292
:10E980001A46762303FB02F3019A13440393039B75
:10E990001846FFF73DFF0290029B002B40D0224B10
:10E9A0001B68052B3CD8204B1B68204ADB01134415
:10E9B0000233BDF800201A801B4B1B681B4ADB0189
:10E9C0001344039A043311467622184607F0ADFB30
:10E9D0009DF80330002B07D0134B1B68134ADB0153
:10E9E000134400221A7006E00F4B1B680F4ADB012C
:10E9F000134402221A700C4B1B680C4ADB011344AF
:10EA00007C33029A1A60084B1B680133064A136074
:10EA1000054B1A68064B1B689A4201D1FFF74EFF5F
:10EA200000BF05B05DF804FBA8400020A43D002015
:10EA3000AC40002000B585B001900B46ADF8023027
:10EA4000019B93F8C9320133DAB2019B83F8C922E2
:10EA5000019B93F8C9321A46284B1B689A423FD251
:10EA6000019B002283F8C522019B93F8C632013333
:10EA7000DAB2019B83F8C622019B93F8C6321A468C
:10EA8000762303FB02F3019A13440393019B93F84B
:10EA9000C63203991A4A9B00134418680860039B06
:10EAA00000221A71039ABDF8023001211846FFF7BF
:10EAB000A3FE0290029B002B1DD0019B002283F835
:10EAC000C722BDF802301A4602990198FFF71CFFD1
:10EAD0000C4B03221A700B4ABDF8023053800AE037
:10EAE000019B002283F8C722064B03221A70054AB5
:10EAF000BDF80230538005B05DF804FBAC40002047
:10EB00008C3D0020A43D002082B001900091009B2C
:10EB10001A89019B93F8C63218460199762303FBA4
:10EB200000F30B4408331B889A4201D2012300E012
:10EB30000023184602B0704784B0039002910192FE
:10EB40000093019B002B25D1029B1A89039B93F80C
:10EB5000C63218460399762303FB00F30B440833AF
:10EB60001B889A4201D100232AE0029B1B890133B2
:10EB70009AB2009B1A80039B93F8C6321946039AF7
:10EB8000762303FB01F3134408331A88009B5A8051
:10EB9000012315E0029B1B890133019AD28893421D
:10EBA00001D100230CE0029B1B8901339AB2009B28
:10EBB0001A80019BDB88013B9AB2009B5A8001239B
:10EBC000184604B0704700B587B001900B46ADF809
:10EBD0000230019B93F8C6321A46762303FB02F3F8
:10EBE000019A13440593019B93F8C532002B21D061
:10EBF000019B93F8C532013B8DF81330019B93F8CC
:10EC0000C6321A46762303FB02F3019A1344059396
:10EC10009DF813201346DB0013445B000833059A6C
:10EC2000134402330393039B1B8901339BB2ADF85A
:10EC3000083003E0059BDB88ADF80830059B1B8995
:10EC4000ADF80A3002AABDF8023011461846FFF7A7
:10EC5000D7FD0346184607B05DF804FB00B58BB03E
:10EC6000039002911346ADF8063000238DF823304F
:10EC7000039B93F8C6321A46762303FB02F3039AEA
:10EC800013440693039B93F8C5321A461346DB00E0
:10EC900013445B000833069A134402330993039B21
:10ECA00093F8C5320133069A1279934209D105AB24
:10ECB000002209990398FFF73FFF03468DF82330A0
:10ECC0003DE0039B93F8C5328DF8223031E09DF88A
:10ECD0002220069B1B79013B9A4202D10023079315
:10ECE0000BE09DF822305A1C1346DB0013445B00F6
:10ECF0000833069A13440233079305AB079A099920
:10ED00000398FFF719FF0346002B03D001238DF86A
:10ED1000233014E0079B0993039B93F8C53201331A
:10ED2000DAB2039B83F8C5229DF8223001338DF8B7
:10ED30002230069B1B799DF822209A42C7D39DF86A
:10ED4000233083F00103DBB2002B04D0029B0122AD
:10ED50001A7000230AE0029B00221A7005AABDF86F
:10ED6000063011461846FFF74FFD034618460BB014
:10ED70005DF804FB00B587B001900091019B93F80A
:10ED8000C6321A46762303FB02F3019A1344049316
:10ED9000009B1A88019BB3F8CA329A423CD1009B6F
:10EDA0005B88002B2AD1009B06330393049A039BB4
:10EDB00002331B681360049B039A06330632126801
:10EDC0001A60009B1B8819460198FFF7FCFE05900E
:10EDD000059B002B21D0019B002283F8C722009BBA
:10EDE0001B881A4605990198FFF78EFD0C4B0322EC
:10EDF0001A70009B1A880A4B5A800EE0009B1B88F1
:10EE00001A4600210198FFF7AFFD009B1B881946A9
:10EE10000198FFF70FFE00E000BF07B05DF804FBAC
:10EE2000A43D002000B58DB00190009100238DF825
:10EE30002F30009B1A88019BB3F8CA329A4240F0E7
:10EE4000FA80019B93F8C6321A46762303FB02F33D
:10EE5000019A13440893009B5B88002B40F0AF801D
:10EE6000009B06330793089B1B798DF81B30079B8B
:10EE70001B888DF81A309DF81B209DF81A3013441A
:10EE8000062B08DC089B1A799DF81A301344DAB275
:10EE9000089B1A7102E0089B06221A719DF81B302C
:10EEA0000A930023099345E008990A9A1346DB0068
:10EEB00013445B000B4403F108010798099A1346B9
:10EEC0009B0013445B00C2188B1C0232106851680F
:10EED0001860596012891A8108990A9A1346DB0052
:10EEE00013445B000B44143300221A8008990A9AD9
:10EEF0001346DB0013445B000B44163300221A80D8
:10EF000008990A9A1346DB0013445B000B4418333C
:10EF100000221A8008990A9A1346DB0013445B000A
:10EF20000B441A3300221A800A9B01330A93099B6F
:10EF300001330993089B1B791A460A9B9342B3D36A
:10EF40000A9B5A1E1346DB0013445B000833089AE1
:10EF500013440233059305990198FFF7D5FD034645
:10EF600083F00103DBB2002B03D1089B1B79062B36
:10EF700003D101238DF82F3024E0089B1A79019BDF
:10EF800083F8C522009B1B8819460198FFF71BFEDA
:10EF90000490049B002B15D0019B002283F8C7220C
:10EFA000009B1B881A4604990198FFF7ADFC244B7F
:10EFB00003221A70009B1A88214B5A803CE00123DF
:10EFC0008DF82F309DF82F30002B35D0019B00227B
:10EFD00083F8C522009B1A880DF10F03194601988A
:10EFE000FFF73CFE0490049B002B12D0019B0022F3
:10EFF00083F8C722009B1B881A4604990198FFF7E3
:10F0000083FC0F4B03221A70009B1A880C4B5A800A
:10F0100012E09DF80F30002B0ED0009B1B881A4683
:10F0200001210198FFF7A0FC009B1B88194601985D
:10F03000FFF700FD00E000BF0DB05DF804FB00BF6E
:10F04000A43D002000B589B001900091009B1A8872
:10F05000019BB3F8CA329A4240F0D780019B93F8E3
:10F06000C6321A46762303FB02F3019A1344069331
:10F07000009B06330593019B93F8C5321A4613464D
:10F08000DB0013445B000833069A134402330493F5
:10F09000009B5B88002B70D10023079365E00599E6
:10F0A000079A13465B0013445B000B4404331B8830
:10F0B000A3F52453082B45D801A252F823F000BF32
:10F0C000FDF0020015F10200E5F0020045F102003A
:10F0D00045F1020045F1020045F1020045F1020050
:10F0E0002DF102000599079A13465B0013445B005B
:10F0F0000B4402331A88049B5A8123E00599079A2E
:10F1000013465B0013445B000B4402331A88049BD4
:10F110009A8117E00599079A13465B0013445B0038
:10F120000B4402331A88049BDA810BE00599079A95
:10F1300013465B0013445B000B4402331A88049BA4
:10F140001A8200BF049B5B89002B0BD0049B9B8918
:10F15000002B07D0049BDB89002B03D0049B1B8A68
:10F16000002B09D1079B01330793059B1B881A4687
:10F17000079B934293D300E000BF00238DF80B3030
:10F18000019B93F8C5320133069A1279934203D159
:10F1900001238DF80B3026E0019B93F8C532013333
:10F1A000DAB2019B83F8C522009B1A880DF10B038C
:10F1B00019460198FFF752FD0390039B002B12D0D4
:10F1C000019B002283F8C722009B1B881A460399E3
:10F1D0000198FFF799FB0F4B03221A70009B1A88C6
:10F1E0000C4B5A8012E09DF80B30002B0ED0009B88
:10F1F0001B881A4601210198FFF7B6FB009B1B886C
:10F2000019460198FFF716FC00E000BF09B05DF851
:10F2100004FB00BFA43D002084B0019000230393B1
:10F22000019B002B01D10E230CE0084B00221A6039
:10F23000074B01221A70074B00221A60064A019BF5
:10F240001360039B184604B0704700BFAC40002019
:10F25000B0400020A8400020A440002000B583B0AA
:10F260000190019B002B01D10E230FE0094B1B786D
:10F2700083F00103DBB2002B01D0082306E0064B2C
:10F280001B6819460198FFF7EFFA0346184603B0CA
:10F290005DF804FBB0400020A440002000B585B01C
:10F2A00001900B46ADF802304FF433720021019803
:10F2B00006F064FF019BBDF80220A3F8CA22244B8C
:10F2C00000221A60019B002283F8C922019B0022C0
:10F2D00083F8C622019B002283F8C522019B93F884
:10F2E000C6321A46762303FB02F3019A13440393B2
:10F2F000019B93F8C6320399164A9B001344186881
:10F300000860039ABDF8023001211846FFF774FA2D
:10F310000290029B112B0DD0029B002B01D0029B6F
:10F3200011E0019B012283F8C722019B002283F890
:10F33000C82207E0019B012283F8C722019B01221A
:10F3400083F8C8220023184605B05DF804FB00BF0F
:10F35000A84000208C3D002000B583B001900B46F2
:10F36000ADF80230019B002B01D10E231CE0104BA5
:10F370001B7883F00103DBB2002B01D0082313E0DC
:10F380000C4B1B68002B01D108230DE0019B93F867
:10F39000C732002B01D0112306E0BDF80230194618
:10F3A0000198FFF77BFF0346184603B05DF804FBA6
:10F3B000B0400020AC40002082B001900091009B42
:10F3C0001A88019BB3F8CA329A420CD1019B0022E1
:10F3D00083F8C722019B002283F8C822019B4FF6C5
:10F3E000FF72A3F8CA2200BF02B0704700B585B013
:10F3F00001900091019B002B00F09580009B002B59
:10F4000000F093804C4B1B7883F00103DBB2002BA0
:10F4100040F08D80009B0393019B1B88113B222BA6
:10F4200064D801A252F823F0DFF40200EDF40200E8
:10F43000EDF40200EDF40200EDF40200EDF4020040
:10F44000EDF40200EDF40200EDF40200EDF4020030
:10F45000EDF40200EDF40200EDF40200EDF4020020
:10F46000EDF40200EDF40200EDF40200EDF4020010
:10F47000EDF40200EDF40200EDF40200EDF4020000
:10F48000EDF40200EDF40200EDF40200EDF40200F0
:10F49000EDF40200EDF40200EDF40200EDF40200E0
:10F4A000EDF40200B5F40200EDF40200C3F4020032
:10F4B000D1F40200019B043319460398FFF75AFC6C
:10F4C00015E0019B043319460398FFF7ABFC0EE0EF
:10F4D000019B043319460398FFF7B4FD07E0019B35
:10F4E000043319460398FFF767FF00E000BF039B52
:10F4F00093F8C832002B1BD0019B1B882F2B17D9E8
:10F50000019B1B884F2B13D8019B9A88039BB3F850
:10F51000CA329A420CD1039BB3F8CA3219460398F7
:10F52000FFF7BCFE04E000BF02E000BF00E000BF48
:10F5300005B05DF804FB00BFB040002082B0019030
:10F54000019B002B14BF01230023DBB2184602B03D
:10F5500070470000024B00221A7000BF704700BFC6
:10F56000B140002000B585B00190019B5B88184632
:10F5700001F018F803461A46019B9A800023039372
:10F5800008E0084A039B52F8233001989847039BF0
:10F5900001330393039B002BF3D000BF05B05DF84C
:10F5A00004FB00BF5C2D002082B00190019B9B7981
:10F5B000012B0BD1019B1B79012B07D1019B5B8890
:10F5C00042F60212934201D1012300E0002303F02E
:10F5D0000103DBB2184602B0704700B589B003469C
:10F5E0000091ADF8063003AB00221A605A609A60B1
:10F5F000DA601A6107238DF80C30BDF80630ADF8DB
:10F600000E30009B059303AB1846FFF7ABFF00BF1E
:10F6100009B05DF804FB000000B58BB00346ADF8FF
:10F62000063000238DF8273003AB00221A605A60A1
:10F630009A60DA601A61BDF80630ADF80E30BDF898
:10F6400006304FF6FF7293423ED0BDF806301846A2
:10F6500000F019FC0890089B0B2B1BD0089B0B2B70
:10F6600003D8089B002B09D01CE0089B112B0DD060
:10F67000089B43F2020293421BD013E00E238DF845
:10F680000C3003AB1846FFF76DFF13E001238DF834
:10F6900027300FE00F238DF80C3003AB1846FFF72F
:10F6A00061FF07E0BDF8063008991846FFF795FF9F
:10F6B00000E000BF064B19789DF82720BDF8063002
:10F6C0001846FFF753F800E000BF0BB05DF804FBED
:10F6D000B440002000B583B003460A46ADF80630BA
:10F6E00013468DF80530064B19789DF80520BDF8B6
:10F6F00006301846FFF73AF800BF03B05DF804FB88
:10F70000B340002000B58BB00346ADF806300023AF
:10F710008DF8273000238DF82630BDF806301846C6
:10F7200000F03EFB0890089B112B13D0089B112B77
:10F7300003D8089B002B09D024E0089B862B0DD012
:10F74000089B43F20202934223D01BE001238DF871
:10F7500026301FE001238DF827301BE003AB002289
:10F760001A605A609A60DA601A6106238DF80C30CC
:10F77000BDF80630ADF80E3003AB1846FFF7F2FEC9
:10F7800000BF07E0BDF8063008991846FFF725FFCF
:10F7900000E000BF9DF82720BDF80630114618464E
:10F7A000FFF798FF9DF8263018460BB05DF804FB74
:10F7B00000B58BB00346ADF8063001238DF8273035
:10F7C00000238DF82630BDF80630184600F008FCFE
:10F7D0000890089B082B2ED0089B082B06D8089B66
:10F7E000002B11D0089B062B25D037E0089B43F255
:10F7F0000202934239D0089B43F20142934227D040
:10F80000089B112B33D029E003AB00221A605A6009
:10F810009A60DA601A6110238DF80C30BDF806305A
:10F82000ADF80E3001238DF8263003AB1846FFF7F4
:10F8300099FE00BF1CE000238DF82730BDF806308C
:10F84000184600F0AFFE0346184600F0FDFB0FE03F
:10F85000BDF806301846FFF7DFFE09E0BDF80630B8
:10F8600008991846FFF7B9FE02E000BF00E000BFAC
:10F870000A4B19789DF82720BDF806301846FEF788
:10F8800075FF074B19789DF82620BDF806301846FD
:10F89000FEF76CFF00BF0BB05DF804FBB540002025
:10F8A000B640002000B597B003468DF807309DF8AC
:10F8B00007301846FEF784FF03461846FFF73EFE62
:10F8C0000346002B61D003AB1846FEF7EBFE002386
:10F8D000159354E0159B5B0016AA134433F8483C7B
:10F8E000ADF852309DF80720BDF852301146184649
:10F8F000FEF712FF0346002B3ED0254B1B789DF8E8
:10F9000007209A4205D1BDF852301846FFF784FE11
:10F9100032E0204B1B789DF807209A4213D100213A
:10F920001D4803F0FBFC0346002B25D0BDF85230E8
:10F930001846FFF7E7FE0346002B25D100211648A5
:10F9400003F00EFD18E0154B1B789DF807209A4236
:10F9500012D1134B1A78BDF8523011461846FEF7F3
:10F96000DBFE034683F00103DBB2002B04D0BDF8BD
:10F9700052301846FFF71CFF159B01331593039B6C
:10F98000159A9A42A6D300E000BF17B05DF804FBB9
:10F99000B4400020B3400020B2400020B540002019
:10F9A000B640002008B5034B1B781846FFF77AFFD6
:10F9B00000BF08BDB440002008B5034B1B781846B3
:10F9C000FFF770FF00BF08BDB340002008B5034B30
:10F9D0001B781846FFF766FF00BF08BDB540002042
:10F9E00000B583B00190019B1B78002B15D1019BC2
:10F9F0005B881846FFF710FE019B5B88184600F0F5
:10FA0000CBFA0346002B0AD0019B5888064B1B7883
:10FA100001221946FEF7AAFE01E000BF00E000BF88
:10FA200000BF03B05DF804FBB540002000B589B00D
:10FA30000190019B1B78082B4FD1019B5B7A002B17
:10FA40004BD1019B1B7A072B04D0082B40D0012BF4
:10FA500015D047E0019B9B88184600F047FE0346FF
:10FA6000ADF81E30BDF81E304FF6FF72934236D00F
:10FA7000BDF81E3001211846FFF72CFE2FE0019B38
:10FA80009B8803AA0121184602F066FB0690069B9C
:10FA9000002B26D1049B1B78002B22D0019B9B8836
:10FAA000184600F023FE0346ADF81630BDF81630B8
:10FAB0004FF6FF72934214D00D4B1978BDF81630F3
:10FAC00001221846FEF752FEFFF780FF00BF08E054
:10FAD0000021084803F044FC04E000BF02E000BF3E
:10FAE00000E000BFFFF768FF00BF09B05DF804FB4E
:10FAF000B5400020B240002008B5FFF72BFDFEF70F
:10FB0000E3FD03461A46184B1A70FEF7DDFD034667
:10FB10001A46164B1A70FEF7D7FD03461A46144BC9
:10FB20001A70FEF7D1FD03461A46124B1A700E4B9F
:10FB30001B78182B0BD00D4B1B78182B07D00C4BB8
:10FB40001B78182B03D00B4B1B78182B01D10323E8
:10FB500007E00121084803F0CBFB084B01221A7093
:10FB60000023184608BD00BFB3400020B440002069
:10FB7000B5400020B6400020B2400020B140002037
:10FB800000B589B00190019B9B88ADF81E30019BA8
:10FB90001B88522B04D0542B08D0502B37D047E071
:10FBA000BDF81E301846FFF737FD41E002AB0022DA
:10FBB0001A605A609A60DA601A6111238DF8083071
:10FBC000BDF81E30ADF80A30BDF81E30184600F002
:10FBD000E9FC0346ADF80C30BDF80C30184600F0D7
:10FBE00033FA174B1978BDF81E3000221846FEF77D
:10FBF000BDFD144B1978BDF81E3000221846FEF7E3
:10FC0000B5FD02AB1846FFF7ADFC00BF10E0019B4D
:10FC100006331846FFF7C8FC0346002B07D0BDF893
:10FC20001E3001211846FFF755FDFFF7C5FE00BF46
:10FC3000FFF7B8FEFFF7CAFE00BF09B05DF804FB8E
:10FC4000B6400020B540002000B593B000F094F914
:10FC50006B461846FEF726FD0023ADF8463021E03E
:10FC6000BDF846305B0012AA134433F8443C1846F2
:10FC700000F098FC03461A464FF6FF739A420CD1E7
:10FC8000BDF846305B0012AA134433F8440C0B4B0A
:10FC90001B7801221946FEF769FDBDF84630013395
:10FCA000ADF84630BDF84620009B9A42D8D3FFF706
:10FCB0008DFE00BF13B05DF804FB00BFB54000200F
:10FCC000A7DF704700BF1846A9DF704700BF18467E
:10FCD000AADF704700BF1846ABDF704700BF184669
:10FCE000044B00221A70044B4FF6FF721A8000BFBB
:10FCF000704700BFB7400020B840002000B585B075
:10FD0000164A01AB92E8030083E80300144B1B88FA
:10FD100001A90022184602F00EFC039010E0104BDF
:10FD20001B88184602F0CFFB03461A460C4B1A807C
:10FD30000B4B1B8801A90022184602F0FCFB039024
:10FD4000074B1B884FF6FF72934202D0039B112B87
:10FD5000E5D100BF05B05DF804FB00BFC87E03001D
:10FD6000B840002000B583B00190064B1B884FF6C9
:10FD7000FF72934201D0FFF7C1FF00BF03B05DF8EF
:10FD800004FB00BFB840002008B5FFF7A9FF034BF4
:10FD900001221A700023184608BD00BFB74000209A
:10FDA00000B58BB00346ADF80630BDF806301846F6
:10FDB00000F0F8FB0346ADF81E30BDF81E304FF6DC
:10FDC000FF72934202D143F2020358E00123ADF8DF
:10FDD000223000238DF8213000238DF82130BDF82A
:10FDE00022305A1CADF822201A4603ABBDF81E0083
:10FDF000082102F0C7F90990099B002B35D1049B1B
:10FE00000693069B03221A60069B991D069B1A1DEA
:10FE1000069B1B68BDF80600FFF75AFF0990099B77
:10FE2000002B09D1BDF81E20BDF81E300821184650
:10FE300002F016FB09901DE0099B0C2B03D1012356
:10FE40008DF8213004E0099B052B01D10023099393
:10FE5000BDF81E300821184602F076FA0590059B81
:10FE6000002B07D00323099304E0099B072B01D142
:10FE70000C2309939DF82130002BADD1099B184626
:10FE80000BB05DF804FB00B58BB00346ADF806304F
:10FE9000BDF80630184600F085FB0346ADF8143077
:10FEA000002308930023ADF81E300323069301239B
:10FEB0008DF81730BDF814304FF6FF72934216D00C
:10FEC00002AABDF814300821184602F045F909903D
:10FED000099B002B0BD1039B0493049B06330893CF
:10FEE000049B9B88ADF81E30049B1B680693BDF8ED
:10FEF0001E20BDF80600069B0899FFF7E5FE099055
:10FF0000099B042B02D11123099324E0099B082BA0
:10FF100002D1002309931EE0099B0B2B1BD1002368
:10FF20008DF81730069B03F00203002B02D001234B
:10FF3000069310E0089B002B03D1BDF81E30002B68
:10FF400007D0002308930023ADF81E300323069347
:10FF500001E003230993099B0B2BC8D09DF81730B0
:10FF600083F00103DBB2002B01D00B230993099B23
:10FF700018460BB05DF804FB08B54FF6FF7002F0B1
:10FF8000A2FA03461A46034B1A80FFF7B7FE00BFDA
:10FF900008BD00BFB840002000B589B00346ADF8E9
:10FFA00006300DF117030493BDF80630184600F033
:10FFB000F9FA0346ADF81E3003AABDF81E30012140
:10FFC000184602F0C9F80690069B002B01D00023CA
:10FFD00001E0049B1B78184609B05DF804FB0000A3
:10FFE00000B585B00346ADF806304FF6FF73ADF8A7
:10FFF0000E301448FFF770FE0290029B002B01D0D8
:020000023000CC
:1000000003231AE00F4B1988BDF80E20BDF8063007
:100010001846FFF755FE0290029B43F203029342FB
:1000200005D1084B1B8801339AB2064B1A80029BFC
:1000300043F203029342E5D0029B184605B05DF8F7
:1000400004FB00BFBA40002000B585B00346ADF800
:100050000630084A02AB92E8030083E8030002A9D5
:10006000BDF806300022184602F065FA00BF05B060
:100070005DF804FBD07E03006EDF704700BF1846BA
:100080006FDF704700BF184643DF704700BF184658
:1000900082B00D4B18221A70002301930DE00B491A
:1000A000019A13465B0013449B000B4402334FF646
:1000B000FF721A80019B01330193019B132BEED930
:1000C00000BF02B0704700BFB0410020C040002018
:1000D00000B585B001900023039308E0074A039B15
:1000E00052F8233001989847039B01330393039BF5
:1000F000012BF3D900BF05B05DF804FBE07E0300DF
:1001000000B583B0002301931AE01149019A134608
:100110005B0013449B000B4402331A880D4B1B7881
:1001200019461046FEF7F8FA034683F00103DBB2E6
:10013000002B02D0019BDBB206E0019B013301934F
:10014000019B132BE1D9FF23184603B05DF804FB94
:10015000C0400020B041002000B585B00346ADF896
:100160000630144B1A78BDF8063011461846FEF7D3
:10017000D3FA0346002B18D00023039312E00E4954
:10018000039A13465B0013449B000B4402331B8805
:10019000BDF806209A4202D1039BDBB206E0039B26
:1001A00001330393039B132BE9D9FF23184605B0B2
:1001B0005DF804FBB0410020C040002000B585B0D0
:1001C00003460091ADF80630FF238DF80F30009BF9
:1001D000002B49D0BDF806304FF6FF72934243D052
:1001E000244B1978BDF8063001221846FEF7BEFAF6
:1001F000BDF806301846FFF7AFFF03468DF80F3005
:100200009DF80F30FF2B04D1FFF77AFF03468DF8DE
:100210000F309DF80F30FF2B26D09DF80F20164988
:1002200013465B0013449B000B440233BDF80620C9
:100230001A809DF80F20104913465B0013449B0061
:100240000B444FF6FF721A809DF80F200A4913469F
:100250005B0013449B000B44009A04331068186041
:100260009188927999809A719DF80F30184605B05F
:100270005DF804FBB0410020C040002084B0019034
:10028000002303930AE0019A039B13441B78002B7D
:1002900001D0012306E0039B01330393039B0F2B43
:1002A000F1D90023184604B0704700B583B001901F
:1002B0000091019B002B02D0009B002B01D1002359
:1002C0001BE0019B1B78C3F34603DAB2009B1B784B
:1002D000C3F34603DBB29A4201D000230DE0019B39
:1002E000581C009B01330622194605F0B2FE034656
:1002F000002B0CBF01230023DBB2184603B05DF8CE
:1003000004FB30B599B00190019B1B88102B40F085
:100310008780019B0AAC1D1D0FCD0FC40FCD0FC4EC
:100320000FCD0FC42B6823604FF6FF73ADF85E301E
:100330009DF82C3023F00103DBB2062B47D001F0EF
:1003400029FA9DF82C30C3F34603DBB2002B3DDBCA
:10035000012B14DD022B2ED038E0089B03F1110293
:100360000AAB043311461846FFF79FFF0346002BE4
:1003700005D0BDF82630ADF85E3000BF27E007AAF3
:100380000DF126031946072001F00EFA0346002B53
:10039000E3D11CE0089B5A1C0AAB043311461846F3
:1003A00000F05CFC0346002B05D0BDF82630ADF80C
:1003B0005E3000BF0BE007AA0DF1260319460720A7
:1003C00001F0F2F90346002BE4D100E000BFBDF8D4
:1003D00028200AAB043319461046FFF7EFFE034608
:1003E0008DF85D30BDF85E304FF6FF72934218D045
:1003F000BDF82830BDF85E201146184600F0E4F93B
:10040000BDF82830ADF80A30BDF85E30ADF80C30DC
:1004100000238DF8083002AB1846FFF759FE00E0C4
:1004200000BF19B030BD00B587B001900091019BAD
:1004300011330593009B11330493019B581C009BBF
:1004400001331022194605F004FE0346002B11D19A
:10045000019B01331846FFF711FF0346002B09D01B
:10046000009B01331846FFF709FF0346002B01D01C
:10047000012300E000238DF80F309DF80F3003F0CA
:1004800001038DF80F3004990598FFF70EFF03461E
:100490008DF80E30059B1B7823F00103DBB2042B93
:1004A00016D0059B1B7823F00103DBB2062B0FD07F
:1004B000049B1B7823F00103DBB2042B08D0049BC0
:1004C0001B7823F00103DBB2062B01D0012300E0EF
:1004D00000238DF80D309DF80D3003F001038DF8E9
:1004E0000D309DF80E30002B03D09DF80D30002B01
:1004F0000AD19DF80F30002B08D09DF80D3083F005
:100500000103DBB2002B01D0012300E0002303F044
:100510000103DBB2184607B05DF804FB00B587B0F5
:1005200001900B46ADF8023001F034F910E0BDF84F
:100530001630BDF802209A420AD0049B1946019851
:10054000FFF771FF0346002B02D0BDF816300BE019
:1005500003AA0DF116031946072001F025F90346F9
:10056000002BE4D14FF6FF73184607B05DF804FB8B
:1005700008B5FFF78DFDFEF7A7F803461A46074BAF
:100580001A70064B1B78182B01D1032303E0044B90
:1005900001221A700023184608BD00BFB041002098
:1005A000BC40002000B585B00346ADF80630BDF86C
:1005B00006301846FFF7D0FD03468DF80F309DF842
:1005C0000F30FF2B09D09DF80F20074913465B0021
:1005D00013449B000B441B8801E04FF6FF73184641
:1005E00005B05DF804FB00BFC040002000B585B039
:1005F00003460091ADF80630BDF806301846FFF707
:10060000ABFD03468DF80F309DF80F30FF2B12D055
:100610009DF80F2000980A4913465B0013449B0085
:100620000B44024604331868106099889B799180C6
:100630009371002300E00523184605B05DF804FB24
:10064000C040002000B583B001900091019800F0F7
:1006500077F8034683F00103DBB2002B01D00023BF
:1006600015E0019B1A88009B1B889A4201D0002349
:100670000DE0019B981C009B02330822194605F0EF
:10068000E8FC0346002B0CBF01230023DBB2184615
:1006900003B05DF804FB00B587B0019001F07AF873
:1006A00014E0049B463319460198FFF7CBFF03463D
:1006B000002B08D1049B2A3319460198FFF7C2FF8B
:1006C0000346002B02D0BDF816300BE003AA0DF153
:1006D00016031946072001F067F80346002BE0D106
:1006E0004FF6FF73184607B05DF804FB84B003466D
:1006F000ADF806300023039318E01049039A13461F
:100700005B0013449B000B441B88BDF806209A42F3
:1007100009D10A49039A13465B0013449B000B441A
:1007200002331B8807E0039B01330393039B132BC6
:10073000E3D94FF6FF73184604B07047C04000205D
:1007400084B00190019B1B88002B01D0012312E093
:10075000002303930BE0019A039B134402331B789D
:10076000002B01D0012306E0039B01330393039B7D
:10077000072BF0D90023184604B0704700B585B0A8
:1007800003460A46ADF806301346ADF80430BDF80E
:1007900006301846FFF7E0FC03468DF80F309DF851
:1007A0000F30FF2B0AD09DF80F20064913465B003F
:1007B00013449B000B44BDF804201A8000BF05B011
:1007C0005DF804FBC040002000B583B003460A4634
:1007D000ADF806301346ADF80430BDF80420BDF87E
:1007E000063011461846FFF7C9FF00BF03B05DF899
:1007F00004FB00B585B00346ADF80630BDF8063001
:100800001846FFF773FF0346ADF80E30BDF806300B
:10081000184601F055FC0290BDF80E304FF6FF72FD
:10082000934209D0029B002B06D1BDF80E304FF643
:10083000FF711846FFF7A2FF029B184605B05DF84E
:1008400004FB00B5A1B003900291019200935023E4
:10085000059300238DF87F3000238DF87E30019BB7
:10086000002B01D1229B002B00BF019B002B08D045
:10087000009B002B05D001238DF87F30009B0022C8
:100880001A60229B002B08D0239B002B05D001234C
:100890008DF87E30239B00221A6006AB08220021CF
:1008A000184605F06BFC08AB079300231E9355E038
:1008B00008AB50220021184605F060FC1E9B5B002F
:1008C000039A1344188805AB06AA072100F000FF1D
:1008D0001D901D9B052B02D01D9B072B01D10523CD
:1008E00041E09DF83130C3F34603DBB28DF873303D
:1008F0009DF87330002B06D09DF87330012B02D089
:1009000043F202232FE09DF87F30002B10D01E9A77
:100910001346DB009B1A019AD01808AB113307224B
:10092000194605F002FC009B1B685A1C009B1A60CC
:100930009DF87E30002B0ED01E9B1B01229AD018F2
:1009400008AB01331022194605F0EFFB239B1B680F
:100950005A1C239B1A601E9B01331E931E9A029BF6
:100960009A42A5D30023184621B05DF804FB00B5D8
:10097000D5B001AB18606B46196001AB1B68002B4A
:1009800003D06B461B68002B06D1002200210020FB
:10099000FFF776FB03466DE03AAB4F9303AB502273
:1009A0001A600CABB8220021184605F0E7FB0023C3
:1009B00053930EE00CA9539A13465B001344DB00DB
:1009C0009B1A194404AB539A43F82210539B0133EA
:1009D0005393539B072BEDD9002352933CE03AAB42
:1009E00050220021184605F0C9FB529B5B0001AA6A
:1009F00012681344188803AB4EAA072100F068FE62
:100A00005190519B052B02D0519B072B01D10523FF
:100A100030E09DF8F930C3F34603DBB28DF8433183
:100A20009DF84331002B06D09DF84331012B02D0B5
:100A300043F202231EE00CA9529A13465B001344B2
:100A4000DB009B1AC8183AAB01331722194605F090
:100A50006CFB529B013352936B46529A1B689A422D
:100A6000BDD36B461B68DAB204AB00211846FFF712
:100A700007FB0346184655B05DF804FB00B587B088
:100A80000590049103920293059B002B01D1039BD7
:100A9000002B00BF049B002B01D1029B002B00BF49
:100AA000049B002B06D0124B1B781A46049B1B6834
:100AB0009A4209D8029B002B08D00D4B1B781A468E
:100AC000029B1B689A4201D904230CE0084B1B7857
:100AD0001946029B0193039B0093049B059A0548CA
:100AE000FFF7AFFE0346184607B05DF804FB00BFF2
:100AF000B1410020B441002000B59FB003900291A5
:100B0000102200212B4805F039FB039B002B02D05B
:100B1000029B002B08D1284B00221A7000210020D4
:100B2000FFF7AAFA034640E0029BDAB2224B1A70A2
:100B3000029B5B001A4603991E4805F0F6FA002353
:100B40001B9305AB38220021184605F017FB1BA9A3
:100B500005AA00230193002300930B4602990398F2
:100B6000FFF76FFE1C901C9B002B01D01C9B1CE010
:100B700000231D930EE005A91D9A1346DB009B1A66
:100B8000CA181D9B9B001EA90B4443F82C2C1D9BCF
:100B900001331D931D9B072BEDD9029BDAB213ABDA
:100BA00011461846FFF768FA034618461FB05DF86D
:100BB00004FB00BFB4410020B141002000B595B056
:100BC000039002910192002313930DE0139BC3F154
:100BD0000F03039A1344197805AA139B13440A467A
:100BE0001A70139B01331393139B0F2BEED905AB94
:100BF00010330D220021184605F0C0FA002312938D
:100C00000DE0029A129B1A44129BC3F10F03127853
:100C100014A90B4403F82C2C129B01331293129B42
:100C2000022BEED905AB1846FFF72EFA00231193DD
:100C30000DE0119BC3F10F020199119B0B4414A904
:100C40000A4412F81C2C1A70119B01331193119B4A
:100C5000022BEED900BF15B05DF804FB00B587B0DC
:100C600001900091019B1B7823F00103DBB2042B60
:100C700001D000231FE0019B591C05AB032218463D
:100C800005F053FA019B191D03AB0322184605F02A
:100C90004CFA009B04AA03A91846FFF78FFF04A98A
:100CA00005AB0322184605F0D4F90346002B0CBF10
:100CB00001230023DBB2184607B05DF804FB90DF88
:100CC000704700BF18469EDF704700BF1846ADDF73
:100CD000704700BF184682B00190019B27221A80FE
:100CE000019B17225A80019B00221A71019B00224E
:100CF0005A71019B2B229A71019B1B22DA7100BF52
:100D000002B0704700B587B003460091ADF80630D9
:100D1000BDF80630009ADB0013441B7B9BB2ADF894
:100D20000C30BDF80630009ADB0013441B7B9BB2ED
:100D3000ADF80E300023ADF810300023ADF81230BE
:100D400003A9BDF8063000221846FFF7B8FF05904A
:100D5000059B002B0AD0074B1B881B0443F00100A6
:100D6000BDF80620059B0449F2F7F3FE00BF07B06B
:100D70005DF804FBC4290020F47E030000B587B0B1
:100D800001900091009B9B88ADF80E30BDF80E30AD
:100D9000DB00019A134406330593019B1A79059BE6
:100DA0009A71009BDB7B012B02D0022B05D009E05E
:100DB000019B1A88059B1A8004E0019B5A88059BB9
:100DC0001A8000BF059B1A88059B5B889A4220D930
:100DD000059B1A88BDF80E3011461846FFF773FFC1
:100DE0000490049B002B03D1059B01225A7110E053
:100DF000049B112B03D1059B01221A7109E00D4BB5
:100E00001B881B0443F00103049A0B491846F2F7B0
:100E10008FFE059B9A79059BDB799A4205D9BDF82F
:100E20000E3001991846FFF76DFF00BF07B05DF85F
:100E300004FB00BFC4290020547F030000B583B029
:100E400001900091009B9B88DB00019A13440633BC
:100E50001846FFF740FF00BF03B05DF804FB00B584
:100E600087B001900091009B9B88ADF81630009BE5
:100E70005B89ADF81430BDF81630DB00019A1344DD
:100E800006330493049B1B88BDF81420934228BFAB
:100E900013469AB2049B5A80049B5B88172B38BF79
:100EA00017239AB2049B5A80019B9B69002B15D093
:100EB000049B5B79002B11D040F67723ADF8083006
:100EC000BDF81630ADF80A30049B5B88ADF80C30E5
:100ED000019B9B6902AA114601989847049B002236
:100EE0005A71049B00221A7100BF07B05DF804FB21
:100EF00000B589B001900091009B9B88ADF81A3035
:100F0000009BDB88ADF81830BDF81A30DB00019A81
:100F1000134406330593BDF81830172B38BF172339
:100F2000ADF81830059B1B88BDF81820934228BFE8
:100F300013469AB2059B5A80059B00221A71059BA5
:100F40001A88BDF81A3011461846FFF7C0FE079000
:100F5000079B002B09D0144B1B881B0443F0010393
:100F6000079A12491846F2F7E3FD059B5B79002BBF
:100F700016D1019B9B69002B13D040F67723ADF867
:100F80000C30BDF81A30ADF80E30059B5B88ADF81B
:100F90001030019B9B6903AA11460198984700E015
:100FA00000BF09B05DF804FBC4290020987F03004E
:100FB00030B593B001900091009B04AC1D1D0FCD86
:100FC0000FC40FCD0FC40FCD0FC42B682360BDF825
:100FD0001030ADF84630BDF81420BDF84630D1B21F
:100FE000019ADB0013440A465A73019B9B69002B4C
:100FF00019D002AB00221A609A804DF67A23ADF820
:101000000830BDF84630ADF80A30BDF84630019AD8
:10101000DB0013445B7B8DF80C30019B9B6902AABB
:1010200011460198984700BF13B030BD00B589B094
:1010300001900091009B04330693069B1B88DB0004
:10104000019A134406330593069B9B888DF8133051
:10105000059B9B799DF81320934228BF13468DF87A
:10106000123002AB00221A605A609DF812309BB217
:10107000ADF808309DF812309BB2ADF80A30069BEF
:101080001B8802A900221846FFF719FE0790079B4C
:10109000002B09D0064B1B881B0443F00103079A61
:1010A00004491846F2F744FD00BF09B05DF804FB9F
:1010B000C4290020DC7F030000B585B001900091B9
:1010C000019B002B01D10E231DE0019B009A9A6128
:1010D000019B27221A80019B27225A80019B2B22E9
:1010E0001A71002303930AE0039BDB00019A134467
:1010F00006331846FFF7EFFD039B01330393039B71
:10110000012BF1D90023184605B05DF804FB00005F
:1011100000B587B001900091009B0593019B9B88CF
:10112000ADF81230BDF81230012B64D8019B1B883A
:10113000232B26D0232B04DC102B09D0112B0CD011
:1011400024E03A2B0ED0552B11D0242B14D01DE0C7
:1011500001990598FFF712FE18E001990598FFF72D
:101160006DFE13E001990598FFF779FE0EE00199F5
:101170000598FFF7BDFE09E001990598FFF718FFF4
:1011800004E001990598FFF751FF00BFBDF8123048
:10119000059ADB0013449B7A002B2DD0BDF812304A
:1011A000059ADB001344DA88BDF812301146184660
:1011B000FFF789FD0390039B002B0ED1BDF8123081
:1011C000059ADB00134400229A72BDF81230059A8A
:1011D000DB0013440122DA720EE0039B112B0BD0CB
:1011E000074B1B881B0443F00103039A054918466B
:1011F000F2F79EFC00E000BF07B05DF804FB00BF03
:10120000C4290020547F030000B585B00190019BE4
:101210004FF6FF725A800023039305E0064B0198B6
:101220009847039B01330393039B002BF6D000BF29
:1012300005B05DF804FB00BFBD1F030082B003468C
:10124000ADF80630BDF80630A3F580439BB21846D2
:1012500002B0704782B00346ADF80630BDF80630E4
:1012600003F580439BB2184602B0704782B0034634
:101270008DF807309DF807309BB2A3F580439BB2F1
:10128000184602B0704782B00346ADF80630BDF88C
:101290000630DBB2184602B0704782B00346ADF8A4
:1012A0000630BDF80630B3F5404F07D3BDF8063021
:1012B0004FF6FF72934201D0012300E0002303F0B8
:1012C0000103DBB2184602B0704782B00346ADF8A6
:1012D0000630BDF80630B3F5404F07D3BDF80630F1
:1012E0004FF6FF72934201D0012300E0002303F088
:1012F0000103DBB2184602B0704782B003468DF896
:1013000007309DF80730072B13D09DF80730012BCD
:101310000FD09DF80730082B0BD09DF80730052B18
:1013200007D09DF80730062B03D09DF80730042B1B
:1013300001D1012300E0002303F00103DBB21846D2
:1013400002B0704700B589B003460091ADF8063091
:1013500003AB00221A605A609A60DA601A610723B0
:101360008DF80C30BDF80630ADF81030009B0593B9
:1013700003AB1846FFF748FF00BF09B05DF804FB58
:1013800000B589B001AB08220021184604F0F6FE32
:101390004FF6FF7001F03CFA0346ADF81E300CE04A
:1013A000BDF81E30184601F085F9BDF81E3018460C
:1013B00001F02EFA0346ADF81E30BDF81E304FF690
:1013C000FF7293420ED0BDF81E301846FFF736FF6D
:1013D0000346184601AA03AB1946F5F7C0FF0346BA
:1013E0000A2BDDD01A4B1B7883F00103DBB2002BF4
:1013F00029D0BDF81E304FF6FF72934223D0144B14
:1014000001221A70BDF81E301846FFF717FF034679
:10141000ADF81C30BDF81C301846F5F70FFF0690EC
:10142000069B082B03D10B4B01221A700BE0069B85
:10143000002B08D0064B00221A70BDF81E3006990A
:101440001846FFF77FFF00BF09B05DF804FB00BF3F
:10145000C6410020C541002000B587B00346009278
:10146000ADF806300B468DF805309DF8053018466E
:10147000FFF743FF02AB08220021184604F07EFE6E
:10148000BDF806301846FFF7D9FE0346ADF8163012
:101490009DF805301846FFF7E9FE0346ADF8143015
:1014A00002ABBDF81410BDF81600009AF5F72EFF38
:1014B0000490049B002B01D0052300E00023184674
:1014C00007B05DF804FB00B589B06B460822002127
:1014D000184604F053FE0720FFF7C8FE0346ADF898
:1014E0001E3016E002AA04AB11461846F5F774FD4B
:1014F000029B9B881846FFF7ADFE0346ADF81C30F3
:1015000004AB1846F5F7A4FDBDF81C30184601F0F1
:1015100099F86A4604A9BDF81E301846F5F70CFF85
:101520000346002BDED000BF09B05DF804FB0000CD
:1015300000B589B0019003AB00221A605A609A602E
:10154000DA601A61019B9B891846FFF783FE034608
:10155000ADF81030019B1B78013B042B7ED801A213
:1015600052F823F07915030079150300791503006B
:10157000F315030045160300019B9B891846FFF7EE
:101580008CFE0346002B07D1019BDB891846FFF731
:101590009CFE0346002B63D0019BDB891846FFF7B6
:1015A00072FE03468DF81430019B1B78032B0CBF91
:1015B00001230023DBB28DF81530019B9B68069355
:1015C000019B5B68002B09D108238DF80C309DF836
:1015D0001C3043F001038DF81C3005E009238DF821
:1015E0000C30019B5B68079303AB1846FFF70CFEBA
:1015F00036E0019B9B891846FFF74FFE0346002B00
:1016000030D0019BDB89002B2CD1019B5B68002B28
:1016100008D10A238DF80C30BDF81030184601F0BF
:1016200049F802E00B238DF80C30154B00221A709C
:10163000144B00221A70FFF7A3FE03AB1846FFF706
:10164000E3FD0FE013238DF80C304FF6FF73ADF878
:10165000103003AB1846FFF7D7FD04E000BF02E0EF
:1016600000BF00E000BF064B1B78002B04D0044BEA
:1016700000221A70FFF784FE00BF09B05DF804FB7A
:10168000C5410020C641002000B583B00E48F5F7E3
:10169000A7FB0190019B002B01D003230FE0F5F77E
:1016A0000DFC0190019B002B01D0862307E000F088
:1016B00061FFFFF708FF054B01221A70002318464F
:1016C00003B05DF804FB00BF31150300C4410020E6
:1016D00000B58DB0029201930346ADF80E300B4673
:1016E0008DF80D30BDF80E30FF2B01D907234DE0EA
:1016F0009DF80D301846FFF700FE034683F0010306
:10170000DBB2002B01D0072340E007AA9DF80D10A3
:10171000BDF80E301846FFF79FFE0B900B9B002B79
:1017200001D0052332E005AA07AB11461846F5F7AC
:1017300053FC0B900B9B002B01D0052326E0029B52
:101740009DF80D209A70059B5A88029B1A80019B78
:10175000002B03D1069A029B5A6012E0029B1B8861
:101760009B000A93019B1B680A9A9A4207D8029B26
:101770005B6806990A9A184604F0D7FC01E0042336
:1017800004E007AB1846F5F763FC002318460DB0DC
:101790005DF804FB08B508220021024804F0EEFCC5
:1017A00000BF08BDC841002000B58DB003460291BE
:1017B00001928DF80F309DF80F301846FFF79DFD10
:1017C000034683F00103DBB2002B01D0012338E094
:1017D0009DF80F301846FFF749FD0346ADF82E304F
:1017E00007A9BDF82E30194A1846F5F7A5FD03469E
:1017F000002B01D0002324E005AA07AB11461846B0
:10180000F5F7EAFB0A900A9B002B01D0002318E0B1
:10181000019B9DF80F209A70059B5A88019B1A80A6
:10182000069A019B5A60059B9B881846FFF712FD9C
:1018300003461A46029B1A8007AB1846F5F708FCC8
:10184000012318460DB05DF804FB00BFC84100201D
:1018500000B585B001900091019B9B781846FFF779
:101860004CFD034683F00103DBB2002B01D00723BC
:1018700016E0019B1B8819460098F5F731FC039090
:10188000039B072B09D0039B092B04D0039B002B40
:1018900005D1002304E0092302E0862300E00323AE
:1018A000184605B05DF804FB00B585B0019001ABAA
:1018B0001846F5F745FC0390039B002B01D003234A
:1018C00000E00023184605B05DF804FB00B58DB0BC
:1018D0000291019200930346ADF80E30BDF80E3030
:1018E000FF2B01D9072382E0029B9B781846FFF764
:1018F00004FD034683F00103DBB2002B01D0072374
:1019000075E0BDF80E301846FFF798FC0346ADF8B9
:101910002030029B9B781846FFF7A8FC0346ADF8E1
:101920002230029B5B680993029B1B880A93029BEF
:10193000997805AABDF80E301846FFF78DFD0B907B
:101940000B9B052B12D1019B002B07D108AA05ABDD
:1019500011461846F5F73AFC0B9015E001AA08A9C4
:1019600005AB1846F5F741FC0B900DE0019B002BF1
:1019700003D001AB1846F5F7E3FB08AA05AB114607
:101980001846F5F747FC0B900B9B0E2B2ED801A2A7
:1019900052F823F0D1190300ED190300ED190300EB
:1019A000ED190300ED190300ED190300ED19030013
:1019B000E9190300E5190300ED190300ED1903000F
:1019C000ED190300ED190300ED190300E5190300FB
:1019D000009B002B04D005AB00991846F5F7D2FC0C
:1019E000002304E0112302E0862300E003231846CD
:1019F0000DB05DF804FB00BF08B54FF6FF7000F0B6
:101A000021FE0346184608BD00B583B00346ADF875
:101A10000630BDF80630FF2B01D9072307E0BDF8DB
:101A20000630184600F020FEFFF7AAFC00231846F7
:101A300003B05DF804FB00B583B00346ADF8063093
:101A4000BDF80630184600F04FFE0346184603B0B6
:101A50005DF804FB00B583B00346ADF80630BDF871
:101A60000630184600F0A0FE0346184603B05DF8A5
:101A700004FB00B583B00346ADF80630BDF8063070
:101A8000184600F0C5FE0346184603B05DF804FB97
:101A900082B00190019B4FF6FF721A80019BFF22DA
:101AA0009A70019BFF225A73019A937B6FF3410353
:101AB0009373019A937B6FF300039373019B00224E
:101AC0001A73019B00225A60019B00229A6000BF9A
:101AD00002B0704784B003460091ADF80630009B19
:101AE0001B68039313E00D4A039B1B0113441B88DF
:101AF000BDF806209A4207D1009B039A1A60039B07
:101B00001B01064A134406E0039B01330393039B26
:101B1000012BE8D90023184604B07047E4410020A7
:101B200000B585B003460A46ADF8063013468DF879
:101B300005300023029302AABDF80630114618466C
:101B4000FFF7C8FF03900AE0029B0133029302AA49
:101B5000BDF8063011461846FFF7BCFF0390039B03
:101B6000002B17D0039B9B789DF805209A42EBD160
:101B7000039B9B7B03F00203DBB2002BE4D1039BAE
:101B80009B7B03F00103DBB2002BDDD1039B9B6841
:101B9000002BD9D1039B184605B05DF804FB00006B
:101BA00084B001900023039310E00C4A039B1B01B7
:101BB000134408331B68019A9A4204D1039B1B010A
:101BC000064A134406E0039B01330393039B012B56
:101BD000EBDD0023184604B0704700BFE44100204D
:101BE00008B5FF214FF6FF70FFF79AFF034618462E
:101BF00008BD000000B585B00190002303930CE000
:101C0000019B5A7B039BDBB21344DBB219460948A4
:101C100001F009FB039B01330393019B1B7B1A46D5
:101C2000039B9342ECD30198FFF732FF00BF05B04E
:101C30005DF804FBD441002000B583B001900B4651
:101C4000ADF8023013468DF80130019B002B13D004
:101C5000FFF7C6FF0246019B1A60019B1B68002B21
:101C60000CD0019B1B68BDF802201A80019B1B68E9
:101C70009DF801209A7002E000BF00E000BF03B0B1
:101C80005DF804FB00B585B001900023039308E0E4
:101C9000074A039B52F8233001989847039B01336E
:101CA0000393039B032BF3D900BF05B05DF804FB3E
:101CB0002480030000B583B00023019309E0019B59
:101CC0001B01074A13441846FFF7E2FE019B01334C
:101CD0000193019B012BF2D900BF03B05DF804FB17
:101CE000E441002086B0039001921A460B468DF81D
:101CF0000B301346ADF80830BDF808301A46920094
:101D000013441B01ADF81630039B9DF80B209A700D
:101D1000039B019A5A60BDF8163003339B109AB2A8
:101D2000039B1A8000BF06B0704700B585B00390D2
:101D3000019200930B468DF80B30009B9BB29DF8EF
:101D40000B10019A0398FFF7CDFF00BF05B05DF8B7
:101D500004FB000082B00190019B9B78013B072BA4
:101D600027D801A252F823F0911D0300B31D0300F0
:101D7000B31D0300B31D0300B31D0300991D030031
:101D8000891D0300A11D0300019B14221A8011E08C
:101D9000019B01221A800DE0019B01221A8009E0BB
:101DA000019B5B689B8809339B089AB2019B1A8050
:101DB00000E000BF00BF02B0704700BF00B587B0B1
:101DC00001900023059302AB00221A605A60019B28
:101DD0009B788DF80A30019B5B7B19463C4801F0EB
:101DE000F0F90490049B002B01D103236BE0019BCD
:101DF0009978019B1B7B02A8049AFFF796FF02AB20
:101E00001846FFF7A7FF019B1888019B5A68019BA2
:101E1000083302A9FFF75AFD0590019B9B7B03F055
:101E20000203DBB2002B0BD0019B9B7B03F0010371
:101E3000DBB2002B04D0274B1B68013B254A136003
:101E4000059B072B3DD0059B072B03D8059B002B3B
:101E500007D033E0059B112B0ED0059B862B1DD0A0
:101E60002CE0019A937B6FF341039373019A937B68
:101E70006FF30003937325E0164B1B680133154A7B
:101E80001360019A937B43F002039373019A937B4F
:101E90006FF3000393730023059313E00D4B1B684E
:101EA00001330C4A1360019A937B6FF341039373E0
:101EB000019A937B43F00103937303E0032305939B
:101EC00000E000BF059B184607B05DF804FB00BFAB
:101ED000D44100200442002000B589B0019001984F
:101EE000FFF76CFF0790079B002B19D04FF6FF738D
:101EF000ADF80A30019B1B88ADF80C30079B862B90
:101F000003D106238DF8083004E007238DF808304C
:101F1000079B049302AB1846FFF7B4FE002300E0D2
:101F20000123184609B05DF804FB000000B585B038
:101F300003468DF807301F4B1B68002B34D000235D
:101F400003932DE01C4A039B1B01134408339B7928
:101F5000C3F34003DBB2002B0ED1174A039B1B01D6
:101F6000134408339B79C3F30003DBB2002B14D076
:101F70009DF80730002B10D0039B1B010E4A134421
:101F80001846FFF7A9FF03468DF80B309DF80B307C
:101F900083F00103DBB2002B08D1039B01330393D1
:101FA000039B012BCED902E000BF00E000BF05B0CB
:101FB0005DF804FB04420020E441002000B585B038
:101FC000019001238DF80F3000238DF80E30019B16
:101FD000DB681846FFF7E4FD0290019B1B78092B94
:101FE0000ED0132B24D0082B26D1019B5B7A002B1B
:101FF00024D1029B002B21D00298FFF7FBFD1DE0AE
:10200000019B5B7A002B1BD1029B002B18D0154B38
:102010001B680133134A1360029B00229A60029AE4
:10202000937B43F00203937300238DF80F3007E096
:1020300001238DF80E3004E000BF02E000BF00E095
:1020400000BF9DF80F30002B02D00198FFF71AFE59
:102050009DF80E301846FFF769FF00BF05B05DF828
:1020600004FB00BF0442002000B587B0FFF722FE4A
:10207000502302930223019301230093094BA022D2
:1020800009490A4800F0FAFF0590059B002B01D092
:10209000032303E0064B01221A700023184607B001
:1020A0005DF804FBA842002008420020D441002033
:1020B000D041002008B5FFF79FFC0346184608BD35
:1020C00000B587B00346ADF8063000230393002324
:1020D00005930023029302AABDF806301146184664
:1020E000FFF7F8FC04901BE0049B9A78BDF80630DB
:1020F0001146184600F028F90390039B002B04D0EA
:10210000039B052B01D003230593029B013302930C
:1021100002AABDF8063011461846FFF7DBFC049012
:10212000049B002BE0D1059B002B10D1BDF806309D
:102130001846FFF769FC0390039B002B07D0039B15
:10214000072B02D10723059301E003230593059B89
:10215000184607B05DF804FB00B583B00346009253
:10216000ADF806300B468DF805309DF80510BDF82A
:1021700006000023009AFFF7ABFA0346184603B0A7
:102180005DF804FB10B588B0029201930346ADF8E8
:102190000E300B468DF80D30019B002B01D10E2324
:1021A000CCE09DF80D30072B05D09DF80D30082BA5
:1021B00001D00723C2E0029B002B0DD0029B022B13
:1021C0000AD8BDF80E301846FFF735FC034683F0F9
:1021D0000103DBB2002B01D00723AFE000238DF811
:1021E0001F3000238DF81E309DF80D20BDF80E30F5
:1021F00011461846FFF794FC03460593059B002BF8
:1022000003D101238DF81E3045E0059B1B7B1A4648
:10221000029B934220D900238DF81D300EE0059BD0
:102220005A7B9DF81D301344DBB21946454800F037
:10223000FAFF9DF81D3001338DF81D30059B1B7B87
:102240009DF81D209A42EAD3059B1846FFF720FC13
:1022500001238DF81E301EE0059B1B7B1A46029B56
:10226000934218D2029B8DF81C300EE0059B5A7BDE
:102270009DF81C301344DBB21946324800F0D3FFFE
:102280009DF81C3001338DF81C30059B1B7B9DF89D
:102290001C209A42EAD39DF81E30002B0CD09DF8EA
:1022A0000D20BDF80E1005AB1846FFF7C5FC059BC9
:1022B000002B01D1112341E0059B5B7BFF2B13D148
:1022C000059C02991F4800F016FF03466373059BA7
:1022D0005B7BFF2B05D1059B1846FFF7D9FB11232C
:1022E0002CE001238DF81F30059B029AD2B21A739D
:1022F000059B5B7B1946134800F063FF0690069B25
:10230000002B01D1032319E0029B9BB29DF80D1015
:10231000069A0198FFF7E6FC9DF81F30002B0CD0C1
:102320009DF80D30082B08D1019B1B889B009AB2A9
:10233000019B5B68063A92B29A800023184608B067
:1023400010BD00BFD441002000B585B003460A4649
:10235000ADF8063013468DF80530002303939DF841
:102360000520BDF8063011461846FFF7D9FB02904C
:10237000029B002B01D1052312E0029B5B68002B1E
:102380000AD0029B5B681846FFF78EFA0390039B06
:10239000002B01D0032303930298FFF72BFC039B30
:1023A000184605B05DF804FB00B589B003460A463F
:1023B000ADF8063013468DF805309DF80530072B33
:1023C00005D09DF80530082B01D0072341E00023FC
:1023D00007939DF80520BDF8063011461846FFF713
:1023E0009FFB0690069B002B01D1052331E0069B45
:1023F0005B68002B2CD1069B5B7B1946174800F0CD
:10240000E0FE059003AB00221A605A609DF805308B
:102410008DF80E30059B002B01D1032319E0069B9C
:102420001B7B9DF8051003A8059AFFF77EFC03AB04
:102430001846FFF78FFC069B1A1D03AB1146184682
:10244000FFF706FA0790079B092B01D1032300E051
:10245000079B184609B05DF804FB00BFD44100207B
:1024600000B585B00346ADF806300B468DF8053053
:102470001346ADF802309DF80530072B05D09DF8C6
:102480000530082B01D0072319E09DF80520BDF881
:10249000063011461846FFF743FB0390039B002BC1
:1024A00001D105230BE0039BBDF802201A80039B9A
:1024B0009DF805209A700398FFF780FC03461846A4
:1024C00005B05DF804FB00B583B00346ADF80630F7
:1024D000BDF806301846FFF7BDFA0346184603B0AC
:1024E0005DF804FB00B583B00346ADF80630BDF8D7
:1024F00006301846FFF7BDFA0346184603B05DF8EC
:1025000004FB00B585B003460092ADF806300B46DB
:102510008DF80530009B1B889B00039303AB9DF84F
:102520000510BDF80600009AFFF7D2F803461846DA
:1025300005B05DF804FB00B585B003460291019239
:10254000ADF80E30BDF80E00019B00220299FFF796
:10255000BDF90346184605B05DF804FB00B583B02D
:10256000019040220021019803F008FE00BF03B053
:102570005DF804FB08B50748FFF7F0FF4FF48071E2
:10258000044800F0B5FE4FF48071034800F0B0FE3F
:1025900000BF08BDAC420020CC42002000B585B091
:1025A00003460091ADF806304FF6FF73ADF80E30DC
:1025B000BDF806304FF6FF72934211D14FF480718F
:1025C000009800F013FF0346ADF80E30BDF80E3052
:1025D000B3F5807F1CD14FF6FF73ADF80E3017E0D6
:1025E000BDF80630FF2B13D8BDF806301946009809
:1025F00000F094FE03468DF80D309DF80D30002B51
:1026000002D0BDF8063001E04FF6FF73ADF80E3092
:10261000BDF80E30184605B05DF804FB00B583B078
:1026200003460091ADF80630BDF80630FF2B05D803
:10263000BDF806301946009800F092FE00BF03B0C6
:102640005DF804FB00B583B00346ADF80630BDF875
:10265000063004491846FFF7A1FF0346184603B0A9
:102660005DF804FBAC42002000B585B00346ADF830
:102670000630BDF806304FF6FF72934201D10023B9
:1026800011E0BDF806300A491846FFF787FF0346F8
:10269000ADF80E30BDF80E20BDF806309A420CBFE2
:1026A00001230023DBB2184605B05DF804FB00BF30
:1026B000CC42002000B583B00346ADF80630BDF82B
:1026C000063007491846FFF7A9FFBDF8063005494F
:1026D0001846FFF7A3FF00BF03B05DF804FB00BF7F
:1026E000AC420020CC42002000B583B00346ADF8D8
:1026F0000630BDF80630FF2B07D8BDF80630194666
:10270000044800F0A9FE034600E00023184603B089
:102710005DF804FBAC42002000B583B00346ADF881
:102720000630BDF80630FF2B07D8BDF80630194635
:10273000044800F091FE034600E00023184603B071
:102740005DF804FBCC42002000B585B00346009143
:10275000ADF80630BDF806304FF6FF72934204D054
:10276000BDF8063001339BB200E00023ADF80E3017
:1027700010E0BDF80E301946009800F06DFE0346DB
:10278000002B02D0BDF80E300AE0BDF80E30013348
:10279000ADF80E30BDF80E30FF2BEAD94FF6FF73BF
:1027A000184605B05DF804FB00B583B00346ADF8EC
:1027B0000630BDF8063015491846FFF7C5FF034639
:1027C000ADF8063016E0BDF806301846FFF7A4FF56
:1027D000034683F00103DBB2002B02D0BDF80630C4
:1027E00010E0BDF8063009491846FFF7ADFF034673
:1027F000ADF80630BDF806304FF6FF729342E2D1D5
:10280000BDF80630184603B05DF804FBAC4200206A
:1028100000B583B00346ADF80630BDF80630044974
:102820001846FFF791FF0346184603B05DF804FB16
:10283000CC42002000B585B001900023039308E04E
:10284000094A039B52F8233001989847039B0133B0
:102850000393064B1B781A46039B9342F0DB00BFA1
:1028600005B05DF804FB00BFFC42002008430020D7
:1028700000B583B0002300220B490C4800F068FB30
:102880000190019B002B02D0019B052B01D101235C
:1028900000E0002303F00103DAB2054B1A7000BF19
:1028A00003B05DF804FB00BFF4420020F8420020B2
:1028B000ED42002000B58FB0019001238DF8373034
:1028C000019B9B881846FDF711FF03461A46019BA2
:1028D0005A80019B1B78083B032B00F2D58001A294
:1028E00052F823F0F528030081290300B7290300DB
:1028F0003D2A0300019B5B7A002B28D16C4B1B689F
:10290000002B10D0019BDA68694B1B689A420AD1F0
:10291000674B00221A60019B9A88664B1A80019BC4
:102920000022DA60B2E0644B1B78002B00F0AE802E
:10293000019B9A885F4B1B889A4240F0A780019BBD
:102940001B7A062B40F0A280FFF792FF9EE0019BCE
:102950005B7A012B40F09A80574B1B78002B00F0DC
:102960009580019B9A88534B1B889A4240F08E8039
:10297000019B1B7A062B40F08980FFF779FF85E0E9
:10298000019B5B7A002B40F08380494B1B68002B36
:102990007ED0019BDA68464B1B689A4278D1444B43
:1029A00000221A60454B1B68013B444A1360019B9F
:1029B0000022DA606CE0424B1B78002B31D04FF6DE
:1029C000FF70FFF780FD03461A464FF6FF739A42E9
:1029D00027D14FF6FF70FFF785FD03461A464FF6E5
:1029E000FF739A421DD1364B00221A7008AB142295
:1029F0000021184603F0C2FB0C238DF820304FF65F
:102A0000FF73ADF824304FF6FF73ADF8223000238A
:102A10008DF837300198FFF70DFF08AB1846FFF728
:102A200009FF254B1B78002B34D0019B9A88214B42
:102A30001B889A422ED1FFF71BFF2BE0204B1B78FF
:102A4000002B29D01E4B00221A7003AB1422002148
:102A5000184603F093FB0D238DF80C304FF6FF73EF
:102A6000ADF810304FF6FF73ADF80E30019B9B6848
:102A7000059300238DF837300198FFF7DBFE03AB99
:102A80001846FFF7D7FE07E000BF06E000BF04E0EE
:102A900000BF02E000BF00E000BF9DF83730002B10
:102AA00002D00198FFF7C6FE00BF0FB05DF804FB2F
:102AB000F0420020F8420020ED420020F4420020C5
:102AC000EE42002000B585B00190019B002B1AD08A
:102AD000019B1B78022B11D1019B1B7A012B0CBF90
:102AE000012300238DF80F30019B5888084B1B7879
:102AF0009DF80F201946FBF739FE00E000BF019852
:102B0000FFF798FE00E000BF05B05DF804FB00BFD2
:102B10000943002000B583B001900198FFF78AFEB9
:102B200000BF03B05DF804FB00B583B00190019BCA
:102B30001B78002B08D1019B5888074B1B7801227A
:102B40001946FBF713FE00E000BF0198FFF772FE85
:102B500000BF03B05DF804FB0943002000B583B05B
:102B6000019000910A4B1B7883F00103DBB2002B2C
:102B700009D10198FDF7C5FB019802F05BF80198B7
:102B8000FCF7FEFF00E000BF03B05DF804FB00BFF0
:102B9000EC420020054B4FF6FF721A80044B0022D6
:102BA0001A60044B18221A7000BF7047F8420020C8
:102BB000F04200200943002000B583B0FEF764FD19
:102BC0000190019B002B01D0032344E0FFF74CFA56
:102BD0000190019B002B01D003233CE001F0FCFF9E
:102BE0000190019B002B01D0032334E001F012F986
:102BF0000190019B002B01D003232CE0FCF77CFF0C
:102C00000190019B002B01D0032324E0FDF7BCF8C9
:102C10000190019B002B01D003231CE0FDF7A8FCD1
:102C20000190019B002B01D0032314E0FFF7B2FFBA
:102C3000FBF74AFD03461A46094B1A70084B1B78EE
:102C4000182B01D1032306E0064B00221A70064B15
:102C500001221A700023184603B05DF804FB00BF80
:102C600009430020ED420020EC42002082B0019098
:102C70000F4B1B7883F00103DBB2002B01D008233C
:102C800013E00C4B1B78022B01D904230DE0094BF8
:102C90001B781946084A019B42F82130054B1B78E6
:102CA0000133DAB2034B1A700023184602B07047A2
:102CB000EC42002008430020FC42002000B585B013
:102CC0000190094B1B7883F00103DBB2002B01D08C
:102CD000082304E0019802F079F80390039B18465A
:102CE00005B05DF804FB00BFEC42002000B585B0E4
:102CF00003460A46ADF8063013468DF805300B4BF7
:102D00001B7883F00103DBB2002B01D0082309E01C
:102D10009DF80520BDF806301146184602F094F8DB
:102D20000390039B184605B05DF804FBEC420020BD
:102D300000B583B003460091ADF80630009B002B30
:102D400005D0BDF806300099184602F06DF800BFB6
:102D500003B05DF804FB000008B5064B1B7883F058
:102D60000103DBB2002B02D1FCF76EFF00E000BFD5
:102D700008BD00BFEC42002000B583B00190009177
:102D8000084B1B7883F00103DBB2002B01D0082332
:102D900004E000990198FDF7AFFE0346184603B022
:102DA0005DF804FBEC42002000B585B00390029171
:102DB00001920093134B1B7883F00103DBB2002BCD
:102DC00001D008231AE0039B002B02D1019B002BAA
:102DD0000BD0039B002B02D0029B002B05D0019B44
:102DE000002B04D0009B002B01D10E2306E0009B9A
:102DF000019A02990398FDF741FE0346184605B073
:102E00005DF804FBEC42002000B583B00190009116
:102E1000084B1B7883F00103DBB2002B01D00823A1
:102E200004E000990198FDF7A2FD0346184603B09F
:102E30005DF804FBEC42002000B583B00346ADF81A
:102E400006300A4B1B7883F00103DBB2002B02D063
:102E50004FF6FF7305E0BDF806301846FFF733FB69
:102E60000346184603B05DF804FB00BFEC420020A7
:102E700000B583B00346ADF80630094B1B7883F0EC
:102E80000103DBB2002B01D0082305E0BDF80630BA
:102E90001846FDF7AEFC0346184603B05DF804FB88
:102EA000EC42002000B589B0274B1B7883F001036A
:102EB000DBB2002B01D0082342E0244B01221A7020
:102EC0004FF6FF70FFF7FFFA0346ADF81E30BDF86E
:102ED0001E304FF6FF7293422BD11C4B00221A700A
:102EE00001AB14220021184603F048F90C238DF899
:102EF00004304FF6FF73ADF808304FF6FF73ADF8AE
:102F0000063001AB1846FFF795FC12E0BDF81E3005
:102F10001846FFF7ADFF0690069B002B01D0032358
:102F20000EE0BDF81E301846FFF7CDFA0346ADF8A7
:102F30001E30BDF81E304FF6FF729342E6D10023DB
:102F4000184609B05DF804FBEC420020EE42002078
:102F500000B58DB00390029101920093464B1B780F
:102F600083F00103DBB2002B01D0082380E04FF691
:102F7000FF70FFF7A8FA0346ADF82E300023069342
:102F800004AB00221A605A600123ADF8103006AB82
:102F9000059304AABDF82E3006211846FFF7B1FAB2
:102FA0000A90002309934FF0FF3308934FF6FF7305
:102FB000ADF81E304FF6FF73ADF81C300A9B072B9F
:102FC0002AD1052354E00A9B052B01D10023069347
:102FD000069B099A9A4205D8069B0993BDF82E30A4
:102FE000ADF81E30069B089A9A4205D9069B0893B5
:102FF000BDF82E30ADF81C30BDF82E301846FFF766
:1030000062FA0346ADF82E3004AABDF82E30062130
:103010001846FFF776FA0A900A9B002BD3D00A9B3A
:10302000052BD0D0BDF82E304FF6FF7293421CD145
:1030300000230A93039B002B03D0039BBDF81E20A3
:103040001A80029B002B02D0029B099A1A60019BF6
:10305000002B03D0019BBDF81C201A80009B002B85
:1030600005D0009B089A1A6001E003230A930A9B8B
:1030700018460DB05DF804FBEC42002000B585B0A9
:103080000390029101920093039B002B2ED0029B90
:10309000002B2BD0009B002B28D0079B089A02FB0B
:1030A00003F3019A9A4221D3079B0733DB08069A60
:1030B0009A421BD3079B002B18D0089B002B15D0DE
:1030C000039B029A1A60039B009A5A60039B079A1B
:1030D0009A60039B089ADA60039B5B68079A92B236
:1030E0001146184600F004F9002300E007231846B3
:1030F00005B05DF804FB00B585B001900091019B1F
:10310000002B07D0019B1B68002B03D0019B5B6841
:10311000002B01D1FF2350E0FF238DF80F30002357
:103120008DF80E3042E0019B5B689DF80E2092B254
:103130001146184600F0F2F80346002B14D09DF813
:103140000F30FF2B03D19DF80E308DF80F309DF816
:103150000E209DF80F30D31A01331A46009B93427C
:103160001FD19DF80F3028E09DF80F30FF2B18D0AD
:103170009DF80F308DF80D300AE09DF80D3019469E
:10318000019800F050F89DF80D3001338DF80D30A6
:103190009DF80D209DF80E309A42EED3FF238DF856
:1031A0000F309DF80E3001338DF80E309DF80E2053
:1031B000019B9B689A42B6D3FF23184605B05DF881
:1031C00004FB00B583B001900B468DF80330019BE2
:1031D000002B07D0019B1B68002B03D0019B5B6871
:1031E000002B01D100231AE09DF80330FF2B15D0EE
:1031F000019B5B689DF8032092B21146184600F0CF
:103200002BF90346002B09D0019B1A689DF8033067
:103210000199C96801FB03F3134400E00023184639
:1032200003B05DF804FB00B583B001900B468DF848
:103230000330019B002B20D0019B1B68002B1CD06E
:10324000019B5B68002B18D09DF80330FF2B14D036
:10325000019B5B689DF8032092B21146184600F06E
:10326000FBF80346002B08D0019B5B689DF8032008
:1032700092B21146184600F073F800BF03B05DF833
:1032800004FB00B585B001900B468DF80330002398
:103290008DF80F30019B1A789DF803301340DBB294
:1032A000002B1FD100238DF80E300DF10E031846B0
:1032B000F2F748F9019B1A789DF803301340DBB20E
:1032C000002B0AD1019B1A789DF803301343DAB220
:1032D000019B1A7001238DF80F309DF80E301846AF
:1032E000F2F746F99DF80F30184605B05DF804FB7B
:1032F00000B583B001900B46ADF80230019B002B66
:1033000008D0BDF802300733DB101A4600210198BF
:1033100002F034FF00BF03B05DF804FB00B583B0DA
:1033200001900B46ADF80230019B002B13D0BDF885
:103330000230DB089BB21A46019B9818BDF8023098
:1033400003F00703012202FA03F3DBB21946FFF789
:1033500098FF034600E00023184603B05DF804FB25
:1033600000B585B001900B46ADF80230BDF80230D3
:10337000DB089BB28DF80F30BDF8023003F0070375
:10338000012202FA03F38DF80E30019B002B29D0A5
:103390009DF80F30019A13441A789DF80E301340AF
:1033A000DBB2002B1ED000238DF80D300DF10D0384
:1033B0001846F2F7C7F89DF80F30019A13441B78AE
:1033C0005AB29DF90E30DB435BB2134059B29DF8FF
:1033D0000F30019A1344CAB21A709DF80D30184686
:1033E000F2F7C6F800BF05B05DF804FB00B585B084
:1033F00001900B46ADF80230019B002B26D0002334
:10340000ADF80E301CE0BDF80E30DB089BB21A465A
:10341000019B9818BDF80E3003F00703012202FA51
:1034200003F3DBB21946FFF72CFF0346002B02D053
:10343000BDF80E300CE0BDF80E300133ADF80E30A3
:10344000BDF80E20BDF802309A42DCD3BDF8023040
:10345000184605B05DF804FB82B001900B46ADF84C
:103460000230019B002B16D0BDF80230DB089BB266
:103470001A46019B13441B781946BDF8023003F02D
:103480000703012202FA03F30B40002B14BF0123B0
:103490000023DBB200E00123184602B070477EDF54
:1034A000704700BF18467FDF704700BF184685DFB2
:1034B000704700BF184686DF704700BF18460000FF
:1034C00000B583B00346ADF80630064B1A78BDF858
:1034D000063011461846FBF71FF90346184603B09D
:1034E0005DF804FB602D002000B583B00346ADF805
:1034F0000630064B1A78BDF8063011461846FBF721
:103500000BF90346184603B05DF804FB612D00205B
:1035100000B583B00346ADF80630064B1A78BDF807
:10352000063011461846FBF7F7F80346184603B075
:103530005DF804FB622D002000B583B00346ADF8B2
:103540000630064B1A78BDF8063011461846FBF7D0
:10355000E3F80346184603B05DF804FB632D002032
:1035600000B583B00346ADF80630064B1A78BDF8B7
:10357000063011461846FBF7CFF80346184603B04D
:103580005DF804FB642D002000B585B00190019B1F
:103590005B881846FDF706F803461A46019B9A8099
:1035A0000023039305E0064B01989847039B0133E2
:1035B0000393039B002BF6D000BF05B05DF804FB1E
:1035C000D949030000B589B003460A46ADF8063074
:1035D00013468DF8053003AB00221A605A609A60DA
:1035E000DA601A6101238DF80C30BDF80630ADF8B1
:1035F0000E309DF805308DF8143003AB1846FFF7F8
:10360000C3FF00BF09B05DF804FB00B589B00346F5
:103610000091ADF8063003AB00221A605A609A6040
:10362000DA601A6107238DF80C30BDF80630ADF86A
:103630000E30009B059303AB1846FFF7A5FF00BFB4
:1036400009B05DF804FB000010B588B004460846D8
:1036500011461A462346ADF8063003468DF805306C
:103660000B46ADF8023013468DF8043003AB002250
:103670001A605A609A60DA601A6103238DF80C3080
:10368000BDF80630ADF80E309DF805308DF81430D9
:10369000BDF80230ADF816309DF804308DF81830C2
:1036A000074B1978BDF8063000221846FBF75EF884
:1036B00003AB1846FFF768FF00BF08B010BD00BF9E
:1036C000602D002000B585B00346ADF806300B46EE
:1036D000ADF8043013468DF8033000230393BDF892
:1036E00006301846FCF75EFF0346ADF80A30BDF819
:1036F00006301846FFF70CFF0346002B01D00123CC
:1037000000E002238DF80930BDF806301846FFF7B7
:1037100013FF0346002B06D0BDF80A301846FDF70C
:1037200068F8039018E0BDF80A304FF6FF72934234
:1037300012D0BDF80A3007211846FEF705FE0390A7
:10374000039B002B08D0039B052B05D0BDF806304A
:1037500003991846FFF759FF9DF80330BDF8042080
:103760009DF80910BDF80600FFF76EFF00BF05B019
:103770005DF804FB00B583B00346ADF806300B4698
:10378000ADF8043013468DF803309DF80330BDF8D2
:103790000420BDF806000021FFF756FF00BF03B06C
:1037A0005DF804FB00B583B00346ADF806300B4668
:1037B000ADF8043013468DF80330BDF806301846D6
:1037C000FFF77EFE0346002B1AD0BDF806301846E0
:1037D000FFF78AFE0346002B09D09DF80320BDF8B1
:1037E0000410BDF806301846FFF76CFF08E09DF89E
:1037F0000320BDF80410BDF806301846FFF7BAFFE5
:1038000000BF03B05DF804FB00B583B00346ADF81C
:1038100006300B468DF8053013468DF804301E4BEC
:1038200019789DF80520BDF806301846FAF79EFF76
:103830009DF80530002B2BD0184B19789DF80430DB
:10384000002B14BF01230023DAB2BDF8063018465E
:10385000FAF78CFF124B19789DF80430012B0CBF3E
:1038600001230023DAB2BDF806301846FAF77EFFCE
:103870000C4B1978BDF8063000221846FAF776FF8F
:103880009DF80420BDF8063011461846FFF79AFE51
:1038900000BF03B05DF804FB602D0020612D002007
:1038A000622D0020632D002010B584B00446084628
:1038B00011461A462346ADF806300346ADF80430EB
:1038C0000B468DF8033013468DF802309DF8033017
:1038D000002B14D09DF80230002B1AD00E4B197813
:1038E000BDF8063001221846FAF740FFBDF8042063
:1038F000BDF8063011461846FCF766FF09E09DF852
:103900000230002B05D0BDF804301846FCF771FFDB
:10391000039000BF04B010BD632D002000B589B036
:10392000019000230793019B0C331846FCF7B3FE6C
:103930000346ADF81A30BDF81A304FF6FF729342C5
:1039400008D1019B1B881846FCF72CFE0346ADF8F6
:103950001A3007E0019B1B88BDF81A201146184653
:10396000FCF732FF019B1B88002201211846FFF75C
:103970004BFFBDF81A304FF6FF72934222D002AAD5
:10398000BDF81A3007211846FEF7E6FB0590059BA7
:10399000002B17D1039B34330493049B1B7C03F04F
:1039A0000103DBB2002B0BD1049B03F11202019B3C
:1039B0000C3319461046FCF745FE0346002B01D098
:1039C000049B0793019B1888002300220799FFF7A7
:1039D00072FD0590059B002B0ED0019B1888BDF849
:1039E0001A1000230022FFF75FFF019B1B88059937
:1039F0001846FFF70AFE13E0079B002B10D1019B2E
:103A00001888BDF81A1000230022FFF74DFF019B14
:103A10001B88002241F206011846FFF7ABFE00BFEB
:103A200000BF09B05DF804FB00B589B00346ADF8EE
:103A3000063003AB14220021184602F09FFB04233A
:103A40008DF80C30BDF80630ADF80E3003AB1846DB
:103A5000FFF79AFD00BF09B05DF804FB00B583B025
:103A600003460091ADF80630064B1978009B1A7892
:103A7000BDF806301846FAF779FE00BF03B05DF8CE
:103A800004FB00BF642D002000B585B00190019BB0
:103A90001B793D2B02D141F23D0301E04FF48853E5
:103AA000ADF80E30019B1B88BDF80E1000221846A1
:103AB000FFF778FE00BF05B05DF804FB00B589B0E4
:103AC00003460091ADF8063003AB00221A605A603D
:103AD0009A60DA601A6105238DF80C30BDF8063063
:103AE000ADF80E30009B059303AB1846FFF74CFD75
:103AF00000BF09B05DF804FB00B583B00190019BE5
:103B00001B881846FAF778FD0346012B0FD1019B5D
:103B10001888019B1B7903F00103DBB2002B01D055
:103B2000012300E002231A460121FFF76DFE019BED
:103B30001A88019B043319461046FFF7BFFF00BFE8
:103B400003B05DF804FB000000B591B001900023C4
:103B50000D93019B1B88ADF83230BDF8323018460A
:103B6000FAF74AFD03468DF83130BDF83230184679
:103B7000FCF718FD0346ADF82E30BDF82E30ADF839
:103B80003E3000238DF83D30634B1978BDF832305C
:103B900000221846FAF7EAFD9DF83130002B00F0BC
:103BA000B680019B5B7903F00403DBB2002B00F0CD
:103BB00083804FF6FF73ADF83A3001238DF83D3026
:103BC00007ABBDF82E0001220721FEF7DBFA0D90AE
:103BD0000D9B002B09D0BDF832300D991846FFF728
:103BE00014FD00238DF83D3008E0089B4FF6FF716F
:103BF0001846FCF793FC0346ADF83A30BDF83A306E
:103C00004FF6FF72934229D0BDF83A30ADF83E30FE
:103C1000BDF83E20BDF8323011461846FCF7D4FD01
:103C2000BDF832301846FFF79BFC034683F00103D2
:103C3000DBB2002B12D0BDF832301846FFF7F4FE8D
:103C4000BDF832301846FFF78BFC034683F00103C2
:103C5000DBB2002B02D000238DF83D309DF83D30C3
:103C6000002B14D0BDF83E20BDF82E300721184699
:103C7000FEF7F6FB0D900D9B002B08D0BDF83230FF
:103C80000D991846FFF7C1FC00238DF83D30BDF8B3
:103C90003A304FF6FF7293421CD0BDF832301846CE
:103CA000FFF74AFC0346002B14D0BDF82E3018460F
:103CB000FCF79FFD0A900DE0BDF832301846FFF783
:103CC0003BFC0346002B05D0BDF82E301846FCF710
:103CD00090FD099002238DF80830BDF83230ADF820
:103CE0000A30019B5B7903F00403DBB2002B01D0A7
:103CF000012300E002238DF810309DF83D308DF84F
:103D0000113002AB1846FFF73FFC00BF00E000BFD8
:103D100011B05DF804FB00BF602D002000B583B03A
:103D20000190019B1888019B1B7999B2019B5B79DB
:103D3000C3F30103DBB21A46FFF734FD00BF03B043
:103D40005DF804FB00B583B00190019B1B79002B4B
:103D500003D10198FFF7F8FE03E00198FFF7DEFFBB
:103D600000BF00BF03B05DF804FB000000B589B0E0
:103D70000190019B1B881846FFF7B6FB034683F0B2
:103D80000103DBB2002B2CD0019B1B881846FAF7ED
:103D900065FC034683F00103DBB2002B08D0019BD6
:103DA0001B88012241F206011846FFF7E3FC18E0E8
:103DB000019B18880D4B1B7800221946FAF7D6FC98
:103DC00002238DF80C30019B1B88ADF80E300023C8
:103DD0008DF8143000238DF8153003AB1846FFF72B
:103DE000D3FB00BF09B05DF804FB00BF602D0020CD
:103DF00000B583B00190019B1B78182B05D1FAF711
:103E000063FC03461A46019B1A7000BF03B05DF8BD
:103E100004FB000008B51548FFF7EAFF1448FFF758
:103E2000E7FF1448FFF7E4FF1348FFF7E1FF1348EB
:103E3000FFF7DEFF0D4B1B78182B0FD00C4B1B78B8
:103E4000182B0BD00B4B1B78182B07D00A4B1B7869
:103E5000182B03D0094B1B78182B01D1032303E047
:103E6000074B01221A700023184608BD602D002060
:103E7000612D0020622D0020632D0020642D002084
:103E80000A43002000B589B001930346ADF80E3017
:103E90000B46ADF80C3013468DF80B300A9B002B07
:103EA00001D103234AE005ABBDF80C000122072134
:103EB000FEF768F90790079B112B3ED0079B002B5C
:103EC00002D00323079338E0069B502200211846B6
:103ED00002F054F9069B9DF80B201A70069B03F123
:103EE00034020A9B1A600A9B019ADA60069B03F16E
:103EF00018020A9B1A61069B5A1C0A9B5A610A9B6C
:103F0000104ADA61069B03F11102BDF80E3011462A
:103F10001846FCF76BFB0790079B002B01D003238F
:103F20000CE0BDF80C3007211846FEF73DFA07906B
:103F3000079B052B01D1032300E0079B184609B01E
:103F40005DF804FB0C43002000B593B003460491D8
:103F50000392ADF81630BDF816301846FAF74CFB50
:103F600003468DF83D304FF6FF73ADF84630002321
:103F7000109300238DF83F30BDF816301846FFF738
:103F8000DBFA03468DF83E3007AB202200211846AD
:103F900002F0F4F89DF83D30012B07D1554B19780C
:103FA000BDF8163000221846FAF7E0FB9DF83D30C8
:103FB000002B02D143F2020397E0049B002B03D1B4
:103FC00085238DF83F3060E0049B1B7803F00103EC
:103FD000DBB2002B04D1039B0A93474B0E9354E0B2
:103FE000BDF816301846FCF7DDFA0346ADF846304A
:103FF000BDF846304FF6FF72934211D1FEF75AF8E2
:104000000346ADF84630BDF846304FF6FF72934296
:1040100003D001238DF83E3024E00323109321E0E8
:104020009DF83D30012B1DD1BDF816301846FFF725
:1040300097FA034683F00103DBB2002B12D0BDF8E0
:1040400016301846FFF7F0FCBDF816301846FFF79B
:1040500087FA034683F00103DBB2002B02D08523ED
:104060008DF83F309DF83F30852B0ED0109B002BF4
:104070000BD19DF83D20BDF84610BDF8160007ABEA
:104080000093039BFFF7FEFE1090109B002B16D1B0
:104090009DF83D30012B09D107AB9DF83F10BDF8CD
:1040A0001600049AFFF7FFF9109008E007AB9DF89F
:1040B0003F10BDF816000022FFF7F5F91090109B95
:1040C000002B05D19DF83F30002B01D1012300E0EA
:1040D000002303F00103DAB29DF83E30BDF846102C
:1040E000BDF81600FFF7E0FB109B184613B05DF813
:1040F00004FB00BF642D00200C43002000B589B0F4
:1041000003460A46ADF806301346ADF804300023E6
:10411000069300238DF8173003AABDF80430072159
:104120001846FEF719F80790079B002B15D1049B42
:1041300018330693049B93F84430C3F30003DBB2B7
:10414000002B14BF012300238DF817309DF8173082
:10415000002B02D0049B34330693079B002B08D01E
:10416000079B052B05D0079B112B27D00323079313
:1041700024E0069B002B02D1112307931EE09DF83B
:10418000173083F00103DBB2002B0DD0069B1233F6
:104190001846FCF7D5FA034683F00103DBB2002B87
:1041A00002D00B23079309E0069B03F11201069A44
:1041B000BDF806301846FFF77AF90790079B002BE9
:1041C0000CBF01230023D9B2BDF8063000221846E7
:1041D000FFF71AFB079B002B0CBF01230023DAB269
:1041E000BDF80410BDF806000023FFF75DFB079B38
:1041F000184609B05DF804FB00B589B0034600928B
:10420000ADF806300B46ADF8043002238DF81F30B0
:1042100000238DF81E3000230693009B002B07D14E
:10422000BDF8063000211846FFF739F906904EE038
:10423000009B1B7803F00103DBB2002B2BD0012382
:104240008DF81F30BDF804304FF6FF72934207D14E
:10425000FDF730FF0346ADF8043001238DF81E3022
:10426000BDF804304FF6FF72934202D10323069348
:1042700011E003ABBDF8040001220721FDF782FF26
:104280000690069B002B06D1BDF804300721184686
:10429000FEF78AF80690069B002B06D1BDF8063083
:1042A00000991846FFF7FBF80690069B002B0ED0EE
:1042B000BDF8043007211846FEF746F80590059B27
:1042C000002B04D0059B052B01D003230693069BEE
:1042D000042B01D111230693069B002B0CBF012355
:1042E0000023D9B29DF81F20BDF806301846FFF70D
:1042F0008BFA069B002B0CBF01230023DAB29DF83A
:104300001E30BDF80410BDF80600FFF7CDFA069B7D
:10431000184609B05DF804FB00B585B0034600916E
:10432000ADF8063013468DF80530009B002B07D101
:10433000BDF8063000211846FFF7B1F8034631E01A
:104340001A4B19789DF80520BDF806301846FAF783
:104350000DFABDF806301846FCF724F90346ADF80F
:104360000A30BDF80A304FF6FF72934210D09DF824
:10437000053083F00103DBB2002B09D0BDF80A2021
:10438000BDF8063011461846FFF7B8FE039008E066
:10439000BDF80A10BDF80630009A1846FFF72CFF4A
:1043A0000390039B184605B05DF804FB642D0020C4
:1043B00000B589B0019003AB00221A605A609A6080
:1043C000DA601A6112238DF80C30019B1B88ADF85E
:1043D0000E30019B1B79C3F30003DBB2002B14BF2B
:1043E00001230023DBB28DF81430019B1B79C3F34A
:1043F0004003DBB2002B14BF01230023DBB28DF896
:10440000153003AB1846FFF7BFF800BF09B05DF8E1
:1044100004FB00B585B003460091ADF806300023DB
:104420000393009B002B06D0BDF806300099184678
:10443000FFF735F80390039B184605B05DF804FBC1
:1044400000B585B003460091ADF8063013468DF8EF
:104450000530BDF806301846FAF7CEF803468DF859
:104460000F309DF80F30012B0BD0022B11D19DF88E
:104470000520BDF8063000991846FFF74DFF0346AA
:1044800009E0BDF8063000991846FFF7C2FF034661
:1044900001E043F20203184605B05DF804FB00009A
:1044A00000B583B00190019B1B88113B0D2B43D8B5
:1044B00001A252F823F000BFF14403003945030084
:1044C000FD44030009450300394503003945030055
:1044D0003945030039450300214503002D450300FC
:1044E00039450300394503003945030015450300EC
:1044F000019B04331846FFF7C7FA1DE0019B043304
:104500001846FFF7F9FA17E0019B04331846FFF746
:1045100005FA11E0019B04331846FFF749FF0BE051
:10452000019B04331846FFF70DFC05E0019B0433A3
:104530001846FFF71BFC00BF00BF03B05DF804FB8B
:1045400082B00190019B002B14BF01230023DBB23A
:10455000184602B07047000000B585B001900023F6
:10456000039305E0064B01989847039B013303939F
:10457000039B002BF6D000BF05B05DF804FB00BF25
:10458000C52A030000B585B003460091ADF806309A
:1045900013468DF8053000238DF80F3000238DF879
:1045A0000E30009B862B06D100238DF80E300123A0
:1045B0008DF80F300FE0009B112B06D101238DF8F1
:1045C0000E3000238DF80F3005E000238DF80E30FB
:1045D00000238DF80F309DF80530002B22D01C4BA6
:1045E00019789DF80F20BDF806301846FAF7BEF886
:1045F000184B19789DF80E20BDF806301846FAF7CA
:10460000B5F8154B1978BDF8063000221846FAF7B0
:10461000ADF8124B1978BDF8063000221846FAF7AB
:10462000A5F811E00C4B19789DF80F20BDF8063065
:104630001846FAF79BF8094B19789DF80E20BDF83B
:1046400006301846FAF792F800BF05B05DF804FB93
:104650006A2D0020692D0020662D0020652D002088
:1046600000B58BB0034602910192ADF80E30029B6B
:10467000002B45D0029B112B42D0029B082B3FD030
:1046800005AB00221A605A609A60DA601A61BDF8C0
:104690000E30ADF81630BDF80E301846FBF782FF2D
:1046A0000346ADF81830029B0D2B19D103238DF86A
:1046B0001430019B002B08D0019B1B7803F00103F1
:1046C000DBB2002B01D0012300E002238DF81C3067
:1046D00000238DF8203041F20113ADF81E300BE0BD
:1046E000029B862B03D106238DF8143004E00723A8
:1046F0008DF81430029B079305AB1846FFF72CFF8B
:1047000000BF0BB05DF804FB00B58BB0034602910F
:104710000192ADF80E3005238DF81430BDF80E303F
:10472000ADF81630BDF80E301846FBF73BFF0346D8
:10473000ADF81830029B0793019B089305AB184610
:10474000FFF70AFF00BF0BB05DF804FB10B487B0A1
:10475000019003AB00221A605A609A60074B1B68F5
:104760000393019B1C4603AB93E8070084E8070012
:10477000019807B05DF8044B704700BF5843002014
:1047800010B588B00446084611461A462346ADF8CF
:10479000063003468DF805300B468DF8043013467D
:1047A0008DF803309DF80530002B02D000230693CE
:1047B0001CE002AB1846FFF7C9FF02AABDF806309D
:1047C00000211846FFF7A0FF029B0693394B1B7888
:1047D00083F00103DBB2002B08D09DF8113083F089
:1047E0000103DBB2002B01D0052360E09DF804201B
:1047F000BDF8063006991846FFF722FE0590BDF871
:104800000630002205991846FFF7BCFE059B0D2BCC
:104810003BD0059B0D2B06D8059B002B35D0059B67
:10482000082B32D034E0059B862B1CD0059B43F22D
:104830000202934229D0059B112B29D11E4B1978D6
:104840009DF80520BDF806301846F9F78FFF1B4B81
:1048500019789DF80420BDF806301846F9F786FF50
:104860000023079317E0144B19789DF80520BDF835
:1048700006301846F9F77AFF104B19789DF8042096
:10488000BDF806301846F9F771FF059B079302E063
:104890000323079300BF9DF80330002B06D0BDF81B
:1048A0000630069A05991846FFF7DAFE079B184668
:1048B00008B010BD5C430020682D0020672D00204B
:1048C00000B587B003460091ADF8063002AB18463C
:1048D000FFF73CFF02AABDF8063000991846FFF723
:1048E00013FF02990C4B1A68BDF806301846FFF703
:1048F0002BFB0590BDF80630012205991846FFF7FD
:1049000041FE029ABDF8063005991846FFF7A8FE49
:1049100000BF07B05DF804FB6043002000B583B022
:104920000190019B5A88019B9B6819461046FFF72E
:10493000C7FF00BF03B05DF804FB000000B585B001
:10494000019000238DF80F301C4B1B68002B03D106
:1049500001238DF80F3024E0194B1B7803F001037D
:10496000DBB2002B14BF01230023DBB21A46019BEC
:104970001B7A9A4203DA01238DF80F3011E0104BB5
:104980001B7803F00203DBB2002B14BF01230023CA
:10499000DBB21A46019B5B7A9A4202DA01238DF858
:1049A0000F30019B58889DF80F1001230022FFF75C
:1049B000E7FE029000BF05B05DF804FB58430020FD
:1049C0005043002000B583B001900198FFF7C4FD6B
:1049D00000BF03B05DF804FB00B583B00190019BFC
:1049E0001B78052B02D0122B04D006E00198FFF7AC
:1049F00095FF06E00198FFF7A1FF0198FFF7E2FF9E
:104A000000BF00BF03B05DF804FB000000B599B023
:104A100003468DF807309DF807301846F9F7D0FEA9
:104A200016901698FFF78CFD0346002B4CD003AB75
:104A30001846F9F737FE0023179341E0179B5B00F8
:104A400018AA134433F8503C9DF807201146184625
:104A5000F9F762FE03468DF857309DF85730002B6A
:104A60002BD0179B5B0018AA134433F8502C184B1B
:104A70001B7819461046F9F74FFE03468DF856305D
:104A8000179B5B0018AA134433F8502C114B1B786A
:104A900019461046F9F740FE03468DF85530179B2E
:104AA0005B0018AA134433F8500C9DF856209DF86B
:104AB00055100123FFF764FE1490179B01331793E1
:104AC000039B179A9A42B9D300BF19B05DF804FB53
:104AD000672D0020682D002000B597B003468DF8A3
:104AE00007309DF807301846F9F76AFE14901498BD
:104AF000FFF726FD0346002B2AD002AB1846F9F734
:104B0000D1FD002315931FE0159B5B0016AA1344EB
:104B100033F84C3C9DF8072011461846F9F7FCFD88
:104B200003468DF84F309DF84F30002B09D0159B70
:104B30005B0016AA134433F84C3C00211846FFF7DB
:104B4000BFFE159B01331593029B159A9A42DBD346
:104B500000BF17B05DF804FB00B583B00190019B66
:104B60001B78082B18DB0B2B0BDD132B14D10D4BF3
:104B70001B781846FFF7B0FF0B4B1B781846FFF762
:104B800045FF0A4B1B781846FFF7A6FF084B1B781A
:104B90001846FFF73BFF00E000BF00BF03B05DF821
:104BA00004FB00BF6A2D0020662D0020692D002027
:104BB000652D002000B583B00190019B1B78182B58
:104BC00005D1F9F781FD03461A46019B1A7000BF13
:104BD00003B05DF804FB000008B50F48FFF7EAFFDB
:104BE0000E48FFF7E7FF0E48FFF7E4FF0D48FFF719
:104BF000E1FF0D48FFF7DEFF0C48FFF7DBFF0B4B33
